{"contracts/Mucha.sol":{"MuchaNFT":{"abi":[{"anonymous":false,"inputs":[{"indexed":true,"internalType":"uint256","name":"tokenID","type":"uint256"},{"indexed":true,"internalType":"uint256","name":"bidAmount","type":"uint256"},{"indexed":false,"internalType":"bytes","name":"bidData","type":"bytes"}],"name":"NewBid","type":"event"},{"anonymous":false,"inputs":[{"indexed":true,"internalType":"address","name":"previousOwner","type":"address"},{"indexed":true,"internalType":"address","name":"newOwner","type":"address"}],"name":"OwnershipTransferred","type":"event"},{"anonymous":false,"inputs":[{"indexed":false,"internalType":"address","name":"minter","type":"address"},{"indexed":false,"internalType":"bool","name":"status","type":"bool"}],"name":"SetMinterRole","type":"event"},{"anonymous":false,"inputs":[{"indexed":true,"internalType":"uint256","name":"tokenID","type":"uint256"},{"indexed":true,"internalType":"address","name":"new_owner","type":"address"},{"indexed":true,"internalType":"address","name":"previous_owner","type":"address"},{"indexed":false,"internalType":"uint256","name":"priceInWEI","type":"uint256"}],"name":"TokenTrade","type":"event"},{"anonymous":false,"inputs":[{"indexed":true,"internalType":"address","name":"from","type":"address"},{"indexed":true,"internalType":"address","name":"to","type":"address"},{"indexed":true,"internalType":"uint256","name":"tokenId","type":"uint256"}],"name":"Transfer","type":"event"},{"anonymous":false,"inputs":[{"indexed":false,"internalType":"bytes","name":"data","type":"bytes"}],"name":"TransferData","type":"event"},{"inputs":[{"internalType":"uint256","name":"_classID","type":"uint256"}],"name":"addClassProperty","outputs":[],"stateMutability":"nonpayable","type":"function"},{"inputs":[{"internalType":"uint32","name":"_feeLevel","type":"uint32"},{"internalType":"string","name":"_property","type":"string"}],"name":"addNewTokenClass","outputs":[],"stateMutability":"nonpayable","type":"function"},{"inputs":[{"internalType":"uint256","name":"_tokenId","type":"uint256"},{"internalType":"string","name":"_content","type":"string"}],"name":"addPropertyWithContent","outputs":[],"stateMutability":"nonpayable","type":"function"},{"inputs":[{"internalType":"uint256","name":"_propertiesCount","type":"uint256"},{"internalType":"uint256","name":"classId","type":"uint256"}],"name":"addTokenClassProperties","outputs":[],"stateMutability":"nonpayable","type":"function"},{"inputs":[{"internalType":"uint256","name":"_classID","type":"uint256"},{"internalType":"uint256","name":"_propertyID","type":"uint256"},{"internalType":"string","name":"_content","type":"string"}],"name":"appendClassProperty","outputs":[],"stateMutability":"nonpayable","type":"function"},{"inputs":[{"internalType":"uint256","name":"_tokenId","type":"uint256"},{"internalType":"uint256","name":"_propertyId","type":"uint256"},{"internalType":"string","name":"_content","type":"string"}],"name":"appendProperty","outputs":[],"stateMutability":"nonpayable","type":"function"},{"inputs":[{"internalType":"address","name":"owner","type":"address"}],"name":"balanceOf","outputs":[{"internalType":"uint256","name":"","type":"uint256"}],"stateMutability":"view","type":"function"},{"inputs":[],"name":"bidLock","outputs":[{"internalType":"uint256","name":"","type":"uint256"}],"stateMutability":"view","type":"function"},{"inputs":[{"internalType":"uint256","name":"_tokenId","type":"uint256"}],"name":"bidOf","outputs":[{"internalType":"uint256","name":"price","type":"uint256"},{"internalType":"address payable","name":"bidder","type":"address"},{"internalType":"uint256","name":"timestamp","type":"uint256"}],"stateMutability":"view","type":"function"},{"inputs":[{"internalType":"uint256","name":"","type":"uint256"}],"name":"class_feeLevel","outputs":[{"internalType":"uint32","name":"","type":"uint32"}],"stateMutability":"view","type":"function"},{"inputs":[{"internalType":"uint256","name":"","type":"uint256"},{"internalType":"uint256","name":"","type":"uint256"}],"name":"class_properties","outputs":[{"internalType":"string","name":"","type":"string"}],"stateMutability":"view","type":"function"},{"inputs":[{"internalType":"uint32","name":"","type":"uint32"}],"name":"feeLevels","outputs":[{"internalType":"address payable","name":"feeReceiver","type":"address"},{"internalType":"uint256","name":"feePercentage","type":"uint256"}],"stateMutability":"view","type":"function"},{"inputs":[{"internalType":"uint256","name":"_tokenID","type":"uint256"}],"name":"getClassForTokenID","outputs":[{"internalType":"uint256","name":"","type":"uint256"}],"stateMutability":"view","type":"function"},{"inputs":[{"internalType":"uint256","name":"_classID","type":"uint256"}],"name":"getClassProperties","outputs":[{"internalType":"string[]","name":"","type":"string[]"}],"stateMutability":"view","type":"function"},{"inputs":[{"internalType":"uint256","name":"_tokenID","type":"uint256"}],"name":"getClassPropertiesForTokenID","outputs":[{"internalType":"string[]","name":"","type":"string[]"}],"stateMutability":"view","type":"function"},{"inputs":[{"internalType":"uint256","name":"_classID","type":"uint256"},{"internalType":"uint256","name":"_propertyID","type":"uint256"}],"name":"getClassProperty","outputs":[{"internalType":"string","name":"","type":"string"}],"stateMutability":"view","type":"function"},{"inputs":[{"internalType":"uint256","name":"_tokenID","type":"uint256"},{"internalType":"uint256","name":"_propertyID","type":"uint256"}],"name":"getClassPropertyForTokenID","outputs":[{"internalType":"string","name":"","type":"string"}],"stateMutability":"view","type":"function"},{"inputs":[{"internalType":"uint256","name":"_tokenId","type":"uint256"}],"name":"getTokenProperties","outputs":[{"components":[{"internalType":"string[]","name":"properties","type":"string[]"}],"internalType":"struct ICallistoNFT.Properties","name":"","type":"tuple"}],"stateMutability":"view","type":"function"},{"inputs":[{"internalType":"uint256","name":"_tokenId","type":"uint256"},{"internalType":"uint256","name":"_propertyId","type":"uint256"}],"name":"getTokenProperty","outputs":[{"internalType":"string","name":"","type":"string"}],"stateMutability":"view","type":"function"},{"inputs":[{"internalType":"uint256","name":"_tokenId","type":"uint256"}],"name":"getUserContent","outputs":[{"internalType":"string","name":"_content","type":"string"}],"stateMutability":"view","type":"function"},{"inputs":[{"internalType":"string","name":"name_","type":"string"},{"internalType":"string","name":"symbol_","type":"string"},{"internalType":"uint256","name":"_defaultFee","type":"uint256"}],"name":"initialize","outputs":[],"stateMutability":"nonpayable","type":"function"},{"inputs":[{"internalType":"uint256","name":"classId","type":"uint256"}],"name":"mintWithClass","outputs":[{"internalType":"uint256","name":"_newTokenID","type":"uint256"}],"stateMutability":"nonpayable","type":"function"},{"inputs":[{"internalType":"address","name":"","type":"address"}],"name":"minter_role","outputs":[{"internalType":"bool","name":"","type":"bool"}],"stateMutability":"view","type":"function"},{"inputs":[{"internalType":"uint256","name":"_classId","type":"uint256"},{"internalType":"uint32","name":"_feeLevel","type":"uint32"}],"name":"modifyClassFeeLevel","outputs":[],"stateMutability":"nonpayable","type":"function"},{"inputs":[{"internalType":"uint256","name":"_classID","type":"uint256"},{"internalType":"uint256","name":"_propertyID","type":"uint256"},{"internalType":"string","name":"_content","type":"string"}],"name":"modifyClassProperty","outputs":[],"stateMutability":"nonpayable","type":"function"},{"inputs":[{"internalType":"uint256","name":"_tokenId","type":"uint256"},{"internalType":"uint256","name":"_propertyId","type":"uint256"},{"internalType":"string","name":"_content","type":"string"}],"name":"modifyProperty","outputs":[],"stateMutability":"nonpayable","type":"function"},{"inputs":[],"name":"name","outputs":[{"internalType":"string","name":"","type":"string"}],"stateMutability":"view","type":"function"},{"inputs":[],"name":"nextClassIndex","outputs":[{"internalType":"uint256","name":"","type":"uint256"}],"stateMutability":"view","type":"function"},{"inputs":[],"name":"next_mint_id","outputs":[{"internalType":"uint256","name":"","type":"uint256"}],"stateMutability":"view","type":"function"},{"inputs":[],"name":"owner","outputs":[{"internalType":"address","name":"","type":"address"}],"stateMutability":"view","type":"function"},{"inputs":[{"internalType":"uint256","name":"tokenId","type":"uint256"}],"name":"ownerOf","outputs":[{"internalType":"address","name":"","type":"address"}],"stateMutability":"view","type":"function"},{"inputs":[{"internalType":"uint256","name":"_tokenId","type":"uint256"}],"name":"priceOf","outputs":[{"internalType":"uint256","name":"","type":"uint256"}],"stateMutability":"view","type":"function"},{"inputs":[{"internalType":"uint256","name":"_tokenId","type":"uint256"},{"internalType":"bytes","name":"_data","type":"bytes"}],"name":"setBid","outputs":[],"stateMutability":"payable","type":"function"},{"inputs":[{"internalType":"uint256","name":"_tokenID","type":"uint256"},{"internalType":"uint256","name":"_tokenClass","type":"uint256"}],"name":"setClassForTokenID","outputs":[],"stateMutability":"nonpayable","type":"function"},{"inputs":[{"internalType":"uint32","name":"_levelIndex","type":"uint32"},{"internalType":"address","name":"_feeReceiver","type":"address"},{"internalType":"uint256","name":"_feePercentage","type":"uint256"}],"name":"setFeeLevel","outputs":[],"stateMutability":"nonpayable","type":"function"},{"inputs":[{"internalType":"uint256","name":"_tokenId","type":"uint256"},{"internalType":"uint32","name":"_feeLevel","type":"uint32"}],"name":"setFeeLevelForToken","outputs":[],"stateMutability":"nonpayable","type":"function"},{"inputs":[{"internalType":"address","name":"_who","type":"address"},{"internalType":"bool","name":"_status","type":"bool"}],"name":"setMinterRole","outputs":[],"stateMutability":"nonpayable","type":"function"},{"inputs":[{"internalType":"uint256","name":"_tokenId","type":"uint256"},{"internalType":"uint256","name":"_amountInWEI","type":"uint256"},{"internalType":"bytes","name":"_data","type":"bytes"}],"name":"setPrice","outputs":[],"stateMutability":"nonpayable","type":"function"},{"inputs":[{"internalType":"uint256","name":"_tokenId","type":"uint256"},{"internalType":"string","name":"_content","type":"string"}],"name":"setUserContent","outputs":[{"internalType":"bool","name":"success","type":"bool"}],"stateMutability":"nonpayable","type":"function"},{"inputs":[{"internalType":"address","name":"_to","type":"address"},{"internalType":"uint256","name":"_tokenId","type":"uint256"}],"name":"silentTransfer","outputs":[{"internalType":"bool","name":"","type":"bool"}],"stateMutability":"nonpayable","type":"function"},{"inputs":[],"name":"standard","outputs":[{"internalType":"string","name":"","type":"string"}],"stateMutability":"pure","type":"function"},{"inputs":[],"name":"symbol","outputs":[{"internalType":"string","name":"","type":"string"}],"stateMutability":"view","type":"function"},{"inputs":[{"internalType":"uint256","name":"_tokenID","type":"uint256"}],"name":"tokenURI","outputs":[{"internalType":"string","name":"","type":"string"}],"stateMutability":"view","type":"function"},{"inputs":[{"internalType":"uint256","name":"","type":"uint256"}],"name":"token_classes","outputs":[{"internalType":"uint256","name":"","type":"uint256"}],"stateMutability":"view","type":"function"},{"inputs":[{"internalType":"address","name":"_to","type":"address"},{"internalType":"uint256","name":"_tokenId","type":"uint256"},{"internalType":"bytes","name":"_data","type":"bytes"}],"name":"transfer","outputs":[{"internalType":"bool","name":"","type":"bool"}],"stateMutability":"nonpayable","type":"function"},{"inputs":[{"internalType":"address","name":"newOwner","type":"address"}],"name":"transferOwnership","outputs":[],"stateMutability":"nonpayable","type":"function"},{"inputs":[{"internalType":"uint256","name":"_tokenId","type":"uint256"}],"name":"withdrawBid","outputs":[{"internalType":"bool","name":"","type":"bool"}],"stateMutability":"nonpayable","type":"function"}],"evm":{"bytecode":{"linkReferences":{},"object":"608060405262015180600555600060115534801561001c57600080fd5b506001600255613b8d806100316000396000f3fe6080604052600436106103085760003560e01c806370a082311161019a578063b9186d7d116100e1578063c98e0c3c1161008a578063e29fb03611610064578063e29fb03614610989578063e64700591461099f578063f2fde38b146109bf57600080fd5b8063c98e0c3c14610901578063cb177b1e14610921578063d75d1e661461094157600080fd5b8063be671058116100bb578063be67105814610894578063c1940f1b146108b4578063c87b56dd146108e157600080fd5b8063b9186d7d14610834578063bb05371714610854578063be45fd621461087457600080fd5b80638da5cb5b1161014357806395d89b411161011d57806395d89b41146107df5780639de4792e146107f4578063b119490e1461081457600080fd5b80638da5cb5b1461078b5780638e39e18c146107a957806391100695146107c957600080fd5b806378317f3f1161017457806378317f3f1461072b5780637ab56e521461074b57806380483a6a1461076b57600080fd5b806370a082311461069957806373baa651146106b957806374c29ce3146106cc57600080fd5b80633d8073f11161025e578063510910bb116102075780636352211e116101e15780636352211e146105fe578063648fbe4014610636578063649ccc141461065657600080fd5b8063510910bb14610568578063543dc7fa146105985780635a3b7e42146105b857600080fd5b80634bb2ddd4116102385780634bb2ddd4146104ee5780634c1720a41461051b5780634edea1111461053b57600080fd5b80633d8073f11461048e5780633e0bb783146104ae5780634774d93f146104ce57600080fd5b806325498c75116102c05780633054d9cb1161029a5780633054d9cb1461042e5780633add5fa11461044e5780633c65b3eb1461046e57600080fd5b806325498c75146103ce578063290e008c146103ee5780632a6d3f441461040e57600080fd5b80630eaaf4c8116102f15780630eaaf4c8146103585780631d734c8f146103885780631f38e654146103ac57600080fd5b806302ff368a1461030d57806306fdde0314610343575b600080fd5b34801561031957600080fd5b5061032d610328366004613274565b6109df565b60405161033a91906132d3565b60405180910390f35b34801561034f57600080fd5b5061032d610a99565b34801561036457600080fd5b50610378610373366004613274565b610b2b565b604051901515815260200161033a565b34801561039457600080fd5b5061039e60115481565b60405190815260200161033a565b3480156103b857600080fd5b506103cc6103c73660046132ed565b610ce2565b005b3480156103da57600080fd5b506103cc6103e93660046133d4565b610d3c565b3480156103fa57600080fd5b506103cc61040936600461346b565b610deb565b34801561041a57600080fd5b5061037861042936600461346b565b610e6c565b34801561043a57600080fd5b506103cc6104493660046134b7565b610f40565b34801561045a57600080fd5b506103cc610469366004613507565b61101a565b34801561047a57600080fd5b5061039e610489366004613274565b611074565b34801561049a57600080fd5b506103cc6104a9366004613507565b611178565b3480156104ba57600080fd5b5061032d6104c93660046132ed565b6113dc565b3480156104da57600080fd5b506103cc6104e93660046134b7565b611495565b3480156104fa57600080fd5b5061050e610509366004613274565b611616565b60405161033a91906135af565b34801561052757600080fd5b5061032d6105363660046132ed565b611766565b34801561054757600080fd5b5061055b610556366004613274565b611876565b60405161033a91906135c2565b34801561057457600080fd5b506103786105833660046135fc565b60016020526000908152604090205460ff1681565b3480156105a457600080fd5b5061039e6105b3366004613274565b61196b565b3480156105c457600080fd5b5060408051808201909152600b81527f43616c6c6973746f4e4654000000000000000000000000000000000000000000602082015261032d565b34801561060a57600080fd5b5061061e610619366004613274565b6119df565b6040516001600160a01b03909116815260200161033a565b34801561064257600080fd5b506103cc610651366004613617565b611a59565b34801561066257600080fd5b50610676610671366004613274565b611ac9565b604080519384526001600160a01b0390921660208401529082015260600161033a565b3480156106a557600080fd5b5061039e6106b43660046135fc565b611b70565b6103cc6106c736600461346b565b611c0a565b3480156106d857600080fd5b5061070c6106e7366004613643565b600460205260009081526040902080546001909101546001600160a01b039091169082565b604080516001600160a01b03909316835260208301919091520161033a565b34801561073757600080fd5b506103cc610746366004613617565b611f74565b34801561075757600080fd5b5061032d6107663660046132ed565b611fe4565b34801561077757600080fd5b506103cc610786366004613274565b6120a3565b34801561079757600080fd5b506000546001600160a01b031661061e565b3480156107b557600080fd5b506103cc6107c436600461365e565b612175565b3480156107d557600080fd5b5061039e60055481565b3480156107eb57600080fd5b5061032d6121f8565b34801561080057600080fd5b5061032d61080f3660046132ed565b612207565b34801561082057600080fd5b506103cc61082f36600461369a565b612298565b34801561084057600080fd5b5061039e61084f366004613274565b6123b1565b34801561086057600080fd5b506103cc61086f366004613507565b612439565b34801561088057600080fd5b5061037861088f366004613707565b61248d565b3480156108a057600080fd5b506103cc6108af3660046132ed565b6124dc565b3480156108c057600080fd5b5061039e6108cf366004613274565b60106020526000908152604090205481565b3480156108ed57600080fd5b5061032d6108fc366004613274565b61257a565b34801561090d57600080fd5b5061037861091c366004613768565b6126a5565b34801561092d57600080fd5b506103cc61093c366004613792565b612836565b34801561094d57600080fd5b5061097461095c366004613274565b600f6020526000908152604090205463ffffffff1681565b60405163ffffffff909116815260200161033a565b34801561099557600080fd5b5061039e60095481565b3480156109ab57600080fd5b5061050e6109ba366004613274565b6128e1565b3480156109cb57600080fd5b506103cc6109da3660046135fc565b612a0a565b60008181526003602052604081208054606092906109ff576109ff6137ce565b906000526020600020018054610a14906137e4565b80601f0160208091040260200160405190810160405280929190818152602001828054610a40906137e4565b8015610a8d5780601f10610a6257610100808354040283529160200191610a8d565b820191906000526020600020905b815481529060010190602001808311610a7057829003601f168201915b50505050509050919050565b6060600a8054610aa8906137e4565b80601f0160208091040260200160405190810160405280929190818152602001828054610ad4906137e4565b8015610b215780601f10610af657610100808354040283529160200191610b21565b820191906000526020600020905b815481529060010190602001808311610b0457829003601f168201915b5050505050905090565b60006002805403610b835760405162461bcd60e51b815260206004820152601f60248201527f5265656e7472616e637947756172643a207265656e7472616e742063616c6c0060448201526064015b60405180910390fd5b6002805560008080610b9485611ac9565b91945092509050336001600160a01b03831614610c195760405162461bcd60e51b815260206004820152602260248201527f43616e206e6f7420776974686472617720736f6d656f6e6520656c736573206260448201527f69640000000000000000000000000000000000000000000000000000000000006064820152608401610b7a565b600554610c26908261382e565b4211610c745760405162461bcd60e51b815260206004820152601260248201527f4269642069732074696d652d6c6f636b656400000000000000000000000000006044820152606401610b7a565b6040516001600160a01b0383169084156108fc029085906000818181858888f19350505050158015610caa573d6000803e3d6000fd5b5050506000928352505060076020526040812080546001600160a01b0319168155600180820183905560029182019290925581905590565b6000546001600160a01b03163314610d2a5760405162461bcd60e51b81526020600482018190526024820152600080516020613b388339815191526044820152606401610b7a565b60009182526010602052604090912055565b6000546001600160a01b03163314610d845760405162461bcd60e51b81526020600482018190526024820152600080516020613b388339815191526044820152606401610b7a565b6011546000908152600e6020908152604082208054600181018255908352912001610daf828261388f565b50601180546000908152600f60205260408120805463ffffffff191663ffffffff861617905581549190610de28361394f565b91905055505050565b33610dfe6000546001600160a01b031690565b6001600160a01b03161480610e2257503360009081526001602052604090205460ff165b610e5c5760405162461bcd60e51b81526020600482018190526024820152600080516020613b388339815191526044820152606401610b7a565b610e67838383612ada565b505050565b6000610e77846119df565b6001600160a01b0316336001600160a01b031614610efd5760405162461bcd60e51b815260206004820152602660248201527f4e46543a206f6e6c79206f776e65722063616e206368616e6765204e4654206360448201527f6f6e74656e7400000000000000000000000000000000000000000000000000006064820152608401610b7a565b600084815260036020526040812080548592859291610f1e57610f1e6137ce565b906000526020600020019182610f35929190613968565b506001949350505050565b6000546001600160a01b03163314610f885760405162461bcd60e51b81526020600482018190526024820152600080516020613b388339815191526044820152606401610b7a565b826011548110610fda5760405162461bcd60e51b815260206004820152601c60248201527f5175657269656420636c61737320646f6573206e6f74206578697374000000006044820152606401610b7a565b6000848152600e60205260409020805483919085908110610ffd57610ffd6137ce565b906000526020600020019081611013919061388f565b5050505050565b6000546001600160a01b031633146110625760405162461bcd60e51b81526020600482018190526024820152600080516020613b388339815191526044820152606401610b7a565b61106e84848484612b03565b50505050565b60008160115481106110c85760405162461bcd60e51b815260206004820152601c60248201527f5175657269656420636c61737320646f6573206e6f74206578697374000000006044820152606401610b7a565b3360009081526001602052604090205460ff166111275760405162461bcd60e51b815260206004820152601460248201527f4d696e74657220726f6c652072657175697265640000000000000000000000006044820152606401610b7a565b61112f612b7c565b6000818152601060209081526040808320879055958252600f8152858220548383526008909152949020805463ffffffff191663ffffffff909516949094179093555090919050565b8382828080601f0160208091040260200160405190810160405280939291908181526020018383808284376000920191909152505060025460011901915061120490505760405162461bcd60e51b815260206004820152601f60248201527f5265656e7472616e637947756172643a207265656e7472616e742063616c6c006044820152606401610b7a565b6002805533611212876119df565b6001600160a01b03161461128e5760405162461bcd60e51b815260206004820152602c60248201527f53657474696e672061736b73206973206f6e6c7920616c6c6f77656420666f7260448201527f206f776e6564204e4654732100000000000000000000000000000000000000006064820152608401610b7a565b60008681526006602052604081208690556001600255806112ae84611ac9565b509150915060006112be856123b1565b1180156112d35750816112d0856123b1565b11155b156113d25760006112e48386612bae565b6112ee9084613a28565b90506112f9856119df565b6001600160a01b0316826001600160a01b0316867fc9b9afd9684b23c6b22a41016c08e8954ac118220c0a52f00b8774c46580e9a38460405161133e91815260200190565b60405180910390a461134f856119df565b6001600160a01b03166108fc829081150290604051600060405180830381858888f19350505050158015611387573d6000803e3d6000fd5b50600085815260076020908152604080832080546001600160a01b03191681556001810184905560020183905560069091528120556113d06113c8866119df565b838787612c41565b505b5050505050505050565b600e60205281600052604060002081815481106113f857600080fd5b90600052602060002001600091509150508054611414906137e4565b80601f0160208091040260200160405190810160405280929190818152602001828054611440906137e4565b801561148d5780601f106114625761010080835404028352916020019161148d565b820191906000526020600020905b81548152906001019060200180831161147057829003601f168201915b505050505081565b6000546001600160a01b031633146114dd5760405162461bcd60e51b81526020600482018190526024820152600080516020613b388339815191526044820152606401610b7a565b82601154811061152f5760405162461bcd60e51b815260206004820152601c60248201527f5175657269656420636c61737320646f6573206e6f74206578697374000000006044820152606401610b7a565b6000848152600e6020526040902080546115f691849186908110611555576115556137ce565b90600052602060002001805461156a906137e4565b80601f0160208091040260200160405190810160405280929190818152602001828054611596906137e4565b80156115e35780601f106115b8576101008083540402835291602001916115e3565b820191906000526020600020905b8154815290600101906020018083116115c657829003601f168201915b5050505050612e8b90919063ffffffff16565b6000858152600e60205260409020805485908110610ffd57610ffd6137ce565b60008181526010602052604090205460115460609190811061167a5760405162461bcd60e51b815260206004820152601c60248201527f5175657269656420636c61737320646f6573206e6f74206578697374000000006044820152606401610b7a565b6000838152601060209081526040808320548352600e825280832080548251818502810185019093528083529193909284015b828210156117595783829060005260206000200180546116cc906137e4565b80601f01602080910402602001604051908101604052809291908181526020018280546116f8906137e4565b80156117455780601f1061171a57610100808354040283529160200191611745565b820191906000526020600020905b81548152906001019060200180831161172857829003601f168201915b5050505050815260200190600101906116ad565b5050505091505b50919050565b60608260115481106117ba5760405162461bcd60e51b815260206004820152601c60248201527f5175657269656420636c61737320646f6573206e6f74206578697374000000006044820152606401610b7a565b6000848152600e602052604090208054849081106117da576117da6137ce565b9060005260206000200180546117ef906137e4565b80601f016020809104026020016040519081016040528092919081815260200182805461181b906137e4565b80156118685780601f1061183d57610100808354040283529160200191611868565b820191906000526020600020905b81548152906001019060200180831161184b57829003601f168201915b505050505091505092915050565b604080516020808201835260608252600084815260038252838120845181548085028201870187529381018481529495909491938593859285015b8282101561195d5783829060005260206000200180546118d0906137e4565b80601f01602080910402602001604051908101604052809291908181526020018280546118fc906137e4565b80156119495780601f1061191e57610100808354040283529160200191611949565b820191906000526020600020905b81548152906001019060200180831161192c57829003601f168201915b5050505050815260200190600101906118b1565b505050915250909392505050565b60008181526010602052604081205460115481106119cb5760405162461bcd60e51b815260206004820152601c60248201527f5175657269656420636c61737320646f6573206e6f74206578697374000000006044820152606401610b7a565b505060009081526010602052604090205490565b6000818152600c60205260408120546001600160a01b031680611a535760405162461bcd60e51b815260206004820152602660248201527f4e46543a206f776e657220717565727920666f72206e6f6e6578697374656e74604482015265103a37b5b2b760d11b6064820152608401610b7a565b92915050565b6000546001600160a01b03163314611aa15760405162461bcd60e51b81526020600482018190526024820152600080516020613b388339815191526044820152606401610b7a565b600091825260086020526040909120805463ffffffff191663ffffffff909216919091179055565b6000818152600c6020526040812054819081906001600160a01b031680611b415760405162461bcd60e51b815260206004820152602660248201527f4e46543a206f776e657220717565727920666f72206e6f6e6578697374656e74604482015265103a37b5b2b760d11b6064820152608401610b7a565b5050506000918252506007602052604090206001810154815460029092015490926001600160a01b0390921691565b60006001600160a01b038216611bee5760405162461bcd60e51b815260206004820152602760248201527f4e46543a2062616c616e636520717565727920666f7220746865207a65726f2060448201527f61646472657373000000000000000000000000000000000000000000000000006064820152608401610b7a565b506001600160a01b03166000908152600d602052604090205490565b8282828080601f01602080910402602001604051908101604052809392919081815260200183838082843760009201919091525050600254600119019150611c9690505760405162461bcd60e51b815260206004820152601f60248201527f5265656e7472616e637947756172643a207265656e7472616e742063616c6c006044820152606401610b7a565b60028055600080611ca687611ac9565b5091509150813411611d1f5760405162461bcd60e51b8152602060048201526024808201527f4e657720626964206d7573742065786365656420746865206578697374696e6760448201527f206f6e65000000000000000000000000000000000000000000000000000000006064820152608401610b7a565b60008215611d5f576040516001600160a01b0383169084156108fc029085906000818181858888f19350505050158015611d5d573d6000803e3d6000fd5b505b34611d69896123b1565b1015611d7f57611d78886123b1565b9050611d82565b50345b600088815260076020526040908190206001810183905580546001600160a01b031916331781554260029091015551819089907f223d0d5db4846341da7a5cc902b1a7c597e63b6c73b1c6267dc931d290c7affb90611de4908b908b90613a3b565b60405180910390a334611df6896123b1565b1015611e3d57336108fc611e098a6123b1565b611e139034613a28565b6040518115909202916000818181858888f19350505050158015611e3b573d6000803e3d6000fd5b505b5050600160025550600080611e5184611ac9565b50915091506000611e61856123b1565b118015611e76575081611e73856123b1565b11155b15611f6b576000611e878386612bae565b611e919084613a28565b9050611e9c856119df565b6001600160a01b0316826001600160a01b0316867fc9b9afd9684b23c6b22a41016c08e8954ac118220c0a52f00b8774c46580e9a384604051611ee191815260200190565b60405180910390a4611ef2856119df565b6001600160a01b03166108fc829081150290604051600060405180830381858888f19350505050158015611f2a573d6000803e3d6000fd5b50600085815260076020908152604080832080546001600160a01b03191681556001810184905560020183905560069091528120556113d26113c8866119df565b50505050505050565b6000546001600160a01b03163314611fbc5760405162461bcd60e51b81526020600482018190526024820152600080516020613b388339815191526044820152606401610b7a565b6000918252600f6020526040909120805463ffffffff191663ffffffff909216919091179055565b600082815260036020526040902080546060919083908110612008576120086137ce565b90600052602060002001805461201d906137e4565b80601f0160208091040260200160405190810160405280929190818152602001828054612049906137e4565b80156120965780601f1061206b57610100808354040283529160200191612096565b820191906000526020600020905b81548152906001019060200180831161207957829003601f168201915b5050505050905092915050565b6000546001600160a01b031633146120eb5760405162461bcd60e51b81526020600482018190526024820152600080516020613b388339815191526044820152606401610b7a565b80601154811061213d5760405162461bcd60e51b815260206004820152601c60248201527f5175657269656420636c61737320646f6573206e6f74206578697374000000006044820152606401610b7a565b6000828152600e602090815260408083208054600181018255908452828420825193840190925292825290910190610e67908261388f565b6000546001600160a01b031633146121bd5760405162461bcd60e51b81526020600482018190526024820152600080516020613b388339815191526044820152606401610b7a565b63ffffffff909216600090815260046020526040902080546001600160a01b039092166001600160a01b031990921691909117815560010155565b6060600b8054610aa8906137e4565b60008281526010602052604090205460115460609190811061226b5760405162461bcd60e51b815260206004820152601c60248201527f5175657269656420636c61737320646f6573206e6f74206578697374000000006044820152606401610b7a565b6000848152601060209081526040808320548352600e90915290208054849081106117da576117da6137ce565b6000546001600160a01b0316156122f15760405162461bcd60e51b815260206004820152601360248201527f416c726561647920696e697469616c697a6564000000000000000000000000006044820152606401610b7a565b600080546001600160a01b0319163390811782556040519091907f8be0079c531659141344cd1fd0a4f28419497f9722a3daafe3b4186f6b6457e0908290a362015180600555600a612343848261388f565b50600b612350838261388f565b506000805260046020527f17ef568e3e12ab5b9c7254a8d58478811de00f9e6eb34345acd53bf8fd09d3ec80546001600160a01b031916331790557f17ef568e3e12ab5b9c7254a8d58478811de00f9e6eb34345acd53bf8fd09d3ed555050565b6000818152600c60205260408120546001600160a01b0316806124255760405162461bcd60e51b815260206004820152602660248201527f4e46543a206f776e657220717565727920666f72206e6f6e6578697374656e74604482015265103a37b5b2b760d11b6064820152608401610b7a565b505060009081526006602052604090205490565b6000546001600160a01b031633146124815760405162461bcd60e51b81526020600482018190526024820152600080516020613b388339815191526044820152606401610b7a565b61106e8484848461304c565b600061249b33858585612c41565b7f3ba9136826ac751de05d770d8d34fa4440ada49a5fb0e9aa1678aece66dad976826040516124ca91906132d3565b60405180910390a15060019392505050565b6000546001600160a01b031633146125245760405162461bcd60e51b81526020600482018190526024820152600080516020613b388339815191526044820152606401610b7a565b60005b82811015610e67576000828152600e602090815260408083208054600181018255908452828420825193840190925292825290910190612567908261388f565b50806125728161394f565b915050612527565b6000818152601060205260409020546011546060919081106125de5760405162461bcd60e51b815260206004820152601c60248201527f5175657269656420636c61737320646f6573206e6f74206578697374000000006044820152606401610b7a565b6000838152601060209081526040808320548352600e9091528120805490919061260a5761260a6137ce565b90600052602060002001805461261f906137e4565b80601f016020809104026020016040519081016040528092919081815260200182805461264b906137e4565b80156126985780601f1061266d57610100808354040283529160200191612698565b820191906000526020600020905b81548152906001019060200180831161267b57829003601f168201915b5050505050915050919050565b6000336126b1836119df565b6001600160a01b0316146127165760405162461bcd60e51b815260206004820152602660248201527f4e46543a207472616e73666572206f6620746f6b656e2074686174206973206e60448201526537ba1037bbb760d11b6064820152608401610b7a565b6001600160a01b0383166127765760405162461bcd60e51b815260206004820152602160248201527f4e46543a207472616e7366657220746f20746865207a65726f206164647265736044820152607360f81b6064820152608401610b7a565b600082815260066020526040812055336000908152600d602052604081208054600192906127a5908490613a28565b90915550506001600160a01b0383166000908152600d602052604081208054600192906127d390849061382e565b90915550506000828152600c602052604080822080546001600160a01b0319166001600160a01b0387169081179091559051849233917fddf252ad1be2c89b69c2b068fc378daa952ba7f163c4a11628f55a4df523b3ef9190a450600192915050565b6000546001600160a01b0316331461287e5760405162461bcd60e51b81526020600482018190526024820152600080516020613b388339815191526044820152606401610b7a565b6001600160a01b038216600081815260016020908152604091829020805460ff19168515159081179091558251938452908301527f6b0f890a293c8f56a7635ad061c90250965b8af8e8bdbeb56d434b97281a7462910160405180910390a15050565b60608160115481106129355760405162461bcd60e51b815260206004820152601c60248201527f5175657269656420636c61737320646f6573206e6f74206578697374000000006044820152606401610b7a565b6000838152600e6020908152604080832080548251818502810185019093528083529193909284015b8282101561175957838290600052602060002001805461297d906137e4565b80601f01602080910402602001604051908101604052809291908181526020018280546129a9906137e4565b80156129f65780601f106129cb576101008083540402835291602001916129f6565b820191906000526020600020905b8154815290600101906020018083116129d957829003601f168201915b50505050508152602001906001019061295e565b6000546001600160a01b03163314612a525760405162461bcd60e51b81526020600482018190526024820152600080516020613b388339815191526044820152606401610b7a565b6001600160a01b038116612ace5760405162461bcd60e51b815260206004820152602660248201527f4f776e61626c653a206e6577206f776e657220697320746865207a65726f206160448201527f64647265737300000000000000000000000000000000000000000000000000006064820152608401610b7a565b612ad781613087565b50565b60008381526003602090815260408220805460018101825590835291200161106e828483613968565b612b5c82828080601f0160208091040260200160405190810160405280939291908181526020018383808284376000920182905250898152600360205260409020805490935088925082109050611555576115556137ce565b6000858152600360205260409020805485908110610ffd57610ffd6137ce565b6000612b8a336009546130d7565b50600980549081906000612b9d8361394f565b9190505550612bab816130e5565b90565b60008181526008602090815260408083205463ffffffff168084526004909252822080546001909101546001600160a01b039091169083620186a0612bf38389613a6a565b612bfd9190613a81565b6040519091506001600160a01b0384169082156108fc029083906000818181858888f19350505050158015612c36573d6000803e3d6000fd5b509695505050505050565b836001600160a01b0316612c54836119df565b6001600160a01b031614612cb95760405162461bcd60e51b815260206004820152602660248201527f4e46543a207472616e73666572206f6620746f6b656e2074686174206973206e60448201526537ba1037bbb760d11b6064820152608401610b7a565b6001600160a01b038316612d195760405162461bcd60e51b815260206004820152602160248201527f4e46543a207472616e7366657220746f20746865207a65726f206164647265736044820152607360f81b6064820152608401610b7a565b6000828152600660205260408120556001600160a01b0384166000908152600d60205260408120805460019290612d51908490613a28565b90915550506001600160a01b0383166000908152600d60205260408120805460019290612d7f90849061382e565b90915550506000828152600c6020526040902080546001600160a01b0319166001600160a01b0385169081179091553b15612e44576040517f150b7a020000000000000000000000000000000000000000000000000000000081526001600160a01b0384169063150b7a0290612dff903390889087908790600401613aa3565b6020604051808303816000875af1158015612e1e573d6000803e3d6000fd5b505050506040513d601f19601f82011682018060405250810190612e429190613adf565b505b81836001600160a01b0316856001600160a01b03167fddf252ad1be2c89b69c2b068fc378daa952ba7f163c4a11628f55a4df523b3ef60405160405180910390a450505050565b805160609083908390612ea057612ea0613b21565b600081518351612eb0919061382e565b67ffffffffffffffff811115612ec857612ec8613328565b6040519080825280601f01601f191660200182016040528015612ef2576020820181803683370190505b509050806000805b8551821015612f9a57858281518110612f1557612f156137ce565b01602001517fff00000000000000000000000000000000000000000000000000000000000000168382612f478161394f565b935081518110612f5957612f596137ce565b60200101907effffffffffffffffffffffffffffffffffffffffffffffffffffffffffffff1916908160001a90535081612f928161394f565b925050612efa565b600091505b845182101561303f57848281518110612fba57612fba6137ce565b01602001517fff00000000000000000000000000000000000000000000000000000000000000168382612fec8161394f565b935081518110612ffe57612ffe6137ce565b60200101907effffffffffffffffffffffffffffffffffffffffffffffffffffffffffffff1916908160001a905350816130378161394f565b925050612f9f565b5090979650505050505050565b600084815260036020526040902080548391839186908110613070576130706137ce565b906000526020600020019182611013929190613968565b600080546001600160a01b038381166001600160a01b0319831681178455604051919092169283917f8be0079c531659141344cd1fd0a4f28419497f9722a3daafe3b4186f6b6457e09190a35050565b6130e18282613132565b5050565b6000818152600360205260408120549003612ad757600081815260036020908152604080832080546001810182559084528284208251938401909252928252909101906130e1908261388f565b6001600160a01b0382166131885760405162461bcd60e51b815260206004820152601d60248201527f4e46543a206d696e7420746f20746865207a65726f20616464726573730000006044820152606401610b7a565b6000818152600c60205260409020546001600160a01b0316156131ed5760405162461bcd60e51b815260206004820152601960248201527f4e46543a20746f6b656e20616c7265616479206d696e746564000000000000006044820152606401610b7a565b6001600160a01b0382166000908152600d6020526040812080546001929061321690849061382e565b90915550506000818152600c602052604080822080546001600160a01b0319166001600160a01b03861690811790915590518392907fddf252ad1be2c89b69c2b068fc378daa952ba7f163c4a11628f55a4df523b3ef908290a45050565b60006020828403121561328657600080fd5b5035919050565b6000815180845260005b818110156132b357602081850181015186830182015201613297565b506000602082860101526020601f19601f83011685010191505092915050565b6020815260006132e6602083018461328d565b9392505050565b6000806040838503121561330057600080fd5b50508035926020909101359150565b803563ffffffff8116811461332357600080fd5b919050565b634e487b7160e01b600052604160045260246000fd5b600067ffffffffffffffff8084111561335957613359613328565b604051601f8501601f19908116603f0116810190828211818310171561338157613381613328565b8160405280935085815286868601111561339a57600080fd5b858560208301376000602087830101525050509392505050565b600082601f8301126133c557600080fd5b6132e68383356020850161333e565b600080604083850312156133e757600080fd5b6133f08361330f565b9150602083013567ffffffffffffffff81111561340c57600080fd5b613418858286016133b4565b9150509250929050565b60008083601f84011261343457600080fd5b50813567ffffffffffffffff81111561344c57600080fd5b60208301915083602082850101111561346457600080fd5b9250929050565b60008060006040848603121561348057600080fd5b83359250602084013567ffffffffffffffff81111561349e57600080fd5b6134aa86828701613422565b9497909650939450505050565b6000806000606084860312156134cc57600080fd5b8335925060208401359150604084013567ffffffffffffffff8111156134f157600080fd5b6134fd868287016133b4565b9150509250925092565b6000806000806060858703121561351d57600080fd5b8435935060208501359250604085013567ffffffffffffffff81111561354257600080fd5b61354e87828801613422565b95989497509550505050565b600081518084526020808501808196508360051b8101915082860160005b858110156135a257828403895261359084835161328d565b98850198935090840190600101613578565b5091979650505050505050565b6020815260006132e6602083018461355a565b60208152600082516020808401526135dd604084018261355a565b949350505050565b80356001600160a01b038116811461332357600080fd5b60006020828403121561360e57600080fd5b6132e6826135e5565b6000806040838503121561362a57600080fd5b8235915061363a6020840161330f565b90509250929050565b60006020828403121561365557600080fd5b6132e68261330f565b60008060006060848603121561367357600080fd5b61367c8461330f565b925061368a602085016135e5565b9150604084013590509250925092565b6000806000606084860312156136af57600080fd5b833567ffffffffffffffff808211156136c757600080fd5b6136d3878388016133b4565b945060208601359150808211156136e957600080fd5b506136f6868287016133b4565b925050604084013590509250925092565b60008060006060848603121561371c57600080fd5b613725846135e5565b925060208401359150604084013567ffffffffffffffff81111561374857600080fd5b8401601f8101861361375957600080fd5b6134fd8682356020840161333e565b6000806040838503121561377b57600080fd5b613784836135e5565b946020939093013593505050565b600080604083850312156137a557600080fd5b6137ae836135e5565b9150602083013580151581146137c357600080fd5b809150509250929050565b634e487b7160e01b600052603260045260246000fd5b600181811c908216806137f857607f821691505b60208210810361176057634e487b7160e01b600052602260045260246000fd5b634e487b7160e01b600052601160045260246000fd5b80820180821115611a5357611a53613818565b601f821115610e6757600081815260208120601f850160051c810160208610156138685750805b601f850160051c820191505b8181101561388757828155600101613874565b505050505050565b815167ffffffffffffffff8111156138a9576138a9613328565b6138bd816138b784546137e4565b84613841565b602080601f8311600181146138f257600084156138da5750858301515b600019600386901b1c1916600185901b178555613887565b600085815260208120601f198616915b8281101561392157888601518255948401946001909101908401613902565b508582101561393f5787850151600019600388901b60f8161c191681555b5050505050600190811b01905550565b60006001820161396157613961613818565b5060010190565b67ffffffffffffffff83111561398057613980613328565b6139948361398e83546137e4565b83613841565b6000601f8411600181146139c857600085156139b05750838201355b600019600387901b1c1916600186901b178355611013565b600083815260209020601f19861690835b828110156139f957868501358255602094850194600190920191016139d9565b5086821015613a165760001960f88860031b161c19848701351681555b505060018560011b0183555050505050565b81810381811115611a5357611a53613818565b60208152816020820152818360408301376000818301604090810191909152601f909201601f19160101919050565b8082028115828204841417611a5357611a53613818565b600082613a9e57634e487b7160e01b600052601260045260246000fd5b500490565b60006001600160a01b03808716835280861660208401525083604083015260806060830152613ad5608083018461328d565b9695505050505050565b600060208284031215613af157600080fd5b81517fffffffff00000000000000000000000000000000000000000000000000000000811681146132e657600080fd5b634e487b7160e01b600052600160045260246000fdfe4f776e61626c653a2063616c6c6572206973206e6f7420746865206f776e6572a2646970667358221220211d042ea7aa58cb6fdf8cd34ea20144df3def89ed5e85f9fb1018dc554b5d0e64736f6c63430008110033","opcodes":"PUSH1 0x80 PUSH1 0x40 MSTORE PUSH3 0x15180 PUSH1 0x5 SSTORE PUSH1 0x0 PUSH1 0x11 SSTORE CALLVALUE DUP1 ISZERO PUSH2 0x1C JUMPI PUSH1 0x0 DUP1 REVERT JUMPDEST POP PUSH1 0x1 PUSH1 0x2 SSTORE PUSH2 0x3B8D DUP1 PUSH2 0x31 PUSH1 0x0 CODECOPY PUSH1 0x0 RETURN INVALID PUSH1 0x80 PUSH1 0x40 MSTORE PUSH1 0x4 CALLDATASIZE LT PUSH2 0x308 JUMPI PUSH1 0x0 CALLDATALOAD PUSH1 0xE0 SHR DUP1 PUSH4 0x70A08231 GT PUSH2 0x19A JUMPI DUP1 PUSH4 0xB9186D7D GT PUSH2 0xE1 JUMPI DUP1 PUSH4 0xC98E0C3C GT PUSH2 0x8A JUMPI DUP1 PUSH4 0xE29FB036 GT PUSH2 0x64 JUMPI DUP1 PUSH4 0xE29FB036 EQ PUSH2 0x989 JUMPI DUP1 PUSH4 0xE6470059 EQ PUSH2 0x99F JUMPI DUP1 PUSH4 0xF2FDE38B EQ PUSH2 0x9BF JUMPI PUSH1 0x0 DUP1 REVERT JUMPDEST DUP1 PUSH4 0xC98E0C3C EQ PUSH2 0x901 JUMPI DUP1 PUSH4 0xCB177B1E EQ PUSH2 0x921 JUMPI DUP1 PUSH4 0xD75D1E66 EQ PUSH2 0x941 JUMPI PUSH1 0x0 DUP1 REVERT JUMPDEST DUP1 PUSH4 0xBE671058 GT PUSH2 0xBB JUMPI DUP1 PUSH4 0xBE671058 EQ PUSH2 0x894 JUMPI DUP1 PUSH4 0xC1940F1B EQ PUSH2 0x8B4 JUMPI DUP1 PUSH4 0xC87B56DD EQ PUSH2 0x8E1 JUMPI PUSH1 0x0 DUP1 REVERT JUMPDEST DUP1 PUSH4 0xB9186D7D EQ PUSH2 0x834 JUMPI DUP1 PUSH4 0xBB053717 EQ PUSH2 0x854 JUMPI DUP1 PUSH4 0xBE45FD62 EQ PUSH2 0x874 JUMPI PUSH1 0x0 DUP1 REVERT JUMPDEST DUP1 PUSH4 0x8DA5CB5B GT PUSH2 0x143 JUMPI DUP1 PUSH4 0x95D89B41 GT PUSH2 0x11D JUMPI DUP1 PUSH4 0x95D89B41 EQ PUSH2 0x7DF JUMPI DUP1 PUSH4 0x9DE4792E EQ PUSH2 0x7F4 JUMPI DUP1 PUSH4 0xB119490E EQ PUSH2 0x814 JUMPI PUSH1 0x0 DUP1 REVERT JUMPDEST DUP1 PUSH4 0x8DA5CB5B EQ PUSH2 0x78B JUMPI DUP1 PUSH4 0x8E39E18C EQ PUSH2 0x7A9 JUMPI DUP1 PUSH4 0x91100695 EQ PUSH2 0x7C9 JUMPI PUSH1 0x0 DUP1 REVERT JUMPDEST DUP1 PUSH4 0x78317F3F GT PUSH2 0x174 JUMPI DUP1 PUSH4 0x78317F3F EQ PUSH2 0x72B JUMPI DUP1 PUSH4 0x7AB56E52 EQ PUSH2 0x74B JUMPI DUP1 PUSH4 0x80483A6A EQ PUSH2 0x76B JUMPI PUSH1 0x0 DUP1 REVERT JUMPDEST DUP1 PUSH4 0x70A08231 EQ PUSH2 0x699 JUMPI DUP1 PUSH4 0x73BAA651 EQ PUSH2 0x6B9 JUMPI DUP1 PUSH4 0x74C29CE3 EQ PUSH2 0x6CC JUMPI PUSH1 0x0 DUP1 REVERT JUMPDEST DUP1 PUSH4 0x3D8073F1 GT PUSH2 0x25E JUMPI DUP1 PUSH4 0x510910BB GT PUSH2 0x207 JUMPI DUP1 PUSH4 0x6352211E GT PUSH2 0x1E1 JUMPI DUP1 PUSH4 0x6352211E EQ PUSH2 0x5FE JUMPI DUP1 PUSH4 0x648FBE40 EQ PUSH2 0x636 JUMPI DUP1 PUSH4 0x649CCC14 EQ PUSH2 0x656 JUMPI PUSH1 0x0 DUP1 REVERT JUMPDEST DUP1 PUSH4 0x510910BB EQ PUSH2 0x568 JUMPI DUP1 PUSH4 0x543DC7FA EQ PUSH2 0x598 JUMPI DUP1 PUSH4 0x5A3B7E42 EQ PUSH2 0x5B8 JUMPI PUSH1 0x0 DUP1 REVERT JUMPDEST DUP1 PUSH4 0x4BB2DDD4 GT PUSH2 0x238 JUMPI DUP1 PUSH4 0x4BB2DDD4 EQ PUSH2 0x4EE JUMPI DUP1 PUSH4 0x4C1720A4 EQ PUSH2 0x51B JUMPI DUP1 PUSH4 0x4EDEA111 EQ PUSH2 0x53B JUMPI PUSH1 0x0 DUP1 REVERT JUMPDEST DUP1 PUSH4 0x3D8073F1 EQ PUSH2 0x48E JUMPI DUP1 PUSH4 0x3E0BB783 EQ PUSH2 0x4AE JUMPI DUP1 PUSH4 0x4774D93F EQ PUSH2 0x4CE JUMPI PUSH1 0x0 DUP1 REVERT JUMPDEST DUP1 PUSH4 0x25498C75 GT PUSH2 0x2C0 JUMPI DUP1 PUSH4 0x3054D9CB GT PUSH2 0x29A JUMPI DUP1 PUSH4 0x3054D9CB EQ PUSH2 0x42E JUMPI DUP1 PUSH4 0x3ADD5FA1 EQ PUSH2 0x44E JUMPI DUP1 PUSH4 0x3C65B3EB EQ PUSH2 0x46E JUMPI PUSH1 0x0 DUP1 REVERT JUMPDEST DUP1 PUSH4 0x25498C75 EQ PUSH2 0x3CE JUMPI DUP1 PUSH4 0x290E008C EQ PUSH2 0x3EE JUMPI DUP1 PUSH4 0x2A6D3F44 EQ PUSH2 0x40E JUMPI PUSH1 0x0 DUP1 REVERT JUMPDEST DUP1 PUSH4 0xEAAF4C8 GT PUSH2 0x2F1 JUMPI DUP1 PUSH4 0xEAAF4C8 EQ PUSH2 0x358 JUMPI DUP1 PUSH4 0x1D734C8F EQ PUSH2 0x388 JUMPI DUP1 PUSH4 0x1F38E654 EQ PUSH2 0x3AC JUMPI PUSH1 0x0 DUP1 REVERT JUMPDEST DUP1 PUSH4 0x2FF368A EQ PUSH2 0x30D JUMPI DUP1 PUSH4 0x6FDDE03 EQ PUSH2 0x343 JUMPI JUMPDEST PUSH1 0x0 DUP1 REVERT JUMPDEST CALLVALUE DUP1 ISZERO PUSH2 0x319 JUMPI PUSH1 0x0 DUP1 REVERT JUMPDEST POP PUSH2 0x32D PUSH2 0x328 CALLDATASIZE PUSH1 0x4 PUSH2 0x3274 JUMP JUMPDEST PUSH2 0x9DF JUMP JUMPDEST PUSH1 0x40 MLOAD PUSH2 0x33A SWAP2 SWAP1 PUSH2 0x32D3 JUMP JUMPDEST PUSH1 0x40 MLOAD DUP1 SWAP2 SUB SWAP1 RETURN JUMPDEST CALLVALUE DUP1 ISZERO PUSH2 0x34F JUMPI PUSH1 0x0 DUP1 REVERT JUMPDEST POP PUSH2 0x32D PUSH2 0xA99 JUMP JUMPDEST CALLVALUE DUP1 ISZERO PUSH2 0x364 JUMPI PUSH1 0x0 DUP1 REVERT JUMPDEST POP PUSH2 0x378 PUSH2 0x373 CALLDATASIZE PUSH1 0x4 PUSH2 0x3274 JUMP JUMPDEST PUSH2 0xB2B JUMP JUMPDEST PUSH1 0x40 MLOAD SWAP1 ISZERO ISZERO DUP2 MSTORE PUSH1 0x20 ADD PUSH2 0x33A JUMP JUMPDEST CALLVALUE DUP1 ISZERO PUSH2 0x394 JUMPI PUSH1 0x0 DUP1 REVERT JUMPDEST POP PUSH2 0x39E PUSH1 0x11 SLOAD DUP2 JUMP JUMPDEST PUSH1 0x40 MLOAD SWAP1 DUP2 MSTORE PUSH1 0x20 ADD PUSH2 0x33A JUMP JUMPDEST CALLVALUE DUP1 ISZERO PUSH2 0x3B8 JUMPI PUSH1 0x0 DUP1 REVERT JUMPDEST POP PUSH2 0x3CC PUSH2 0x3C7 CALLDATASIZE PUSH1 0x4 PUSH2 0x32ED JUMP JUMPDEST PUSH2 0xCE2 JUMP JUMPDEST STOP JUMPDEST CALLVALUE DUP1 ISZERO PUSH2 0x3DA JUMPI PUSH1 0x0 DUP1 REVERT JUMPDEST POP PUSH2 0x3CC PUSH2 0x3E9 CALLDATASIZE PUSH1 0x4 PUSH2 0x33D4 JUMP JUMPDEST PUSH2 0xD3C JUMP JUMPDEST CALLVALUE DUP1 ISZERO PUSH2 0x3FA JUMPI PUSH1 0x0 DUP1 REVERT JUMPDEST POP PUSH2 0x3CC PUSH2 0x409 CALLDATASIZE PUSH1 0x4 PUSH2 0x346B JUMP JUMPDEST PUSH2 0xDEB JUMP JUMPDEST CALLVALUE DUP1 ISZERO PUSH2 0x41A JUMPI PUSH1 0x0 DUP1 REVERT JUMPDEST POP PUSH2 0x378 PUSH2 0x429 CALLDATASIZE PUSH1 0x4 PUSH2 0x346B JUMP JUMPDEST PUSH2 0xE6C JUMP JUMPDEST CALLVALUE DUP1 ISZERO PUSH2 0x43A JUMPI PUSH1 0x0 DUP1 REVERT JUMPDEST POP PUSH2 0x3CC PUSH2 0x449 CALLDATASIZE PUSH1 0x4 PUSH2 0x34B7 JUMP JUMPDEST PUSH2 0xF40 JUMP JUMPDEST CALLVALUE DUP1 ISZERO PUSH2 0x45A JUMPI PUSH1 0x0 DUP1 REVERT JUMPDEST POP PUSH2 0x3CC PUSH2 0x469 CALLDATASIZE PUSH1 0x4 PUSH2 0x3507 JUMP JUMPDEST PUSH2 0x101A JUMP JUMPDEST CALLVALUE DUP1 ISZERO PUSH2 0x47A JUMPI PUSH1 0x0 DUP1 REVERT JUMPDEST POP PUSH2 0x39E PUSH2 0x489 CALLDATASIZE PUSH1 0x4 PUSH2 0x3274 JUMP JUMPDEST PUSH2 0x1074 JUMP JUMPDEST CALLVALUE DUP1 ISZERO PUSH2 0x49A JUMPI PUSH1 0x0 DUP1 REVERT JUMPDEST POP PUSH2 0x3CC PUSH2 0x4A9 CALLDATASIZE PUSH1 0x4 PUSH2 0x3507 JUMP JUMPDEST PUSH2 0x1178 JUMP JUMPDEST CALLVALUE DUP1 ISZERO PUSH2 0x4BA JUMPI PUSH1 0x0 DUP1 REVERT JUMPDEST POP PUSH2 0x32D PUSH2 0x4C9 CALLDATASIZE PUSH1 0x4 PUSH2 0x32ED JUMP JUMPDEST PUSH2 0x13DC JUMP JUMPDEST CALLVALUE DUP1 ISZERO PUSH2 0x4DA JUMPI PUSH1 0x0 DUP1 REVERT JUMPDEST POP PUSH2 0x3CC PUSH2 0x4E9 CALLDATASIZE PUSH1 0x4 PUSH2 0x34B7 JUMP JUMPDEST PUSH2 0x1495 JUMP JUMPDEST CALLVALUE DUP1 ISZERO PUSH2 0x4FA JUMPI PUSH1 0x0 DUP1 REVERT JUMPDEST POP PUSH2 0x50E PUSH2 0x509 CALLDATASIZE PUSH1 0x4 PUSH2 0x3274 JUMP JUMPDEST PUSH2 0x1616 JUMP JUMPDEST PUSH1 0x40 MLOAD PUSH2 0x33A SWAP2 SWAP1 PUSH2 0x35AF JUMP JUMPDEST CALLVALUE DUP1 ISZERO PUSH2 0x527 JUMPI PUSH1 0x0 DUP1 REVERT JUMPDEST POP PUSH2 0x32D PUSH2 0x536 CALLDATASIZE PUSH1 0x4 PUSH2 0x32ED JUMP JUMPDEST PUSH2 0x1766 JUMP JUMPDEST CALLVALUE DUP1 ISZERO PUSH2 0x547 JUMPI PUSH1 0x0 DUP1 REVERT JUMPDEST POP PUSH2 0x55B PUSH2 0x556 CALLDATASIZE PUSH1 0x4 PUSH2 0x3274 JUMP JUMPDEST PUSH2 0x1876 JUMP JUMPDEST PUSH1 0x40 MLOAD PUSH2 0x33A SWAP2 SWAP1 PUSH2 0x35C2 JUMP JUMPDEST CALLVALUE DUP1 ISZERO PUSH2 0x574 JUMPI PUSH1 0x0 DUP1 REVERT JUMPDEST POP PUSH2 0x378 PUSH2 0x583 CALLDATASIZE PUSH1 0x4 PUSH2 0x35FC JUMP JUMPDEST PUSH1 0x1 PUSH1 0x20 MSTORE PUSH1 0x0 SWAP1 DUP2 MSTORE PUSH1 0x40 SWAP1 KECCAK256 SLOAD PUSH1 0xFF AND DUP2 JUMP JUMPDEST CALLVALUE DUP1 ISZERO PUSH2 0x5A4 JUMPI PUSH1 0x0 DUP1 REVERT JUMPDEST POP PUSH2 0x39E PUSH2 0x5B3 CALLDATASIZE PUSH1 0x4 PUSH2 0x3274 JUMP JUMPDEST PUSH2 0x196B JUMP JUMPDEST CALLVALUE DUP1 ISZERO PUSH2 0x5C4 JUMPI PUSH1 0x0 DUP1 REVERT JUMPDEST POP PUSH1 0x40 DUP1 MLOAD DUP1 DUP3 ADD SWAP1 SWAP2 MSTORE PUSH1 0xB DUP2 MSTORE PUSH32 0x43616C6C6973746F4E4654000000000000000000000000000000000000000000 PUSH1 0x20 DUP3 ADD MSTORE PUSH2 0x32D JUMP JUMPDEST CALLVALUE DUP1 ISZERO PUSH2 0x60A JUMPI PUSH1 0x0 DUP1 REVERT JUMPDEST POP PUSH2 0x61E PUSH2 0x619 CALLDATASIZE PUSH1 0x4 PUSH2 0x3274 JUMP JUMPDEST PUSH2 0x19DF JUMP JUMPDEST PUSH1 0x40 MLOAD PUSH1 0x1 PUSH1 0x1 PUSH1 0xA0 SHL SUB SWAP1 SWAP2 AND DUP2 MSTORE PUSH1 0x20 ADD PUSH2 0x33A JUMP JUMPDEST CALLVALUE DUP1 ISZERO PUSH2 0x642 JUMPI PUSH1 0x0 DUP1 REVERT JUMPDEST POP PUSH2 0x3CC PUSH2 0x651 CALLDATASIZE PUSH1 0x4 PUSH2 0x3617 JUMP JUMPDEST PUSH2 0x1A59 JUMP JUMPDEST CALLVALUE DUP1 ISZERO PUSH2 0x662 JUMPI PUSH1 0x0 DUP1 REVERT JUMPDEST POP PUSH2 0x676 PUSH2 0x671 CALLDATASIZE PUSH1 0x4 PUSH2 0x3274 JUMP JUMPDEST PUSH2 0x1AC9 JUMP JUMPDEST PUSH1 0x40 DUP1 MLOAD SWAP4 DUP5 MSTORE PUSH1 0x1 PUSH1 0x1 PUSH1 0xA0 SHL SUB SWAP1 SWAP3 AND PUSH1 0x20 DUP5 ADD MSTORE SWAP1 DUP3 ADD MSTORE PUSH1 0x60 ADD PUSH2 0x33A JUMP JUMPDEST CALLVALUE DUP1 ISZERO PUSH2 0x6A5 JUMPI PUSH1 0x0 DUP1 REVERT JUMPDEST POP PUSH2 0x39E PUSH2 0x6B4 CALLDATASIZE PUSH1 0x4 PUSH2 0x35FC JUMP JUMPDEST PUSH2 0x1B70 JUMP JUMPDEST PUSH2 0x3CC PUSH2 0x6C7 CALLDATASIZE PUSH1 0x4 PUSH2 0x346B JUMP JUMPDEST PUSH2 0x1C0A JUMP JUMPDEST CALLVALUE DUP1 ISZERO PUSH2 0x6D8 JUMPI PUSH1 0x0 DUP1 REVERT JUMPDEST POP PUSH2 0x70C PUSH2 0x6E7 CALLDATASIZE PUSH1 0x4 PUSH2 0x3643 JUMP JUMPDEST PUSH1 0x4 PUSH1 0x20 MSTORE PUSH1 0x0 SWAP1 DUP2 MSTORE PUSH1 0x40 SWAP1 KECCAK256 DUP1 SLOAD PUSH1 0x1 SWAP1 SWAP2 ADD SLOAD PUSH1 0x1 PUSH1 0x1 PUSH1 0xA0 SHL SUB SWAP1 SWAP2 AND SWAP1 DUP3 JUMP JUMPDEST PUSH1 0x40 DUP1 MLOAD PUSH1 0x1 PUSH1 0x1 PUSH1 0xA0 SHL SUB SWAP1 SWAP4 AND DUP4 MSTORE PUSH1 0x20 DUP4 ADD SWAP2 SWAP1 SWAP2 MSTORE ADD PUSH2 0x33A JUMP JUMPDEST CALLVALUE DUP1 ISZERO PUSH2 0x737 JUMPI PUSH1 0x0 DUP1 REVERT JUMPDEST POP PUSH2 0x3CC PUSH2 0x746 CALLDATASIZE PUSH1 0x4 PUSH2 0x3617 JUMP JUMPDEST PUSH2 0x1F74 JUMP JUMPDEST CALLVALUE DUP1 ISZERO PUSH2 0x757 JUMPI PUSH1 0x0 DUP1 REVERT JUMPDEST POP PUSH2 0x32D PUSH2 0x766 CALLDATASIZE PUSH1 0x4 PUSH2 0x32ED JUMP JUMPDEST PUSH2 0x1FE4 JUMP JUMPDEST CALLVALUE DUP1 ISZERO PUSH2 0x777 JUMPI PUSH1 0x0 DUP1 REVERT JUMPDEST POP PUSH2 0x3CC PUSH2 0x786 CALLDATASIZE PUSH1 0x4 PUSH2 0x3274 JUMP JUMPDEST PUSH2 0x20A3 JUMP JUMPDEST CALLVALUE DUP1 ISZERO PUSH2 0x797 JUMPI PUSH1 0x0 DUP1 REVERT JUMPDEST POP PUSH1 0x0 SLOAD PUSH1 0x1 PUSH1 0x1 PUSH1 0xA0 SHL SUB AND PUSH2 0x61E JUMP JUMPDEST CALLVALUE DUP1 ISZERO PUSH2 0x7B5 JUMPI PUSH1 0x0 DUP1 REVERT JUMPDEST POP PUSH2 0x3CC PUSH2 0x7C4 CALLDATASIZE PUSH1 0x4 PUSH2 0x365E JUMP JUMPDEST PUSH2 0x2175 JUMP JUMPDEST CALLVALUE DUP1 ISZERO PUSH2 0x7D5 JUMPI PUSH1 0x0 DUP1 REVERT JUMPDEST POP PUSH2 0x39E PUSH1 0x5 SLOAD DUP2 JUMP JUMPDEST CALLVALUE DUP1 ISZERO PUSH2 0x7EB JUMPI PUSH1 0x0 DUP1 REVERT JUMPDEST POP PUSH2 0x32D PUSH2 0x21F8 JUMP JUMPDEST CALLVALUE DUP1 ISZERO PUSH2 0x800 JUMPI PUSH1 0x0 DUP1 REVERT JUMPDEST POP PUSH2 0x32D PUSH2 0x80F CALLDATASIZE PUSH1 0x4 PUSH2 0x32ED JUMP JUMPDEST PUSH2 0x2207 JUMP JUMPDEST CALLVALUE DUP1 ISZERO PUSH2 0x820 JUMPI PUSH1 0x0 DUP1 REVERT JUMPDEST POP PUSH2 0x3CC PUSH2 0x82F CALLDATASIZE PUSH1 0x4 PUSH2 0x369A JUMP JUMPDEST PUSH2 0x2298 JUMP JUMPDEST CALLVALUE DUP1 ISZERO PUSH2 0x840 JUMPI PUSH1 0x0 DUP1 REVERT JUMPDEST POP PUSH2 0x39E PUSH2 0x84F CALLDATASIZE PUSH1 0x4 PUSH2 0x3274 JUMP JUMPDEST PUSH2 0x23B1 JUMP JUMPDEST CALLVALUE DUP1 ISZERO PUSH2 0x860 JUMPI PUSH1 0x0 DUP1 REVERT JUMPDEST POP PUSH2 0x3CC PUSH2 0x86F CALLDATASIZE PUSH1 0x4 PUSH2 0x3507 JUMP JUMPDEST PUSH2 0x2439 JUMP JUMPDEST CALLVALUE DUP1 ISZERO PUSH2 0x880 JUMPI PUSH1 0x0 DUP1 REVERT JUMPDEST POP PUSH2 0x378 PUSH2 0x88F CALLDATASIZE PUSH1 0x4 PUSH2 0x3707 JUMP JUMPDEST PUSH2 0x248D JUMP JUMPDEST CALLVALUE DUP1 ISZERO PUSH2 0x8A0 JUMPI PUSH1 0x0 DUP1 REVERT JUMPDEST POP PUSH2 0x3CC PUSH2 0x8AF CALLDATASIZE PUSH1 0x4 PUSH2 0x32ED JUMP JUMPDEST PUSH2 0x24DC JUMP JUMPDEST CALLVALUE DUP1 ISZERO PUSH2 0x8C0 JUMPI PUSH1 0x0 DUP1 REVERT JUMPDEST POP PUSH2 0x39E PUSH2 0x8CF CALLDATASIZE PUSH1 0x4 PUSH2 0x3274 JUMP JUMPDEST PUSH1 0x10 PUSH1 0x20 MSTORE PUSH1 0x0 SWAP1 DUP2 MSTORE PUSH1 0x40 SWAP1 KECCAK256 SLOAD DUP2 JUMP JUMPDEST CALLVALUE DUP1 ISZERO PUSH2 0x8ED JUMPI PUSH1 0x0 DUP1 REVERT JUMPDEST POP PUSH2 0x32D PUSH2 0x8FC CALLDATASIZE PUSH1 0x4 PUSH2 0x3274 JUMP JUMPDEST PUSH2 0x257A JUMP JUMPDEST CALLVALUE DUP1 ISZERO PUSH2 0x90D JUMPI PUSH1 0x0 DUP1 REVERT JUMPDEST POP PUSH2 0x378 PUSH2 0x91C CALLDATASIZE PUSH1 0x4 PUSH2 0x3768 JUMP JUMPDEST PUSH2 0x26A5 JUMP JUMPDEST CALLVALUE DUP1 ISZERO PUSH2 0x92D JUMPI PUSH1 0x0 DUP1 REVERT JUMPDEST POP PUSH2 0x3CC PUSH2 0x93C CALLDATASIZE PUSH1 0x4 PUSH2 0x3792 JUMP JUMPDEST PUSH2 0x2836 JUMP JUMPDEST CALLVALUE DUP1 ISZERO PUSH2 0x94D JUMPI PUSH1 0x0 DUP1 REVERT JUMPDEST POP PUSH2 0x974 PUSH2 0x95C CALLDATASIZE PUSH1 0x4 PUSH2 0x3274 JUMP JUMPDEST PUSH1 0xF PUSH1 0x20 MSTORE PUSH1 0x0 SWAP1 DUP2 MSTORE PUSH1 0x40 SWAP1 KECCAK256 SLOAD PUSH4 0xFFFFFFFF AND DUP2 JUMP JUMPDEST PUSH1 0x40 MLOAD PUSH4 0xFFFFFFFF SWAP1 SWAP2 AND DUP2 MSTORE PUSH1 0x20 ADD PUSH2 0x33A JUMP JUMPDEST CALLVALUE DUP1 ISZERO PUSH2 0x995 JUMPI PUSH1 0x0 DUP1 REVERT JUMPDEST POP PUSH2 0x39E PUSH1 0x9 SLOAD DUP2 JUMP JUMPDEST CALLVALUE DUP1 ISZERO PUSH2 0x9AB JUMPI PUSH1 0x0 DUP1 REVERT JUMPDEST POP PUSH2 0x50E PUSH2 0x9BA CALLDATASIZE PUSH1 0x4 PUSH2 0x3274 JUMP JUMPDEST PUSH2 0x28E1 JUMP JUMPDEST CALLVALUE DUP1 ISZERO PUSH2 0x9CB JUMPI PUSH1 0x0 DUP1 REVERT JUMPDEST POP PUSH2 0x3CC PUSH2 0x9DA CALLDATASIZE PUSH1 0x4 PUSH2 0x35FC JUMP JUMPDEST PUSH2 0x2A0A JUMP JUMPDEST PUSH1 0x0 DUP2 DUP2 MSTORE PUSH1 0x3 PUSH1 0x20 MSTORE PUSH1 0x40 DUP2 KECCAK256 DUP1 SLOAD PUSH1 0x60 SWAP3 SWAP1 PUSH2 0x9FF JUMPI PUSH2 0x9FF PUSH2 0x37CE JUMP JUMPDEST SWAP1 PUSH1 0x0 MSTORE PUSH1 0x20 PUSH1 0x0 KECCAK256 ADD DUP1 SLOAD PUSH2 0xA14 SWAP1 PUSH2 0x37E4 JUMP JUMPDEST DUP1 PUSH1 0x1F ADD PUSH1 0x20 DUP1 SWAP2 DIV MUL PUSH1 0x20 ADD PUSH1 0x40 MLOAD SWAP1 DUP2 ADD PUSH1 0x40 MSTORE DUP1 SWAP3 SWAP2 SWAP1 DUP2 DUP2 MSTORE PUSH1 0x20 ADD DUP3 DUP1 SLOAD PUSH2 0xA40 SWAP1 PUSH2 0x37E4 JUMP JUMPDEST DUP1 ISZERO PUSH2 0xA8D JUMPI DUP1 PUSH1 0x1F LT PUSH2 0xA62 JUMPI PUSH2 0x100 DUP1 DUP4 SLOAD DIV MUL DUP4 MSTORE SWAP2 PUSH1 0x20 ADD SWAP2 PUSH2 0xA8D JUMP JUMPDEST DUP3 ADD SWAP2 SWAP1 PUSH1 0x0 MSTORE PUSH1 0x20 PUSH1 0x0 KECCAK256 SWAP1 JUMPDEST DUP2 SLOAD DUP2 MSTORE SWAP1 PUSH1 0x1 ADD SWAP1 PUSH1 0x20 ADD DUP1 DUP4 GT PUSH2 0xA70 JUMPI DUP3 SWAP1 SUB PUSH1 0x1F AND DUP3 ADD SWAP2 JUMPDEST POP POP POP POP POP SWAP1 POP SWAP2 SWAP1 POP JUMP JUMPDEST PUSH1 0x60 PUSH1 0xA DUP1 SLOAD PUSH2 0xAA8 SWAP1 PUSH2 0x37E4 JUMP JUMPDEST DUP1 PUSH1 0x1F ADD PUSH1 0x20 DUP1 SWAP2 DIV MUL PUSH1 0x20 ADD PUSH1 0x40 MLOAD SWAP1 DUP2 ADD PUSH1 0x40 MSTORE DUP1 SWAP3 SWAP2 SWAP1 DUP2 DUP2 MSTORE PUSH1 0x20 ADD DUP3 DUP1 SLOAD PUSH2 0xAD4 SWAP1 PUSH2 0x37E4 JUMP JUMPDEST DUP1 ISZERO PUSH2 0xB21 JUMPI DUP1 PUSH1 0x1F LT PUSH2 0xAF6 JUMPI PUSH2 0x100 DUP1 DUP4 SLOAD DIV MUL DUP4 MSTORE SWAP2 PUSH1 0x20 ADD SWAP2 PUSH2 0xB21 JUMP JUMPDEST DUP3 ADD SWAP2 SWAP1 PUSH1 0x0 MSTORE PUSH1 0x20 PUSH1 0x0 KECCAK256 SWAP1 JUMPDEST DUP2 SLOAD DUP2 MSTORE SWAP1 PUSH1 0x1 ADD SWAP1 PUSH1 0x20 ADD DUP1 DUP4 GT PUSH2 0xB04 JUMPI DUP3 SWAP1 SUB PUSH1 0x1F AND DUP3 ADD SWAP2 JUMPDEST POP POP POP POP POP SWAP1 POP SWAP1 JUMP JUMPDEST PUSH1 0x0 PUSH1 0x2 DUP1 SLOAD SUB PUSH2 0xB83 JUMPI PUSH1 0x40 MLOAD PUSH3 0x461BCD PUSH1 0xE5 SHL DUP2 MSTORE PUSH1 0x20 PUSH1 0x4 DUP3 ADD MSTORE PUSH1 0x1F PUSH1 0x24 DUP3 ADD MSTORE PUSH32 0x5265656E7472616E637947756172643A207265656E7472616E742063616C6C00 PUSH1 0x44 DUP3 ADD MSTORE PUSH1 0x64 ADD JUMPDEST PUSH1 0x40 MLOAD DUP1 SWAP2 SUB SWAP1 REVERT JUMPDEST PUSH1 0x2 DUP1 SSTORE PUSH1 0x0 DUP1 DUP1 PUSH2 0xB94 DUP6 PUSH2 0x1AC9 JUMP JUMPDEST SWAP2 SWAP5 POP SWAP3 POP SWAP1 POP CALLER PUSH1 0x1 PUSH1 0x1 PUSH1 0xA0 SHL SUB DUP4 AND EQ PUSH2 0xC19 JUMPI PUSH1 0x40 MLOAD PUSH3 0x461BCD PUSH1 0xE5 SHL DUP2 MSTORE PUSH1 0x20 PUSH1 0x4 DUP3 ADD MSTORE PUSH1 0x22 PUSH1 0x24 DUP3 ADD MSTORE PUSH32 0x43616E206E6F7420776974686472617720736F6D656F6E6520656C7365732062 PUSH1 0x44 DUP3 ADD MSTORE PUSH32 0x6964000000000000000000000000000000000000000000000000000000000000 PUSH1 0x64 DUP3 ADD MSTORE PUSH1 0x84 ADD PUSH2 0xB7A JUMP JUMPDEST PUSH1 0x5 SLOAD PUSH2 0xC26 SWAP1 DUP3 PUSH2 0x382E JUMP JUMPDEST TIMESTAMP GT PUSH2 0xC74 JUMPI PUSH1 0x40 MLOAD PUSH3 0x461BCD PUSH1 0xE5 SHL DUP2 MSTORE PUSH1 0x20 PUSH1 0x4 DUP3 ADD MSTORE PUSH1 0x12 PUSH1 0x24 DUP3 ADD MSTORE PUSH32 0x4269642069732074696D652D6C6F636B65640000000000000000000000000000 PUSH1 0x44 DUP3 ADD MSTORE PUSH1 0x64 ADD PUSH2 0xB7A JUMP JUMPDEST PUSH1 0x40 MLOAD PUSH1 0x1 PUSH1 0x1 PUSH1 0xA0 SHL SUB DUP4 AND SWAP1 DUP5 ISZERO PUSH2 0x8FC MUL SWAP1 DUP6 SWAP1 PUSH1 0x0 DUP2 DUP2 DUP2 DUP6 DUP9 DUP9 CALL SWAP4 POP POP POP POP ISZERO DUP1 ISZERO PUSH2 0xCAA JUMPI RETURNDATASIZE PUSH1 0x0 DUP1 RETURNDATACOPY RETURNDATASIZE PUSH1 0x0 REVERT JUMPDEST POP POP POP PUSH1 0x0 SWAP3 DUP4 MSTORE POP POP PUSH1 0x7 PUSH1 0x20 MSTORE PUSH1 0x40 DUP2 KECCAK256 DUP1 SLOAD PUSH1 0x1 PUSH1 0x1 PUSH1 0xA0 SHL SUB NOT AND DUP2 SSTORE PUSH1 0x1 DUP1 DUP3 ADD DUP4 SWAP1 SSTORE PUSH1 0x2 SWAP2 DUP3 ADD SWAP3 SWAP1 SWAP3 SSTORE DUP2 SWAP1 SSTORE SWAP1 JUMP JUMPDEST PUSH1 0x0 SLOAD PUSH1 0x1 PUSH1 0x1 PUSH1 0xA0 SHL SUB AND CALLER EQ PUSH2 0xD2A JUMPI PUSH1 0x40 MLOAD PUSH3 0x461BCD PUSH1 0xE5 SHL DUP2 MSTORE PUSH1 0x20 PUSH1 0x4 DUP3 ADD DUP2 SWAP1 MSTORE PUSH1 0x24 DUP3 ADD MSTORE PUSH1 0x0 DUP1 MLOAD PUSH1 0x20 PUSH2 0x3B38 DUP4 CODECOPY DUP2 MLOAD SWAP2 MSTORE PUSH1 0x44 DUP3 ADD MSTORE PUSH1 0x64 ADD PUSH2 0xB7A JUMP JUMPDEST PUSH1 0x0 SWAP2 DUP3 MSTORE PUSH1 0x10 PUSH1 0x20 MSTORE PUSH1 0x40 SWAP1 SWAP2 KECCAK256 SSTORE JUMP JUMPDEST PUSH1 0x0 SLOAD PUSH1 0x1 PUSH1 0x1 PUSH1 0xA0 SHL SUB AND CALLER EQ PUSH2 0xD84 JUMPI PUSH1 0x40 MLOAD PUSH3 0x461BCD PUSH1 0xE5 SHL DUP2 MSTORE PUSH1 0x20 PUSH1 0x4 DUP3 ADD DUP2 SWAP1 MSTORE PUSH1 0x24 DUP3 ADD MSTORE PUSH1 0x0 DUP1 MLOAD PUSH1 0x20 PUSH2 0x3B38 DUP4 CODECOPY DUP2 MLOAD SWAP2 MSTORE PUSH1 0x44 DUP3 ADD MSTORE PUSH1 0x64 ADD PUSH2 0xB7A JUMP JUMPDEST PUSH1 0x11 SLOAD PUSH1 0x0 SWAP1 DUP2 MSTORE PUSH1 0xE PUSH1 0x20 SWAP1 DUP2 MSTORE PUSH1 0x40 DUP3 KECCAK256 DUP1 SLOAD PUSH1 0x1 DUP2 ADD DUP3 SSTORE SWAP1 DUP4 MSTORE SWAP2 KECCAK256 ADD PUSH2 0xDAF DUP3 DUP3 PUSH2 0x388F JUMP JUMPDEST POP PUSH1 0x11 DUP1 SLOAD PUSH1 0x0 SWAP1 DUP2 MSTORE PUSH1 0xF PUSH1 0x20 MSTORE PUSH1 0x40 DUP2 KECCAK256 DUP1 SLOAD PUSH4 0xFFFFFFFF NOT AND PUSH4 0xFFFFFFFF DUP7 AND OR SWAP1 SSTORE DUP2 SLOAD SWAP2 SWAP1 PUSH2 0xDE2 DUP4 PUSH2 0x394F JUMP JUMPDEST SWAP2 SWAP1 POP SSTORE POP POP POP JUMP JUMPDEST CALLER PUSH2 0xDFE PUSH1 0x0 SLOAD PUSH1 0x1 PUSH1 0x1 PUSH1 0xA0 SHL SUB AND SWAP1 JUMP JUMPDEST PUSH1 0x1 PUSH1 0x1 PUSH1 0xA0 SHL SUB AND EQ DUP1 PUSH2 0xE22 JUMPI POP CALLER PUSH1 0x0 SWAP1 DUP2 MSTORE PUSH1 0x1 PUSH1 0x20 MSTORE PUSH1 0x40 SWAP1 KECCAK256 SLOAD PUSH1 0xFF AND JUMPDEST PUSH2 0xE5C JUMPI PUSH1 0x40 MLOAD PUSH3 0x461BCD PUSH1 0xE5 SHL DUP2 MSTORE PUSH1 0x20 PUSH1 0x4 DUP3 ADD DUP2 SWAP1 MSTORE PUSH1 0x24 DUP3 ADD MSTORE PUSH1 0x0 DUP1 MLOAD PUSH1 0x20 PUSH2 0x3B38 DUP4 CODECOPY DUP2 MLOAD SWAP2 MSTORE PUSH1 0x44 DUP3 ADD MSTORE PUSH1 0x64 ADD PUSH2 0xB7A JUMP JUMPDEST PUSH2 0xE67 DUP4 DUP4 DUP4 PUSH2 0x2ADA JUMP JUMPDEST POP POP POP JUMP JUMPDEST PUSH1 0x0 PUSH2 0xE77 DUP5 PUSH2 0x19DF JUMP JUMPDEST PUSH1 0x1 PUSH1 0x1 PUSH1 0xA0 SHL SUB AND CALLER PUSH1 0x1 PUSH1 0x1 PUSH1 0xA0 SHL SUB AND EQ PUSH2 0xEFD JUMPI PUSH1 0x40 MLOAD PUSH3 0x461BCD PUSH1 0xE5 SHL DUP2 MSTORE PUSH1 0x20 PUSH1 0x4 DUP3 ADD MSTORE PUSH1 0x26 PUSH1 0x24 DUP3 ADD MSTORE PUSH32 0x4E46543A206F6E6C79206F776E65722063616E206368616E6765204E46542063 PUSH1 0x44 DUP3 ADD MSTORE PUSH32 0x6F6E74656E740000000000000000000000000000000000000000000000000000 PUSH1 0x64 DUP3 ADD MSTORE PUSH1 0x84 ADD PUSH2 0xB7A JUMP JUMPDEST PUSH1 0x0 DUP5 DUP2 MSTORE PUSH1 0x3 PUSH1 0x20 MSTORE PUSH1 0x40 DUP2 KECCAK256 DUP1 SLOAD DUP6 SWAP3 DUP6 SWAP3 SWAP2 PUSH2 0xF1E JUMPI PUSH2 0xF1E PUSH2 0x37CE JUMP JUMPDEST SWAP1 PUSH1 0x0 MSTORE PUSH1 0x20 PUSH1 0x0 KECCAK256 ADD SWAP2 DUP3 PUSH2 0xF35 SWAP3 SWAP2 SWAP1 PUSH2 0x3968 JUMP JUMPDEST POP PUSH1 0x1 SWAP5 SWAP4 POP POP POP POP JUMP JUMPDEST PUSH1 0x0 SLOAD PUSH1 0x1 PUSH1 0x1 PUSH1 0xA0 SHL SUB AND CALLER EQ PUSH2 0xF88 JUMPI PUSH1 0x40 MLOAD PUSH3 0x461BCD PUSH1 0xE5 SHL DUP2 MSTORE PUSH1 0x20 PUSH1 0x4 DUP3 ADD DUP2 SWAP1 MSTORE PUSH1 0x24 DUP3 ADD MSTORE PUSH1 0x0 DUP1 MLOAD PUSH1 0x20 PUSH2 0x3B38 DUP4 CODECOPY DUP2 MLOAD SWAP2 MSTORE PUSH1 0x44 DUP3 ADD MSTORE PUSH1 0x64 ADD PUSH2 0xB7A JUMP JUMPDEST DUP3 PUSH1 0x11 SLOAD DUP2 LT PUSH2 0xFDA JUMPI PUSH1 0x40 MLOAD PUSH3 0x461BCD PUSH1 0xE5 SHL DUP2 MSTORE PUSH1 0x20 PUSH1 0x4 DUP3 ADD MSTORE PUSH1 0x1C PUSH1 0x24 DUP3 ADD MSTORE PUSH32 0x5175657269656420636C61737320646F6573206E6F7420657869737400000000 PUSH1 0x44 DUP3 ADD MSTORE PUSH1 0x64 ADD PUSH2 0xB7A JUMP JUMPDEST PUSH1 0x0 DUP5 DUP2 MSTORE PUSH1 0xE PUSH1 0x20 MSTORE PUSH1 0x40 SWAP1 KECCAK256 DUP1 SLOAD DUP4 SWAP2 SWAP1 DUP6 SWAP1 DUP2 LT PUSH2 0xFFD JUMPI PUSH2 0xFFD PUSH2 0x37CE JUMP JUMPDEST SWAP1 PUSH1 0x0 MSTORE PUSH1 0x20 PUSH1 0x0 KECCAK256 ADD SWAP1 DUP2 PUSH2 0x1013 SWAP2 SWAP1 PUSH2 0x388F JUMP JUMPDEST POP POP POP POP POP JUMP JUMPDEST PUSH1 0x0 SLOAD PUSH1 0x1 PUSH1 0x1 PUSH1 0xA0 SHL SUB AND CALLER EQ PUSH2 0x1062 JUMPI PUSH1 0x40 MLOAD PUSH3 0x461BCD PUSH1 0xE5 SHL DUP2 MSTORE PUSH1 0x20 PUSH1 0x4 DUP3 ADD DUP2 SWAP1 MSTORE PUSH1 0x24 DUP3 ADD MSTORE PUSH1 0x0 DUP1 MLOAD PUSH1 0x20 PUSH2 0x3B38 DUP4 CODECOPY DUP2 MLOAD SWAP2 MSTORE PUSH1 0x44 DUP3 ADD MSTORE PUSH1 0x64 ADD PUSH2 0xB7A JUMP JUMPDEST PUSH2 0x106E DUP5 DUP5 DUP5 DUP5 PUSH2 0x2B03 JUMP JUMPDEST POP POP POP POP JUMP JUMPDEST PUSH1 0x0 DUP2 PUSH1 0x11 SLOAD DUP2 LT PUSH2 0x10C8 JUMPI PUSH1 0x40 MLOAD PUSH3 0x461BCD PUSH1 0xE5 SHL DUP2 MSTORE PUSH1 0x20 PUSH1 0x4 DUP3 ADD MSTORE PUSH1 0x1C PUSH1 0x24 DUP3 ADD MSTORE PUSH32 0x5175657269656420636C61737320646F6573206E6F7420657869737400000000 PUSH1 0x44 DUP3 ADD MSTORE PUSH1 0x64 ADD PUSH2 0xB7A JUMP JUMPDEST CALLER PUSH1 0x0 SWAP1 DUP2 MSTORE PUSH1 0x1 PUSH1 0x20 MSTORE PUSH1 0x40 SWAP1 KECCAK256 SLOAD PUSH1 0xFF AND PUSH2 0x1127 JUMPI PUSH1 0x40 MLOAD PUSH3 0x461BCD PUSH1 0xE5 SHL DUP2 MSTORE PUSH1 0x20 PUSH1 0x4 DUP3 ADD MSTORE PUSH1 0x14 PUSH1 0x24 DUP3 ADD MSTORE PUSH32 0x4D696E74657220726F6C65207265717569726564000000000000000000000000 PUSH1 0x44 DUP3 ADD MSTORE PUSH1 0x64 ADD PUSH2 0xB7A JUMP JUMPDEST PUSH2 0x112F PUSH2 0x2B7C JUMP JUMPDEST PUSH1 0x0 DUP2 DUP2 MSTORE PUSH1 0x10 PUSH1 0x20 SWAP1 DUP2 MSTORE PUSH1 0x40 DUP1 DUP4 KECCAK256 DUP8 SWAP1 SSTORE SWAP6 DUP3 MSTORE PUSH1 0xF DUP2 MSTORE DUP6 DUP3 KECCAK256 SLOAD DUP4 DUP4 MSTORE PUSH1 0x8 SWAP1 SWAP2 MSTORE SWAP5 SWAP1 KECCAK256 DUP1 SLOAD PUSH4 0xFFFFFFFF NOT AND PUSH4 0xFFFFFFFF SWAP1 SWAP6 AND SWAP5 SWAP1 SWAP5 OR SWAP1 SWAP4 SSTORE POP SWAP1 SWAP2 SWAP1 POP JUMP JUMPDEST DUP4 DUP3 DUP3 DUP1 DUP1 PUSH1 0x1F ADD PUSH1 0x20 DUP1 SWAP2 DIV MUL PUSH1 0x20 ADD PUSH1 0x40 MLOAD SWAP1 DUP2 ADD PUSH1 0x40 MSTORE DUP1 SWAP4 SWAP3 SWAP2 SWAP1 DUP2 DUP2 MSTORE PUSH1 0x20 ADD DUP4 DUP4 DUP1 DUP3 DUP5 CALLDATACOPY PUSH1 0x0 SWAP3 ADD SWAP2 SWAP1 SWAP2 MSTORE POP POP PUSH1 0x2 SLOAD PUSH1 0x1 NOT ADD SWAP2 POP PUSH2 0x1204 SWAP1 POP JUMPI PUSH1 0x40 MLOAD PUSH3 0x461BCD PUSH1 0xE5 SHL DUP2 MSTORE PUSH1 0x20 PUSH1 0x4 DUP3 ADD MSTORE PUSH1 0x1F PUSH1 0x24 DUP3 ADD MSTORE PUSH32 0x5265656E7472616E637947756172643A207265656E7472616E742063616C6C00 PUSH1 0x44 DUP3 ADD MSTORE PUSH1 0x64 ADD PUSH2 0xB7A JUMP JUMPDEST PUSH1 0x2 DUP1 SSTORE CALLER PUSH2 0x1212 DUP8 PUSH2 0x19DF JUMP JUMPDEST PUSH1 0x1 PUSH1 0x1 PUSH1 0xA0 SHL SUB AND EQ PUSH2 0x128E JUMPI PUSH1 0x40 MLOAD PUSH3 0x461BCD PUSH1 0xE5 SHL DUP2 MSTORE PUSH1 0x20 PUSH1 0x4 DUP3 ADD MSTORE PUSH1 0x2C PUSH1 0x24 DUP3 ADD MSTORE PUSH32 0x53657474696E672061736B73206973206F6E6C7920616C6C6F77656420666F72 PUSH1 0x44 DUP3 ADD MSTORE PUSH32 0x206F776E6564204E465473210000000000000000000000000000000000000000 PUSH1 0x64 DUP3 ADD MSTORE PUSH1 0x84 ADD PUSH2 0xB7A JUMP JUMPDEST PUSH1 0x0 DUP7 DUP2 MSTORE PUSH1 0x6 PUSH1 0x20 MSTORE PUSH1 0x40 DUP2 KECCAK256 DUP7 SWAP1 SSTORE PUSH1 0x1 PUSH1 0x2 SSTORE DUP1 PUSH2 0x12AE DUP5 PUSH2 0x1AC9 JUMP JUMPDEST POP SWAP2 POP SWAP2 POP PUSH1 0x0 PUSH2 0x12BE DUP6 PUSH2 0x23B1 JUMP JUMPDEST GT DUP1 ISZERO PUSH2 0x12D3 JUMPI POP DUP2 PUSH2 0x12D0 DUP6 PUSH2 0x23B1 JUMP JUMPDEST GT ISZERO JUMPDEST ISZERO PUSH2 0x13D2 JUMPI PUSH1 0x0 PUSH2 0x12E4 DUP4 DUP7 PUSH2 0x2BAE JUMP JUMPDEST PUSH2 0x12EE SWAP1 DUP5 PUSH2 0x3A28 JUMP JUMPDEST SWAP1 POP PUSH2 0x12F9 DUP6 PUSH2 0x19DF JUMP JUMPDEST PUSH1 0x1 PUSH1 0x1 PUSH1 0xA0 SHL SUB AND DUP3 PUSH1 0x1 PUSH1 0x1 PUSH1 0xA0 SHL SUB AND DUP7 PUSH32 0xC9B9AFD9684B23C6B22A41016C08E8954AC118220C0A52F00B8774C46580E9A3 DUP5 PUSH1 0x40 MLOAD PUSH2 0x133E SWAP2 DUP2 MSTORE PUSH1 0x20 ADD SWAP1 JUMP JUMPDEST PUSH1 0x40 MLOAD DUP1 SWAP2 SUB SWAP1 LOG4 PUSH2 0x134F DUP6 PUSH2 0x19DF JUMP JUMPDEST PUSH1 0x1 PUSH1 0x1 PUSH1 0xA0 SHL SUB AND PUSH2 0x8FC DUP3 SWAP1 DUP2 ISZERO MUL SWAP1 PUSH1 0x40 MLOAD PUSH1 0x0 PUSH1 0x40 MLOAD DUP1 DUP4 SUB DUP2 DUP6 DUP9 DUP9 CALL SWAP4 POP POP POP POP ISZERO DUP1 ISZERO PUSH2 0x1387 JUMPI RETURNDATASIZE PUSH1 0x0 DUP1 RETURNDATACOPY RETURNDATASIZE PUSH1 0x0 REVERT JUMPDEST POP PUSH1 0x0 DUP6 DUP2 MSTORE PUSH1 0x7 PUSH1 0x20 SWAP1 DUP2 MSTORE PUSH1 0x40 DUP1 DUP4 KECCAK256 DUP1 SLOAD PUSH1 0x1 PUSH1 0x1 PUSH1 0xA0 SHL SUB NOT AND DUP2 SSTORE PUSH1 0x1 DUP2 ADD DUP5 SWAP1 SSTORE PUSH1 0x2 ADD DUP4 SWAP1 SSTORE PUSH1 0x6 SWAP1 SWAP2 MSTORE DUP2 KECCAK256 SSTORE PUSH2 0x13D0 PUSH2 0x13C8 DUP7 PUSH2 0x19DF JUMP JUMPDEST DUP4 DUP8 DUP8 PUSH2 0x2C41 JUMP JUMPDEST POP JUMPDEST POP POP POP POP POP POP POP POP JUMP JUMPDEST PUSH1 0xE PUSH1 0x20 MSTORE DUP2 PUSH1 0x0 MSTORE PUSH1 0x40 PUSH1 0x0 KECCAK256 DUP2 DUP2 SLOAD DUP2 LT PUSH2 0x13F8 JUMPI PUSH1 0x0 DUP1 REVERT JUMPDEST SWAP1 PUSH1 0x0 MSTORE PUSH1 0x20 PUSH1 0x0 KECCAK256 ADD PUSH1 0x0 SWAP2 POP SWAP2 POP POP DUP1 SLOAD PUSH2 0x1414 SWAP1 PUSH2 0x37E4 JUMP JUMPDEST DUP1 PUSH1 0x1F ADD PUSH1 0x20 DUP1 SWAP2 DIV MUL PUSH1 0x20 ADD PUSH1 0x40 MLOAD SWAP1 DUP2 ADD PUSH1 0x40 MSTORE DUP1 SWAP3 SWAP2 SWAP1 DUP2 DUP2 MSTORE PUSH1 0x20 ADD DUP3 DUP1 SLOAD PUSH2 0x1440 SWAP1 PUSH2 0x37E4 JUMP JUMPDEST DUP1 ISZERO PUSH2 0x148D JUMPI DUP1 PUSH1 0x1F LT PUSH2 0x1462 JUMPI PUSH2 0x100 DUP1 DUP4 SLOAD DIV MUL DUP4 MSTORE SWAP2 PUSH1 0x20 ADD SWAP2 PUSH2 0x148D JUMP JUMPDEST DUP3 ADD SWAP2 SWAP1 PUSH1 0x0 MSTORE PUSH1 0x20 PUSH1 0x0 KECCAK256 SWAP1 JUMPDEST DUP2 SLOAD DUP2 MSTORE SWAP1 PUSH1 0x1 ADD SWAP1 PUSH1 0x20 ADD DUP1 DUP4 GT PUSH2 0x1470 JUMPI DUP3 SWAP1 SUB PUSH1 0x1F AND DUP3 ADD SWAP2 JUMPDEST POP POP POP POP POP DUP2 JUMP JUMPDEST PUSH1 0x0 SLOAD PUSH1 0x1 PUSH1 0x1 PUSH1 0xA0 SHL SUB AND CALLER EQ PUSH2 0x14DD JUMPI PUSH1 0x40 MLOAD PUSH3 0x461BCD PUSH1 0xE5 SHL DUP2 MSTORE PUSH1 0x20 PUSH1 0x4 DUP3 ADD DUP2 SWAP1 MSTORE PUSH1 0x24 DUP3 ADD MSTORE PUSH1 0x0 DUP1 MLOAD PUSH1 0x20 PUSH2 0x3B38 DUP4 CODECOPY DUP2 MLOAD SWAP2 MSTORE PUSH1 0x44 DUP3 ADD MSTORE PUSH1 0x64 ADD PUSH2 0xB7A JUMP JUMPDEST DUP3 PUSH1 0x11 SLOAD DUP2 LT PUSH2 0x152F JUMPI PUSH1 0x40 MLOAD PUSH3 0x461BCD PUSH1 0xE5 SHL DUP2 MSTORE PUSH1 0x20 PUSH1 0x4 DUP3 ADD MSTORE PUSH1 0x1C PUSH1 0x24 DUP3 ADD MSTORE PUSH32 0x5175657269656420636C61737320646F6573206E6F7420657869737400000000 PUSH1 0x44 DUP3 ADD MSTORE PUSH1 0x64 ADD PUSH2 0xB7A JUMP JUMPDEST PUSH1 0x0 DUP5 DUP2 MSTORE PUSH1 0xE PUSH1 0x20 MSTORE PUSH1 0x40 SWAP1 KECCAK256 DUP1 SLOAD PUSH2 0x15F6 SWAP2 DUP5 SWAP2 DUP7 SWAP1 DUP2 LT PUSH2 0x1555 JUMPI PUSH2 0x1555 PUSH2 0x37CE JUMP JUMPDEST SWAP1 PUSH1 0x0 MSTORE PUSH1 0x20 PUSH1 0x0 KECCAK256 ADD DUP1 SLOAD PUSH2 0x156A SWAP1 PUSH2 0x37E4 JUMP JUMPDEST DUP1 PUSH1 0x1F ADD PUSH1 0x20 DUP1 SWAP2 DIV MUL PUSH1 0x20 ADD PUSH1 0x40 MLOAD SWAP1 DUP2 ADD PUSH1 0x40 MSTORE DUP1 SWAP3 SWAP2 SWAP1 DUP2 DUP2 MSTORE PUSH1 0x20 ADD DUP3 DUP1 SLOAD PUSH2 0x1596 SWAP1 PUSH2 0x37E4 JUMP JUMPDEST DUP1 ISZERO PUSH2 0x15E3 JUMPI DUP1 PUSH1 0x1F LT PUSH2 0x15B8 JUMPI PUSH2 0x100 DUP1 DUP4 SLOAD DIV MUL DUP4 MSTORE SWAP2 PUSH1 0x20 ADD SWAP2 PUSH2 0x15E3 JUMP JUMPDEST DUP3 ADD SWAP2 SWAP1 PUSH1 0x0 MSTORE PUSH1 0x20 PUSH1 0x0 KECCAK256 SWAP1 JUMPDEST DUP2 SLOAD DUP2 MSTORE SWAP1 PUSH1 0x1 ADD SWAP1 PUSH1 0x20 ADD DUP1 DUP4 GT PUSH2 0x15C6 JUMPI DUP3 SWAP1 SUB PUSH1 0x1F AND DUP3 ADD SWAP2 JUMPDEST POP POP POP POP POP PUSH2 0x2E8B SWAP1 SWAP2 SWAP1 PUSH4 0xFFFFFFFF AND JUMP JUMPDEST PUSH1 0x0 DUP6 DUP2 MSTORE PUSH1 0xE PUSH1 0x20 MSTORE PUSH1 0x40 SWAP1 KECCAK256 DUP1 SLOAD DUP6 SWAP1 DUP2 LT PUSH2 0xFFD JUMPI PUSH2 0xFFD PUSH2 0x37CE JUMP JUMPDEST PUSH1 0x0 DUP2 DUP2 MSTORE PUSH1 0x10 PUSH1 0x20 MSTORE PUSH1 0x40 SWAP1 KECCAK256 SLOAD PUSH1 0x11 SLOAD PUSH1 0x60 SWAP2 SWAP1 DUP2 LT PUSH2 0x167A JUMPI PUSH1 0x40 MLOAD PUSH3 0x461BCD PUSH1 0xE5 SHL DUP2 MSTORE PUSH1 0x20 PUSH1 0x4 DUP3 ADD MSTORE PUSH1 0x1C PUSH1 0x24 DUP3 ADD MSTORE PUSH32 0x5175657269656420636C61737320646F6573206E6F7420657869737400000000 PUSH1 0x44 DUP3 ADD MSTORE PUSH1 0x64 ADD PUSH2 0xB7A JUMP JUMPDEST PUSH1 0x0 DUP4 DUP2 MSTORE PUSH1 0x10 PUSH1 0x20 SWAP1 DUP2 MSTORE PUSH1 0x40 DUP1 DUP4 KECCAK256 SLOAD DUP4 MSTORE PUSH1 0xE DUP3 MSTORE DUP1 DUP4 KECCAK256 DUP1 SLOAD DUP3 MLOAD DUP2 DUP6 MUL DUP2 ADD DUP6 ADD SWAP1 SWAP4 MSTORE DUP1 DUP4 MSTORE SWAP2 SWAP4 SWAP1 SWAP3 DUP5 ADD JUMPDEST DUP3 DUP3 LT ISZERO PUSH2 0x1759 JUMPI DUP4 DUP3 SWAP1 PUSH1 0x0 MSTORE PUSH1 0x20 PUSH1 0x0 KECCAK256 ADD DUP1 SLOAD PUSH2 0x16CC SWAP1 PUSH2 0x37E4 JUMP JUMPDEST DUP1 PUSH1 0x1F ADD PUSH1 0x20 DUP1 SWAP2 DIV MUL PUSH1 0x20 ADD PUSH1 0x40 MLOAD SWAP1 DUP2 ADD PUSH1 0x40 MSTORE DUP1 SWAP3 SWAP2 SWAP1 DUP2 DUP2 MSTORE PUSH1 0x20 ADD DUP3 DUP1 SLOAD PUSH2 0x16F8 SWAP1 PUSH2 0x37E4 JUMP JUMPDEST DUP1 ISZERO PUSH2 0x1745 JUMPI DUP1 PUSH1 0x1F LT PUSH2 0x171A JUMPI PUSH2 0x100 DUP1 DUP4 SLOAD DIV MUL DUP4 MSTORE SWAP2 PUSH1 0x20 ADD SWAP2 PUSH2 0x1745 JUMP JUMPDEST DUP3 ADD SWAP2 SWAP1 PUSH1 0x0 MSTORE PUSH1 0x20 PUSH1 0x0 KECCAK256 SWAP1 JUMPDEST DUP2 SLOAD DUP2 MSTORE SWAP1 PUSH1 0x1 ADD SWAP1 PUSH1 0x20 ADD DUP1 DUP4 GT PUSH2 0x1728 JUMPI DUP3 SWAP1 SUB PUSH1 0x1F AND DUP3 ADD SWAP2 JUMPDEST POP POP POP POP POP DUP2 MSTORE PUSH1 0x20 ADD SWAP1 PUSH1 0x1 ADD SWAP1 PUSH2 0x16AD JUMP JUMPDEST POP POP POP POP SWAP2 POP JUMPDEST POP SWAP2 SWAP1 POP JUMP JUMPDEST PUSH1 0x60 DUP3 PUSH1 0x11 SLOAD DUP2 LT PUSH2 0x17BA JUMPI PUSH1 0x40 MLOAD PUSH3 0x461BCD PUSH1 0xE5 SHL DUP2 MSTORE PUSH1 0x20 PUSH1 0x4 DUP3 ADD MSTORE PUSH1 0x1C PUSH1 0x24 DUP3 ADD MSTORE PUSH32 0x5175657269656420636C61737320646F6573206E6F7420657869737400000000 PUSH1 0x44 DUP3 ADD MSTORE PUSH1 0x64 ADD PUSH2 0xB7A JUMP JUMPDEST PUSH1 0x0 DUP5 DUP2 MSTORE PUSH1 0xE PUSH1 0x20 MSTORE PUSH1 0x40 SWAP1 KECCAK256 DUP1 SLOAD DUP5 SWAP1 DUP2 LT PUSH2 0x17DA JUMPI PUSH2 0x17DA PUSH2 0x37CE JUMP JUMPDEST SWAP1 PUSH1 0x0 MSTORE PUSH1 0x20 PUSH1 0x0 KECCAK256 ADD DUP1 SLOAD PUSH2 0x17EF SWAP1 PUSH2 0x37E4 JUMP JUMPDEST DUP1 PUSH1 0x1F ADD PUSH1 0x20 DUP1 SWAP2 DIV MUL PUSH1 0x20 ADD PUSH1 0x40 MLOAD SWAP1 DUP2 ADD PUSH1 0x40 MSTORE DUP1 SWAP3 SWAP2 SWAP1 DUP2 DUP2 MSTORE PUSH1 0x20 ADD DUP3 DUP1 SLOAD PUSH2 0x181B SWAP1 PUSH2 0x37E4 JUMP JUMPDEST DUP1 ISZERO PUSH2 0x1868 JUMPI DUP1 PUSH1 0x1F LT PUSH2 0x183D JUMPI PUSH2 0x100 DUP1 DUP4 SLOAD DIV MUL DUP4 MSTORE SWAP2 PUSH1 0x20 ADD SWAP2 PUSH2 0x1868 JUMP JUMPDEST DUP3 ADD SWAP2 SWAP1 PUSH1 0x0 MSTORE PUSH1 0x20 PUSH1 0x0 KECCAK256 SWAP1 JUMPDEST DUP2 SLOAD DUP2 MSTORE SWAP1 PUSH1 0x1 ADD SWAP1 PUSH1 0x20 ADD DUP1 DUP4 GT PUSH2 0x184B JUMPI DUP3 SWAP1 SUB PUSH1 0x1F AND DUP3 ADD SWAP2 JUMPDEST POP POP POP POP POP SWAP2 POP POP SWAP3 SWAP2 POP POP JUMP JUMPDEST PUSH1 0x40 DUP1 MLOAD PUSH1 0x20 DUP1 DUP3 ADD DUP4 MSTORE PUSH1 0x60 DUP3 MSTORE PUSH1 0x0 DUP5 DUP2 MSTORE PUSH1 0x3 DUP3 MSTORE DUP4 DUP2 KECCAK256 DUP5 MLOAD DUP2 SLOAD DUP1 DUP6 MUL DUP3 ADD DUP8 ADD DUP8 MSTORE SWAP4 DUP2 ADD DUP5 DUP2 MSTORE SWAP5 SWAP6 SWAP1 SWAP5 SWAP2 SWAP4 DUP6 SWAP4 DUP6 SWAP3 DUP6 ADD JUMPDEST DUP3 DUP3 LT ISZERO PUSH2 0x195D JUMPI DUP4 DUP3 SWAP1 PUSH1 0x0 MSTORE PUSH1 0x20 PUSH1 0x0 KECCAK256 ADD DUP1 SLOAD PUSH2 0x18D0 SWAP1 PUSH2 0x37E4 JUMP JUMPDEST DUP1 PUSH1 0x1F ADD PUSH1 0x20 DUP1 SWAP2 DIV MUL PUSH1 0x20 ADD PUSH1 0x40 MLOAD SWAP1 DUP2 ADD PUSH1 0x40 MSTORE DUP1 SWAP3 SWAP2 SWAP1 DUP2 DUP2 MSTORE PUSH1 0x20 ADD DUP3 DUP1 SLOAD PUSH2 0x18FC SWAP1 PUSH2 0x37E4 JUMP JUMPDEST DUP1 ISZERO PUSH2 0x1949 JUMPI DUP1 PUSH1 0x1F LT PUSH2 0x191E JUMPI PUSH2 0x100 DUP1 DUP4 SLOAD DIV MUL DUP4 MSTORE SWAP2 PUSH1 0x20 ADD SWAP2 PUSH2 0x1949 JUMP JUMPDEST DUP3 ADD SWAP2 SWAP1 PUSH1 0x0 MSTORE PUSH1 0x20 PUSH1 0x0 KECCAK256 SWAP1 JUMPDEST DUP2 SLOAD DUP2 MSTORE SWAP1 PUSH1 0x1 ADD SWAP1 PUSH1 0x20 ADD DUP1 DUP4 GT PUSH2 0x192C JUMPI DUP3 SWAP1 SUB PUSH1 0x1F AND DUP3 ADD SWAP2 JUMPDEST POP POP POP POP POP DUP2 MSTORE PUSH1 0x20 ADD SWAP1 PUSH1 0x1 ADD SWAP1 PUSH2 0x18B1 JUMP JUMPDEST POP POP POP SWAP2 MSTORE POP SWAP1 SWAP4 SWAP3 POP POP POP JUMP JUMPDEST PUSH1 0x0 DUP2 DUP2 MSTORE PUSH1 0x10 PUSH1 0x20 MSTORE PUSH1 0x40 DUP2 KECCAK256 SLOAD PUSH1 0x11 SLOAD DUP2 LT PUSH2 0x19CB JUMPI PUSH1 0x40 MLOAD PUSH3 0x461BCD PUSH1 0xE5 SHL DUP2 MSTORE PUSH1 0x20 PUSH1 0x4 DUP3 ADD MSTORE PUSH1 0x1C PUSH1 0x24 DUP3 ADD MSTORE PUSH32 0x5175657269656420636C61737320646F6573206E6F7420657869737400000000 PUSH1 0x44 DUP3 ADD MSTORE PUSH1 0x64 ADD PUSH2 0xB7A JUMP JUMPDEST POP POP PUSH1 0x0 SWAP1 DUP2 MSTORE PUSH1 0x10 PUSH1 0x20 MSTORE PUSH1 0x40 SWAP1 KECCAK256 SLOAD SWAP1 JUMP JUMPDEST PUSH1 0x0 DUP2 DUP2 MSTORE PUSH1 0xC PUSH1 0x20 MSTORE PUSH1 0x40 DUP2 KECCAK256 SLOAD PUSH1 0x1 PUSH1 0x1 PUSH1 0xA0 SHL SUB AND DUP1 PUSH2 0x1A53 JUMPI PUSH1 0x40 MLOAD PUSH3 0x461BCD PUSH1 0xE5 SHL DUP2 MSTORE PUSH1 0x20 PUSH1 0x4 DUP3 ADD MSTORE PUSH1 0x26 PUSH1 0x24 DUP3 ADD MSTORE PUSH32 0x4E46543A206F776E657220717565727920666F72206E6F6E6578697374656E74 PUSH1 0x44 DUP3 ADD MSTORE PUSH6 0x103A37B5B2B7 PUSH1 0xD1 SHL PUSH1 0x64 DUP3 ADD MSTORE PUSH1 0x84 ADD PUSH2 0xB7A JUMP JUMPDEST SWAP3 SWAP2 POP POP JUMP JUMPDEST PUSH1 0x0 SLOAD PUSH1 0x1 PUSH1 0x1 PUSH1 0xA0 SHL SUB AND CALLER EQ PUSH2 0x1AA1 JUMPI PUSH1 0x40 MLOAD PUSH3 0x461BCD PUSH1 0xE5 SHL DUP2 MSTORE PUSH1 0x20 PUSH1 0x4 DUP3 ADD DUP2 SWAP1 MSTORE PUSH1 0x24 DUP3 ADD MSTORE PUSH1 0x0 DUP1 MLOAD PUSH1 0x20 PUSH2 0x3B38 DUP4 CODECOPY DUP2 MLOAD SWAP2 MSTORE PUSH1 0x44 DUP3 ADD MSTORE PUSH1 0x64 ADD PUSH2 0xB7A JUMP JUMPDEST PUSH1 0x0 SWAP2 DUP3 MSTORE PUSH1 0x8 PUSH1 0x20 MSTORE PUSH1 0x40 SWAP1 SWAP2 KECCAK256 DUP1 SLOAD PUSH4 0xFFFFFFFF NOT AND PUSH4 0xFFFFFFFF SWAP1 SWAP3 AND SWAP2 SWAP1 SWAP2 OR SWAP1 SSTORE JUMP JUMPDEST PUSH1 0x0 DUP2 DUP2 MSTORE PUSH1 0xC PUSH1 0x20 MSTORE PUSH1 0x40 DUP2 KECCAK256 SLOAD DUP2 SWAP1 DUP2 SWAP1 PUSH1 0x1 PUSH1 0x1 PUSH1 0xA0 SHL SUB AND DUP1 PUSH2 0x1B41 JUMPI PUSH1 0x40 MLOAD PUSH3 0x461BCD PUSH1 0xE5 SHL DUP2 MSTORE PUSH1 0x20 PUSH1 0x4 DUP3 ADD MSTORE PUSH1 0x26 PUSH1 0x24 DUP3 ADD MSTORE PUSH32 0x4E46543A206F776E657220717565727920666F72206E6F6E6578697374656E74 PUSH1 0x44 DUP3 ADD MSTORE PUSH6 0x103A37B5B2B7 PUSH1 0xD1 SHL PUSH1 0x64 DUP3 ADD MSTORE PUSH1 0x84 ADD PUSH2 0xB7A JUMP JUMPDEST POP POP POP PUSH1 0x0 SWAP2 DUP3 MSTORE POP PUSH1 0x7 PUSH1 0x20 MSTORE PUSH1 0x40 SWAP1 KECCAK256 PUSH1 0x1 DUP2 ADD SLOAD DUP2 SLOAD PUSH1 0x2 SWAP1 SWAP3 ADD SLOAD SWAP1 SWAP3 PUSH1 0x1 PUSH1 0x1 PUSH1 0xA0 SHL SUB SWAP1 SWAP3 AND SWAP2 JUMP JUMPDEST PUSH1 0x0 PUSH1 0x1 PUSH1 0x1 PUSH1 0xA0 SHL SUB DUP3 AND PUSH2 0x1BEE JUMPI PUSH1 0x40 MLOAD PUSH3 0x461BCD PUSH1 0xE5 SHL DUP2 MSTORE PUSH1 0x20 PUSH1 0x4 DUP3 ADD MSTORE PUSH1 0x27 PUSH1 0x24 DUP3 ADD MSTORE PUSH32 0x4E46543A2062616C616E636520717565727920666F7220746865207A65726F20 PUSH1 0x44 DUP3 ADD MSTORE PUSH32 0x6164647265737300000000000000000000000000000000000000000000000000 PUSH1 0x64 DUP3 ADD MSTORE PUSH1 0x84 ADD PUSH2 0xB7A JUMP JUMPDEST POP PUSH1 0x1 PUSH1 0x1 PUSH1 0xA0 SHL SUB AND PUSH1 0x0 SWAP1 DUP2 MSTORE PUSH1 0xD PUSH1 0x20 MSTORE PUSH1 0x40 SWAP1 KECCAK256 SLOAD SWAP1 JUMP JUMPDEST DUP3 DUP3 DUP3 DUP1 DUP1 PUSH1 0x1F ADD PUSH1 0x20 DUP1 SWAP2 DIV MUL PUSH1 0x20 ADD PUSH1 0x40 MLOAD SWAP1 DUP2 ADD PUSH1 0x40 MSTORE DUP1 SWAP4 SWAP3 SWAP2 SWAP1 DUP2 DUP2 MSTORE PUSH1 0x20 ADD DUP4 DUP4 DUP1 DUP3 DUP5 CALLDATACOPY PUSH1 0x0 SWAP3 ADD SWAP2 SWAP1 SWAP2 MSTORE POP POP PUSH1 0x2 SLOAD PUSH1 0x1 NOT ADD SWAP2 POP PUSH2 0x1C96 SWAP1 POP JUMPI PUSH1 0x40 MLOAD PUSH3 0x461BCD PUSH1 0xE5 SHL DUP2 MSTORE PUSH1 0x20 PUSH1 0x4 DUP3 ADD MSTORE PUSH1 0x1F PUSH1 0x24 DUP3 ADD MSTORE PUSH32 0x5265656E7472616E637947756172643A207265656E7472616E742063616C6C00 PUSH1 0x44 DUP3 ADD MSTORE PUSH1 0x64 ADD PUSH2 0xB7A JUMP JUMPDEST PUSH1 0x2 DUP1 SSTORE PUSH1 0x0 DUP1 PUSH2 0x1CA6 DUP8 PUSH2 0x1AC9 JUMP JUMPDEST POP SWAP2 POP SWAP2 POP DUP2 CALLVALUE GT PUSH2 0x1D1F JUMPI PUSH1 0x40 MLOAD PUSH3 0x461BCD PUSH1 0xE5 SHL DUP2 MSTORE PUSH1 0x20 PUSH1 0x4 DUP3 ADD MSTORE PUSH1 0x24 DUP1 DUP3 ADD MSTORE PUSH32 0x4E657720626964206D7573742065786365656420746865206578697374696E67 PUSH1 0x44 DUP3 ADD MSTORE PUSH32 0x206F6E6500000000000000000000000000000000000000000000000000000000 PUSH1 0x64 DUP3 ADD MSTORE PUSH1 0x84 ADD PUSH2 0xB7A JUMP JUMPDEST PUSH1 0x0 DUP3 ISZERO PUSH2 0x1D5F JUMPI PUSH1 0x40 MLOAD PUSH1 0x1 PUSH1 0x1 PUSH1 0xA0 SHL SUB DUP4 AND SWAP1 DUP5 ISZERO PUSH2 0x8FC MUL SWAP1 DUP6 SWAP1 PUSH1 0x0 DUP2 DUP2 DUP2 DUP6 DUP9 DUP9 CALL SWAP4 POP POP POP POP ISZERO DUP1 ISZERO PUSH2 0x1D5D JUMPI RETURNDATASIZE PUSH1 0x0 DUP1 RETURNDATACOPY RETURNDATASIZE PUSH1 0x0 REVERT JUMPDEST POP JUMPDEST CALLVALUE PUSH2 0x1D69 DUP10 PUSH2 0x23B1 JUMP JUMPDEST LT ISZERO PUSH2 0x1D7F JUMPI PUSH2 0x1D78 DUP9 PUSH2 0x23B1 JUMP JUMPDEST SWAP1 POP PUSH2 0x1D82 JUMP JUMPDEST POP CALLVALUE JUMPDEST PUSH1 0x0 DUP9 DUP2 MSTORE PUSH1 0x7 PUSH1 0x20 MSTORE PUSH1 0x40 SWAP1 DUP2 SWAP1 KECCAK256 PUSH1 0x1 DUP2 ADD DUP4 SWAP1 SSTORE DUP1 SLOAD PUSH1 0x1 PUSH1 0x1 PUSH1 0xA0 SHL SUB NOT AND CALLER OR DUP2 SSTORE TIMESTAMP PUSH1 0x2 SWAP1 SWAP2 ADD SSTORE MLOAD DUP2 SWAP1 DUP10 SWAP1 PUSH32 0x223D0D5DB4846341DA7A5CC902B1A7C597E63B6C73B1C6267DC931D290C7AFFB SWAP1 PUSH2 0x1DE4 SWAP1 DUP12 SWAP1 DUP12 SWAP1 PUSH2 0x3A3B JUMP JUMPDEST PUSH1 0x40 MLOAD DUP1 SWAP2 SUB SWAP1 LOG3 CALLVALUE PUSH2 0x1DF6 DUP10 PUSH2 0x23B1 JUMP JUMPDEST LT ISZERO PUSH2 0x1E3D JUMPI CALLER PUSH2 0x8FC PUSH2 0x1E09 DUP11 PUSH2 0x23B1 JUMP JUMPDEST PUSH2 0x1E13 SWAP1 CALLVALUE PUSH2 0x3A28 JUMP JUMPDEST PUSH1 0x40 MLOAD DUP2 ISZERO SWAP1 SWAP3 MUL SWAP2 PUSH1 0x0 DUP2 DUP2 DUP2 DUP6 DUP9 DUP9 CALL SWAP4 POP POP POP POP ISZERO DUP1 ISZERO PUSH2 0x1E3B JUMPI RETURNDATASIZE PUSH1 0x0 DUP1 RETURNDATACOPY RETURNDATASIZE PUSH1 0x0 REVERT JUMPDEST POP JUMPDEST POP POP PUSH1 0x1 PUSH1 0x2 SSTORE POP PUSH1 0x0 DUP1 PUSH2 0x1E51 DUP5 PUSH2 0x1AC9 JUMP JUMPDEST POP SWAP2 POP SWAP2 POP PUSH1 0x0 PUSH2 0x1E61 DUP6 PUSH2 0x23B1 JUMP JUMPDEST GT DUP1 ISZERO PUSH2 0x1E76 JUMPI POP DUP2 PUSH2 0x1E73 DUP6 PUSH2 0x23B1 JUMP JUMPDEST GT ISZERO JUMPDEST ISZERO PUSH2 0x1F6B JUMPI PUSH1 0x0 PUSH2 0x1E87 DUP4 DUP7 PUSH2 0x2BAE JUMP JUMPDEST PUSH2 0x1E91 SWAP1 DUP5 PUSH2 0x3A28 JUMP JUMPDEST SWAP1 POP PUSH2 0x1E9C DUP6 PUSH2 0x19DF JUMP JUMPDEST PUSH1 0x1 PUSH1 0x1 PUSH1 0xA0 SHL SUB AND DUP3 PUSH1 0x1 PUSH1 0x1 PUSH1 0xA0 SHL SUB AND DUP7 PUSH32 0xC9B9AFD9684B23C6B22A41016C08E8954AC118220C0A52F00B8774C46580E9A3 DUP5 PUSH1 0x40 MLOAD PUSH2 0x1EE1 SWAP2 DUP2 MSTORE PUSH1 0x20 ADD SWAP1 JUMP JUMPDEST PUSH1 0x40 MLOAD DUP1 SWAP2 SUB SWAP1 LOG4 PUSH2 0x1EF2 DUP6 PUSH2 0x19DF JUMP JUMPDEST PUSH1 0x1 PUSH1 0x1 PUSH1 0xA0 SHL SUB AND PUSH2 0x8FC DUP3 SWAP1 DUP2 ISZERO MUL SWAP1 PUSH1 0x40 MLOAD PUSH1 0x0 PUSH1 0x40 MLOAD DUP1 DUP4 SUB DUP2 DUP6 DUP9 DUP9 CALL SWAP4 POP POP POP POP ISZERO DUP1 ISZERO PUSH2 0x1F2A JUMPI RETURNDATASIZE PUSH1 0x0 DUP1 RETURNDATACOPY RETURNDATASIZE PUSH1 0x0 REVERT JUMPDEST POP PUSH1 0x0 DUP6 DUP2 MSTORE PUSH1 0x7 PUSH1 0x20 SWAP1 DUP2 MSTORE PUSH1 0x40 DUP1 DUP4 KECCAK256 DUP1 SLOAD PUSH1 0x1 PUSH1 0x1 PUSH1 0xA0 SHL SUB NOT AND DUP2 SSTORE PUSH1 0x1 DUP2 ADD DUP5 SWAP1 SSTORE PUSH1 0x2 ADD DUP4 SWAP1 SSTORE PUSH1 0x6 SWAP1 SWAP2 MSTORE DUP2 KECCAK256 SSTORE PUSH2 0x13D2 PUSH2 0x13C8 DUP7 PUSH2 0x19DF JUMP JUMPDEST POP POP POP POP POP POP POP JUMP JUMPDEST PUSH1 0x0 SLOAD PUSH1 0x1 PUSH1 0x1 PUSH1 0xA0 SHL SUB AND CALLER EQ PUSH2 0x1FBC JUMPI PUSH1 0x40 MLOAD PUSH3 0x461BCD PUSH1 0xE5 SHL DUP2 MSTORE PUSH1 0x20 PUSH1 0x4 DUP3 ADD DUP2 SWAP1 MSTORE PUSH1 0x24 DUP3 ADD MSTORE PUSH1 0x0 DUP1 MLOAD PUSH1 0x20 PUSH2 0x3B38 DUP4 CODECOPY DUP2 MLOAD SWAP2 MSTORE PUSH1 0x44 DUP3 ADD MSTORE PUSH1 0x64 ADD PUSH2 0xB7A JUMP JUMPDEST PUSH1 0x0 SWAP2 DUP3 MSTORE PUSH1 0xF PUSH1 0x20 MSTORE PUSH1 0x40 SWAP1 SWAP2 KECCAK256 DUP1 SLOAD PUSH4 0xFFFFFFFF NOT AND PUSH4 0xFFFFFFFF SWAP1 SWAP3 AND SWAP2 SWAP1 SWAP2 OR SWAP1 SSTORE JUMP JUMPDEST PUSH1 0x0 DUP3 DUP2 MSTORE PUSH1 0x3 PUSH1 0x20 MSTORE PUSH1 0x40 SWAP1 KECCAK256 DUP1 SLOAD PUSH1 0x60 SWAP2 SWAP1 DUP4 SWAP1 DUP2 LT PUSH2 0x2008 JUMPI PUSH2 0x2008 PUSH2 0x37CE JUMP JUMPDEST SWAP1 PUSH1 0x0 MSTORE PUSH1 0x20 PUSH1 0x0 KECCAK256 ADD DUP1 SLOAD PUSH2 0x201D SWAP1 PUSH2 0x37E4 JUMP JUMPDEST DUP1 PUSH1 0x1F ADD PUSH1 0x20 DUP1 SWAP2 DIV MUL PUSH1 0x20 ADD PUSH1 0x40 MLOAD SWAP1 DUP2 ADD PUSH1 0x40 MSTORE DUP1 SWAP3 SWAP2 SWAP1 DUP2 DUP2 MSTORE PUSH1 0x20 ADD DUP3 DUP1 SLOAD PUSH2 0x2049 SWAP1 PUSH2 0x37E4 JUMP JUMPDEST DUP1 ISZERO PUSH2 0x2096 JUMPI DUP1 PUSH1 0x1F LT PUSH2 0x206B JUMPI PUSH2 0x100 DUP1 DUP4 SLOAD DIV MUL DUP4 MSTORE SWAP2 PUSH1 0x20 ADD SWAP2 PUSH2 0x2096 JUMP JUMPDEST DUP3 ADD SWAP2 SWAP1 PUSH1 0x0 MSTORE PUSH1 0x20 PUSH1 0x0 KECCAK256 SWAP1 JUMPDEST DUP2 SLOAD DUP2 MSTORE SWAP1 PUSH1 0x1 ADD SWAP1 PUSH1 0x20 ADD DUP1 DUP4 GT PUSH2 0x2079 JUMPI DUP3 SWAP1 SUB PUSH1 0x1F AND DUP3 ADD SWAP2 JUMPDEST POP POP POP POP POP SWAP1 POP SWAP3 SWAP2 POP POP JUMP JUMPDEST PUSH1 0x0 SLOAD PUSH1 0x1 PUSH1 0x1 PUSH1 0xA0 SHL SUB AND CALLER EQ PUSH2 0x20EB JUMPI PUSH1 0x40 MLOAD PUSH3 0x461BCD PUSH1 0xE5 SHL DUP2 MSTORE PUSH1 0x20 PUSH1 0x4 DUP3 ADD DUP2 SWAP1 MSTORE PUSH1 0x24 DUP3 ADD MSTORE PUSH1 0x0 DUP1 MLOAD PUSH1 0x20 PUSH2 0x3B38 DUP4 CODECOPY DUP2 MLOAD SWAP2 MSTORE PUSH1 0x44 DUP3 ADD MSTORE PUSH1 0x64 ADD PUSH2 0xB7A JUMP JUMPDEST DUP1 PUSH1 0x11 SLOAD DUP2 LT PUSH2 0x213D JUMPI PUSH1 0x40 MLOAD PUSH3 0x461BCD PUSH1 0xE5 SHL DUP2 MSTORE PUSH1 0x20 PUSH1 0x4 DUP3 ADD MSTORE PUSH1 0x1C PUSH1 0x24 DUP3 ADD MSTORE PUSH32 0x5175657269656420636C61737320646F6573206E6F7420657869737400000000 PUSH1 0x44 DUP3 ADD MSTORE PUSH1 0x64 ADD PUSH2 0xB7A JUMP JUMPDEST PUSH1 0x0 DUP3 DUP2 MSTORE PUSH1 0xE PUSH1 0x20 SWAP1 DUP2 MSTORE PUSH1 0x40 DUP1 DUP4 KECCAK256 DUP1 SLOAD PUSH1 0x1 DUP2 ADD DUP3 SSTORE SWAP1 DUP5 MSTORE DUP3 DUP5 KECCAK256 DUP3 MLOAD SWAP4 DUP5 ADD SWAP1 SWAP3 MSTORE SWAP3 DUP3 MSTORE SWAP1 SWAP2 ADD SWAP1 PUSH2 0xE67 SWAP1 DUP3 PUSH2 0x388F JUMP JUMPDEST PUSH1 0x0 SLOAD PUSH1 0x1 PUSH1 0x1 PUSH1 0xA0 SHL SUB AND CALLER EQ PUSH2 0x21BD JUMPI PUSH1 0x40 MLOAD PUSH3 0x461BCD PUSH1 0xE5 SHL DUP2 MSTORE PUSH1 0x20 PUSH1 0x4 DUP3 ADD DUP2 SWAP1 MSTORE PUSH1 0x24 DUP3 ADD MSTORE PUSH1 0x0 DUP1 MLOAD PUSH1 0x20 PUSH2 0x3B38 DUP4 CODECOPY DUP2 MLOAD SWAP2 MSTORE PUSH1 0x44 DUP3 ADD MSTORE PUSH1 0x64 ADD PUSH2 0xB7A JUMP JUMPDEST PUSH4 0xFFFFFFFF SWAP1 SWAP3 AND PUSH1 0x0 SWAP1 DUP2 MSTORE PUSH1 0x4 PUSH1 0x20 MSTORE PUSH1 0x40 SWAP1 KECCAK256 DUP1 SLOAD PUSH1 0x1 PUSH1 0x1 PUSH1 0xA0 SHL SUB SWAP1 SWAP3 AND PUSH1 0x1 PUSH1 0x1 PUSH1 0xA0 SHL SUB NOT SWAP1 SWAP3 AND SWAP2 SWAP1 SWAP2 OR DUP2 SSTORE PUSH1 0x1 ADD SSTORE JUMP JUMPDEST PUSH1 0x60 PUSH1 0xB DUP1 SLOAD PUSH2 0xAA8 SWAP1 PUSH2 0x37E4 JUMP JUMPDEST PUSH1 0x0 DUP3 DUP2 MSTORE PUSH1 0x10 PUSH1 0x20 MSTORE PUSH1 0x40 SWAP1 KECCAK256 SLOAD PUSH1 0x11 SLOAD PUSH1 0x60 SWAP2 SWAP1 DUP2 LT PUSH2 0x226B JUMPI PUSH1 0x40 MLOAD PUSH3 0x461BCD PUSH1 0xE5 SHL DUP2 MSTORE PUSH1 0x20 PUSH1 0x4 DUP3 ADD MSTORE PUSH1 0x1C PUSH1 0x24 DUP3 ADD MSTORE PUSH32 0x5175657269656420636C61737320646F6573206E6F7420657869737400000000 PUSH1 0x44 DUP3 ADD MSTORE PUSH1 0x64 ADD PUSH2 0xB7A JUMP JUMPDEST PUSH1 0x0 DUP5 DUP2 MSTORE PUSH1 0x10 PUSH1 0x20 SWAP1 DUP2 MSTORE PUSH1 0x40 DUP1 DUP4 KECCAK256 SLOAD DUP4 MSTORE PUSH1 0xE SWAP1 SWAP2 MSTORE SWAP1 KECCAK256 DUP1 SLOAD DUP5 SWAP1 DUP2 LT PUSH2 0x17DA JUMPI PUSH2 0x17DA PUSH2 0x37CE JUMP JUMPDEST PUSH1 0x0 SLOAD PUSH1 0x1 PUSH1 0x1 PUSH1 0xA0 SHL SUB AND ISZERO PUSH2 0x22F1 JUMPI PUSH1 0x40 MLOAD PUSH3 0x461BCD PUSH1 0xE5 SHL DUP2 MSTORE PUSH1 0x20 PUSH1 0x4 DUP3 ADD MSTORE PUSH1 0x13 PUSH1 0x24 DUP3 ADD MSTORE PUSH32 0x416C726561647920696E697469616C697A656400000000000000000000000000 PUSH1 0x44 DUP3 ADD MSTORE PUSH1 0x64 ADD PUSH2 0xB7A JUMP JUMPDEST PUSH1 0x0 DUP1 SLOAD PUSH1 0x1 PUSH1 0x1 PUSH1 0xA0 SHL SUB NOT AND CALLER SWAP1 DUP2 OR DUP3 SSTORE PUSH1 0x40 MLOAD SWAP1 SWAP2 SWAP1 PUSH32 0x8BE0079C531659141344CD1FD0A4F28419497F9722A3DAAFE3B4186F6B6457E0 SWAP1 DUP3 SWAP1 LOG3 PUSH3 0x15180 PUSH1 0x5 SSTORE PUSH1 0xA PUSH2 0x2343 DUP5 DUP3 PUSH2 0x388F JUMP JUMPDEST POP PUSH1 0xB PUSH2 0x2350 DUP4 DUP3 PUSH2 0x388F JUMP JUMPDEST POP PUSH1 0x0 DUP1 MSTORE PUSH1 0x4 PUSH1 0x20 MSTORE PUSH32 0x17EF568E3E12AB5B9C7254A8D58478811DE00F9E6EB34345ACD53BF8FD09D3EC DUP1 SLOAD PUSH1 0x1 PUSH1 0x1 PUSH1 0xA0 SHL SUB NOT AND CALLER OR SWAP1 SSTORE PUSH32 0x17EF568E3E12AB5B9C7254A8D58478811DE00F9E6EB34345ACD53BF8FD09D3ED SSTORE POP POP JUMP JUMPDEST PUSH1 0x0 DUP2 DUP2 MSTORE PUSH1 0xC PUSH1 0x20 MSTORE PUSH1 0x40 DUP2 KECCAK256 SLOAD PUSH1 0x1 PUSH1 0x1 PUSH1 0xA0 SHL SUB AND DUP1 PUSH2 0x2425 JUMPI PUSH1 0x40 MLOAD PUSH3 0x461BCD PUSH1 0xE5 SHL DUP2 MSTORE PUSH1 0x20 PUSH1 0x4 DUP3 ADD MSTORE PUSH1 0x26 PUSH1 0x24 DUP3 ADD MSTORE PUSH32 0x4E46543A206F776E657220717565727920666F72206E6F6E6578697374656E74 PUSH1 0x44 DUP3 ADD MSTORE PUSH6 0x103A37B5B2B7 PUSH1 0xD1 SHL PUSH1 0x64 DUP3 ADD MSTORE PUSH1 0x84 ADD PUSH2 0xB7A JUMP JUMPDEST POP POP PUSH1 0x0 SWAP1 DUP2 MSTORE PUSH1 0x6 PUSH1 0x20 MSTORE PUSH1 0x40 SWAP1 KECCAK256 SLOAD SWAP1 JUMP JUMPDEST PUSH1 0x0 SLOAD PUSH1 0x1 PUSH1 0x1 PUSH1 0xA0 SHL SUB AND CALLER EQ PUSH2 0x2481 JUMPI PUSH1 0x40 MLOAD PUSH3 0x461BCD PUSH1 0xE5 SHL DUP2 MSTORE PUSH1 0x20 PUSH1 0x4 DUP3 ADD DUP2 SWAP1 MSTORE PUSH1 0x24 DUP3 ADD MSTORE PUSH1 0x0 DUP1 MLOAD PUSH1 0x20 PUSH2 0x3B38 DUP4 CODECOPY DUP2 MLOAD SWAP2 MSTORE PUSH1 0x44 DUP3 ADD MSTORE PUSH1 0x64 ADD PUSH2 0xB7A JUMP JUMPDEST PUSH2 0x106E DUP5 DUP5 DUP5 DUP5 PUSH2 0x304C JUMP JUMPDEST PUSH1 0x0 PUSH2 0x249B CALLER DUP6 DUP6 DUP6 PUSH2 0x2C41 JUMP JUMPDEST PUSH32 0x3BA9136826AC751DE05D770D8D34FA4440ADA49A5FB0E9AA1678AECE66DAD976 DUP3 PUSH1 0x40 MLOAD PUSH2 0x24CA SWAP2 SWAP1 PUSH2 0x32D3 JUMP JUMPDEST PUSH1 0x40 MLOAD DUP1 SWAP2 SUB SWAP1 LOG1 POP PUSH1 0x1 SWAP4 SWAP3 POP POP POP JUMP JUMPDEST PUSH1 0x0 SLOAD PUSH1 0x1 PUSH1 0x1 PUSH1 0xA0 SHL SUB AND CALLER EQ PUSH2 0x2524 JUMPI PUSH1 0x40 MLOAD PUSH3 0x461BCD PUSH1 0xE5 SHL DUP2 MSTORE PUSH1 0x20 PUSH1 0x4 DUP3 ADD DUP2 SWAP1 MSTORE PUSH1 0x24 DUP3 ADD MSTORE PUSH1 0x0 DUP1 MLOAD PUSH1 0x20 PUSH2 0x3B38 DUP4 CODECOPY DUP2 MLOAD SWAP2 MSTORE PUSH1 0x44 DUP3 ADD MSTORE PUSH1 0x64 ADD PUSH2 0xB7A JUMP JUMPDEST PUSH1 0x0 JUMPDEST DUP3 DUP2 LT ISZERO PUSH2 0xE67 JUMPI PUSH1 0x0 DUP3 DUP2 MSTORE PUSH1 0xE PUSH1 0x20 SWAP1 DUP2 MSTORE PUSH1 0x40 DUP1 DUP4 KECCAK256 DUP1 SLOAD PUSH1 0x1 DUP2 ADD DUP3 SSTORE SWAP1 DUP5 MSTORE DUP3 DUP5 KECCAK256 DUP3 MLOAD SWAP4 DUP5 ADD SWAP1 SWAP3 MSTORE SWAP3 DUP3 MSTORE SWAP1 SWAP2 ADD SWAP1 PUSH2 0x2567 SWAP1 DUP3 PUSH2 0x388F JUMP JUMPDEST POP DUP1 PUSH2 0x2572 DUP2 PUSH2 0x394F JUMP JUMPDEST SWAP2 POP POP PUSH2 0x2527 JUMP JUMPDEST PUSH1 0x0 DUP2 DUP2 MSTORE PUSH1 0x10 PUSH1 0x20 MSTORE PUSH1 0x40 SWAP1 KECCAK256 SLOAD PUSH1 0x11 SLOAD PUSH1 0x60 SWAP2 SWAP1 DUP2 LT PUSH2 0x25DE JUMPI PUSH1 0x40 MLOAD PUSH3 0x461BCD PUSH1 0xE5 SHL DUP2 MSTORE PUSH1 0x20 PUSH1 0x4 DUP3 ADD MSTORE PUSH1 0x1C PUSH1 0x24 DUP3 ADD MSTORE PUSH32 0x5175657269656420636C61737320646F6573206E6F7420657869737400000000 PUSH1 0x44 DUP3 ADD MSTORE PUSH1 0x64 ADD PUSH2 0xB7A JUMP JUMPDEST PUSH1 0x0 DUP4 DUP2 MSTORE PUSH1 0x10 PUSH1 0x20 SWAP1 DUP2 MSTORE PUSH1 0x40 DUP1 DUP4 KECCAK256 SLOAD DUP4 MSTORE PUSH1 0xE SWAP1 SWAP2 MSTORE DUP2 KECCAK256 DUP1 SLOAD SWAP1 SWAP2 SWAP1 PUSH2 0x260A JUMPI PUSH2 0x260A PUSH2 0x37CE JUMP JUMPDEST SWAP1 PUSH1 0x0 MSTORE PUSH1 0x20 PUSH1 0x0 KECCAK256 ADD DUP1 SLOAD PUSH2 0x261F SWAP1 PUSH2 0x37E4 JUMP JUMPDEST DUP1 PUSH1 0x1F ADD PUSH1 0x20 DUP1 SWAP2 DIV MUL PUSH1 0x20 ADD PUSH1 0x40 MLOAD SWAP1 DUP2 ADD PUSH1 0x40 MSTORE DUP1 SWAP3 SWAP2 SWAP1 DUP2 DUP2 MSTORE PUSH1 0x20 ADD DUP3 DUP1 SLOAD PUSH2 0x264B SWAP1 PUSH2 0x37E4 JUMP JUMPDEST DUP1 ISZERO PUSH2 0x2698 JUMPI DUP1 PUSH1 0x1F LT PUSH2 0x266D JUMPI PUSH2 0x100 DUP1 DUP4 SLOAD DIV MUL DUP4 MSTORE SWAP2 PUSH1 0x20 ADD SWAP2 PUSH2 0x2698 JUMP JUMPDEST DUP3 ADD SWAP2 SWAP1 PUSH1 0x0 MSTORE PUSH1 0x20 PUSH1 0x0 KECCAK256 SWAP1 JUMPDEST DUP2 SLOAD DUP2 MSTORE SWAP1 PUSH1 0x1 ADD SWAP1 PUSH1 0x20 ADD DUP1 DUP4 GT PUSH2 0x267B JUMPI DUP3 SWAP1 SUB PUSH1 0x1F AND DUP3 ADD SWAP2 JUMPDEST POP POP POP POP POP SWAP2 POP POP SWAP2 SWAP1 POP JUMP JUMPDEST PUSH1 0x0 CALLER PUSH2 0x26B1 DUP4 PUSH2 0x19DF JUMP JUMPDEST PUSH1 0x1 PUSH1 0x1 PUSH1 0xA0 SHL SUB AND EQ PUSH2 0x2716 JUMPI PUSH1 0x40 MLOAD PUSH3 0x461BCD PUSH1 0xE5 SHL DUP2 MSTORE PUSH1 0x20 PUSH1 0x4 DUP3 ADD MSTORE PUSH1 0x26 PUSH1 0x24 DUP3 ADD MSTORE PUSH32 0x4E46543A207472616E73666572206F6620746F6B656E2074686174206973206E PUSH1 0x44 DUP3 ADD MSTORE PUSH6 0x37BA1037BBB7 PUSH1 0xD1 SHL PUSH1 0x64 DUP3 ADD MSTORE PUSH1 0x84 ADD PUSH2 0xB7A JUMP JUMPDEST PUSH1 0x1 PUSH1 0x1 PUSH1 0xA0 SHL SUB DUP4 AND PUSH2 0x2776 JUMPI PUSH1 0x40 MLOAD PUSH3 0x461BCD PUSH1 0xE5 SHL DUP2 MSTORE PUSH1 0x20 PUSH1 0x4 DUP3 ADD MSTORE PUSH1 0x21 PUSH1 0x24 DUP3 ADD MSTORE PUSH32 0x4E46543A207472616E7366657220746F20746865207A65726F20616464726573 PUSH1 0x44 DUP3 ADD MSTORE PUSH1 0x73 PUSH1 0xF8 SHL PUSH1 0x64 DUP3 ADD MSTORE PUSH1 0x84 ADD PUSH2 0xB7A JUMP JUMPDEST PUSH1 0x0 DUP3 DUP2 MSTORE PUSH1 0x6 PUSH1 0x20 MSTORE PUSH1 0x40 DUP2 KECCAK256 SSTORE CALLER PUSH1 0x0 SWAP1 DUP2 MSTORE PUSH1 0xD PUSH1 0x20 MSTORE PUSH1 0x40 DUP2 KECCAK256 DUP1 SLOAD PUSH1 0x1 SWAP3 SWAP1 PUSH2 0x27A5 SWAP1 DUP5 SWAP1 PUSH2 0x3A28 JUMP JUMPDEST SWAP1 SWAP2 SSTORE POP POP PUSH1 0x1 PUSH1 0x1 PUSH1 0xA0 SHL SUB DUP4 AND PUSH1 0x0 SWAP1 DUP2 MSTORE PUSH1 0xD PUSH1 0x20 MSTORE PUSH1 0x40 DUP2 KECCAK256 DUP1 SLOAD PUSH1 0x1 SWAP3 SWAP1 PUSH2 0x27D3 SWAP1 DUP5 SWAP1 PUSH2 0x382E JUMP JUMPDEST SWAP1 SWAP2 SSTORE POP POP PUSH1 0x0 DUP3 DUP2 MSTORE PUSH1 0xC PUSH1 0x20 MSTORE PUSH1 0x40 DUP1 DUP3 KECCAK256 DUP1 SLOAD PUSH1 0x1 PUSH1 0x1 PUSH1 0xA0 SHL SUB NOT AND PUSH1 0x1 PUSH1 0x1 PUSH1 0xA0 SHL SUB DUP8 AND SWAP1 DUP2 OR SWAP1 SWAP2 SSTORE SWAP1 MLOAD DUP5 SWAP3 CALLER SWAP2 PUSH32 0xDDF252AD1BE2C89B69C2B068FC378DAA952BA7F163C4A11628F55A4DF523B3EF SWAP2 SWAP1 LOG4 POP PUSH1 0x1 SWAP3 SWAP2 POP POP JUMP JUMPDEST PUSH1 0x0 SLOAD PUSH1 0x1 PUSH1 0x1 PUSH1 0xA0 SHL SUB AND CALLER EQ PUSH2 0x287E JUMPI PUSH1 0x40 MLOAD PUSH3 0x461BCD PUSH1 0xE5 SHL DUP2 MSTORE PUSH1 0x20 PUSH1 0x4 DUP3 ADD DUP2 SWAP1 MSTORE PUSH1 0x24 DUP3 ADD MSTORE PUSH1 0x0 DUP1 MLOAD PUSH1 0x20 PUSH2 0x3B38 DUP4 CODECOPY DUP2 MLOAD SWAP2 MSTORE PUSH1 0x44 DUP3 ADD MSTORE PUSH1 0x64 ADD PUSH2 0xB7A JUMP JUMPDEST PUSH1 0x1 PUSH1 0x1 PUSH1 0xA0 SHL SUB DUP3 AND PUSH1 0x0 DUP2 DUP2 MSTORE PUSH1 0x1 PUSH1 0x20 SWAP1 DUP2 MSTORE PUSH1 0x40 SWAP2 DUP3 SWAP1 KECCAK256 DUP1 SLOAD PUSH1 0xFF NOT AND DUP6 ISZERO ISZERO SWAP1 DUP2 OR SWAP1 SWAP2 SSTORE DUP3 MLOAD SWAP4 DUP5 MSTORE SWAP1 DUP4 ADD MSTORE PUSH32 0x6B0F890A293C8F56A7635AD061C90250965B8AF8E8BDBEB56D434B97281A7462 SWAP2 ADD PUSH1 0x40 MLOAD DUP1 SWAP2 SUB SWAP1 LOG1 POP POP JUMP JUMPDEST PUSH1 0x60 DUP2 PUSH1 0x11 SLOAD DUP2 LT PUSH2 0x2935 JUMPI PUSH1 0x40 MLOAD PUSH3 0x461BCD PUSH1 0xE5 SHL DUP2 MSTORE PUSH1 0x20 PUSH1 0x4 DUP3 ADD MSTORE PUSH1 0x1C PUSH1 0x24 DUP3 ADD MSTORE PUSH32 0x5175657269656420636C61737320646F6573206E6F7420657869737400000000 PUSH1 0x44 DUP3 ADD MSTORE PUSH1 0x64 ADD PUSH2 0xB7A JUMP JUMPDEST PUSH1 0x0 DUP4 DUP2 MSTORE PUSH1 0xE PUSH1 0x20 SWAP1 DUP2 MSTORE PUSH1 0x40 DUP1 DUP4 KECCAK256 DUP1 SLOAD DUP3 MLOAD DUP2 DUP6 MUL DUP2 ADD DUP6 ADD SWAP1 SWAP4 MSTORE DUP1 DUP4 MSTORE SWAP2 SWAP4 SWAP1 SWAP3 DUP5 ADD JUMPDEST DUP3 DUP3 LT ISZERO PUSH2 0x1759 JUMPI DUP4 DUP3 SWAP1 PUSH1 0x0 MSTORE PUSH1 0x20 PUSH1 0x0 KECCAK256 ADD DUP1 SLOAD PUSH2 0x297D SWAP1 PUSH2 0x37E4 JUMP JUMPDEST DUP1 PUSH1 0x1F ADD PUSH1 0x20 DUP1 SWAP2 DIV MUL PUSH1 0x20 ADD PUSH1 0x40 MLOAD SWAP1 DUP2 ADD PUSH1 0x40 MSTORE DUP1 SWAP3 SWAP2 SWAP1 DUP2 DUP2 MSTORE PUSH1 0x20 ADD DUP3 DUP1 SLOAD PUSH2 0x29A9 SWAP1 PUSH2 0x37E4 JUMP JUMPDEST DUP1 ISZERO PUSH2 0x29F6 JUMPI DUP1 PUSH1 0x1F LT PUSH2 0x29CB JUMPI PUSH2 0x100 DUP1 DUP4 SLOAD DIV MUL DUP4 MSTORE SWAP2 PUSH1 0x20 ADD SWAP2 PUSH2 0x29F6 JUMP JUMPDEST DUP3 ADD SWAP2 SWAP1 PUSH1 0x0 MSTORE PUSH1 0x20 PUSH1 0x0 KECCAK256 SWAP1 JUMPDEST DUP2 SLOAD DUP2 MSTORE SWAP1 PUSH1 0x1 ADD SWAP1 PUSH1 0x20 ADD DUP1 DUP4 GT PUSH2 0x29D9 JUMPI DUP3 SWAP1 SUB PUSH1 0x1F AND DUP3 ADD SWAP2 JUMPDEST POP POP POP POP POP DUP2 MSTORE PUSH1 0x20 ADD SWAP1 PUSH1 0x1 ADD SWAP1 PUSH2 0x295E JUMP JUMPDEST PUSH1 0x0 SLOAD PUSH1 0x1 PUSH1 0x1 PUSH1 0xA0 SHL SUB AND CALLER EQ PUSH2 0x2A52 JUMPI PUSH1 0x40 MLOAD PUSH3 0x461BCD PUSH1 0xE5 SHL DUP2 MSTORE PUSH1 0x20 PUSH1 0x4 DUP3 ADD DUP2 SWAP1 MSTORE PUSH1 0x24 DUP3 ADD MSTORE PUSH1 0x0 DUP1 MLOAD PUSH1 0x20 PUSH2 0x3B38 DUP4 CODECOPY DUP2 MLOAD SWAP2 MSTORE PUSH1 0x44 DUP3 ADD MSTORE PUSH1 0x64 ADD PUSH2 0xB7A JUMP JUMPDEST PUSH1 0x1 PUSH1 0x1 PUSH1 0xA0 SHL SUB DUP2 AND PUSH2 0x2ACE JUMPI PUSH1 0x40 MLOAD PUSH3 0x461BCD PUSH1 0xE5 SHL DUP2 MSTORE PUSH1 0x20 PUSH1 0x4 DUP3 ADD MSTORE PUSH1 0x26 PUSH1 0x24 DUP3 ADD MSTORE PUSH32 0x4F776E61626C653A206E6577206F776E657220697320746865207A65726F2061 PUSH1 0x44 DUP3 ADD MSTORE PUSH32 0x6464726573730000000000000000000000000000000000000000000000000000 PUSH1 0x64 DUP3 ADD MSTORE PUSH1 0x84 ADD PUSH2 0xB7A JUMP JUMPDEST PUSH2 0x2AD7 DUP2 PUSH2 0x3087 JUMP JUMPDEST POP JUMP JUMPDEST PUSH1 0x0 DUP4 DUP2 MSTORE PUSH1 0x3 PUSH1 0x20 SWAP1 DUP2 MSTORE PUSH1 0x40 DUP3 KECCAK256 DUP1 SLOAD PUSH1 0x1 DUP2 ADD DUP3 SSTORE SWAP1 DUP4 MSTORE SWAP2 KECCAK256 ADD PUSH2 0x106E DUP3 DUP5 DUP4 PUSH2 0x3968 JUMP JUMPDEST PUSH2 0x2B5C DUP3 DUP3 DUP1 DUP1 PUSH1 0x1F ADD PUSH1 0x20 DUP1 SWAP2 DIV MUL PUSH1 0x20 ADD PUSH1 0x40 MLOAD SWAP1 DUP2 ADD PUSH1 0x40 MSTORE DUP1 SWAP4 SWAP3 SWAP2 SWAP1 DUP2 DUP2 MSTORE PUSH1 0x20 ADD DUP4 DUP4 DUP1 DUP3 DUP5 CALLDATACOPY PUSH1 0x0 SWAP3 ADD DUP3 SWAP1 MSTORE POP DUP10 DUP2 MSTORE PUSH1 0x3 PUSH1 0x20 MSTORE PUSH1 0x40 SWAP1 KECCAK256 DUP1 SLOAD SWAP1 SWAP4 POP DUP9 SWAP3 POP DUP3 LT SWAP1 POP PUSH2 0x1555 JUMPI PUSH2 0x1555 PUSH2 0x37CE JUMP JUMPDEST PUSH1 0x0 DUP6 DUP2 MSTORE PUSH1 0x3 PUSH1 0x20 MSTORE PUSH1 0x40 SWAP1 KECCAK256 DUP1 SLOAD DUP6 SWAP1 DUP2 LT PUSH2 0xFFD JUMPI PUSH2 0xFFD PUSH2 0x37CE JUMP JUMPDEST PUSH1 0x0 PUSH2 0x2B8A CALLER PUSH1 0x9 SLOAD PUSH2 0x30D7 JUMP JUMPDEST POP PUSH1 0x9 DUP1 SLOAD SWAP1 DUP2 SWAP1 PUSH1 0x0 PUSH2 0x2B9D DUP4 PUSH2 0x394F JUMP JUMPDEST SWAP2 SWAP1 POP SSTORE POP PUSH2 0x2BAB DUP2 PUSH2 0x30E5 JUMP JUMPDEST SWAP1 JUMP JUMPDEST PUSH1 0x0 DUP2 DUP2 MSTORE PUSH1 0x8 PUSH1 0x20 SWAP1 DUP2 MSTORE PUSH1 0x40 DUP1 DUP4 KECCAK256 SLOAD PUSH4 0xFFFFFFFF AND DUP1 DUP5 MSTORE PUSH1 0x4 SWAP1 SWAP3 MSTORE DUP3 KECCAK256 DUP1 SLOAD PUSH1 0x1 SWAP1 SWAP2 ADD SLOAD PUSH1 0x1 PUSH1 0x1 PUSH1 0xA0 SHL SUB SWAP1 SWAP2 AND SWAP1 DUP4 PUSH3 0x186A0 PUSH2 0x2BF3 DUP4 DUP10 PUSH2 0x3A6A JUMP JUMPDEST PUSH2 0x2BFD SWAP2 SWAP1 PUSH2 0x3A81 JUMP JUMPDEST PUSH1 0x40 MLOAD SWAP1 SWAP2 POP PUSH1 0x1 PUSH1 0x1 PUSH1 0xA0 SHL SUB DUP5 AND SWAP1 DUP3 ISZERO PUSH2 0x8FC MUL SWAP1 DUP4 SWAP1 PUSH1 0x0 DUP2 DUP2 DUP2 DUP6 DUP9 DUP9 CALL SWAP4 POP POP POP POP ISZERO DUP1 ISZERO PUSH2 0x2C36 JUMPI RETURNDATASIZE PUSH1 0x0 DUP1 RETURNDATACOPY RETURNDATASIZE PUSH1 0x0 REVERT JUMPDEST POP SWAP7 SWAP6 POP POP POP POP POP POP JUMP JUMPDEST DUP4 PUSH1 0x1 PUSH1 0x1 PUSH1 0xA0 SHL SUB AND PUSH2 0x2C54 DUP4 PUSH2 0x19DF JUMP JUMPDEST PUSH1 0x1 PUSH1 0x1 PUSH1 0xA0 SHL SUB AND EQ PUSH2 0x2CB9 JUMPI PUSH1 0x40 MLOAD PUSH3 0x461BCD PUSH1 0xE5 SHL DUP2 MSTORE PUSH1 0x20 PUSH1 0x4 DUP3 ADD MSTORE PUSH1 0x26 PUSH1 0x24 DUP3 ADD MSTORE PUSH32 0x4E46543A207472616E73666572206F6620746F6B656E2074686174206973206E PUSH1 0x44 DUP3 ADD MSTORE PUSH6 0x37BA1037BBB7 PUSH1 0xD1 SHL PUSH1 0x64 DUP3 ADD MSTORE PUSH1 0x84 ADD PUSH2 0xB7A JUMP JUMPDEST PUSH1 0x1 PUSH1 0x1 PUSH1 0xA0 SHL SUB DUP4 AND PUSH2 0x2D19 JUMPI PUSH1 0x40 MLOAD PUSH3 0x461BCD PUSH1 0xE5 SHL DUP2 MSTORE PUSH1 0x20 PUSH1 0x4 DUP3 ADD MSTORE PUSH1 0x21 PUSH1 0x24 DUP3 ADD MSTORE PUSH32 0x4E46543A207472616E7366657220746F20746865207A65726F20616464726573 PUSH1 0x44 DUP3 ADD MSTORE PUSH1 0x73 PUSH1 0xF8 SHL PUSH1 0x64 DUP3 ADD MSTORE PUSH1 0x84 ADD PUSH2 0xB7A JUMP JUMPDEST PUSH1 0x0 DUP3 DUP2 MSTORE PUSH1 0x6 PUSH1 0x20 MSTORE PUSH1 0x40 DUP2 KECCAK256 SSTORE PUSH1 0x1 PUSH1 0x1 PUSH1 0xA0 SHL SUB DUP5 AND PUSH1 0x0 SWAP1 DUP2 MSTORE PUSH1 0xD PUSH1 0x20 MSTORE PUSH1 0x40 DUP2 KECCAK256 DUP1 SLOAD PUSH1 0x1 SWAP3 SWAP1 PUSH2 0x2D51 SWAP1 DUP5 SWAP1 PUSH2 0x3A28 JUMP JUMPDEST SWAP1 SWAP2 SSTORE POP POP PUSH1 0x1 PUSH1 0x1 PUSH1 0xA0 SHL SUB DUP4 AND PUSH1 0x0 SWAP1 DUP2 MSTORE PUSH1 0xD PUSH1 0x20 MSTORE PUSH1 0x40 DUP2 KECCAK256 DUP1 SLOAD PUSH1 0x1 SWAP3 SWAP1 PUSH2 0x2D7F SWAP1 DUP5 SWAP1 PUSH2 0x382E JUMP JUMPDEST SWAP1 SWAP2 SSTORE POP POP PUSH1 0x0 DUP3 DUP2 MSTORE PUSH1 0xC PUSH1 0x20 MSTORE PUSH1 0x40 SWAP1 KECCAK256 DUP1 SLOAD PUSH1 0x1 PUSH1 0x1 PUSH1 0xA0 SHL SUB NOT AND PUSH1 0x1 PUSH1 0x1 PUSH1 0xA0 SHL SUB DUP6 AND SWAP1 DUP2 OR SWAP1 SWAP2 SSTORE EXTCODESIZE ISZERO PUSH2 0x2E44 JUMPI PUSH1 0x40 MLOAD PUSH32 0x150B7A0200000000000000000000000000000000000000000000000000000000 DUP2 MSTORE PUSH1 0x1 PUSH1 0x1 PUSH1 0xA0 SHL SUB DUP5 AND SWAP1 PUSH4 0x150B7A02 SWAP1 PUSH2 0x2DFF SWAP1 CALLER SWAP1 DUP9 SWAP1 DUP8 SWAP1 DUP8 SWAP1 PUSH1 0x4 ADD PUSH2 0x3AA3 JUMP JUMPDEST PUSH1 0x20 PUSH1 0x40 MLOAD DUP1 DUP4 SUB DUP2 PUSH1 0x0 DUP8 GAS CALL ISZERO DUP1 ISZERO PUSH2 0x2E1E JUMPI RETURNDATASIZE PUSH1 0x0 DUP1 RETURNDATACOPY RETURNDATASIZE PUSH1 0x0 REVERT JUMPDEST POP POP POP POP PUSH1 0x40 MLOAD RETURNDATASIZE PUSH1 0x1F NOT PUSH1 0x1F DUP3 ADD AND DUP3 ADD DUP1 PUSH1 0x40 MSTORE POP DUP2 ADD SWAP1 PUSH2 0x2E42 SWAP2 SWAP1 PUSH2 0x3ADF JUMP JUMPDEST POP JUMPDEST DUP2 DUP4 PUSH1 0x1 PUSH1 0x1 PUSH1 0xA0 SHL SUB AND DUP6 PUSH1 0x1 PUSH1 0x1 PUSH1 0xA0 SHL SUB AND PUSH32 0xDDF252AD1BE2C89B69C2B068FC378DAA952BA7F163C4A11628F55A4DF523B3EF PUSH1 0x40 MLOAD PUSH1 0x40 MLOAD DUP1 SWAP2 SUB SWAP1 LOG4 POP POP POP POP JUMP JUMPDEST DUP1 MLOAD PUSH1 0x60 SWAP1 DUP4 SWAP1 DUP4 SWAP1 PUSH2 0x2EA0 JUMPI PUSH2 0x2EA0 PUSH2 0x3B21 JUMP JUMPDEST PUSH1 0x0 DUP2 MLOAD DUP4 MLOAD PUSH2 0x2EB0 SWAP2 SWAP1 PUSH2 0x382E JUMP JUMPDEST PUSH8 0xFFFFFFFFFFFFFFFF DUP2 GT ISZERO PUSH2 0x2EC8 JUMPI PUSH2 0x2EC8 PUSH2 0x3328 JUMP JUMPDEST PUSH1 0x40 MLOAD SWAP1 DUP1 DUP3 MSTORE DUP1 PUSH1 0x1F ADD PUSH1 0x1F NOT AND PUSH1 0x20 ADD DUP3 ADD PUSH1 0x40 MSTORE DUP1 ISZERO PUSH2 0x2EF2 JUMPI PUSH1 0x20 DUP3 ADD DUP2 DUP1 CALLDATASIZE DUP4 CALLDATACOPY ADD SWAP1 POP JUMPDEST POP SWAP1 POP DUP1 PUSH1 0x0 DUP1 JUMPDEST DUP6 MLOAD DUP3 LT ISZERO PUSH2 0x2F9A JUMPI DUP6 DUP3 DUP2 MLOAD DUP2 LT PUSH2 0x2F15 JUMPI PUSH2 0x2F15 PUSH2 0x37CE JUMP JUMPDEST ADD PUSH1 0x20 ADD MLOAD PUSH32 0xFF00000000000000000000000000000000000000000000000000000000000000 AND DUP4 DUP3 PUSH2 0x2F47 DUP2 PUSH2 0x394F JUMP JUMPDEST SWAP4 POP DUP2 MLOAD DUP2 LT PUSH2 0x2F59 JUMPI PUSH2 0x2F59 PUSH2 0x37CE JUMP JUMPDEST PUSH1 0x20 ADD ADD SWAP1 PUSH31 0xFFFFFFFFFFFFFFFFFFFFFFFFFFFFFFFFFFFFFFFFFFFFFFFFFFFFFFFFFFFFFF NOT AND SWAP1 DUP2 PUSH1 0x0 BYTE SWAP1 MSTORE8 POP DUP2 PUSH2 0x2F92 DUP2 PUSH2 0x394F JUMP JUMPDEST SWAP3 POP POP PUSH2 0x2EFA JUMP JUMPDEST PUSH1 0x0 SWAP2 POP JUMPDEST DUP5 MLOAD DUP3 LT ISZERO PUSH2 0x303F JUMPI DUP5 DUP3 DUP2 MLOAD DUP2 LT PUSH2 0x2FBA JUMPI PUSH2 0x2FBA PUSH2 0x37CE JUMP JUMPDEST ADD PUSH1 0x20 ADD MLOAD PUSH32 0xFF00000000000000000000000000000000000000000000000000000000000000 AND DUP4 DUP3 PUSH2 0x2FEC DUP2 PUSH2 0x394F JUMP JUMPDEST SWAP4 POP DUP2 MLOAD DUP2 LT PUSH2 0x2FFE JUMPI PUSH2 0x2FFE PUSH2 0x37CE JUMP JUMPDEST PUSH1 0x20 ADD ADD SWAP1 PUSH31 0xFFFFFFFFFFFFFFFFFFFFFFFFFFFFFFFFFFFFFFFFFFFFFFFFFFFFFFFFFFFFFF NOT AND SWAP1 DUP2 PUSH1 0x0 BYTE SWAP1 MSTORE8 POP DUP2 PUSH2 0x3037 DUP2 PUSH2 0x394F JUMP JUMPDEST SWAP3 POP POP PUSH2 0x2F9F JUMP JUMPDEST POP SWAP1 SWAP8 SWAP7 POP POP POP POP POP POP POP JUMP JUMPDEST PUSH1 0x0 DUP5 DUP2 MSTORE PUSH1 0x3 PUSH1 0x20 MSTORE PUSH1 0x40 SWAP1 KECCAK256 DUP1 SLOAD DUP4 SWAP2 DUP4 SWAP2 DUP7 SWAP1 DUP2 LT PUSH2 0x3070 JUMPI PUSH2 0x3070 PUSH2 0x37CE JUMP JUMPDEST SWAP1 PUSH1 0x0 MSTORE PUSH1 0x20 PUSH1 0x0 KECCAK256 ADD SWAP2 DUP3 PUSH2 0x1013 SWAP3 SWAP2 SWAP1 PUSH2 0x3968 JUMP JUMPDEST PUSH1 0x0 DUP1 SLOAD PUSH1 0x1 PUSH1 0x1 PUSH1 0xA0 SHL SUB DUP4 DUP2 AND PUSH1 0x1 PUSH1 0x1 PUSH1 0xA0 SHL SUB NOT DUP4 AND DUP2 OR DUP5 SSTORE PUSH1 0x40 MLOAD SWAP2 SWAP1 SWAP3 AND SWAP3 DUP4 SWAP2 PUSH32 0x8BE0079C531659141344CD1FD0A4F28419497F9722A3DAAFE3B4186F6B6457E0 SWAP2 SWAP1 LOG3 POP POP JUMP JUMPDEST PUSH2 0x30E1 DUP3 DUP3 PUSH2 0x3132 JUMP JUMPDEST POP POP JUMP JUMPDEST PUSH1 0x0 DUP2 DUP2 MSTORE PUSH1 0x3 PUSH1 0x20 MSTORE PUSH1 0x40 DUP2 KECCAK256 SLOAD SWAP1 SUB PUSH2 0x2AD7 JUMPI PUSH1 0x0 DUP2 DUP2 MSTORE PUSH1 0x3 PUSH1 0x20 SWAP1 DUP2 MSTORE PUSH1 0x40 DUP1 DUP4 KECCAK256 DUP1 SLOAD PUSH1 0x1 DUP2 ADD DUP3 SSTORE SWAP1 DUP5 MSTORE DUP3 DUP5 KECCAK256 DUP3 MLOAD SWAP4 DUP5 ADD SWAP1 SWAP3 MSTORE SWAP3 DUP3 MSTORE SWAP1 SWAP2 ADD SWAP1 PUSH2 0x30E1 SWAP1 DUP3 PUSH2 0x388F JUMP JUMPDEST PUSH1 0x1 PUSH1 0x1 PUSH1 0xA0 SHL SUB DUP3 AND PUSH2 0x3188 JUMPI PUSH1 0x40 MLOAD PUSH3 0x461BCD PUSH1 0xE5 SHL DUP2 MSTORE PUSH1 0x20 PUSH1 0x4 DUP3 ADD MSTORE PUSH1 0x1D PUSH1 0x24 DUP3 ADD MSTORE PUSH32 0x4E46543A206D696E7420746F20746865207A65726F2061646472657373000000 PUSH1 0x44 DUP3 ADD MSTORE PUSH1 0x64 ADD PUSH2 0xB7A JUMP JUMPDEST PUSH1 0x0 DUP2 DUP2 MSTORE PUSH1 0xC PUSH1 0x20 MSTORE PUSH1 0x40 SWAP1 KECCAK256 SLOAD PUSH1 0x1 PUSH1 0x1 PUSH1 0xA0 SHL SUB AND ISZERO PUSH2 0x31ED JUMPI PUSH1 0x40 MLOAD PUSH3 0x461BCD PUSH1 0xE5 SHL DUP2 MSTORE PUSH1 0x20 PUSH1 0x4 DUP3 ADD MSTORE PUSH1 0x19 PUSH1 0x24 DUP3 ADD MSTORE PUSH32 0x4E46543A20746F6B656E20616C7265616479206D696E74656400000000000000 PUSH1 0x44 DUP3 ADD MSTORE PUSH1 0x64 ADD PUSH2 0xB7A JUMP JUMPDEST PUSH1 0x1 PUSH1 0x1 PUSH1 0xA0 SHL SUB DUP3 AND PUSH1 0x0 SWAP1 DUP2 MSTORE PUSH1 0xD PUSH1 0x20 MSTORE PUSH1 0x40 DUP2 KECCAK256 DUP1 SLOAD PUSH1 0x1 SWAP3 SWAP1 PUSH2 0x3216 SWAP1 DUP5 SWAP1 PUSH2 0x382E JUMP JUMPDEST SWAP1 SWAP2 SSTORE POP POP PUSH1 0x0 DUP2 DUP2 MSTORE PUSH1 0xC PUSH1 0x20 MSTORE PUSH1 0x40 DUP1 DUP3 KECCAK256 DUP1 SLOAD PUSH1 0x1 PUSH1 0x1 PUSH1 0xA0 SHL SUB NOT AND PUSH1 0x1 PUSH1 0x1 PUSH1 0xA0 SHL SUB DUP7 AND SWAP1 DUP2 OR SWAP1 SWAP2 SSTORE SWAP1 MLOAD DUP4 SWAP3 SWAP1 PUSH32 0xDDF252AD1BE2C89B69C2B068FC378DAA952BA7F163C4A11628F55A4DF523B3EF SWAP1 DUP3 SWAP1 LOG4 POP POP JUMP JUMPDEST PUSH1 0x0 PUSH1 0x20 DUP3 DUP5 SUB SLT ISZERO PUSH2 0x3286 JUMPI PUSH1 0x0 DUP1 REVERT JUMPDEST POP CALLDATALOAD SWAP2 SWAP1 POP JUMP JUMPDEST PUSH1 0x0 DUP2 MLOAD DUP1 DUP5 MSTORE PUSH1 0x0 JUMPDEST DUP2 DUP2 LT ISZERO PUSH2 0x32B3 JUMPI PUSH1 0x20 DUP2 DUP6 ADD DUP2 ADD MLOAD DUP7 DUP4 ADD DUP3 ADD MSTORE ADD PUSH2 0x3297 JUMP JUMPDEST POP PUSH1 0x0 PUSH1 0x20 DUP3 DUP7 ADD ADD MSTORE PUSH1 0x20 PUSH1 0x1F NOT PUSH1 0x1F DUP4 ADD AND DUP6 ADD ADD SWAP2 POP POP SWAP3 SWAP2 POP POP JUMP JUMPDEST PUSH1 0x20 DUP2 MSTORE PUSH1 0x0 PUSH2 0x32E6 PUSH1 0x20 DUP4 ADD DUP5 PUSH2 0x328D JUMP JUMPDEST SWAP4 SWAP3 POP POP POP JUMP JUMPDEST PUSH1 0x0 DUP1 PUSH1 0x40 DUP4 DUP6 SUB SLT ISZERO PUSH2 0x3300 JUMPI PUSH1 0x0 DUP1 REVERT JUMPDEST POP POP DUP1 CALLDATALOAD SWAP3 PUSH1 0x20 SWAP1 SWAP2 ADD CALLDATALOAD SWAP2 POP JUMP JUMPDEST DUP1 CALLDATALOAD PUSH4 0xFFFFFFFF DUP2 AND DUP2 EQ PUSH2 0x3323 JUMPI PUSH1 0x0 DUP1 REVERT JUMPDEST SWAP2 SWAP1 POP JUMP JUMPDEST PUSH4 0x4E487B71 PUSH1 0xE0 SHL PUSH1 0x0 MSTORE PUSH1 0x41 PUSH1 0x4 MSTORE PUSH1 0x24 PUSH1 0x0 REVERT JUMPDEST PUSH1 0x0 PUSH8 0xFFFFFFFFFFFFFFFF DUP1 DUP5 GT ISZERO PUSH2 0x3359 JUMPI PUSH2 0x3359 PUSH2 0x3328 JUMP JUMPDEST PUSH1 0x40 MLOAD PUSH1 0x1F DUP6 ADD PUSH1 0x1F NOT SWAP1 DUP2 AND PUSH1 0x3F ADD AND DUP2 ADD SWAP1 DUP3 DUP3 GT DUP2 DUP4 LT OR ISZERO PUSH2 0x3381 JUMPI PUSH2 0x3381 PUSH2 0x3328 JUMP JUMPDEST DUP2 PUSH1 0x40 MSTORE DUP1 SWAP4 POP DUP6 DUP2 MSTORE DUP7 DUP7 DUP7 ADD GT ISZERO PUSH2 0x339A JUMPI PUSH1 0x0 DUP1 REVERT JUMPDEST DUP6 DUP6 PUSH1 0x20 DUP4 ADD CALLDATACOPY PUSH1 0x0 PUSH1 0x20 DUP8 DUP4 ADD ADD MSTORE POP POP POP SWAP4 SWAP3 POP POP POP JUMP JUMPDEST PUSH1 0x0 DUP3 PUSH1 0x1F DUP4 ADD SLT PUSH2 0x33C5 JUMPI PUSH1 0x0 DUP1 REVERT JUMPDEST PUSH2 0x32E6 DUP4 DUP4 CALLDATALOAD PUSH1 0x20 DUP6 ADD PUSH2 0x333E JUMP JUMPDEST PUSH1 0x0 DUP1 PUSH1 0x40 DUP4 DUP6 SUB SLT ISZERO PUSH2 0x33E7 JUMPI PUSH1 0x0 DUP1 REVERT JUMPDEST PUSH2 0x33F0 DUP4 PUSH2 0x330F JUMP JUMPDEST SWAP2 POP PUSH1 0x20 DUP4 ADD CALLDATALOAD PUSH8 0xFFFFFFFFFFFFFFFF DUP2 GT ISZERO PUSH2 0x340C JUMPI PUSH1 0x0 DUP1 REVERT JUMPDEST PUSH2 0x3418 DUP6 DUP3 DUP7 ADD PUSH2 0x33B4 JUMP JUMPDEST SWAP2 POP POP SWAP3 POP SWAP3 SWAP1 POP JUMP JUMPDEST PUSH1 0x0 DUP1 DUP4 PUSH1 0x1F DUP5 ADD SLT PUSH2 0x3434 JUMPI PUSH1 0x0 DUP1 REVERT JUMPDEST POP DUP2 CALLDATALOAD PUSH8 0xFFFFFFFFFFFFFFFF DUP2 GT ISZERO PUSH2 0x344C JUMPI PUSH1 0x0 DUP1 REVERT JUMPDEST PUSH1 0x20 DUP4 ADD SWAP2 POP DUP4 PUSH1 0x20 DUP3 DUP6 ADD ADD GT ISZERO PUSH2 0x3464 JUMPI PUSH1 0x0 DUP1 REVERT JUMPDEST SWAP3 POP SWAP3 SWAP1 POP JUMP JUMPDEST PUSH1 0x0 DUP1 PUSH1 0x0 PUSH1 0x40 DUP5 DUP7 SUB SLT ISZERO PUSH2 0x3480 JUMPI PUSH1 0x0 DUP1 REVERT JUMPDEST DUP4 CALLDATALOAD SWAP3 POP PUSH1 0x20 DUP5 ADD CALLDATALOAD PUSH8 0xFFFFFFFFFFFFFFFF DUP2 GT ISZERO PUSH2 0x349E JUMPI PUSH1 0x0 DUP1 REVERT JUMPDEST PUSH2 0x34AA DUP7 DUP3 DUP8 ADD PUSH2 0x3422 JUMP JUMPDEST SWAP5 SWAP8 SWAP1 SWAP7 POP SWAP4 SWAP5 POP POP POP POP JUMP JUMPDEST PUSH1 0x0 DUP1 PUSH1 0x0 PUSH1 0x60 DUP5 DUP7 SUB SLT ISZERO PUSH2 0x34CC JUMPI PUSH1 0x0 DUP1 REVERT JUMPDEST DUP4 CALLDATALOAD SWAP3 POP PUSH1 0x20 DUP5 ADD CALLDATALOAD SWAP2 POP PUSH1 0x40 DUP5 ADD CALLDATALOAD PUSH8 0xFFFFFFFFFFFFFFFF DUP2 GT ISZERO PUSH2 0x34F1 JUMPI PUSH1 0x0 DUP1 REVERT JUMPDEST PUSH2 0x34FD DUP7 DUP3 DUP8 ADD PUSH2 0x33B4 JUMP JUMPDEST SWAP2 POP POP SWAP3 POP SWAP3 POP SWAP3 JUMP JUMPDEST PUSH1 0x0 DUP1 PUSH1 0x0 DUP1 PUSH1 0x60 DUP6 DUP8 SUB SLT ISZERO PUSH2 0x351D JUMPI PUSH1 0x0 DUP1 REVERT JUMPDEST DUP5 CALLDATALOAD SWAP4 POP PUSH1 0x20 DUP6 ADD CALLDATALOAD SWAP3 POP PUSH1 0x40 DUP6 ADD CALLDATALOAD PUSH8 0xFFFFFFFFFFFFFFFF DUP2 GT ISZERO PUSH2 0x3542 JUMPI PUSH1 0x0 DUP1 REVERT JUMPDEST PUSH2 0x354E DUP8 DUP3 DUP9 ADD PUSH2 0x3422 JUMP JUMPDEST SWAP6 SWAP9 SWAP5 SWAP8 POP SWAP6 POP POP POP POP JUMP JUMPDEST PUSH1 0x0 DUP2 MLOAD DUP1 DUP5 MSTORE PUSH1 0x20 DUP1 DUP6 ADD DUP1 DUP2 SWAP7 POP DUP4 PUSH1 0x5 SHL DUP2 ADD SWAP2 POP DUP3 DUP7 ADD PUSH1 0x0 JUMPDEST DUP6 DUP2 LT ISZERO PUSH2 0x35A2 JUMPI DUP3 DUP5 SUB DUP10 MSTORE PUSH2 0x3590 DUP5 DUP4 MLOAD PUSH2 0x328D JUMP JUMPDEST SWAP9 DUP6 ADD SWAP9 SWAP4 POP SWAP1 DUP5 ADD SWAP1 PUSH1 0x1 ADD PUSH2 0x3578 JUMP JUMPDEST POP SWAP2 SWAP8 SWAP7 POP POP POP POP POP POP POP JUMP JUMPDEST PUSH1 0x20 DUP2 MSTORE PUSH1 0x0 PUSH2 0x32E6 PUSH1 0x20 DUP4 ADD DUP5 PUSH2 0x355A JUMP JUMPDEST PUSH1 0x20 DUP2 MSTORE PUSH1 0x0 DUP3 MLOAD PUSH1 0x20 DUP1 DUP5 ADD MSTORE PUSH2 0x35DD PUSH1 0x40 DUP5 ADD DUP3 PUSH2 0x355A JUMP JUMPDEST SWAP5 SWAP4 POP POP POP POP JUMP JUMPDEST DUP1 CALLDATALOAD PUSH1 0x1 PUSH1 0x1 PUSH1 0xA0 SHL SUB DUP2 AND DUP2 EQ PUSH2 0x3323 JUMPI PUSH1 0x0 DUP1 REVERT JUMPDEST PUSH1 0x0 PUSH1 0x20 DUP3 DUP5 SUB SLT ISZERO PUSH2 0x360E JUMPI PUSH1 0x0 DUP1 REVERT JUMPDEST PUSH2 0x32E6 DUP3 PUSH2 0x35E5 JUMP JUMPDEST PUSH1 0x0 DUP1 PUSH1 0x40 DUP4 DUP6 SUB SLT ISZERO PUSH2 0x362A JUMPI PUSH1 0x0 DUP1 REVERT JUMPDEST DUP3 CALLDATALOAD SWAP2 POP PUSH2 0x363A PUSH1 0x20 DUP5 ADD PUSH2 0x330F JUMP JUMPDEST SWAP1 POP SWAP3 POP SWAP3 SWAP1 POP JUMP JUMPDEST PUSH1 0x0 PUSH1 0x20 DUP3 DUP5 SUB SLT ISZERO PUSH2 0x3655 JUMPI PUSH1 0x0 DUP1 REVERT JUMPDEST PUSH2 0x32E6 DUP3 PUSH2 0x330F JUMP JUMPDEST PUSH1 0x0 DUP1 PUSH1 0x0 PUSH1 0x60 DUP5 DUP7 SUB SLT ISZERO PUSH2 0x3673 JUMPI PUSH1 0x0 DUP1 REVERT JUMPDEST PUSH2 0x367C DUP5 PUSH2 0x330F JUMP JUMPDEST SWAP3 POP PUSH2 0x368A PUSH1 0x20 DUP6 ADD PUSH2 0x35E5 JUMP JUMPDEST SWAP2 POP PUSH1 0x40 DUP5 ADD CALLDATALOAD SWAP1 POP SWAP3 POP SWAP3 POP SWAP3 JUMP JUMPDEST PUSH1 0x0 DUP1 PUSH1 0x0 PUSH1 0x60 DUP5 DUP7 SUB SLT ISZERO PUSH2 0x36AF JUMPI PUSH1 0x0 DUP1 REVERT JUMPDEST DUP4 CALLDATALOAD PUSH8 0xFFFFFFFFFFFFFFFF DUP1 DUP3 GT ISZERO PUSH2 0x36C7 JUMPI PUSH1 0x0 DUP1 REVERT JUMPDEST PUSH2 0x36D3 DUP8 DUP4 DUP9 ADD PUSH2 0x33B4 JUMP JUMPDEST SWAP5 POP PUSH1 0x20 DUP7 ADD CALLDATALOAD SWAP2 POP DUP1 DUP3 GT ISZERO PUSH2 0x36E9 JUMPI PUSH1 0x0 DUP1 REVERT JUMPDEST POP PUSH2 0x36F6 DUP7 DUP3 DUP8 ADD PUSH2 0x33B4 JUMP JUMPDEST SWAP3 POP POP PUSH1 0x40 DUP5 ADD CALLDATALOAD SWAP1 POP SWAP3 POP SWAP3 POP SWAP3 JUMP JUMPDEST PUSH1 0x0 DUP1 PUSH1 0x0 PUSH1 0x60 DUP5 DUP7 SUB SLT ISZERO PUSH2 0x371C JUMPI PUSH1 0x0 DUP1 REVERT JUMPDEST PUSH2 0x3725 DUP5 PUSH2 0x35E5 JUMP JUMPDEST SWAP3 POP PUSH1 0x20 DUP5 ADD CALLDATALOAD SWAP2 POP PUSH1 0x40 DUP5 ADD CALLDATALOAD PUSH8 0xFFFFFFFFFFFFFFFF DUP2 GT ISZERO PUSH2 0x3748 JUMPI PUSH1 0x0 DUP1 REVERT JUMPDEST DUP5 ADD PUSH1 0x1F DUP2 ADD DUP7 SGT PUSH2 0x3759 JUMPI PUSH1 0x0 DUP1 REVERT JUMPDEST PUSH2 0x34FD DUP7 DUP3 CALLDATALOAD PUSH1 0x20 DUP5 ADD PUSH2 0x333E JUMP JUMPDEST PUSH1 0x0 DUP1 PUSH1 0x40 DUP4 DUP6 SUB SLT ISZERO PUSH2 0x377B JUMPI PUSH1 0x0 DUP1 REVERT JUMPDEST PUSH2 0x3784 DUP4 PUSH2 0x35E5 JUMP JUMPDEST SWAP5 PUSH1 0x20 SWAP4 SWAP1 SWAP4 ADD CALLDATALOAD SWAP4 POP POP POP JUMP JUMPDEST PUSH1 0x0 DUP1 PUSH1 0x40 DUP4 DUP6 SUB SLT ISZERO PUSH2 0x37A5 JUMPI PUSH1 0x0 DUP1 REVERT JUMPDEST PUSH2 0x37AE DUP4 PUSH2 0x35E5 JUMP JUMPDEST SWAP2 POP PUSH1 0x20 DUP4 ADD CALLDATALOAD DUP1 ISZERO ISZERO DUP2 EQ PUSH2 0x37C3 JUMPI PUSH1 0x0 DUP1 REVERT JUMPDEST DUP1 SWAP2 POP POP SWAP3 POP SWAP3 SWAP1 POP JUMP JUMPDEST PUSH4 0x4E487B71 PUSH1 0xE0 SHL PUSH1 0x0 MSTORE PUSH1 0x32 PUSH1 0x4 MSTORE PUSH1 0x24 PUSH1 0x0 REVERT JUMPDEST PUSH1 0x1 DUP2 DUP2 SHR SWAP1 DUP3 AND DUP1 PUSH2 0x37F8 JUMPI PUSH1 0x7F DUP3 AND SWAP2 POP JUMPDEST PUSH1 0x20 DUP3 LT DUP2 SUB PUSH2 0x1760 JUMPI PUSH4 0x4E487B71 PUSH1 0xE0 SHL PUSH1 0x0 MSTORE PUSH1 0x22 PUSH1 0x4 MSTORE PUSH1 0x24 PUSH1 0x0 REVERT JUMPDEST PUSH4 0x4E487B71 PUSH1 0xE0 SHL PUSH1 0x0 MSTORE PUSH1 0x11 PUSH1 0x4 MSTORE PUSH1 0x24 PUSH1 0x0 REVERT JUMPDEST DUP1 DUP3 ADD DUP1 DUP3 GT ISZERO PUSH2 0x1A53 JUMPI PUSH2 0x1A53 PUSH2 0x3818 JUMP JUMPDEST PUSH1 0x1F DUP3 GT ISZERO PUSH2 0xE67 JUMPI PUSH1 0x0 DUP2 DUP2 MSTORE PUSH1 0x20 DUP2 KECCAK256 PUSH1 0x1F DUP6 ADD PUSH1 0x5 SHR DUP2 ADD PUSH1 0x20 DUP7 LT ISZERO PUSH2 0x3868 JUMPI POP DUP1 JUMPDEST PUSH1 0x1F DUP6 ADD PUSH1 0x5 SHR DUP3 ADD SWAP2 POP JUMPDEST DUP2 DUP2 LT ISZERO PUSH2 0x3887 JUMPI DUP3 DUP2 SSTORE PUSH1 0x1 ADD PUSH2 0x3874 JUMP JUMPDEST POP POP POP POP POP POP JUMP JUMPDEST DUP2 MLOAD PUSH8 0xFFFFFFFFFFFFFFFF DUP2 GT ISZERO PUSH2 0x38A9 JUMPI PUSH2 0x38A9 PUSH2 0x3328 JUMP JUMPDEST PUSH2 0x38BD DUP2 PUSH2 0x38B7 DUP5 SLOAD PUSH2 0x37E4 JUMP JUMPDEST DUP5 PUSH2 0x3841 JUMP JUMPDEST PUSH1 0x20 DUP1 PUSH1 0x1F DUP4 GT PUSH1 0x1 DUP2 EQ PUSH2 0x38F2 JUMPI PUSH1 0x0 DUP5 ISZERO PUSH2 0x38DA JUMPI POP DUP6 DUP4 ADD MLOAD JUMPDEST PUSH1 0x0 NOT PUSH1 0x3 DUP7 SWAP1 SHL SHR NOT AND PUSH1 0x1 DUP6 SWAP1 SHL OR DUP6 SSTORE PUSH2 0x3887 JUMP JUMPDEST PUSH1 0x0 DUP6 DUP2 MSTORE PUSH1 0x20 DUP2 KECCAK256 PUSH1 0x1F NOT DUP7 AND SWAP2 JUMPDEST DUP3 DUP2 LT ISZERO PUSH2 0x3921 JUMPI DUP9 DUP7 ADD MLOAD DUP3 SSTORE SWAP5 DUP5 ADD SWAP5 PUSH1 0x1 SWAP1 SWAP2 ADD SWAP1 DUP5 ADD PUSH2 0x3902 JUMP JUMPDEST POP DUP6 DUP3 LT ISZERO PUSH2 0x393F JUMPI DUP8 DUP6 ADD MLOAD PUSH1 0x0 NOT PUSH1 0x3 DUP9 SWAP1 SHL PUSH1 0xF8 AND SHR NOT AND DUP2 SSTORE JUMPDEST POP POP POP POP POP PUSH1 0x1 SWAP1 DUP2 SHL ADD SWAP1 SSTORE POP JUMP JUMPDEST PUSH1 0x0 PUSH1 0x1 DUP3 ADD PUSH2 0x3961 JUMPI PUSH2 0x3961 PUSH2 0x3818 JUMP JUMPDEST POP PUSH1 0x1 ADD SWAP1 JUMP JUMPDEST PUSH8 0xFFFFFFFFFFFFFFFF DUP4 GT ISZERO PUSH2 0x3980 JUMPI PUSH2 0x3980 PUSH2 0x3328 JUMP JUMPDEST PUSH2 0x3994 DUP4 PUSH2 0x398E DUP4 SLOAD PUSH2 0x37E4 JUMP JUMPDEST DUP4 PUSH2 0x3841 JUMP JUMPDEST PUSH1 0x0 PUSH1 0x1F DUP5 GT PUSH1 0x1 DUP2 EQ PUSH2 0x39C8 JUMPI PUSH1 0x0 DUP6 ISZERO PUSH2 0x39B0 JUMPI POP DUP4 DUP3 ADD CALLDATALOAD JUMPDEST PUSH1 0x0 NOT PUSH1 0x3 DUP8 SWAP1 SHL SHR NOT AND PUSH1 0x1 DUP7 SWAP1 SHL OR DUP4 SSTORE PUSH2 0x1013 JUMP JUMPDEST PUSH1 0x0 DUP4 DUP2 MSTORE PUSH1 0x20 SWAP1 KECCAK256 PUSH1 0x1F NOT DUP7 AND SWAP1 DUP4 JUMPDEST DUP3 DUP2 LT ISZERO PUSH2 0x39F9 JUMPI DUP7 DUP6 ADD CALLDATALOAD DUP3 SSTORE PUSH1 0x20 SWAP5 DUP6 ADD SWAP5 PUSH1 0x1 SWAP1 SWAP3 ADD SWAP2 ADD PUSH2 0x39D9 JUMP JUMPDEST POP DUP7 DUP3 LT ISZERO PUSH2 0x3A16 JUMPI PUSH1 0x0 NOT PUSH1 0xF8 DUP9 PUSH1 0x3 SHL AND SHR NOT DUP5 DUP8 ADD CALLDATALOAD AND DUP2 SSTORE JUMPDEST POP POP PUSH1 0x1 DUP6 PUSH1 0x1 SHL ADD DUP4 SSTORE POP POP POP POP POP JUMP JUMPDEST DUP2 DUP2 SUB DUP2 DUP2 GT ISZERO PUSH2 0x1A53 JUMPI PUSH2 0x1A53 PUSH2 0x3818 JUMP JUMPDEST PUSH1 0x20 DUP2 MSTORE DUP2 PUSH1 0x20 DUP3 ADD MSTORE DUP2 DUP4 PUSH1 0x40 DUP4 ADD CALLDATACOPY PUSH1 0x0 DUP2 DUP4 ADD PUSH1 0x40 SWAP1 DUP2 ADD SWAP2 SWAP1 SWAP2 MSTORE PUSH1 0x1F SWAP1 SWAP3 ADD PUSH1 0x1F NOT AND ADD ADD SWAP2 SWAP1 POP JUMP JUMPDEST DUP1 DUP3 MUL DUP2 ISZERO DUP3 DUP3 DIV DUP5 EQ OR PUSH2 0x1A53 JUMPI PUSH2 0x1A53 PUSH2 0x3818 JUMP JUMPDEST PUSH1 0x0 DUP3 PUSH2 0x3A9E JUMPI PUSH4 0x4E487B71 PUSH1 0xE0 SHL PUSH1 0x0 MSTORE PUSH1 0x12 PUSH1 0x4 MSTORE PUSH1 0x24 PUSH1 0x0 REVERT JUMPDEST POP DIV SWAP1 JUMP JUMPDEST PUSH1 0x0 PUSH1 0x1 PUSH1 0x1 PUSH1 0xA0 SHL SUB DUP1 DUP8 AND DUP4 MSTORE DUP1 DUP7 AND PUSH1 0x20 DUP5 ADD MSTORE POP DUP4 PUSH1 0x40 DUP4 ADD MSTORE PUSH1 0x80 PUSH1 0x60 DUP4 ADD MSTORE PUSH2 0x3AD5 PUSH1 0x80 DUP4 ADD DUP5 PUSH2 0x328D JUMP JUMPDEST SWAP7 SWAP6 POP POP POP POP POP POP JUMP JUMPDEST PUSH1 0x0 PUSH1 0x20 DUP3 DUP5 SUB SLT ISZERO PUSH2 0x3AF1 JUMPI PUSH1 0x0 DUP1 REVERT JUMPDEST DUP2 MLOAD PUSH32 0xFFFFFFFF00000000000000000000000000000000000000000000000000000000 DUP2 AND DUP2 EQ PUSH2 0x32E6 JUMPI PUSH1 0x0 DUP1 REVERT JUMPDEST PUSH4 0x4E487B71 PUSH1 0xE0 SHL PUSH1 0x0 MSTORE PUSH1 0x1 PUSH1 0x4 MSTORE PUSH1 0x24 PUSH1 0x0 REVERT INVALID 0x4F PUSH24 0x6E61626C653A2063616C6C6572206973206E6F7420746865 KECCAK256 PUSH16 0x776E6572A2646970667358221220211D DIV 0x2E 0xA7 0xAA PC 0xCB PUSH16 0xDF8CD34EA20144DF3DEF89ED5E85F9FB LT XOR 0xDC SSTORE 0x4B 0x5D 0xE PUSH5 0x736F6C6343 STOP ADDMOD GT STOP CALLER "},"methodIdentifiers":{"addClassProperty(uint256)":"80483a6a","addNewTokenClass(uint32,string)":"25498c75","addPropertyWithContent(uint256,string)":"290e008c","addTokenClassProperties(uint256,uint256)":"be671058","appendClassProperty(uint256,uint256,string)":"4774d93f","appendProperty(uint256,uint256,string)":"3add5fa1","balanceOf(address)":"70a08231","bidLock()":"91100695","bidOf(uint256)":"649ccc14","class_feeLevel(uint256)":"d75d1e66","class_properties(uint256,uint256)":"3e0bb783","feeLevels(uint32)":"74c29ce3","getClassForTokenID(uint256)":"543dc7fa","getClassProperties(uint256)":"e6470059","getClassPropertiesForTokenID(uint256)":"4bb2ddd4","getClassProperty(uint256,uint256)":"4c1720a4","getClassPropertyForTokenID(uint256,uint256)":"9de4792e","getTokenProperties(uint256)":"4edea111","getTokenProperty(uint256,uint256)":"7ab56e52","getUserContent(uint256)":"02ff368a","initialize(string,string,uint256)":"b119490e","mintWithClass(uint256)":"3c65b3eb","minter_role(address)":"510910bb","modifyClassFeeLevel(uint256,uint32)":"78317f3f","modifyClassProperty(uint256,uint256,string)":"3054d9cb","modifyProperty(uint256,uint256,string)":"bb053717","name()":"06fdde03","nextClassIndex()":"1d734c8f","next_mint_id()":"e29fb036","owner()":"8da5cb5b","ownerOf(uint256)":"6352211e","priceOf(uint256)":"b9186d7d","setBid(uint256,bytes)":"73baa651","setClassForTokenID(uint256,uint256)":"1f38e654","setFeeLevel(uint32,address,uint256)":"8e39e18c","setFeeLevelForToken(uint256,uint32)":"648fbe40","setMinterRole(address,bool)":"cb177b1e","setPrice(uint256,uint256,bytes)":"3d8073f1","setUserContent(uint256,string)":"2a6d3f44","silentTransfer(address,uint256)":"c98e0c3c","standard()":"5a3b7e42","symbol()":"95d89b41","tokenURI(uint256)":"c87b56dd","token_classes(uint256)":"c1940f1b","transfer(address,uint256,bytes)":"be45fd62","transferOwnership(address)":"f2fde38b","withdrawBid(uint256)":"0eaaf4c8"}}}}}