{"contracts/Mucha.sol":{"MuchaNFT":{"abi":[{"anonymous":false,"inputs":[{"indexed":true,"internalType":"uint256","name":"tokenID","type":"uint256"},{"indexed":true,"internalType":"uint256","name":"bidAmount","type":"uint256"},{"indexed":false,"internalType":"bytes","name":"bidData","type":"bytes"}],"name":"NewBid","type":"event"},{"anonymous":false,"inputs":[{"indexed":true,"internalType":"address","name":"previousOwner","type":"address"},{"indexed":true,"internalType":"address","name":"newOwner","type":"address"}],"name":"OwnershipTransferred","type":"event"},{"anonymous":false,"inputs":[{"indexed":false,"internalType":"address","name":"minter","type":"address"},{"indexed":false,"internalType":"bool","name":"status","type":"bool"}],"name":"SetMinterRole","type":"event"},{"anonymous":false,"inputs":[{"indexed":true,"internalType":"uint256","name":"tokenID","type":"uint256"},{"indexed":true,"internalType":"address","name":"new_owner","type":"address"},{"indexed":true,"internalType":"address","name":"previous_owner","type":"address"},{"indexed":false,"internalType":"uint256","name":"priceInWEI","type":"uint256"}],"name":"TokenTrade","type":"event"},{"anonymous":false,"inputs":[{"indexed":true,"internalType":"address","name":"from","type":"address"},{"indexed":true,"internalType":"address","name":"to","type":"address"},{"indexed":true,"internalType":"uint256","name":"tokenId","type":"uint256"}],"name":"Transfer","type":"event"},{"anonymous":false,"inputs":[{"indexed":false,"internalType":"bytes","name":"data","type":"bytes"}],"name":"TransferData","type":"event"},{"inputs":[{"internalType":"uint256","name":"_classID","type":"uint256"}],"name":"addClassProperty","outputs":[],"stateMutability":"nonpayable","type":"function"},{"inputs":[{"internalType":"uint256","name":"_classID","type":"uint256"},{"internalType":"string","name":"_property","type":"string"}],"name":"addClassPropertyWithContent","outputs":[],"stateMutability":"nonpayable","type":"function"},{"inputs":[{"internalType":"uint32","name":"_feeLevel","type":"uint32"},{"internalType":"string","name":"_property","type":"string"}],"name":"addNewTokenClass","outputs":[],"stateMutability":"nonpayable","type":"function"},{"inputs":[{"internalType":"uint256","name":"_tokenId","type":"uint256"},{"internalType":"string","name":"_content","type":"string"}],"name":"addPropertyWithContent","outputs":[],"stateMutability":"nonpayable","type":"function"},{"inputs":[{"internalType":"uint256","name":"_propertiesCount","type":"uint256"},{"internalType":"uint256","name":"classId","type":"uint256"}],"name":"addTokenClassProperties","outputs":[],"stateMutability":"nonpayable","type":"function"},{"inputs":[{"internalType":"uint256","name":"_classID","type":"uint256"},{"internalType":"uint256","name":"_propertyID","type":"uint256"},{"internalType":"string","name":"_content","type":"string"}],"name":"appendClassProperty","outputs":[],"stateMutability":"nonpayable","type":"function"},{"inputs":[{"internalType":"uint256","name":"_tokenId","type":"uint256"},{"internalType":"uint256","name":"_propertyId","type":"uint256"},{"internalType":"string","name":"_content","type":"string"}],"name":"appendProperty","outputs":[],"stateMutability":"nonpayable","type":"function"},{"inputs":[{"internalType":"address","name":"owner","type":"address"}],"name":"balanceOf","outputs":[{"internalType":"uint256","name":"","type":"uint256"}],"stateMutability":"view","type":"function"},{"inputs":[],"name":"bidLock","outputs":[{"internalType":"uint256","name":"","type":"uint256"}],"stateMutability":"view","type":"function"},{"inputs":[{"internalType":"uint256","name":"_tokenId","type":"uint256"}],"name":"bidOf","outputs":[{"internalType":"uint256","name":"price","type":"uint256"},{"internalType":"address payable","name":"bidder","type":"address"},{"internalType":"uint256","name":"timestamp","type":"uint256"}],"stateMutability":"view","type":"function"},{"inputs":[{"internalType":"uint256","name":"","type":"uint256"}],"name":"class_feeLevel","outputs":[{"internalType":"uint32","name":"","type":"uint32"}],"stateMutability":"view","type":"function"},{"inputs":[{"internalType":"uint256","name":"","type":"uint256"},{"internalType":"uint256","name":"","type":"uint256"}],"name":"class_properties","outputs":[{"internalType":"string","name":"","type":"string"}],"stateMutability":"view","type":"function"},{"inputs":[{"internalType":"uint32","name":"","type":"uint32"}],"name":"feeLevels","outputs":[{"internalType":"address payable","name":"feeReceiver","type":"address"},{"internalType":"uint256","name":"feePercentage","type":"uint256"}],"stateMutability":"view","type":"function"},{"inputs":[{"internalType":"uint256","name":"_tokenID","type":"uint256"}],"name":"getClassForTokenID","outputs":[{"internalType":"uint256","name":"","type":"uint256"}],"stateMutability":"view","type":"function"},{"inputs":[{"internalType":"uint256","name":"_classID","type":"uint256"}],"name":"getClassProperties","outputs":[{"internalType":"string[]","name":"","type":"string[]"}],"stateMutability":"view","type":"function"},{"inputs":[{"internalType":"uint256","name":"_tokenID","type":"uint256"}],"name":"getClassPropertiesForTokenID","outputs":[{"internalType":"string[]","name":"","type":"string[]"}],"stateMutability":"view","type":"function"},{"inputs":[{"internalType":"uint256","name":"_classID","type":"uint256"},{"internalType":"uint256","name":"_propertyID","type":"uint256"}],"name":"getClassProperty","outputs":[{"internalType":"string","name":"","type":"string"}],"stateMutability":"view","type":"function"},{"inputs":[{"internalType":"uint256","name":"_tokenID","type":"uint256"},{"internalType":"uint256","name":"_propertyID","type":"uint256"}],"name":"getClassPropertyForTokenID","outputs":[{"internalType":"string","name":"","type":"string"}],"stateMutability":"view","type":"function"},{"inputs":[{"internalType":"uint256","name":"_tokenId","type":"uint256"}],"name":"getTokenProperties","outputs":[{"components":[{"internalType":"string[]","name":"properties","type":"string[]"}],"internalType":"struct ICallistoNFT.Properties","name":"","type":"tuple"}],"stateMutability":"view","type":"function"},{"inputs":[{"internalType":"uint256","name":"_tokenId","type":"uint256"},{"internalType":"uint256","name":"_propertyId","type":"uint256"}],"name":"getTokenProperty","outputs":[{"internalType":"string","name":"","type":"string"}],"stateMutability":"view","type":"function"},{"inputs":[{"internalType":"uint256","name":"_tokenId","type":"uint256"}],"name":"getUserContent","outputs":[{"internalType":"string","name":"_content","type":"string"}],"stateMutability":"view","type":"function"},{"inputs":[{"internalType":"string","name":"name_","type":"string"},{"internalType":"string","name":"symbol_","type":"string"},{"internalType":"uint256","name":"_defaultFee","type":"uint256"}],"name":"initialize","outputs":[],"stateMutability":"nonpayable","type":"function"},{"inputs":[{"internalType":"uint256","name":"classId","type":"uint256"}],"name":"mintWithClass","outputs":[{"internalType":"uint256","name":"_newTokenID","type":"uint256"}],"stateMutability":"nonpayable","type":"function"},{"inputs":[{"internalType":"address","name":"","type":"address"}],"name":"minter_role","outputs":[{"internalType":"bool","name":"","type":"bool"}],"stateMutability":"view","type":"function"},{"inputs":[{"internalType":"uint256","name":"_classId","type":"uint256"},{"internalType":"uint32","name":"_feeLevel","type":"uint32"}],"name":"modifyClassFeeLevel","outputs":[],"stateMutability":"nonpayable","type":"function"},{"inputs":[{"internalType":"uint256","name":"_classID","type":"uint256"},{"internalType":"uint256","name":"_propertyID","type":"uint256"},{"internalType":"string","name":"_content","type":"string"}],"name":"modifyClassProperty","outputs":[],"stateMutability":"nonpayable","type":"function"},{"inputs":[{"internalType":"uint256","name":"_tokenId","type":"uint256"},{"internalType":"uint256","name":"_propertyId","type":"uint256"},{"internalType":"string","name":"_content","type":"string"}],"name":"modifyProperty","outputs":[],"stateMutability":"nonpayable","type":"function"},{"inputs":[],"name":"name","outputs":[{"internalType":"string","name":"","type":"string"}],"stateMutability":"view","type":"function"},{"inputs":[],"name":"nextClassIndex","outputs":[{"internalType":"uint256","name":"","type":"uint256"}],"stateMutability":"view","type":"function"},{"inputs":[],"name":"next_mint_id","outputs":[{"internalType":"uint256","name":"","type":"uint256"}],"stateMutability":"view","type":"function"},{"inputs":[],"name":"owner","outputs":[{"internalType":"address","name":"","type":"address"}],"stateMutability":"view","type":"function"},{"inputs":[{"internalType":"uint256","name":"tokenId","type":"uint256"}],"name":"ownerOf","outputs":[{"internalType":"address","name":"","type":"address"}],"stateMutability":"view","type":"function"},{"inputs":[{"internalType":"uint256","name":"_tokenId","type":"uint256"}],"name":"priceOf","outputs":[{"internalType":"uint256","name":"","type":"uint256"}],"stateMutability":"view","type":"function"},{"inputs":[{"internalType":"uint256","name":"_tokenId","type":"uint256"},{"internalType":"bytes","name":"_data","type":"bytes"}],"name":"setBid","outputs":[],"stateMutability":"payable","type":"function"},{"inputs":[{"internalType":"uint256","name":"_tokenID","type":"uint256"},{"internalType":"uint256","name":"_tokenClass","type":"uint256"}],"name":"setClassForTokenID","outputs":[],"stateMutability":"nonpayable","type":"function"},{"inputs":[{"internalType":"uint32","name":"_levelIndex","type":"uint32"},{"internalType":"address","name":"_feeReceiver","type":"address"},{"internalType":"uint256","name":"_feePercentage","type":"uint256"}],"name":"setFeeLevel","outputs":[],"stateMutability":"nonpayable","type":"function"},{"inputs":[{"internalType":"uint256","name":"_tokenId","type":"uint256"},{"internalType":"uint32","name":"_feeLevel","type":"uint32"}],"name":"setFeeLevelForToken","outputs":[],"stateMutability":"nonpayable","type":"function"},{"inputs":[{"internalType":"address","name":"_who","type":"address"},{"internalType":"bool","name":"_status","type":"bool"}],"name":"setMinterRole","outputs":[],"stateMutability":"nonpayable","type":"function"},{"inputs":[{"internalType":"uint256","name":"_tokenId","type":"uint256"},{"internalType":"uint256","name":"_amountInWEI","type":"uint256"},{"internalType":"bytes","name":"_data","type":"bytes"}],"name":"setPrice","outputs":[],"stateMutability":"nonpayable","type":"function"},{"inputs":[{"internalType":"uint256","name":"_tokenId","type":"uint256"},{"internalType":"string","name":"_content","type":"string"}],"name":"setUserContent","outputs":[{"internalType":"bool","name":"success","type":"bool"}],"stateMutability":"nonpayable","type":"function"},{"inputs":[{"internalType":"address","name":"_to","type":"address"},{"internalType":"uint256","name":"_tokenId","type":"uint256"}],"name":"silentTransfer","outputs":[{"internalType":"bool","name":"","type":"bool"}],"stateMutability":"nonpayable","type":"function"},{"inputs":[],"name":"standard","outputs":[{"internalType":"string","name":"","type":"string"}],"stateMutability":"pure","type":"function"},{"inputs":[],"name":"symbol","outputs":[{"internalType":"string","name":"","type":"string"}],"stateMutability":"view","type":"function"},{"inputs":[{"internalType":"uint256","name":"_tokenID","type":"uint256"}],"name":"tokenURI","outputs":[{"internalType":"string","name":"","type":"string"}],"stateMutability":"view","type":"function"},{"inputs":[{"internalType":"uint256","name":"","type":"uint256"}],"name":"token_classes","outputs":[{"internalType":"uint256","name":"","type":"uint256"}],"stateMutability":"view","type":"function"},{"inputs":[{"internalType":"address","name":"_to","type":"address"},{"internalType":"uint256","name":"_tokenId","type":"uint256"},{"internalType":"bytes","name":"_data","type":"bytes"}],"name":"transfer","outputs":[{"internalType":"bool","name":"","type":"bool"}],"stateMutability":"nonpayable","type":"function"},{"inputs":[{"internalType":"address","name":"newOwner","type":"address"}],"name":"transferOwnership","outputs":[],"stateMutability":"nonpayable","type":"function"},{"inputs":[{"internalType":"uint256","name":"_tokenId","type":"uint256"}],"name":"withdrawBid","outputs":[{"internalType":"bool","name":"","type":"bool"}],"stateMutability":"nonpayable","type":"function"}],"evm":{"bytecode":{"linkReferences":{},"object":"608060405262015180600555600060115534801561001c57600080fd5b506001600255613c05806100316000396000f3fe6080604052600436106103135760003560e01c806370a082311161019a578063b9186d7d116100e1578063c98e0c3c1161008a578063e29fb03611610064578063e29fb036146109b4578063e6470059146109ca578063f2fde38b146109ea57600080fd5b8063c98e0c3c1461092c578063cb177b1e1461094c578063d75d1e661461096c57600080fd5b8063be671058116100bb578063be671058146108bf578063c1940f1b146108df578063c87b56dd1461090c57600080fd5b8063b9186d7d1461085f578063bb0537171461087f578063be45fd621461089f57600080fd5b80638da5cb5b1161014357806395d89b411161011d57806395d89b411461080a5780639de4792e1461081f578063b119490e1461083f57600080fd5b80638da5cb5b146107b65780638e39e18c146107d457806391100695146107f457600080fd5b806378317f3f1161017457806378317f3f146107565780637ab56e521461077657806380483a6a1461079657600080fd5b806370a08231146106c457806373baa651146106e457806374c29ce3146106f757600080fd5b80633e0bb7831161025e578063543dc7fa11610207578063648fbe40116101e1578063648fbe4014610641578063649ccc141461066157806369a13712146106a457600080fd5b8063543dc7fa146105a35780635a3b7e42146105c35780636352211e1461060957600080fd5b80634c1720a4116102385780634c1720a4146105265780634edea11114610546578063510910bb1461057357600080fd5b80633e0bb783146104b95780634774d93f146104d95780634bb2ddd4146104f957600080fd5b8063290e008c116102c05780633add5fa11161029a5780633add5fa1146104595780633c65b3eb146104795780633d8073f11461049957600080fd5b8063290e008c146103f95780632a6d3f44146104195780633054d9cb1461043957600080fd5b80631d734c8f116102f15780631d734c8f146103935780631f38e654146103b757806325498c75146103d957600080fd5b806302ff368a1461031857806306fdde031461034e5780630eaaf4c814610363575b600080fd5b34801561032457600080fd5b5061033861033336600461329b565b610a0a565b60405161034591906132fa565b60405180910390f35b34801561035a57600080fd5b50610338610ac4565b34801561036f57600080fd5b5061038361037e36600461329b565b610b56565b6040519015158152602001610345565b34801561039f57600080fd5b506103a960115481565b604051908152602001610345565b3480156103c357600080fd5b506103d76103d2366004613314565b610d0d565b005b3480156103e557600080fd5b506103d76103f43660046133fb565b610d67565b34801561040557600080fd5b506103d7610414366004613492565b610e16565b34801561042557600080fd5b50610383610434366004613492565b610e97565b34801561044557600080fd5b506103d76104543660046134de565b610f6b565b34801561046557600080fd5b506103d761047436600461352e565b611033565b34801561048557600080fd5b506103a961049436600461329b565b61108d565b3480156104a557600080fd5b506103d76104b436600461352e565b61117f565b3480156104c557600080fd5b506103386104d4366004613314565b6113e3565b3480156104e557600080fd5b506103d76104f43660046134de565b61149c565b34801561050557600080fd5b5061051961051436600461329b565b61160b565b60405161034591906135d6565b34801561053257600080fd5b50610338610541366004613314565b611749565b34801561055257600080fd5b5061056661056136600461329b565b611847565b60405161034591906135e9565b34801561057f57600080fd5b5061038361058e366004613623565b60016020526000908152604090205460ff1681565b3480156105af57600080fd5b506103a96105be36600461329b565b61193c565b3480156105cf57600080fd5b5060408051808201909152600b81527f43616c6c6973746f4e46540000000000000000000000000000000000000000006020820152610338565b34801561061557600080fd5b5061062961062436600461329b565b61199e565b6040516001600160a01b039091168152602001610345565b34801561064d57600080fd5b506103d761065c36600461363e565b611a18565b34801561066d57600080fd5b5061068161067c36600461329b565b611a88565b604080519384526001600160a01b03909216602084015290820152606001610345565b3480156106b057600080fd5b506103d76106bf36600461366a565b611b2f565b3480156106d057600080fd5b506103a96106df366004613623565b611bdf565b6103d76106f2366004613492565b611c79565b34801561070357600080fd5b5061073761071236600461369b565b600460205260009081526040902080546001909101546001600160a01b039091169082565b604080516001600160a01b039093168352602083019190915201610345565b34801561076257600080fd5b506103d761077136600461363e565b611fe3565b34801561078257600080fd5b50610338610791366004613314565b612053565b3480156107a257600080fd5b506103d76107b136600461329b565b612112565b3480156107c257600080fd5b506000546001600160a01b0316610629565b3480156107e057600080fd5b506103d76107ef3660046136b6565b6121d2565b34801561080057600080fd5b506103a960055481565b34801561081657600080fd5b50610338612255565b34801561082b57600080fd5b5061033861083a366004613314565b612264565b34801561084b57600080fd5b506103d761085a3660046136f2565b6122e3565b34801561086b57600080fd5b506103a961087a36600461329b565b6123fc565b34801561088b57600080fd5b506103d761089a36600461352e565b612484565b3480156108ab57600080fd5b506103836108ba36600461375f565b6124d8565b3480156108cb57600080fd5b506103d76108da366004613314565b612527565b3480156108eb57600080fd5b506103a96108fa36600461329b565b60106020526000908152604090205481565b34801561091857600080fd5b5061033861092736600461329b565b6125c5565b34801561093857600080fd5b506103836109473660046137c0565b6126de565b34801561095857600080fd5b506103d76109673660046137ea565b61286f565b34801561097857600080fd5b5061099f61098736600461329b565b600f6020526000908152604090205463ffffffff1681565b60405163ffffffff9091168152602001610345565b3480156109c057600080fd5b506103a960095481565b3480156109d657600080fd5b506105196109e536600461329b565b61291a565b3480156109f657600080fd5b506103d7610a05366004613623565b612a31565b6000818152600360205260408120805460609290610a2a57610a2a613826565b906000526020600020018054610a3f9061383c565b80601f0160208091040260200160405190810160405280929190818152602001828054610a6b9061383c565b8015610ab85780601f10610a8d57610100808354040283529160200191610ab8565b820191906000526020600020905b815481529060010190602001808311610a9b57829003601f168201915b50505050509050919050565b6060600a8054610ad39061383c565b80601f0160208091040260200160405190810160405280929190818152602001828054610aff9061383c565b8015610b4c5780601f10610b2157610100808354040283529160200191610b4c565b820191906000526020600020905b815481529060010190602001808311610b2f57829003601f168201915b5050505050905090565b60006002805403610bae5760405162461bcd60e51b815260206004820152601f60248201527f5265656e7472616e637947756172643a207265656e7472616e742063616c6c0060448201526064015b60405180910390fd5b6002805560008080610bbf85611a88565b91945092509050336001600160a01b03831614610c445760405162461bcd60e51b815260206004820152602260248201527f43616e206e6f7420776974686472617720736f6d656f6e6520656c736573206260448201527f69640000000000000000000000000000000000000000000000000000000000006064820152608401610ba5565b600554610c519082613886565b4211610c9f5760405162461bcd60e51b815260206004820152601260248201527f4269642069732074696d652d6c6f636b656400000000000000000000000000006044820152606401610ba5565b6040516001600160a01b0383169084156108fc029085906000818181858888f19350505050158015610cd5573d6000803e3d6000fd5b5050506000928352505060076020526040812080546001600160a01b0319168155600180820183905560029182019290925581905590565b6000546001600160a01b03163314610d555760405162461bcd60e51b81526020600482018190526024820152600080516020613bb08339815191526044820152606401610ba5565b60009182526010602052604090912055565b6000546001600160a01b03163314610daf5760405162461bcd60e51b81526020600482018190526024820152600080516020613bb08339815191526044820152606401610ba5565b6011546000908152600e6020908152604082208054600181018255908352912001610dda82826138e7565b50601180546000908152600f60205260408120805463ffffffff191663ffffffff861617905581549190610e0d836139a7565b91905055505050565b33610e296000546001600160a01b031690565b6001600160a01b03161480610e4d57503360009081526001602052604090205460ff165b610e875760405162461bcd60e51b81526020600482018190526024820152600080516020613bb08339815191526044820152606401610ba5565b610e92838383612b01565b505050565b6000610ea28461199e565b6001600160a01b0316336001600160a01b031614610f285760405162461bcd60e51b815260206004820152602660248201527f4e46543a206f6e6c79206f776e65722063616e206368616e6765204e4654206360448201527f6f6e74656e7400000000000000000000000000000000000000000000000000006064820152608401610ba5565b600084815260036020526040812080548592859291610f4957610f49613826565b906000526020600020019182610f609291906139c0565b506001949350505050565b6000546001600160a01b03163314610fb35760405162461bcd60e51b81526020600482018190526024820152600080516020613bb08339815191526044820152606401610ba5565b826011548110610ff35760405162461bcd60e51b815260206004820152601c6024820152600080516020613b908339815191526044820152606401610ba5565b6000848152600e6020526040902080548391908590811061101657611016613826565b90600052602060002001908161102c91906138e7565b5050505050565b6000546001600160a01b0316331461107b5760405162461bcd60e51b81526020600482018190526024820152600080516020613bb08339815191526044820152606401610ba5565b61108784848484612b2a565b50505050565b60008160115481106110cf5760405162461bcd60e51b815260206004820152601c6024820152600080516020613b908339815191526044820152606401610ba5565b3360009081526001602052604090205460ff1661112e5760405162461bcd60e51b815260206004820152601460248201527f4d696e74657220726f6c652072657175697265640000000000000000000000006044820152606401610ba5565b611136612ba3565b6000818152601060209081526040808320879055958252600f8152858220548383526008909152949020805463ffffffff191663ffffffff909516949094179093555090919050565b8382828080601f0160208091040260200160405190810160405280939291908181526020018383808284376000920191909152505060025460011901915061120b90505760405162461bcd60e51b815260206004820152601f60248201527f5265656e7472616e637947756172643a207265656e7472616e742063616c6c006044820152606401610ba5565b60028055336112198761199e565b6001600160a01b0316146112955760405162461bcd60e51b815260206004820152602c60248201527f53657474696e672061736b73206973206f6e6c7920616c6c6f77656420666f7260448201527f206f776e6564204e4654732100000000000000000000000000000000000000006064820152608401610ba5565b60008681526006602052604081208690556001600255806112b584611a88565b509150915060006112c5856123fc565b1180156112da5750816112d7856123fc565b11155b156113d95760006112eb8386612bd5565b6112f59084613a80565b90506113008561199e565b6001600160a01b0316826001600160a01b0316867fc9b9afd9684b23c6b22a41016c08e8954ac118220c0a52f00b8774c46580e9a38460405161134591815260200190565b60405180910390a46113568561199e565b6001600160a01b03166108fc829081150290604051600060405180830381858888f1935050505015801561138e573d6000803e3d6000fd5b50600085815260076020908152604080832080546001600160a01b03191681556001810184905560020183905560069091528120556113d76113cf8661199e565b838787612c68565b505b5050505050505050565b600e60205281600052604060002081815481106113ff57600080fd5b9060005260206000200160009150915050805461141b9061383c565b80601f01602080910402602001604051908101604052809291908181526020018280546114479061383c565b80156114945780601f1061146957610100808354040283529160200191611494565b820191906000526020600020905b81548152906001019060200180831161147757829003601f168201915b505050505081565b6000546001600160a01b031633146114e45760405162461bcd60e51b81526020600482018190526024820152600080516020613bb08339815191526044820152606401610ba5565b8260115481106115245760405162461bcd60e51b815260206004820152601c6024820152600080516020613b908339815191526044820152606401610ba5565b6000848152600e6020526040902080546115eb9184918690811061154a5761154a613826565b90600052602060002001805461155f9061383c565b80601f016020809104026020016040519081016040528092919081815260200182805461158b9061383c565b80156115d85780601f106115ad576101008083540402835291602001916115d8565b820191906000526020600020905b8154815290600101906020018083116115bb57829003601f168201915b5050505050612eb290919063ffffffff16565b6000858152600e6020526040902080548590811061101657611016613826565b60008181526010602052604090205460115460609190811061165d5760405162461bcd60e51b815260206004820152601c6024820152600080516020613b908339815191526044820152606401610ba5565b6000838152601060209081526040808320548352600e825280832080548251818502810185019093528083529193909284015b8282101561173c5783829060005260206000200180546116af9061383c565b80601f01602080910402602001604051908101604052809291908181526020018280546116db9061383c565b80156117285780601f106116fd57610100808354040283529160200191611728565b820191906000526020600020905b81548152906001019060200180831161170b57829003601f168201915b505050505081526020019060010190611690565b5050505091505b50919050565b606082601154811061178b5760405162461bcd60e51b815260206004820152601c6024820152600080516020613b908339815191526044820152606401610ba5565b6000848152600e602052604090208054849081106117ab576117ab613826565b9060005260206000200180546117c09061383c565b80601f01602080910402602001604051908101604052809291908181526020018280546117ec9061383c565b80156118395780601f1061180e57610100808354040283529160200191611839565b820191906000526020600020905b81548152906001019060200180831161181c57829003601f168201915b505050505091505092915050565b604080516020808201835260608252600084815260038252838120845181548085028201870187529381018481529495909491938593859285015b8282101561192e5783829060005260206000200180546118a19061383c565b80601f01602080910402602001604051908101604052809291908181526020018280546118cd9061383c565b801561191a5780601f106118ef5761010080835404028352916020019161191a565b820191906000526020600020905b8154815290600101906020018083116118fd57829003601f168201915b505050505081526020019060010190611882565b505050915250909392505050565b600081815260106020526040812054601154811061198a5760405162461bcd60e51b815260206004820152601c6024820152600080516020613b908339815191526044820152606401610ba5565b505060009081526010602052604090205490565b6000818152600c60205260408120546001600160a01b031680611a125760405162461bcd60e51b815260206004820152602660248201527f4e46543a206f776e657220717565727920666f72206e6f6e6578697374656e74604482015265103a37b5b2b760d11b6064820152608401610ba5565b92915050565b6000546001600160a01b03163314611a605760405162461bcd60e51b81526020600482018190526024820152600080516020613bb08339815191526044820152606401610ba5565b600091825260086020526040909120805463ffffffff191663ffffffff909216919091179055565b6000818152600c6020526040812054819081906001600160a01b031680611b005760405162461bcd60e51b815260206004820152602660248201527f4e46543a206f776e657220717565727920666f72206e6f6e6578697374656e74604482015265103a37b5b2b760d11b6064820152608401610ba5565b5050506000918252506007602052604090206001810154815460029092015490926001600160a01b0390921691565b6000546001600160a01b03163314611b775760405162461bcd60e51b81526020600482018190526024820152600080516020613bb08339815191526044820152606401610ba5565b816011548110611bb75760405162461bcd60e51b815260206004820152601c6024820152600080516020613b908339815191526044820152606401610ba5565b6000838152600e602090815260408220805460018101825590835291200161108783826138e7565b60006001600160a01b038216611c5d5760405162461bcd60e51b815260206004820152602760248201527f4e46543a2062616c616e636520717565727920666f7220746865207a65726f2060448201527f61646472657373000000000000000000000000000000000000000000000000006064820152608401610ba5565b506001600160a01b03166000908152600d602052604090205490565b8282828080601f01602080910402602001604051908101604052809392919081815260200183838082843760009201919091525050600254600119019150611d0590505760405162461bcd60e51b815260206004820152601f60248201527f5265656e7472616e637947756172643a207265656e7472616e742063616c6c006044820152606401610ba5565b60028055600080611d1587611a88565b5091509150813411611d8e5760405162461bcd60e51b8152602060048201526024808201527f4e657720626964206d7573742065786365656420746865206578697374696e6760448201527f206f6e65000000000000000000000000000000000000000000000000000000006064820152608401610ba5565b60008215611dce576040516001600160a01b0383169084156108fc029085906000818181858888f19350505050158015611dcc573d6000803e3d6000fd5b505b34611dd8896123fc565b1015611dee57611de7886123fc565b9050611df1565b50345b600088815260076020526040908190206001810183905580546001600160a01b031916331781554260029091015551819089907f223d0d5db4846341da7a5cc902b1a7c597e63b6c73b1c6267dc931d290c7affb90611e53908b908b90613a93565b60405180910390a334611e65896123fc565b1015611eac57336108fc611e788a6123fc565b611e829034613a80565b6040518115909202916000818181858888f19350505050158015611eaa573d6000803e3d6000fd5b505b5050600160025550600080611ec084611a88565b50915091506000611ed0856123fc565b118015611ee5575081611ee2856123fc565b11155b15611fda576000611ef68386612bd5565b611f009084613a80565b9050611f0b8561199e565b6001600160a01b0316826001600160a01b0316867fc9b9afd9684b23c6b22a41016c08e8954ac118220c0a52f00b8774c46580e9a384604051611f5091815260200190565b60405180910390a4611f618561199e565b6001600160a01b03166108fc829081150290604051600060405180830381858888f19350505050158015611f99573d6000803e3d6000fd5b50600085815260076020908152604080832080546001600160a01b03191681556001810184905560020183905560069091528120556113d96113cf8661199e565b50505050505050565b6000546001600160a01b0316331461202b5760405162461bcd60e51b81526020600482018190526024820152600080516020613bb08339815191526044820152606401610ba5565b6000918252600f6020526040909120805463ffffffff191663ffffffff909216919091179055565b60008281526003602052604090208054606091908390811061207757612077613826565b90600052602060002001805461208c9061383c565b80601f01602080910402602001604051908101604052809291908181526020018280546120b89061383c565b80156121055780601f106120da57610100808354040283529160200191612105565b820191906000526020600020905b8154815290600101906020018083116120e857829003601f168201915b5050505050905092915050565b6000546001600160a01b0316331461215a5760405162461bcd60e51b81526020600482018190526024820152600080516020613bb08339815191526044820152606401610ba5565b80601154811061219a5760405162461bcd60e51b815260206004820152601c6024820152600080516020613b908339815191526044820152606401610ba5565b6000828152600e602090815260408083208054600181018255908452828420825193840190925292825290910190610e9290826138e7565b6000546001600160a01b0316331461221a5760405162461bcd60e51b81526020600482018190526024820152600080516020613bb08339815191526044820152606401610ba5565b63ffffffff909216600090815260046020526040902080546001600160a01b039092166001600160a01b031990921691909117815560010155565b6060600b8054610ad39061383c565b6000828152601060205260409020546011546060919081106122b65760405162461bcd60e51b815260206004820152601c6024820152600080516020613b908339815191526044820152606401610ba5565b6000848152601060209081526040808320548352600e90915290208054849081106117ab576117ab613826565b6000546001600160a01b03161561233c5760405162461bcd60e51b815260206004820152601360248201527f416c726561647920696e697469616c697a6564000000000000000000000000006044820152606401610ba5565b600080546001600160a01b0319163390811782556040519091907f8be0079c531659141344cd1fd0a4f28419497f9722a3daafe3b4186f6b6457e0908290a362015180600555600a61238e84826138e7565b50600b61239b83826138e7565b506000805260046020527f17ef568e3e12ab5b9c7254a8d58478811de00f9e6eb34345acd53bf8fd09d3ec80546001600160a01b031916331790557f17ef568e3e12ab5b9c7254a8d58478811de00f9e6eb34345acd53bf8fd09d3ed555050565b6000818152600c60205260408120546001600160a01b0316806124705760405162461bcd60e51b815260206004820152602660248201527f4e46543a206f776e657220717565727920666f72206e6f6e6578697374656e74604482015265103a37b5b2b760d11b6064820152608401610ba5565b505060009081526006602052604090205490565b6000546001600160a01b031633146124cc5760405162461bcd60e51b81526020600482018190526024820152600080516020613bb08339815191526044820152606401610ba5565b61108784848484613073565b60006124e633858585612c68565b7f3ba9136826ac751de05d770d8d34fa4440ada49a5fb0e9aa1678aece66dad9768260405161251591906132fa565b60405180910390a15060019392505050565b6000546001600160a01b0316331461256f5760405162461bcd60e51b81526020600482018190526024820152600080516020613bb08339815191526044820152606401610ba5565b60005b82811015610e92576000828152600e6020908152604080832080546001810182559084528284208251938401909252928252909101906125b290826138e7565b50806125bd816139a7565b915050612572565b6000818152601060205260409020546011546060919081106126175760405162461bcd60e51b815260206004820152601c6024820152600080516020613b908339815191526044820152606401610ba5565b6000838152601060209081526040808320548352600e9091528120805490919061264357612643613826565b9060005260206000200180546126589061383c565b80601f01602080910402602001604051908101604052809291908181526020018280546126849061383c565b80156126d15780601f106126a6576101008083540402835291602001916126d1565b820191906000526020600020905b8154815290600101906020018083116126b457829003601f168201915b5050505050915050919050565b6000336126ea8361199e565b6001600160a01b03161461274f5760405162461bcd60e51b815260206004820152602660248201527f4e46543a207472616e73666572206f6620746f6b656e2074686174206973206e60448201526537ba1037bbb760d11b6064820152608401610ba5565b6001600160a01b0383166127af5760405162461bcd60e51b815260206004820152602160248201527f4e46543a207472616e7366657220746f20746865207a65726f206164647265736044820152607360f81b6064820152608401610ba5565b600082815260066020526040812055336000908152600d602052604081208054600192906127de908490613a80565b90915550506001600160a01b0383166000908152600d6020526040812080546001929061280c908490613886565b90915550506000828152600c602052604080822080546001600160a01b0319166001600160a01b0387169081179091559051849233917fddf252ad1be2c89b69c2b068fc378daa952ba7f163c4a11628f55a4df523b3ef9190a450600192915050565b6000546001600160a01b031633146128b75760405162461bcd60e51b81526020600482018190526024820152600080516020613bb08339815191526044820152606401610ba5565b6001600160a01b038216600081815260016020908152604091829020805460ff19168515159081179091558251938452908301527f6b0f890a293c8f56a7635ad061c90250965b8af8e8bdbeb56d434b97281a7462910160405180910390a15050565b606081601154811061295c5760405162461bcd60e51b815260206004820152601c6024820152600080516020613b908339815191526044820152606401610ba5565b6000838152600e6020908152604080832080548251818502810185019093528083529193909284015b8282101561173c5783829060005260206000200180546129a49061383c565b80601f01602080910402602001604051908101604052809291908181526020018280546129d09061383c565b8015612a1d5780601f106129f257610100808354040283529160200191612a1d565b820191906000526020600020905b815481529060010190602001808311612a0057829003601f168201915b505050505081526020019060010190612985565b6000546001600160a01b03163314612a795760405162461bcd60e51b81526020600482018190526024820152600080516020613bb08339815191526044820152606401610ba5565b6001600160a01b038116612af55760405162461bcd60e51b815260206004820152602660248201527f4f776e61626c653a206e6577206f776e657220697320746865207a65726f206160448201527f64647265737300000000000000000000000000000000000000000000000000006064820152608401610ba5565b612afe816130ae565b50565b6000838152600360209081526040822080546001810182559083529120016110878284836139c0565b612b8382828080601f016020809104026020016040519081016040528093929190818152602001838380828437600092018290525089815260036020526040902080549093508892508210905061154a5761154a613826565b600085815260036020526040902080548590811061101657611016613826565b6000612bb1336009546130fe565b50600980549081906000612bc4836139a7565b9190505550612bd28161310c565b90565b60008181526008602090815260408083205463ffffffff168084526004909252822080546001909101546001600160a01b039091169083620186a0612c1a8389613ac2565b612c249190613ad9565b6040519091506001600160a01b0384169082156108fc029083906000818181858888f19350505050158015612c5d573d6000803e3d6000fd5b509695505050505050565b836001600160a01b0316612c7b8361199e565b6001600160a01b031614612ce05760405162461bcd60e51b815260206004820152602660248201527f4e46543a207472616e73666572206f6620746f6b656e2074686174206973206e60448201526537ba1037bbb760d11b6064820152608401610ba5565b6001600160a01b038316612d405760405162461bcd60e51b815260206004820152602160248201527f4e46543a207472616e7366657220746f20746865207a65726f206164647265736044820152607360f81b6064820152608401610ba5565b6000828152600660205260408120556001600160a01b0384166000908152600d60205260408120805460019290612d78908490613a80565b90915550506001600160a01b0383166000908152600d60205260408120805460019290612da6908490613886565b90915550506000828152600c6020526040902080546001600160a01b0319166001600160a01b0385169081179091553b15612e6b576040517f150b7a020000000000000000000000000000000000000000000000000000000081526001600160a01b0384169063150b7a0290612e26903390889087908790600401613afb565b6020604051808303816000875af1158015612e45573d6000803e3d6000fd5b505050506040513d601f19601f82011682018060405250810190612e699190613b37565b505b81836001600160a01b0316856001600160a01b03167fddf252ad1be2c89b69c2b068fc378daa952ba7f163c4a11628f55a4df523b3ef60405160405180910390a450505050565b805160609083908390612ec757612ec7613b79565b600081518351612ed79190613886565b67ffffffffffffffff811115612eef57612eef61334f565b6040519080825280601f01601f191660200182016040528015612f19576020820181803683370190505b509050806000805b8551821015612fc157858281518110612f3c57612f3c613826565b01602001517fff00000000000000000000000000000000000000000000000000000000000000168382612f6e816139a7565b935081518110612f8057612f80613826565b60200101907effffffffffffffffffffffffffffffffffffffffffffffffffffffffffffff1916908160001a90535081612fb9816139a7565b925050612f21565b600091505b845182101561306657848281518110612fe157612fe1613826565b01602001517fff00000000000000000000000000000000000000000000000000000000000000168382613013816139a7565b93508151811061302557613025613826565b60200101907effffffffffffffffffffffffffffffffffffffffffffffffffffffffffffff1916908160001a9053508161305e816139a7565b925050612fc6565b5090979650505050505050565b60008481526003602052604090208054839183918690811061309757613097613826565b90600052602060002001918261102c9291906139c0565b600080546001600160a01b038381166001600160a01b0319831681178455604051919092169283917f8be0079c531659141344cd1fd0a4f28419497f9722a3daafe3b4186f6b6457e09190a35050565b6131088282613159565b5050565b6000818152600360205260408120549003612afe576000818152600360209081526040808320805460018101825590845282842082519384019092529282529091019061310890826138e7565b6001600160a01b0382166131af5760405162461bcd60e51b815260206004820152601d60248201527f4e46543a206d696e7420746f20746865207a65726f20616464726573730000006044820152606401610ba5565b6000818152600c60205260409020546001600160a01b0316156132145760405162461bcd60e51b815260206004820152601960248201527f4e46543a20746f6b656e20616c7265616479206d696e746564000000000000006044820152606401610ba5565b6001600160a01b0382166000908152600d6020526040812080546001929061323d908490613886565b90915550506000818152600c602052604080822080546001600160a01b0319166001600160a01b03861690811790915590518392907fddf252ad1be2c89b69c2b068fc378daa952ba7f163c4a11628f55a4df523b3ef908290a45050565b6000602082840312156132ad57600080fd5b5035919050565b6000815180845260005b818110156132da576020818501810151868301820152016132be565b506000602082860101526020601f19601f83011685010191505092915050565b60208152600061330d60208301846132b4565b9392505050565b6000806040838503121561332757600080fd5b50508035926020909101359150565b803563ffffffff8116811461334a57600080fd5b919050565b634e487b7160e01b600052604160045260246000fd5b600067ffffffffffffffff808411156133805761338061334f565b604051601f8501601f19908116603f011681019082821181831017156133a8576133a861334f565b816040528093508581528686860111156133c157600080fd5b858560208301376000602087830101525050509392505050565b600082601f8301126133ec57600080fd5b61330d83833560208501613365565b6000806040838503121561340e57600080fd5b61341783613336565b9150602083013567ffffffffffffffff81111561343357600080fd5b61343f858286016133db565b9150509250929050565b60008083601f84011261345b57600080fd5b50813567ffffffffffffffff81111561347357600080fd5b60208301915083602082850101111561348b57600080fd5b9250929050565b6000806000604084860312156134a757600080fd5b83359250602084013567ffffffffffffffff8111156134c557600080fd5b6134d186828701613449565b9497909650939450505050565b6000806000606084860312156134f357600080fd5b8335925060208401359150604084013567ffffffffffffffff81111561351857600080fd5b613524868287016133db565b9150509250925092565b6000806000806060858703121561354457600080fd5b8435935060208501359250604085013567ffffffffffffffff81111561356957600080fd5b61357587828801613449565b95989497509550505050565b600081518084526020808501808196508360051b8101915082860160005b858110156135c95782840389526135b78483516132b4565b9885019893509084019060010161359f565b5091979650505050505050565b60208152600061330d6020830184613581565b60208152600082516020808401526136046040840182613581565b949350505050565b80356001600160a01b038116811461334a57600080fd5b60006020828403121561363557600080fd5b61330d8261360c565b6000806040838503121561365157600080fd5b8235915061366160208401613336565b90509250929050565b6000806040838503121561367d57600080fd5b82359150602083013567ffffffffffffffff81111561343357600080fd5b6000602082840312156136ad57600080fd5b61330d82613336565b6000806000606084860312156136cb57600080fd5b6136d484613336565b92506136e26020850161360c565b9150604084013590509250925092565b60008060006060848603121561370757600080fd5b833567ffffffffffffffff8082111561371f57600080fd5b61372b878388016133db565b9450602086013591508082111561374157600080fd5b5061374e868287016133db565b925050604084013590509250925092565b60008060006060848603121561377457600080fd5b61377d8461360c565b925060208401359150604084013567ffffffffffffffff8111156137a057600080fd5b8401601f810186136137b157600080fd5b61352486823560208401613365565b600080604083850312156137d357600080fd5b6137dc8361360c565b946020939093013593505050565b600080604083850312156137fd57600080fd5b6138068361360c565b91506020830135801515811461381b57600080fd5b809150509250929050565b634e487b7160e01b600052603260045260246000fd5b600181811c9082168061385057607f821691505b60208210810361174357634e487b7160e01b600052602260045260246000fd5b634e487b7160e01b600052601160045260246000fd5b80820180821115611a1257611a12613870565b601f821115610e9257600081815260208120601f850160051c810160208610156138c05750805b601f850160051c820191505b818110156138df578281556001016138cc565b505050505050565b815167ffffffffffffffff8111156139015761390161334f565b6139158161390f845461383c565b84613899565b602080601f83116001811461394a57600084156139325750858301515b600019600386901b1c1916600185901b1785556138df565b600085815260208120601f198616915b828110156139795788860151825594840194600190910190840161395a565b50858210156139975787850151600019600388901b60f8161c191681555b5050505050600190811b01905550565b6000600182016139b9576139b9613870565b5060010190565b67ffffffffffffffff8311156139d8576139d861334f565b6139ec836139e6835461383c565b83613899565b6000601f841160018114613a205760008515613a085750838201355b600019600387901b1c1916600186901b17835561102c565b600083815260209020601f19861690835b82811015613a515786850135825560209485019460019092019101613a31565b5086821015613a6e5760001960f88860031b161c19848701351681555b505060018560011b0183555050505050565b81810381811115611a1257611a12613870565b60208152816020820152818360408301376000818301604090810191909152601f909201601f19160101919050565b8082028115828204841417611a1257611a12613870565b600082613af657634e487b7160e01b600052601260045260246000fd5b500490565b60006001600160a01b03808716835280861660208401525083604083015260806060830152613b2d60808301846132b4565b9695505050505050565b600060208284031215613b4957600080fd5b81517fffffffff000000000000000000000000000000000000000000000000000000008116811461330d57600080fd5b634e487b7160e01b600052600160045260246000fdfe5175657269656420636c61737320646f6573206e6f74206578697374000000004f776e61626c653a2063616c6c6572206973206e6f7420746865206f776e6572a2646970667358221220ceff48a745ed4bdf69b02fcf1b4b2925b583d3a65230c7cbd3daba2bdc10b75064736f6c63430008110033","opcodes":"PUSH1 0x80 PUSH1 0x40 MSTORE PUSH3 0x15180 PUSH1 0x5 SSTORE PUSH1 0x0 PUSH1 0x11 SSTORE CALLVALUE DUP1 ISZERO PUSH2 0x1C JUMPI PUSH1 0x0 DUP1 REVERT JUMPDEST POP PUSH1 0x1 PUSH1 0x2 SSTORE PUSH2 0x3C05 DUP1 PUSH2 0x31 PUSH1 0x0 CODECOPY PUSH1 0x0 RETURN INVALID PUSH1 0x80 PUSH1 0x40 MSTORE PUSH1 0x4 CALLDATASIZE LT PUSH2 0x313 JUMPI PUSH1 0x0 CALLDATALOAD PUSH1 0xE0 SHR DUP1 PUSH4 0x70A08231 GT PUSH2 0x19A JUMPI DUP1 PUSH4 0xB9186D7D GT PUSH2 0xE1 JUMPI DUP1 PUSH4 0xC98E0C3C GT PUSH2 0x8A JUMPI DUP1 PUSH4 0xE29FB036 GT PUSH2 0x64 JUMPI DUP1 PUSH4 0xE29FB036 EQ PUSH2 0x9B4 JUMPI DUP1 PUSH4 0xE6470059 EQ PUSH2 0x9CA JUMPI DUP1 PUSH4 0xF2FDE38B EQ PUSH2 0x9EA JUMPI PUSH1 0x0 DUP1 REVERT JUMPDEST DUP1 PUSH4 0xC98E0C3C EQ PUSH2 0x92C JUMPI DUP1 PUSH4 0xCB177B1E EQ PUSH2 0x94C JUMPI DUP1 PUSH4 0xD75D1E66 EQ PUSH2 0x96C JUMPI PUSH1 0x0 DUP1 REVERT JUMPDEST DUP1 PUSH4 0xBE671058 GT PUSH2 0xBB JUMPI DUP1 PUSH4 0xBE671058 EQ PUSH2 0x8BF JUMPI DUP1 PUSH4 0xC1940F1B EQ PUSH2 0x8DF JUMPI DUP1 PUSH4 0xC87B56DD EQ PUSH2 0x90C JUMPI PUSH1 0x0 DUP1 REVERT JUMPDEST DUP1 PUSH4 0xB9186D7D EQ PUSH2 0x85F JUMPI DUP1 PUSH4 0xBB053717 EQ PUSH2 0x87F JUMPI DUP1 PUSH4 0xBE45FD62 EQ PUSH2 0x89F JUMPI PUSH1 0x0 DUP1 REVERT JUMPDEST DUP1 PUSH4 0x8DA5CB5B GT PUSH2 0x143 JUMPI DUP1 PUSH4 0x95D89B41 GT PUSH2 0x11D JUMPI DUP1 PUSH4 0x95D89B41 EQ PUSH2 0x80A JUMPI DUP1 PUSH4 0x9DE4792E EQ PUSH2 0x81F JUMPI DUP1 PUSH4 0xB119490E EQ PUSH2 0x83F JUMPI PUSH1 0x0 DUP1 REVERT JUMPDEST DUP1 PUSH4 0x8DA5CB5B EQ PUSH2 0x7B6 JUMPI DUP1 PUSH4 0x8E39E18C EQ PUSH2 0x7D4 JUMPI DUP1 PUSH4 0x91100695 EQ PUSH2 0x7F4 JUMPI PUSH1 0x0 DUP1 REVERT JUMPDEST DUP1 PUSH4 0x78317F3F GT PUSH2 0x174 JUMPI DUP1 PUSH4 0x78317F3F EQ PUSH2 0x756 JUMPI DUP1 PUSH4 0x7AB56E52 EQ PUSH2 0x776 JUMPI DUP1 PUSH4 0x80483A6A EQ PUSH2 0x796 JUMPI PUSH1 0x0 DUP1 REVERT JUMPDEST DUP1 PUSH4 0x70A08231 EQ PUSH2 0x6C4 JUMPI DUP1 PUSH4 0x73BAA651 EQ PUSH2 0x6E4 JUMPI DUP1 PUSH4 0x74C29CE3 EQ PUSH2 0x6F7 JUMPI PUSH1 0x0 DUP1 REVERT JUMPDEST DUP1 PUSH4 0x3E0BB783 GT PUSH2 0x25E JUMPI DUP1 PUSH4 0x543DC7FA GT PUSH2 0x207 JUMPI DUP1 PUSH4 0x648FBE40 GT PUSH2 0x1E1 JUMPI DUP1 PUSH4 0x648FBE40 EQ PUSH2 0x641 JUMPI DUP1 PUSH4 0x649CCC14 EQ PUSH2 0x661 JUMPI DUP1 PUSH4 0x69A13712 EQ PUSH2 0x6A4 JUMPI PUSH1 0x0 DUP1 REVERT JUMPDEST DUP1 PUSH4 0x543DC7FA EQ PUSH2 0x5A3 JUMPI DUP1 PUSH4 0x5A3B7E42 EQ PUSH2 0x5C3 JUMPI DUP1 PUSH4 0x6352211E EQ PUSH2 0x609 JUMPI PUSH1 0x0 DUP1 REVERT JUMPDEST DUP1 PUSH4 0x4C1720A4 GT PUSH2 0x238 JUMPI DUP1 PUSH4 0x4C1720A4 EQ PUSH2 0x526 JUMPI DUP1 PUSH4 0x4EDEA111 EQ PUSH2 0x546 JUMPI DUP1 PUSH4 0x510910BB EQ PUSH2 0x573 JUMPI PUSH1 0x0 DUP1 REVERT JUMPDEST DUP1 PUSH4 0x3E0BB783 EQ PUSH2 0x4B9 JUMPI DUP1 PUSH4 0x4774D93F EQ PUSH2 0x4D9 JUMPI DUP1 PUSH4 0x4BB2DDD4 EQ PUSH2 0x4F9 JUMPI PUSH1 0x0 DUP1 REVERT JUMPDEST DUP1 PUSH4 0x290E008C GT PUSH2 0x2C0 JUMPI DUP1 PUSH4 0x3ADD5FA1 GT PUSH2 0x29A JUMPI DUP1 PUSH4 0x3ADD5FA1 EQ PUSH2 0x459 JUMPI DUP1 PUSH4 0x3C65B3EB EQ PUSH2 0x479 JUMPI DUP1 PUSH4 0x3D8073F1 EQ PUSH2 0x499 JUMPI PUSH1 0x0 DUP1 REVERT JUMPDEST DUP1 PUSH4 0x290E008C EQ PUSH2 0x3F9 JUMPI DUP1 PUSH4 0x2A6D3F44 EQ PUSH2 0x419 JUMPI DUP1 PUSH4 0x3054D9CB EQ PUSH2 0x439 JUMPI PUSH1 0x0 DUP1 REVERT JUMPDEST DUP1 PUSH4 0x1D734C8F GT PUSH2 0x2F1 JUMPI DUP1 PUSH4 0x1D734C8F EQ PUSH2 0x393 JUMPI DUP1 PUSH4 0x1F38E654 EQ PUSH2 0x3B7 JUMPI DUP1 PUSH4 0x25498C75 EQ PUSH2 0x3D9 JUMPI PUSH1 0x0 DUP1 REVERT JUMPDEST DUP1 PUSH4 0x2FF368A EQ PUSH2 0x318 JUMPI DUP1 PUSH4 0x6FDDE03 EQ PUSH2 0x34E JUMPI DUP1 PUSH4 0xEAAF4C8 EQ PUSH2 0x363 JUMPI JUMPDEST PUSH1 0x0 DUP1 REVERT JUMPDEST CALLVALUE DUP1 ISZERO PUSH2 0x324 JUMPI PUSH1 0x0 DUP1 REVERT JUMPDEST POP PUSH2 0x338 PUSH2 0x333 CALLDATASIZE PUSH1 0x4 PUSH2 0x329B JUMP JUMPDEST PUSH2 0xA0A JUMP JUMPDEST PUSH1 0x40 MLOAD PUSH2 0x345 SWAP2 SWAP1 PUSH2 0x32FA JUMP JUMPDEST PUSH1 0x40 MLOAD DUP1 SWAP2 SUB SWAP1 RETURN JUMPDEST CALLVALUE DUP1 ISZERO PUSH2 0x35A JUMPI PUSH1 0x0 DUP1 REVERT JUMPDEST POP PUSH2 0x338 PUSH2 0xAC4 JUMP JUMPDEST CALLVALUE DUP1 ISZERO PUSH2 0x36F JUMPI PUSH1 0x0 DUP1 REVERT JUMPDEST POP PUSH2 0x383 PUSH2 0x37E CALLDATASIZE PUSH1 0x4 PUSH2 0x329B JUMP JUMPDEST PUSH2 0xB56 JUMP JUMPDEST PUSH1 0x40 MLOAD SWAP1 ISZERO ISZERO DUP2 MSTORE PUSH1 0x20 ADD PUSH2 0x345 JUMP JUMPDEST CALLVALUE DUP1 ISZERO PUSH2 0x39F JUMPI PUSH1 0x0 DUP1 REVERT JUMPDEST POP PUSH2 0x3A9 PUSH1 0x11 SLOAD DUP2 JUMP JUMPDEST PUSH1 0x40 MLOAD SWAP1 DUP2 MSTORE PUSH1 0x20 ADD PUSH2 0x345 JUMP JUMPDEST CALLVALUE DUP1 ISZERO PUSH2 0x3C3 JUMPI PUSH1 0x0 DUP1 REVERT JUMPDEST POP PUSH2 0x3D7 PUSH2 0x3D2 CALLDATASIZE PUSH1 0x4 PUSH2 0x3314 JUMP JUMPDEST PUSH2 0xD0D JUMP JUMPDEST STOP JUMPDEST CALLVALUE DUP1 ISZERO PUSH2 0x3E5 JUMPI PUSH1 0x0 DUP1 REVERT JUMPDEST POP PUSH2 0x3D7 PUSH2 0x3F4 CALLDATASIZE PUSH1 0x4 PUSH2 0x33FB JUMP JUMPDEST PUSH2 0xD67 JUMP JUMPDEST CALLVALUE DUP1 ISZERO PUSH2 0x405 JUMPI PUSH1 0x0 DUP1 REVERT JUMPDEST POP PUSH2 0x3D7 PUSH2 0x414 CALLDATASIZE PUSH1 0x4 PUSH2 0x3492 JUMP JUMPDEST PUSH2 0xE16 JUMP JUMPDEST CALLVALUE DUP1 ISZERO PUSH2 0x425 JUMPI PUSH1 0x0 DUP1 REVERT JUMPDEST POP PUSH2 0x383 PUSH2 0x434 CALLDATASIZE PUSH1 0x4 PUSH2 0x3492 JUMP JUMPDEST PUSH2 0xE97 JUMP JUMPDEST CALLVALUE DUP1 ISZERO PUSH2 0x445 JUMPI PUSH1 0x0 DUP1 REVERT JUMPDEST POP PUSH2 0x3D7 PUSH2 0x454 CALLDATASIZE PUSH1 0x4 PUSH2 0x34DE JUMP JUMPDEST PUSH2 0xF6B JUMP JUMPDEST CALLVALUE DUP1 ISZERO PUSH2 0x465 JUMPI PUSH1 0x0 DUP1 REVERT JUMPDEST POP PUSH2 0x3D7 PUSH2 0x474 CALLDATASIZE PUSH1 0x4 PUSH2 0x352E JUMP JUMPDEST PUSH2 0x1033 JUMP JUMPDEST CALLVALUE DUP1 ISZERO PUSH2 0x485 JUMPI PUSH1 0x0 DUP1 REVERT JUMPDEST POP PUSH2 0x3A9 PUSH2 0x494 CALLDATASIZE PUSH1 0x4 PUSH2 0x329B JUMP JUMPDEST PUSH2 0x108D JUMP JUMPDEST CALLVALUE DUP1 ISZERO PUSH2 0x4A5 JUMPI PUSH1 0x0 DUP1 REVERT JUMPDEST POP PUSH2 0x3D7 PUSH2 0x4B4 CALLDATASIZE PUSH1 0x4 PUSH2 0x352E JUMP JUMPDEST PUSH2 0x117F JUMP JUMPDEST CALLVALUE DUP1 ISZERO PUSH2 0x4C5 JUMPI PUSH1 0x0 DUP1 REVERT JUMPDEST POP PUSH2 0x338 PUSH2 0x4D4 CALLDATASIZE PUSH1 0x4 PUSH2 0x3314 JUMP JUMPDEST PUSH2 0x13E3 JUMP JUMPDEST CALLVALUE DUP1 ISZERO PUSH2 0x4E5 JUMPI PUSH1 0x0 DUP1 REVERT JUMPDEST POP PUSH2 0x3D7 PUSH2 0x4F4 CALLDATASIZE PUSH1 0x4 PUSH2 0x34DE JUMP JUMPDEST PUSH2 0x149C JUMP JUMPDEST CALLVALUE DUP1 ISZERO PUSH2 0x505 JUMPI PUSH1 0x0 DUP1 REVERT JUMPDEST POP PUSH2 0x519 PUSH2 0x514 CALLDATASIZE PUSH1 0x4 PUSH2 0x329B JUMP JUMPDEST PUSH2 0x160B JUMP JUMPDEST PUSH1 0x40 MLOAD PUSH2 0x345 SWAP2 SWAP1 PUSH2 0x35D6 JUMP JUMPDEST CALLVALUE DUP1 ISZERO PUSH2 0x532 JUMPI PUSH1 0x0 DUP1 REVERT JUMPDEST POP PUSH2 0x338 PUSH2 0x541 CALLDATASIZE PUSH1 0x4 PUSH2 0x3314 JUMP JUMPDEST PUSH2 0x1749 JUMP JUMPDEST CALLVALUE DUP1 ISZERO PUSH2 0x552 JUMPI PUSH1 0x0 DUP1 REVERT JUMPDEST POP PUSH2 0x566 PUSH2 0x561 CALLDATASIZE PUSH1 0x4 PUSH2 0x329B JUMP JUMPDEST PUSH2 0x1847 JUMP JUMPDEST PUSH1 0x40 MLOAD PUSH2 0x345 SWAP2 SWAP1 PUSH2 0x35E9 JUMP JUMPDEST CALLVALUE DUP1 ISZERO PUSH2 0x57F JUMPI PUSH1 0x0 DUP1 REVERT JUMPDEST POP PUSH2 0x383 PUSH2 0x58E CALLDATASIZE PUSH1 0x4 PUSH2 0x3623 JUMP JUMPDEST PUSH1 0x1 PUSH1 0x20 MSTORE PUSH1 0x0 SWAP1 DUP2 MSTORE PUSH1 0x40 SWAP1 KECCAK256 SLOAD PUSH1 0xFF AND DUP2 JUMP JUMPDEST CALLVALUE DUP1 ISZERO PUSH2 0x5AF JUMPI PUSH1 0x0 DUP1 REVERT JUMPDEST POP PUSH2 0x3A9 PUSH2 0x5BE CALLDATASIZE PUSH1 0x4 PUSH2 0x329B JUMP JUMPDEST PUSH2 0x193C JUMP JUMPDEST CALLVALUE DUP1 ISZERO PUSH2 0x5CF JUMPI PUSH1 0x0 DUP1 REVERT JUMPDEST POP PUSH1 0x40 DUP1 MLOAD DUP1 DUP3 ADD SWAP1 SWAP2 MSTORE PUSH1 0xB DUP2 MSTORE PUSH32 0x43616C6C6973746F4E4654000000000000000000000000000000000000000000 PUSH1 0x20 DUP3 ADD MSTORE PUSH2 0x338 JUMP JUMPDEST CALLVALUE DUP1 ISZERO PUSH2 0x615 JUMPI PUSH1 0x0 DUP1 REVERT JUMPDEST POP PUSH2 0x629 PUSH2 0x624 CALLDATASIZE PUSH1 0x4 PUSH2 0x329B JUMP JUMPDEST PUSH2 0x199E JUMP JUMPDEST PUSH1 0x40 MLOAD PUSH1 0x1 PUSH1 0x1 PUSH1 0xA0 SHL SUB SWAP1 SWAP2 AND DUP2 MSTORE PUSH1 0x20 ADD PUSH2 0x345 JUMP JUMPDEST CALLVALUE DUP1 ISZERO PUSH2 0x64D JUMPI PUSH1 0x0 DUP1 REVERT JUMPDEST POP PUSH2 0x3D7 PUSH2 0x65C CALLDATASIZE PUSH1 0x4 PUSH2 0x363E JUMP JUMPDEST PUSH2 0x1A18 JUMP JUMPDEST CALLVALUE DUP1 ISZERO PUSH2 0x66D JUMPI PUSH1 0x0 DUP1 REVERT JUMPDEST POP PUSH2 0x681 PUSH2 0x67C CALLDATASIZE PUSH1 0x4 PUSH2 0x329B JUMP JUMPDEST PUSH2 0x1A88 JUMP JUMPDEST PUSH1 0x40 DUP1 MLOAD SWAP4 DUP5 MSTORE PUSH1 0x1 PUSH1 0x1 PUSH1 0xA0 SHL SUB SWAP1 SWAP3 AND PUSH1 0x20 DUP5 ADD MSTORE SWAP1 DUP3 ADD MSTORE PUSH1 0x60 ADD PUSH2 0x345 JUMP JUMPDEST CALLVALUE DUP1 ISZERO PUSH2 0x6B0 JUMPI PUSH1 0x0 DUP1 REVERT JUMPDEST POP PUSH2 0x3D7 PUSH2 0x6BF CALLDATASIZE PUSH1 0x4 PUSH2 0x366A JUMP JUMPDEST PUSH2 0x1B2F JUMP JUMPDEST CALLVALUE DUP1 ISZERO PUSH2 0x6D0 JUMPI PUSH1 0x0 DUP1 REVERT JUMPDEST POP PUSH2 0x3A9 PUSH2 0x6DF CALLDATASIZE PUSH1 0x4 PUSH2 0x3623 JUMP JUMPDEST PUSH2 0x1BDF JUMP JUMPDEST PUSH2 0x3D7 PUSH2 0x6F2 CALLDATASIZE PUSH1 0x4 PUSH2 0x3492 JUMP JUMPDEST PUSH2 0x1C79 JUMP JUMPDEST CALLVALUE DUP1 ISZERO PUSH2 0x703 JUMPI PUSH1 0x0 DUP1 REVERT JUMPDEST POP PUSH2 0x737 PUSH2 0x712 CALLDATASIZE PUSH1 0x4 PUSH2 0x369B JUMP JUMPDEST PUSH1 0x4 PUSH1 0x20 MSTORE PUSH1 0x0 SWAP1 DUP2 MSTORE PUSH1 0x40 SWAP1 KECCAK256 DUP1 SLOAD PUSH1 0x1 SWAP1 SWAP2 ADD SLOAD PUSH1 0x1 PUSH1 0x1 PUSH1 0xA0 SHL SUB SWAP1 SWAP2 AND SWAP1 DUP3 JUMP JUMPDEST PUSH1 0x40 DUP1 MLOAD PUSH1 0x1 PUSH1 0x1 PUSH1 0xA0 SHL SUB SWAP1 SWAP4 AND DUP4 MSTORE PUSH1 0x20 DUP4 ADD SWAP2 SWAP1 SWAP2 MSTORE ADD PUSH2 0x345 JUMP JUMPDEST CALLVALUE DUP1 ISZERO PUSH2 0x762 JUMPI PUSH1 0x0 DUP1 REVERT JUMPDEST POP PUSH2 0x3D7 PUSH2 0x771 CALLDATASIZE PUSH1 0x4 PUSH2 0x363E JUMP JUMPDEST PUSH2 0x1FE3 JUMP JUMPDEST CALLVALUE DUP1 ISZERO PUSH2 0x782 JUMPI PUSH1 0x0 DUP1 REVERT JUMPDEST POP PUSH2 0x338 PUSH2 0x791 CALLDATASIZE PUSH1 0x4 PUSH2 0x3314 JUMP JUMPDEST PUSH2 0x2053 JUMP JUMPDEST CALLVALUE DUP1 ISZERO PUSH2 0x7A2 JUMPI PUSH1 0x0 DUP1 REVERT JUMPDEST POP PUSH2 0x3D7 PUSH2 0x7B1 CALLDATASIZE PUSH1 0x4 PUSH2 0x329B JUMP JUMPDEST PUSH2 0x2112 JUMP JUMPDEST CALLVALUE DUP1 ISZERO PUSH2 0x7C2 JUMPI PUSH1 0x0 DUP1 REVERT JUMPDEST POP PUSH1 0x0 SLOAD PUSH1 0x1 PUSH1 0x1 PUSH1 0xA0 SHL SUB AND PUSH2 0x629 JUMP JUMPDEST CALLVALUE DUP1 ISZERO PUSH2 0x7E0 JUMPI PUSH1 0x0 DUP1 REVERT JUMPDEST POP PUSH2 0x3D7 PUSH2 0x7EF CALLDATASIZE PUSH1 0x4 PUSH2 0x36B6 JUMP JUMPDEST PUSH2 0x21D2 JUMP JUMPDEST CALLVALUE DUP1 ISZERO PUSH2 0x800 JUMPI PUSH1 0x0 DUP1 REVERT JUMPDEST POP PUSH2 0x3A9 PUSH1 0x5 SLOAD DUP2 JUMP JUMPDEST CALLVALUE DUP1 ISZERO PUSH2 0x816 JUMPI PUSH1 0x0 DUP1 REVERT JUMPDEST POP PUSH2 0x338 PUSH2 0x2255 JUMP JUMPDEST CALLVALUE DUP1 ISZERO PUSH2 0x82B JUMPI PUSH1 0x0 DUP1 REVERT JUMPDEST POP PUSH2 0x338 PUSH2 0x83A CALLDATASIZE PUSH1 0x4 PUSH2 0x3314 JUMP JUMPDEST PUSH2 0x2264 JUMP JUMPDEST CALLVALUE DUP1 ISZERO PUSH2 0x84B JUMPI PUSH1 0x0 DUP1 REVERT JUMPDEST POP PUSH2 0x3D7 PUSH2 0x85A CALLDATASIZE PUSH1 0x4 PUSH2 0x36F2 JUMP JUMPDEST PUSH2 0x22E3 JUMP JUMPDEST CALLVALUE DUP1 ISZERO PUSH2 0x86B JUMPI PUSH1 0x0 DUP1 REVERT JUMPDEST POP PUSH2 0x3A9 PUSH2 0x87A CALLDATASIZE PUSH1 0x4 PUSH2 0x329B JUMP JUMPDEST PUSH2 0x23FC JUMP JUMPDEST CALLVALUE DUP1 ISZERO PUSH2 0x88B JUMPI PUSH1 0x0 DUP1 REVERT JUMPDEST POP PUSH2 0x3D7 PUSH2 0x89A CALLDATASIZE PUSH1 0x4 PUSH2 0x352E JUMP JUMPDEST PUSH2 0x2484 JUMP JUMPDEST CALLVALUE DUP1 ISZERO PUSH2 0x8AB JUMPI PUSH1 0x0 DUP1 REVERT JUMPDEST POP PUSH2 0x383 PUSH2 0x8BA CALLDATASIZE PUSH1 0x4 PUSH2 0x375F JUMP JUMPDEST PUSH2 0x24D8 JUMP JUMPDEST CALLVALUE DUP1 ISZERO PUSH2 0x8CB JUMPI PUSH1 0x0 DUP1 REVERT JUMPDEST POP PUSH2 0x3D7 PUSH2 0x8DA CALLDATASIZE PUSH1 0x4 PUSH2 0x3314 JUMP JUMPDEST PUSH2 0x2527 JUMP JUMPDEST CALLVALUE DUP1 ISZERO PUSH2 0x8EB JUMPI PUSH1 0x0 DUP1 REVERT JUMPDEST POP PUSH2 0x3A9 PUSH2 0x8FA CALLDATASIZE PUSH1 0x4 PUSH2 0x329B JUMP JUMPDEST PUSH1 0x10 PUSH1 0x20 MSTORE PUSH1 0x0 SWAP1 DUP2 MSTORE PUSH1 0x40 SWAP1 KECCAK256 SLOAD DUP2 JUMP JUMPDEST CALLVALUE DUP1 ISZERO PUSH2 0x918 JUMPI PUSH1 0x0 DUP1 REVERT JUMPDEST POP PUSH2 0x338 PUSH2 0x927 CALLDATASIZE PUSH1 0x4 PUSH2 0x329B JUMP JUMPDEST PUSH2 0x25C5 JUMP JUMPDEST CALLVALUE DUP1 ISZERO PUSH2 0x938 JUMPI PUSH1 0x0 DUP1 REVERT JUMPDEST POP PUSH2 0x383 PUSH2 0x947 CALLDATASIZE PUSH1 0x4 PUSH2 0x37C0 JUMP JUMPDEST PUSH2 0x26DE JUMP JUMPDEST CALLVALUE DUP1 ISZERO PUSH2 0x958 JUMPI PUSH1 0x0 DUP1 REVERT JUMPDEST POP PUSH2 0x3D7 PUSH2 0x967 CALLDATASIZE PUSH1 0x4 PUSH2 0x37EA JUMP JUMPDEST PUSH2 0x286F JUMP JUMPDEST CALLVALUE DUP1 ISZERO PUSH2 0x978 JUMPI PUSH1 0x0 DUP1 REVERT JUMPDEST POP PUSH2 0x99F PUSH2 0x987 CALLDATASIZE PUSH1 0x4 PUSH2 0x329B JUMP JUMPDEST PUSH1 0xF PUSH1 0x20 MSTORE PUSH1 0x0 SWAP1 DUP2 MSTORE PUSH1 0x40 SWAP1 KECCAK256 SLOAD PUSH4 0xFFFFFFFF AND DUP2 JUMP JUMPDEST PUSH1 0x40 MLOAD PUSH4 0xFFFFFFFF SWAP1 SWAP2 AND DUP2 MSTORE PUSH1 0x20 ADD PUSH2 0x345 JUMP JUMPDEST CALLVALUE DUP1 ISZERO PUSH2 0x9C0 JUMPI PUSH1 0x0 DUP1 REVERT JUMPDEST POP PUSH2 0x3A9 PUSH1 0x9 SLOAD DUP2 JUMP JUMPDEST CALLVALUE DUP1 ISZERO PUSH2 0x9D6 JUMPI PUSH1 0x0 DUP1 REVERT JUMPDEST POP PUSH2 0x519 PUSH2 0x9E5 CALLDATASIZE PUSH1 0x4 PUSH2 0x329B JUMP JUMPDEST PUSH2 0x291A JUMP JUMPDEST CALLVALUE DUP1 ISZERO PUSH2 0x9F6 JUMPI PUSH1 0x0 DUP1 REVERT JUMPDEST POP PUSH2 0x3D7 PUSH2 0xA05 CALLDATASIZE PUSH1 0x4 PUSH2 0x3623 JUMP JUMPDEST PUSH2 0x2A31 JUMP JUMPDEST PUSH1 0x0 DUP2 DUP2 MSTORE PUSH1 0x3 PUSH1 0x20 MSTORE PUSH1 0x40 DUP2 KECCAK256 DUP1 SLOAD PUSH1 0x60 SWAP3 SWAP1 PUSH2 0xA2A JUMPI PUSH2 0xA2A PUSH2 0x3826 JUMP JUMPDEST SWAP1 PUSH1 0x0 MSTORE PUSH1 0x20 PUSH1 0x0 KECCAK256 ADD DUP1 SLOAD PUSH2 0xA3F SWAP1 PUSH2 0x383C JUMP JUMPDEST DUP1 PUSH1 0x1F ADD PUSH1 0x20 DUP1 SWAP2 DIV MUL PUSH1 0x20 ADD PUSH1 0x40 MLOAD SWAP1 DUP2 ADD PUSH1 0x40 MSTORE DUP1 SWAP3 SWAP2 SWAP1 DUP2 DUP2 MSTORE PUSH1 0x20 ADD DUP3 DUP1 SLOAD PUSH2 0xA6B SWAP1 PUSH2 0x383C JUMP JUMPDEST DUP1 ISZERO PUSH2 0xAB8 JUMPI DUP1 PUSH1 0x1F LT PUSH2 0xA8D JUMPI PUSH2 0x100 DUP1 DUP4 SLOAD DIV MUL DUP4 MSTORE SWAP2 PUSH1 0x20 ADD SWAP2 PUSH2 0xAB8 JUMP JUMPDEST DUP3 ADD SWAP2 SWAP1 PUSH1 0x0 MSTORE PUSH1 0x20 PUSH1 0x0 KECCAK256 SWAP1 JUMPDEST DUP2 SLOAD DUP2 MSTORE SWAP1 PUSH1 0x1 ADD SWAP1 PUSH1 0x20 ADD DUP1 DUP4 GT PUSH2 0xA9B JUMPI DUP3 SWAP1 SUB PUSH1 0x1F AND DUP3 ADD SWAP2 JUMPDEST POP POP POP POP POP SWAP1 POP SWAP2 SWAP1 POP JUMP JUMPDEST PUSH1 0x60 PUSH1 0xA DUP1 SLOAD PUSH2 0xAD3 SWAP1 PUSH2 0x383C JUMP JUMPDEST DUP1 PUSH1 0x1F ADD PUSH1 0x20 DUP1 SWAP2 DIV MUL PUSH1 0x20 ADD PUSH1 0x40 MLOAD SWAP1 DUP2 ADD PUSH1 0x40 MSTORE DUP1 SWAP3 SWAP2 SWAP1 DUP2 DUP2 MSTORE PUSH1 0x20 ADD DUP3 DUP1 SLOAD PUSH2 0xAFF SWAP1 PUSH2 0x383C JUMP JUMPDEST DUP1 ISZERO PUSH2 0xB4C JUMPI DUP1 PUSH1 0x1F LT PUSH2 0xB21 JUMPI PUSH2 0x100 DUP1 DUP4 SLOAD DIV MUL DUP4 MSTORE SWAP2 PUSH1 0x20 ADD SWAP2 PUSH2 0xB4C JUMP JUMPDEST DUP3 ADD SWAP2 SWAP1 PUSH1 0x0 MSTORE PUSH1 0x20 PUSH1 0x0 KECCAK256 SWAP1 JUMPDEST DUP2 SLOAD DUP2 MSTORE SWAP1 PUSH1 0x1 ADD SWAP1 PUSH1 0x20 ADD DUP1 DUP4 GT PUSH2 0xB2F JUMPI DUP3 SWAP1 SUB PUSH1 0x1F AND DUP3 ADD SWAP2 JUMPDEST POP POP POP POP POP SWAP1 POP SWAP1 JUMP JUMPDEST PUSH1 0x0 PUSH1 0x2 DUP1 SLOAD SUB PUSH2 0xBAE JUMPI PUSH1 0x40 MLOAD PUSH3 0x461BCD PUSH1 0xE5 SHL DUP2 MSTORE PUSH1 0x20 PUSH1 0x4 DUP3 ADD MSTORE PUSH1 0x1F PUSH1 0x24 DUP3 ADD MSTORE PUSH32 0x5265656E7472616E637947756172643A207265656E7472616E742063616C6C00 PUSH1 0x44 DUP3 ADD MSTORE PUSH1 0x64 ADD JUMPDEST PUSH1 0x40 MLOAD DUP1 SWAP2 SUB SWAP1 REVERT JUMPDEST PUSH1 0x2 DUP1 SSTORE PUSH1 0x0 DUP1 DUP1 PUSH2 0xBBF DUP6 PUSH2 0x1A88 JUMP JUMPDEST SWAP2 SWAP5 POP SWAP3 POP SWAP1 POP CALLER PUSH1 0x1 PUSH1 0x1 PUSH1 0xA0 SHL SUB DUP4 AND EQ PUSH2 0xC44 JUMPI PUSH1 0x40 MLOAD PUSH3 0x461BCD PUSH1 0xE5 SHL DUP2 MSTORE PUSH1 0x20 PUSH1 0x4 DUP3 ADD MSTORE PUSH1 0x22 PUSH1 0x24 DUP3 ADD MSTORE PUSH32 0x43616E206E6F7420776974686472617720736F6D656F6E6520656C7365732062 PUSH1 0x44 DUP3 ADD MSTORE PUSH32 0x6964000000000000000000000000000000000000000000000000000000000000 PUSH1 0x64 DUP3 ADD MSTORE PUSH1 0x84 ADD PUSH2 0xBA5 JUMP JUMPDEST PUSH1 0x5 SLOAD PUSH2 0xC51 SWAP1 DUP3 PUSH2 0x3886 JUMP JUMPDEST TIMESTAMP GT PUSH2 0xC9F JUMPI PUSH1 0x40 MLOAD PUSH3 0x461BCD PUSH1 0xE5 SHL DUP2 MSTORE PUSH1 0x20 PUSH1 0x4 DUP3 ADD MSTORE PUSH1 0x12 PUSH1 0x24 DUP3 ADD MSTORE PUSH32 0x4269642069732074696D652D6C6F636B65640000000000000000000000000000 PUSH1 0x44 DUP3 ADD MSTORE PUSH1 0x64 ADD PUSH2 0xBA5 JUMP JUMPDEST PUSH1 0x40 MLOAD PUSH1 0x1 PUSH1 0x1 PUSH1 0xA0 SHL SUB DUP4 AND SWAP1 DUP5 ISZERO PUSH2 0x8FC MUL SWAP1 DUP6 SWAP1 PUSH1 0x0 DUP2 DUP2 DUP2 DUP6 DUP9 DUP9 CALL SWAP4 POP POP POP POP ISZERO DUP1 ISZERO PUSH2 0xCD5 JUMPI RETURNDATASIZE PUSH1 0x0 DUP1 RETURNDATACOPY RETURNDATASIZE PUSH1 0x0 REVERT JUMPDEST POP POP POP PUSH1 0x0 SWAP3 DUP4 MSTORE POP POP PUSH1 0x7 PUSH1 0x20 MSTORE PUSH1 0x40 DUP2 KECCAK256 DUP1 SLOAD PUSH1 0x1 PUSH1 0x1 PUSH1 0xA0 SHL SUB NOT AND DUP2 SSTORE PUSH1 0x1 DUP1 DUP3 ADD DUP4 SWAP1 SSTORE PUSH1 0x2 SWAP2 DUP3 ADD SWAP3 SWAP1 SWAP3 SSTORE DUP2 SWAP1 SSTORE SWAP1 JUMP JUMPDEST PUSH1 0x0 SLOAD PUSH1 0x1 PUSH1 0x1 PUSH1 0xA0 SHL SUB AND CALLER EQ PUSH2 0xD55 JUMPI PUSH1 0x40 MLOAD PUSH3 0x461BCD PUSH1 0xE5 SHL DUP2 MSTORE PUSH1 0x20 PUSH1 0x4 DUP3 ADD DUP2 SWAP1 MSTORE PUSH1 0x24 DUP3 ADD MSTORE PUSH1 0x0 DUP1 MLOAD PUSH1 0x20 PUSH2 0x3BB0 DUP4 CODECOPY DUP2 MLOAD SWAP2 MSTORE PUSH1 0x44 DUP3 ADD MSTORE PUSH1 0x64 ADD PUSH2 0xBA5 JUMP JUMPDEST PUSH1 0x0 SWAP2 DUP3 MSTORE PUSH1 0x10 PUSH1 0x20 MSTORE PUSH1 0x40 SWAP1 SWAP2 KECCAK256 SSTORE JUMP JUMPDEST PUSH1 0x0 SLOAD PUSH1 0x1 PUSH1 0x1 PUSH1 0xA0 SHL SUB AND CALLER EQ PUSH2 0xDAF JUMPI PUSH1 0x40 MLOAD PUSH3 0x461BCD PUSH1 0xE5 SHL DUP2 MSTORE PUSH1 0x20 PUSH1 0x4 DUP3 ADD DUP2 SWAP1 MSTORE PUSH1 0x24 DUP3 ADD MSTORE PUSH1 0x0 DUP1 MLOAD PUSH1 0x20 PUSH2 0x3BB0 DUP4 CODECOPY DUP2 MLOAD SWAP2 MSTORE PUSH1 0x44 DUP3 ADD MSTORE PUSH1 0x64 ADD PUSH2 0xBA5 JUMP JUMPDEST PUSH1 0x11 SLOAD PUSH1 0x0 SWAP1 DUP2 MSTORE PUSH1 0xE PUSH1 0x20 SWAP1 DUP2 MSTORE PUSH1 0x40 DUP3 KECCAK256 DUP1 SLOAD PUSH1 0x1 DUP2 ADD DUP3 SSTORE SWAP1 DUP4 MSTORE SWAP2 KECCAK256 ADD PUSH2 0xDDA DUP3 DUP3 PUSH2 0x38E7 JUMP JUMPDEST POP PUSH1 0x11 DUP1 SLOAD PUSH1 0x0 SWAP1 DUP2 MSTORE PUSH1 0xF PUSH1 0x20 MSTORE PUSH1 0x40 DUP2 KECCAK256 DUP1 SLOAD PUSH4 0xFFFFFFFF NOT AND PUSH4 0xFFFFFFFF DUP7 AND OR SWAP1 SSTORE DUP2 SLOAD SWAP2 SWAP1 PUSH2 0xE0D DUP4 PUSH2 0x39A7 JUMP JUMPDEST SWAP2 SWAP1 POP SSTORE POP POP POP JUMP JUMPDEST CALLER PUSH2 0xE29 PUSH1 0x0 SLOAD PUSH1 0x1 PUSH1 0x1 PUSH1 0xA0 SHL SUB AND SWAP1 JUMP JUMPDEST PUSH1 0x1 PUSH1 0x1 PUSH1 0xA0 SHL SUB AND EQ DUP1 PUSH2 0xE4D JUMPI POP CALLER PUSH1 0x0 SWAP1 DUP2 MSTORE PUSH1 0x1 PUSH1 0x20 MSTORE PUSH1 0x40 SWAP1 KECCAK256 SLOAD PUSH1 0xFF AND JUMPDEST PUSH2 0xE87 JUMPI PUSH1 0x40 MLOAD PUSH3 0x461BCD PUSH1 0xE5 SHL DUP2 MSTORE PUSH1 0x20 PUSH1 0x4 DUP3 ADD DUP2 SWAP1 MSTORE PUSH1 0x24 DUP3 ADD MSTORE PUSH1 0x0 DUP1 MLOAD PUSH1 0x20 PUSH2 0x3BB0 DUP4 CODECOPY DUP2 MLOAD SWAP2 MSTORE PUSH1 0x44 DUP3 ADD MSTORE PUSH1 0x64 ADD PUSH2 0xBA5 JUMP JUMPDEST PUSH2 0xE92 DUP4 DUP4 DUP4 PUSH2 0x2B01 JUMP JUMPDEST POP POP POP JUMP JUMPDEST PUSH1 0x0 PUSH2 0xEA2 DUP5 PUSH2 0x199E JUMP JUMPDEST PUSH1 0x1 PUSH1 0x1 PUSH1 0xA0 SHL SUB AND CALLER PUSH1 0x1 PUSH1 0x1 PUSH1 0xA0 SHL SUB AND EQ PUSH2 0xF28 JUMPI PUSH1 0x40 MLOAD PUSH3 0x461BCD PUSH1 0xE5 SHL DUP2 MSTORE PUSH1 0x20 PUSH1 0x4 DUP3 ADD MSTORE PUSH1 0x26 PUSH1 0x24 DUP3 ADD MSTORE PUSH32 0x4E46543A206F6E6C79206F776E65722063616E206368616E6765204E46542063 PUSH1 0x44 DUP3 ADD MSTORE PUSH32 0x6F6E74656E740000000000000000000000000000000000000000000000000000 PUSH1 0x64 DUP3 ADD MSTORE PUSH1 0x84 ADD PUSH2 0xBA5 JUMP JUMPDEST PUSH1 0x0 DUP5 DUP2 MSTORE PUSH1 0x3 PUSH1 0x20 MSTORE PUSH1 0x40 DUP2 KECCAK256 DUP1 SLOAD DUP6 SWAP3 DUP6 SWAP3 SWAP2 PUSH2 0xF49 JUMPI PUSH2 0xF49 PUSH2 0x3826 JUMP JUMPDEST SWAP1 PUSH1 0x0 MSTORE PUSH1 0x20 PUSH1 0x0 KECCAK256 ADD SWAP2 DUP3 PUSH2 0xF60 SWAP3 SWAP2 SWAP1 PUSH2 0x39C0 JUMP JUMPDEST POP PUSH1 0x1 SWAP5 SWAP4 POP POP POP POP JUMP JUMPDEST PUSH1 0x0 SLOAD PUSH1 0x1 PUSH1 0x1 PUSH1 0xA0 SHL SUB AND CALLER EQ PUSH2 0xFB3 JUMPI PUSH1 0x40 MLOAD PUSH3 0x461BCD PUSH1 0xE5 SHL DUP2 MSTORE PUSH1 0x20 PUSH1 0x4 DUP3 ADD DUP2 SWAP1 MSTORE PUSH1 0x24 DUP3 ADD MSTORE PUSH1 0x0 DUP1 MLOAD PUSH1 0x20 PUSH2 0x3BB0 DUP4 CODECOPY DUP2 MLOAD SWAP2 MSTORE PUSH1 0x44 DUP3 ADD MSTORE PUSH1 0x64 ADD PUSH2 0xBA5 JUMP JUMPDEST DUP3 PUSH1 0x11 SLOAD DUP2 LT PUSH2 0xFF3 JUMPI PUSH1 0x40 MLOAD PUSH3 0x461BCD PUSH1 0xE5 SHL DUP2 MSTORE PUSH1 0x20 PUSH1 0x4 DUP3 ADD MSTORE PUSH1 0x1C PUSH1 0x24 DUP3 ADD MSTORE PUSH1 0x0 DUP1 MLOAD PUSH1 0x20 PUSH2 0x3B90 DUP4 CODECOPY DUP2 MLOAD SWAP2 MSTORE PUSH1 0x44 DUP3 ADD MSTORE PUSH1 0x64 ADD PUSH2 0xBA5 JUMP JUMPDEST PUSH1 0x0 DUP5 DUP2 MSTORE PUSH1 0xE PUSH1 0x20 MSTORE PUSH1 0x40 SWAP1 KECCAK256 DUP1 SLOAD DUP4 SWAP2 SWAP1 DUP6 SWAP1 DUP2 LT PUSH2 0x1016 JUMPI PUSH2 0x1016 PUSH2 0x3826 JUMP JUMPDEST SWAP1 PUSH1 0x0 MSTORE PUSH1 0x20 PUSH1 0x0 KECCAK256 ADD SWAP1 DUP2 PUSH2 0x102C SWAP2 SWAP1 PUSH2 0x38E7 JUMP JUMPDEST POP POP POP POP POP JUMP JUMPDEST PUSH1 0x0 SLOAD PUSH1 0x1 PUSH1 0x1 PUSH1 0xA0 SHL SUB AND CALLER EQ PUSH2 0x107B JUMPI PUSH1 0x40 MLOAD PUSH3 0x461BCD PUSH1 0xE5 SHL DUP2 MSTORE PUSH1 0x20 PUSH1 0x4 DUP3 ADD DUP2 SWAP1 MSTORE PUSH1 0x24 DUP3 ADD MSTORE PUSH1 0x0 DUP1 MLOAD PUSH1 0x20 PUSH2 0x3BB0 DUP4 CODECOPY DUP2 MLOAD SWAP2 MSTORE PUSH1 0x44 DUP3 ADD MSTORE PUSH1 0x64 ADD PUSH2 0xBA5 JUMP JUMPDEST PUSH2 0x1087 DUP5 DUP5 DUP5 DUP5 PUSH2 0x2B2A JUMP JUMPDEST POP POP POP POP JUMP JUMPDEST PUSH1 0x0 DUP2 PUSH1 0x11 SLOAD DUP2 LT PUSH2 0x10CF JUMPI PUSH1 0x40 MLOAD PUSH3 0x461BCD PUSH1 0xE5 SHL DUP2 MSTORE PUSH1 0x20 PUSH1 0x4 DUP3 ADD MSTORE PUSH1 0x1C PUSH1 0x24 DUP3 ADD MSTORE PUSH1 0x0 DUP1 MLOAD PUSH1 0x20 PUSH2 0x3B90 DUP4 CODECOPY DUP2 MLOAD SWAP2 MSTORE PUSH1 0x44 DUP3 ADD MSTORE PUSH1 0x64 ADD PUSH2 0xBA5 JUMP JUMPDEST CALLER PUSH1 0x0 SWAP1 DUP2 MSTORE PUSH1 0x1 PUSH1 0x20 MSTORE PUSH1 0x40 SWAP1 KECCAK256 SLOAD PUSH1 0xFF AND PUSH2 0x112E JUMPI PUSH1 0x40 MLOAD PUSH3 0x461BCD PUSH1 0xE5 SHL DUP2 MSTORE PUSH1 0x20 PUSH1 0x4 DUP3 ADD MSTORE PUSH1 0x14 PUSH1 0x24 DUP3 ADD MSTORE PUSH32 0x4D696E74657220726F6C65207265717569726564000000000000000000000000 PUSH1 0x44 DUP3 ADD MSTORE PUSH1 0x64 ADD PUSH2 0xBA5 JUMP JUMPDEST PUSH2 0x1136 PUSH2 0x2BA3 JUMP JUMPDEST PUSH1 0x0 DUP2 DUP2 MSTORE PUSH1 0x10 PUSH1 0x20 SWAP1 DUP2 MSTORE PUSH1 0x40 DUP1 DUP4 KECCAK256 DUP8 SWAP1 SSTORE SWAP6 DUP3 MSTORE PUSH1 0xF DUP2 MSTORE DUP6 DUP3 KECCAK256 SLOAD DUP4 DUP4 MSTORE PUSH1 0x8 SWAP1 SWAP2 MSTORE SWAP5 SWAP1 KECCAK256 DUP1 SLOAD PUSH4 0xFFFFFFFF NOT AND PUSH4 0xFFFFFFFF SWAP1 SWAP6 AND SWAP5 SWAP1 SWAP5 OR SWAP1 SWAP4 SSTORE POP SWAP1 SWAP2 SWAP1 POP JUMP JUMPDEST DUP4 DUP3 DUP3 DUP1 DUP1 PUSH1 0x1F ADD PUSH1 0x20 DUP1 SWAP2 DIV MUL PUSH1 0x20 ADD PUSH1 0x40 MLOAD SWAP1 DUP2 ADD PUSH1 0x40 MSTORE DUP1 SWAP4 SWAP3 SWAP2 SWAP1 DUP2 DUP2 MSTORE PUSH1 0x20 ADD DUP4 DUP4 DUP1 DUP3 DUP5 CALLDATACOPY PUSH1 0x0 SWAP3 ADD SWAP2 SWAP1 SWAP2 MSTORE POP POP PUSH1 0x2 SLOAD PUSH1 0x1 NOT ADD SWAP2 POP PUSH2 0x120B SWAP1 POP JUMPI PUSH1 0x40 MLOAD PUSH3 0x461BCD PUSH1 0xE5 SHL DUP2 MSTORE PUSH1 0x20 PUSH1 0x4 DUP3 ADD MSTORE PUSH1 0x1F PUSH1 0x24 DUP3 ADD MSTORE PUSH32 0x5265656E7472616E637947756172643A207265656E7472616E742063616C6C00 PUSH1 0x44 DUP3 ADD MSTORE PUSH1 0x64 ADD PUSH2 0xBA5 JUMP JUMPDEST PUSH1 0x2 DUP1 SSTORE CALLER PUSH2 0x1219 DUP8 PUSH2 0x199E JUMP JUMPDEST PUSH1 0x1 PUSH1 0x1 PUSH1 0xA0 SHL SUB AND EQ PUSH2 0x1295 JUMPI PUSH1 0x40 MLOAD PUSH3 0x461BCD PUSH1 0xE5 SHL DUP2 MSTORE PUSH1 0x20 PUSH1 0x4 DUP3 ADD MSTORE PUSH1 0x2C PUSH1 0x24 DUP3 ADD MSTORE PUSH32 0x53657474696E672061736B73206973206F6E6C7920616C6C6F77656420666F72 PUSH1 0x44 DUP3 ADD MSTORE PUSH32 0x206F776E6564204E465473210000000000000000000000000000000000000000 PUSH1 0x64 DUP3 ADD MSTORE PUSH1 0x84 ADD PUSH2 0xBA5 JUMP JUMPDEST PUSH1 0x0 DUP7 DUP2 MSTORE PUSH1 0x6 PUSH1 0x20 MSTORE PUSH1 0x40 DUP2 KECCAK256 DUP7 SWAP1 SSTORE PUSH1 0x1 PUSH1 0x2 SSTORE DUP1 PUSH2 0x12B5 DUP5 PUSH2 0x1A88 JUMP JUMPDEST POP SWAP2 POP SWAP2 POP PUSH1 0x0 PUSH2 0x12C5 DUP6 PUSH2 0x23FC JUMP JUMPDEST GT DUP1 ISZERO PUSH2 0x12DA JUMPI POP DUP2 PUSH2 0x12D7 DUP6 PUSH2 0x23FC JUMP JUMPDEST GT ISZERO JUMPDEST ISZERO PUSH2 0x13D9 JUMPI PUSH1 0x0 PUSH2 0x12EB DUP4 DUP7 PUSH2 0x2BD5 JUMP JUMPDEST PUSH2 0x12F5 SWAP1 DUP5 PUSH2 0x3A80 JUMP JUMPDEST SWAP1 POP PUSH2 0x1300 DUP6 PUSH2 0x199E JUMP JUMPDEST PUSH1 0x1 PUSH1 0x1 PUSH1 0xA0 SHL SUB AND DUP3 PUSH1 0x1 PUSH1 0x1 PUSH1 0xA0 SHL SUB AND DUP7 PUSH32 0xC9B9AFD9684B23C6B22A41016C08E8954AC118220C0A52F00B8774C46580E9A3 DUP5 PUSH1 0x40 MLOAD PUSH2 0x1345 SWAP2 DUP2 MSTORE PUSH1 0x20 ADD SWAP1 JUMP JUMPDEST PUSH1 0x40 MLOAD DUP1 SWAP2 SUB SWAP1 LOG4 PUSH2 0x1356 DUP6 PUSH2 0x199E JUMP JUMPDEST PUSH1 0x1 PUSH1 0x1 PUSH1 0xA0 SHL SUB AND PUSH2 0x8FC DUP3 SWAP1 DUP2 ISZERO MUL SWAP1 PUSH1 0x40 MLOAD PUSH1 0x0 PUSH1 0x40 MLOAD DUP1 DUP4 SUB DUP2 DUP6 DUP9 DUP9 CALL SWAP4 POP POP POP POP ISZERO DUP1 ISZERO PUSH2 0x138E JUMPI RETURNDATASIZE PUSH1 0x0 DUP1 RETURNDATACOPY RETURNDATASIZE PUSH1 0x0 REVERT JUMPDEST POP PUSH1 0x0 DUP6 DUP2 MSTORE PUSH1 0x7 PUSH1 0x20 SWAP1 DUP2 MSTORE PUSH1 0x40 DUP1 DUP4 KECCAK256 DUP1 SLOAD PUSH1 0x1 PUSH1 0x1 PUSH1 0xA0 SHL SUB NOT AND DUP2 SSTORE PUSH1 0x1 DUP2 ADD DUP5 SWAP1 SSTORE PUSH1 0x2 ADD DUP4 SWAP1 SSTORE PUSH1 0x6 SWAP1 SWAP2 MSTORE DUP2 KECCAK256 SSTORE PUSH2 0x13D7 PUSH2 0x13CF DUP7 PUSH2 0x199E JUMP JUMPDEST DUP4 DUP8 DUP8 PUSH2 0x2C68 JUMP JUMPDEST POP JUMPDEST POP POP POP POP POP POP POP POP JUMP JUMPDEST PUSH1 0xE PUSH1 0x20 MSTORE DUP2 PUSH1 0x0 MSTORE PUSH1 0x40 PUSH1 0x0 KECCAK256 DUP2 DUP2 SLOAD DUP2 LT PUSH2 0x13FF JUMPI PUSH1 0x0 DUP1 REVERT JUMPDEST SWAP1 PUSH1 0x0 MSTORE PUSH1 0x20 PUSH1 0x0 KECCAK256 ADD PUSH1 0x0 SWAP2 POP SWAP2 POP POP DUP1 SLOAD PUSH2 0x141B SWAP1 PUSH2 0x383C JUMP JUMPDEST DUP1 PUSH1 0x1F ADD PUSH1 0x20 DUP1 SWAP2 DIV MUL PUSH1 0x20 ADD PUSH1 0x40 MLOAD SWAP1 DUP2 ADD PUSH1 0x40 MSTORE DUP1 SWAP3 SWAP2 SWAP1 DUP2 DUP2 MSTORE PUSH1 0x20 ADD DUP3 DUP1 SLOAD PUSH2 0x1447 SWAP1 PUSH2 0x383C JUMP JUMPDEST DUP1 ISZERO PUSH2 0x1494 JUMPI DUP1 PUSH1 0x1F LT PUSH2 0x1469 JUMPI PUSH2 0x100 DUP1 DUP4 SLOAD DIV MUL DUP4 MSTORE SWAP2 PUSH1 0x20 ADD SWAP2 PUSH2 0x1494 JUMP JUMPDEST DUP3 ADD SWAP2 SWAP1 PUSH1 0x0 MSTORE PUSH1 0x20 PUSH1 0x0 KECCAK256 SWAP1 JUMPDEST DUP2 SLOAD DUP2 MSTORE SWAP1 PUSH1 0x1 ADD SWAP1 PUSH1 0x20 ADD DUP1 DUP4 GT PUSH2 0x1477 JUMPI DUP3 SWAP1 SUB PUSH1 0x1F AND DUP3 ADD SWAP2 JUMPDEST POP POP POP POP POP DUP2 JUMP JUMPDEST PUSH1 0x0 SLOAD PUSH1 0x1 PUSH1 0x1 PUSH1 0xA0 SHL SUB AND CALLER EQ PUSH2 0x14E4 JUMPI PUSH1 0x40 MLOAD PUSH3 0x461BCD PUSH1 0xE5 SHL DUP2 MSTORE PUSH1 0x20 PUSH1 0x4 DUP3 ADD DUP2 SWAP1 MSTORE PUSH1 0x24 DUP3 ADD MSTORE PUSH1 0x0 DUP1 MLOAD PUSH1 0x20 PUSH2 0x3BB0 DUP4 CODECOPY DUP2 MLOAD SWAP2 MSTORE PUSH1 0x44 DUP3 ADD MSTORE PUSH1 0x64 ADD PUSH2 0xBA5 JUMP JUMPDEST DUP3 PUSH1 0x11 SLOAD DUP2 LT PUSH2 0x1524 JUMPI PUSH1 0x40 MLOAD PUSH3 0x461BCD PUSH1 0xE5 SHL DUP2 MSTORE PUSH1 0x20 PUSH1 0x4 DUP3 ADD MSTORE PUSH1 0x1C PUSH1 0x24 DUP3 ADD MSTORE PUSH1 0x0 DUP1 MLOAD PUSH1 0x20 PUSH2 0x3B90 DUP4 CODECOPY DUP2 MLOAD SWAP2 MSTORE PUSH1 0x44 DUP3 ADD MSTORE PUSH1 0x64 ADD PUSH2 0xBA5 JUMP JUMPDEST PUSH1 0x0 DUP5 DUP2 MSTORE PUSH1 0xE PUSH1 0x20 MSTORE PUSH1 0x40 SWAP1 KECCAK256 DUP1 SLOAD PUSH2 0x15EB SWAP2 DUP5 SWAP2 DUP7 SWAP1 DUP2 LT PUSH2 0x154A JUMPI PUSH2 0x154A PUSH2 0x3826 JUMP JUMPDEST SWAP1 PUSH1 0x0 MSTORE PUSH1 0x20 PUSH1 0x0 KECCAK256 ADD DUP1 SLOAD PUSH2 0x155F SWAP1 PUSH2 0x383C JUMP JUMPDEST DUP1 PUSH1 0x1F ADD PUSH1 0x20 DUP1 SWAP2 DIV MUL PUSH1 0x20 ADD PUSH1 0x40 MLOAD SWAP1 DUP2 ADD PUSH1 0x40 MSTORE DUP1 SWAP3 SWAP2 SWAP1 DUP2 DUP2 MSTORE PUSH1 0x20 ADD DUP3 DUP1 SLOAD PUSH2 0x158B SWAP1 PUSH2 0x383C JUMP JUMPDEST DUP1 ISZERO PUSH2 0x15D8 JUMPI DUP1 PUSH1 0x1F LT PUSH2 0x15AD JUMPI PUSH2 0x100 DUP1 DUP4 SLOAD DIV MUL DUP4 MSTORE SWAP2 PUSH1 0x20 ADD SWAP2 PUSH2 0x15D8 JUMP JUMPDEST DUP3 ADD SWAP2 SWAP1 PUSH1 0x0 MSTORE PUSH1 0x20 PUSH1 0x0 KECCAK256 SWAP1 JUMPDEST DUP2 SLOAD DUP2 MSTORE SWAP1 PUSH1 0x1 ADD SWAP1 PUSH1 0x20 ADD DUP1 DUP4 GT PUSH2 0x15BB JUMPI DUP3 SWAP1 SUB PUSH1 0x1F AND DUP3 ADD SWAP2 JUMPDEST POP POP POP POP POP PUSH2 0x2EB2 SWAP1 SWAP2 SWAP1 PUSH4 0xFFFFFFFF AND JUMP JUMPDEST PUSH1 0x0 DUP6 DUP2 MSTORE PUSH1 0xE PUSH1 0x20 MSTORE PUSH1 0x40 SWAP1 KECCAK256 DUP1 SLOAD DUP6 SWAP1 DUP2 LT PUSH2 0x1016 JUMPI PUSH2 0x1016 PUSH2 0x3826 JUMP JUMPDEST PUSH1 0x0 DUP2 DUP2 MSTORE PUSH1 0x10 PUSH1 0x20 MSTORE PUSH1 0x40 SWAP1 KECCAK256 SLOAD PUSH1 0x11 SLOAD PUSH1 0x60 SWAP2 SWAP1 DUP2 LT PUSH2 0x165D JUMPI PUSH1 0x40 MLOAD PUSH3 0x461BCD PUSH1 0xE5 SHL DUP2 MSTORE PUSH1 0x20 PUSH1 0x4 DUP3 ADD MSTORE PUSH1 0x1C PUSH1 0x24 DUP3 ADD MSTORE PUSH1 0x0 DUP1 MLOAD PUSH1 0x20 PUSH2 0x3B90 DUP4 CODECOPY DUP2 MLOAD SWAP2 MSTORE PUSH1 0x44 DUP3 ADD MSTORE PUSH1 0x64 ADD PUSH2 0xBA5 JUMP JUMPDEST PUSH1 0x0 DUP4 DUP2 MSTORE PUSH1 0x10 PUSH1 0x20 SWAP1 DUP2 MSTORE PUSH1 0x40 DUP1 DUP4 KECCAK256 SLOAD DUP4 MSTORE PUSH1 0xE DUP3 MSTORE DUP1 DUP4 KECCAK256 DUP1 SLOAD DUP3 MLOAD DUP2 DUP6 MUL DUP2 ADD DUP6 ADD SWAP1 SWAP4 MSTORE DUP1 DUP4 MSTORE SWAP2 SWAP4 SWAP1 SWAP3 DUP5 ADD JUMPDEST DUP3 DUP3 LT ISZERO PUSH2 0x173C JUMPI DUP4 DUP3 SWAP1 PUSH1 0x0 MSTORE PUSH1 0x20 PUSH1 0x0 KECCAK256 ADD DUP1 SLOAD PUSH2 0x16AF SWAP1 PUSH2 0x383C JUMP JUMPDEST DUP1 PUSH1 0x1F ADD PUSH1 0x20 DUP1 SWAP2 DIV MUL PUSH1 0x20 ADD PUSH1 0x40 MLOAD SWAP1 DUP2 ADD PUSH1 0x40 MSTORE DUP1 SWAP3 SWAP2 SWAP1 DUP2 DUP2 MSTORE PUSH1 0x20 ADD DUP3 DUP1 SLOAD PUSH2 0x16DB SWAP1 PUSH2 0x383C JUMP JUMPDEST DUP1 ISZERO PUSH2 0x1728 JUMPI DUP1 PUSH1 0x1F LT PUSH2 0x16FD JUMPI PUSH2 0x100 DUP1 DUP4 SLOAD DIV MUL DUP4 MSTORE SWAP2 PUSH1 0x20 ADD SWAP2 PUSH2 0x1728 JUMP JUMPDEST DUP3 ADD SWAP2 SWAP1 PUSH1 0x0 MSTORE PUSH1 0x20 PUSH1 0x0 KECCAK256 SWAP1 JUMPDEST DUP2 SLOAD DUP2 MSTORE SWAP1 PUSH1 0x1 ADD SWAP1 PUSH1 0x20 ADD DUP1 DUP4 GT PUSH2 0x170B JUMPI DUP3 SWAP1 SUB PUSH1 0x1F AND DUP3 ADD SWAP2 JUMPDEST POP POP POP POP POP DUP2 MSTORE PUSH1 0x20 ADD SWAP1 PUSH1 0x1 ADD SWAP1 PUSH2 0x1690 JUMP JUMPDEST POP POP POP POP SWAP2 POP JUMPDEST POP SWAP2 SWAP1 POP JUMP JUMPDEST PUSH1 0x60 DUP3 PUSH1 0x11 SLOAD DUP2 LT PUSH2 0x178B JUMPI PUSH1 0x40 MLOAD PUSH3 0x461BCD PUSH1 0xE5 SHL DUP2 MSTORE PUSH1 0x20 PUSH1 0x4 DUP3 ADD MSTORE PUSH1 0x1C PUSH1 0x24 DUP3 ADD MSTORE PUSH1 0x0 DUP1 MLOAD PUSH1 0x20 PUSH2 0x3B90 DUP4 CODECOPY DUP2 MLOAD SWAP2 MSTORE PUSH1 0x44 DUP3 ADD MSTORE PUSH1 0x64 ADD PUSH2 0xBA5 JUMP JUMPDEST PUSH1 0x0 DUP5 DUP2 MSTORE PUSH1 0xE PUSH1 0x20 MSTORE PUSH1 0x40 SWAP1 KECCAK256 DUP1 SLOAD DUP5 SWAP1 DUP2 LT PUSH2 0x17AB JUMPI PUSH2 0x17AB PUSH2 0x3826 JUMP JUMPDEST SWAP1 PUSH1 0x0 MSTORE PUSH1 0x20 PUSH1 0x0 KECCAK256 ADD DUP1 SLOAD PUSH2 0x17C0 SWAP1 PUSH2 0x383C JUMP JUMPDEST DUP1 PUSH1 0x1F ADD PUSH1 0x20 DUP1 SWAP2 DIV MUL PUSH1 0x20 ADD PUSH1 0x40 MLOAD SWAP1 DUP2 ADD PUSH1 0x40 MSTORE DUP1 SWAP3 SWAP2 SWAP1 DUP2 DUP2 MSTORE PUSH1 0x20 ADD DUP3 DUP1 SLOAD PUSH2 0x17EC SWAP1 PUSH2 0x383C JUMP JUMPDEST DUP1 ISZERO PUSH2 0x1839 JUMPI DUP1 PUSH1 0x1F LT PUSH2 0x180E JUMPI PUSH2 0x100 DUP1 DUP4 SLOAD DIV MUL DUP4 MSTORE SWAP2 PUSH1 0x20 ADD SWAP2 PUSH2 0x1839 JUMP JUMPDEST DUP3 ADD SWAP2 SWAP1 PUSH1 0x0 MSTORE PUSH1 0x20 PUSH1 0x0 KECCAK256 SWAP1 JUMPDEST DUP2 SLOAD DUP2 MSTORE SWAP1 PUSH1 0x1 ADD SWAP1 PUSH1 0x20 ADD DUP1 DUP4 GT PUSH2 0x181C JUMPI DUP3 SWAP1 SUB PUSH1 0x1F AND DUP3 ADD SWAP2 JUMPDEST POP POP POP POP POP SWAP2 POP POP SWAP3 SWAP2 POP POP JUMP JUMPDEST PUSH1 0x40 DUP1 MLOAD PUSH1 0x20 DUP1 DUP3 ADD DUP4 MSTORE PUSH1 0x60 DUP3 MSTORE PUSH1 0x0 DUP5 DUP2 MSTORE PUSH1 0x3 DUP3 MSTORE DUP4 DUP2 KECCAK256 DUP5 MLOAD DUP2 SLOAD DUP1 DUP6 MUL DUP3 ADD DUP8 ADD DUP8 MSTORE SWAP4 DUP2 ADD DUP5 DUP2 MSTORE SWAP5 SWAP6 SWAP1 SWAP5 SWAP2 SWAP4 DUP6 SWAP4 DUP6 SWAP3 DUP6 ADD JUMPDEST DUP3 DUP3 LT ISZERO PUSH2 0x192E JUMPI DUP4 DUP3 SWAP1 PUSH1 0x0 MSTORE PUSH1 0x20 PUSH1 0x0 KECCAK256 ADD DUP1 SLOAD PUSH2 0x18A1 SWAP1 PUSH2 0x383C JUMP JUMPDEST DUP1 PUSH1 0x1F ADD PUSH1 0x20 DUP1 SWAP2 DIV MUL PUSH1 0x20 ADD PUSH1 0x40 MLOAD SWAP1 DUP2 ADD PUSH1 0x40 MSTORE DUP1 SWAP3 SWAP2 SWAP1 DUP2 DUP2 MSTORE PUSH1 0x20 ADD DUP3 DUP1 SLOAD PUSH2 0x18CD SWAP1 PUSH2 0x383C JUMP JUMPDEST DUP1 ISZERO PUSH2 0x191A JUMPI DUP1 PUSH1 0x1F LT PUSH2 0x18EF JUMPI PUSH2 0x100 DUP1 DUP4 SLOAD DIV MUL DUP4 MSTORE SWAP2 PUSH1 0x20 ADD SWAP2 PUSH2 0x191A JUMP JUMPDEST DUP3 ADD SWAP2 SWAP1 PUSH1 0x0 MSTORE PUSH1 0x20 PUSH1 0x0 KECCAK256 SWAP1 JUMPDEST DUP2 SLOAD DUP2 MSTORE SWAP1 PUSH1 0x1 ADD SWAP1 PUSH1 0x20 ADD DUP1 DUP4 GT PUSH2 0x18FD JUMPI DUP3 SWAP1 SUB PUSH1 0x1F AND DUP3 ADD SWAP2 JUMPDEST POP POP POP POP POP DUP2 MSTORE PUSH1 0x20 ADD SWAP1 PUSH1 0x1 ADD SWAP1 PUSH2 0x1882 JUMP JUMPDEST POP POP POP SWAP2 MSTORE POP SWAP1 SWAP4 SWAP3 POP POP POP JUMP JUMPDEST PUSH1 0x0 DUP2 DUP2 MSTORE PUSH1 0x10 PUSH1 0x20 MSTORE PUSH1 0x40 DUP2 KECCAK256 SLOAD PUSH1 0x11 SLOAD DUP2 LT PUSH2 0x198A JUMPI PUSH1 0x40 MLOAD PUSH3 0x461BCD PUSH1 0xE5 SHL DUP2 MSTORE PUSH1 0x20 PUSH1 0x4 DUP3 ADD MSTORE PUSH1 0x1C PUSH1 0x24 DUP3 ADD MSTORE PUSH1 0x0 DUP1 MLOAD PUSH1 0x20 PUSH2 0x3B90 DUP4 CODECOPY DUP2 MLOAD SWAP2 MSTORE PUSH1 0x44 DUP3 ADD MSTORE PUSH1 0x64 ADD PUSH2 0xBA5 JUMP JUMPDEST POP POP PUSH1 0x0 SWAP1 DUP2 MSTORE PUSH1 0x10 PUSH1 0x20 MSTORE PUSH1 0x40 SWAP1 KECCAK256 SLOAD SWAP1 JUMP JUMPDEST PUSH1 0x0 DUP2 DUP2 MSTORE PUSH1 0xC PUSH1 0x20 MSTORE PUSH1 0x40 DUP2 KECCAK256 SLOAD PUSH1 0x1 PUSH1 0x1 PUSH1 0xA0 SHL SUB AND DUP1 PUSH2 0x1A12 JUMPI PUSH1 0x40 MLOAD PUSH3 0x461BCD PUSH1 0xE5 SHL DUP2 MSTORE PUSH1 0x20 PUSH1 0x4 DUP3 ADD MSTORE PUSH1 0x26 PUSH1 0x24 DUP3 ADD MSTORE PUSH32 0x4E46543A206F776E657220717565727920666F72206E6F6E6578697374656E74 PUSH1 0x44 DUP3 ADD MSTORE PUSH6 0x103A37B5B2B7 PUSH1 0xD1 SHL PUSH1 0x64 DUP3 ADD MSTORE PUSH1 0x84 ADD PUSH2 0xBA5 JUMP JUMPDEST SWAP3 SWAP2 POP POP JUMP JUMPDEST PUSH1 0x0 SLOAD PUSH1 0x1 PUSH1 0x1 PUSH1 0xA0 SHL SUB AND CALLER EQ PUSH2 0x1A60 JUMPI PUSH1 0x40 MLOAD PUSH3 0x461BCD PUSH1 0xE5 SHL DUP2 MSTORE PUSH1 0x20 PUSH1 0x4 DUP3 ADD DUP2 SWAP1 MSTORE PUSH1 0x24 DUP3 ADD MSTORE PUSH1 0x0 DUP1 MLOAD PUSH1 0x20 PUSH2 0x3BB0 DUP4 CODECOPY DUP2 MLOAD SWAP2 MSTORE PUSH1 0x44 DUP3 ADD MSTORE PUSH1 0x64 ADD PUSH2 0xBA5 JUMP JUMPDEST PUSH1 0x0 SWAP2 DUP3 MSTORE PUSH1 0x8 PUSH1 0x20 MSTORE PUSH1 0x40 SWAP1 SWAP2 KECCAK256 DUP1 SLOAD PUSH4 0xFFFFFFFF NOT AND PUSH4 0xFFFFFFFF SWAP1 SWAP3 AND SWAP2 SWAP1 SWAP2 OR SWAP1 SSTORE JUMP JUMPDEST PUSH1 0x0 DUP2 DUP2 MSTORE PUSH1 0xC PUSH1 0x20 MSTORE PUSH1 0x40 DUP2 KECCAK256 SLOAD DUP2 SWAP1 DUP2 SWAP1 PUSH1 0x1 PUSH1 0x1 PUSH1 0xA0 SHL SUB AND DUP1 PUSH2 0x1B00 JUMPI PUSH1 0x40 MLOAD PUSH3 0x461BCD PUSH1 0xE5 SHL DUP2 MSTORE PUSH1 0x20 PUSH1 0x4 DUP3 ADD MSTORE PUSH1 0x26 PUSH1 0x24 DUP3 ADD MSTORE PUSH32 0x4E46543A206F776E657220717565727920666F72206E6F6E6578697374656E74 PUSH1 0x44 DUP3 ADD MSTORE PUSH6 0x103A37B5B2B7 PUSH1 0xD1 SHL PUSH1 0x64 DUP3 ADD MSTORE PUSH1 0x84 ADD PUSH2 0xBA5 JUMP JUMPDEST POP POP POP PUSH1 0x0 SWAP2 DUP3 MSTORE POP PUSH1 0x7 PUSH1 0x20 MSTORE PUSH1 0x40 SWAP1 KECCAK256 PUSH1 0x1 DUP2 ADD SLOAD DUP2 SLOAD PUSH1 0x2 SWAP1 SWAP3 ADD SLOAD SWAP1 SWAP3 PUSH1 0x1 PUSH1 0x1 PUSH1 0xA0 SHL SUB SWAP1 SWAP3 AND SWAP2 JUMP JUMPDEST PUSH1 0x0 SLOAD PUSH1 0x1 PUSH1 0x1 PUSH1 0xA0 SHL SUB AND CALLER EQ PUSH2 0x1B77 JUMPI PUSH1 0x40 MLOAD PUSH3 0x461BCD PUSH1 0xE5 SHL DUP2 MSTORE PUSH1 0x20 PUSH1 0x4 DUP3 ADD DUP2 SWAP1 MSTORE PUSH1 0x24 DUP3 ADD MSTORE PUSH1 0x0 DUP1 MLOAD PUSH1 0x20 PUSH2 0x3BB0 DUP4 CODECOPY DUP2 MLOAD SWAP2 MSTORE PUSH1 0x44 DUP3 ADD MSTORE PUSH1 0x64 ADD PUSH2 0xBA5 JUMP JUMPDEST DUP2 PUSH1 0x11 SLOAD DUP2 LT PUSH2 0x1BB7 JUMPI PUSH1 0x40 MLOAD PUSH3 0x461BCD PUSH1 0xE5 SHL DUP2 MSTORE PUSH1 0x20 PUSH1 0x4 DUP3 ADD MSTORE PUSH1 0x1C PUSH1 0x24 DUP3 ADD MSTORE PUSH1 0x0 DUP1 MLOAD PUSH1 0x20 PUSH2 0x3B90 DUP4 CODECOPY DUP2 MLOAD SWAP2 MSTORE PUSH1 0x44 DUP3 ADD MSTORE PUSH1 0x64 ADD PUSH2 0xBA5 JUMP JUMPDEST PUSH1 0x0 DUP4 DUP2 MSTORE PUSH1 0xE PUSH1 0x20 SWAP1 DUP2 MSTORE PUSH1 0x40 DUP3 KECCAK256 DUP1 SLOAD PUSH1 0x1 DUP2 ADD DUP3 SSTORE SWAP1 DUP4 MSTORE SWAP2 KECCAK256 ADD PUSH2 0x1087 DUP4 DUP3 PUSH2 0x38E7 JUMP JUMPDEST PUSH1 0x0 PUSH1 0x1 PUSH1 0x1 PUSH1 0xA0 SHL SUB DUP3 AND PUSH2 0x1C5D JUMPI PUSH1 0x40 MLOAD PUSH3 0x461BCD PUSH1 0xE5 SHL DUP2 MSTORE PUSH1 0x20 PUSH1 0x4 DUP3 ADD MSTORE PUSH1 0x27 PUSH1 0x24 DUP3 ADD MSTORE PUSH32 0x4E46543A2062616C616E636520717565727920666F7220746865207A65726F20 PUSH1 0x44 DUP3 ADD MSTORE PUSH32 0x6164647265737300000000000000000000000000000000000000000000000000 PUSH1 0x64 DUP3 ADD MSTORE PUSH1 0x84 ADD PUSH2 0xBA5 JUMP JUMPDEST POP PUSH1 0x1 PUSH1 0x1 PUSH1 0xA0 SHL SUB AND PUSH1 0x0 SWAP1 DUP2 MSTORE PUSH1 0xD PUSH1 0x20 MSTORE PUSH1 0x40 SWAP1 KECCAK256 SLOAD SWAP1 JUMP JUMPDEST DUP3 DUP3 DUP3 DUP1 DUP1 PUSH1 0x1F ADD PUSH1 0x20 DUP1 SWAP2 DIV MUL PUSH1 0x20 ADD PUSH1 0x40 MLOAD SWAP1 DUP2 ADD PUSH1 0x40 MSTORE DUP1 SWAP4 SWAP3 SWAP2 SWAP1 DUP2 DUP2 MSTORE PUSH1 0x20 ADD DUP4 DUP4 DUP1 DUP3 DUP5 CALLDATACOPY PUSH1 0x0 SWAP3 ADD SWAP2 SWAP1 SWAP2 MSTORE POP POP PUSH1 0x2 SLOAD PUSH1 0x1 NOT ADD SWAP2 POP PUSH2 0x1D05 SWAP1 POP JUMPI PUSH1 0x40 MLOAD PUSH3 0x461BCD PUSH1 0xE5 SHL DUP2 MSTORE PUSH1 0x20 PUSH1 0x4 DUP3 ADD MSTORE PUSH1 0x1F PUSH1 0x24 DUP3 ADD MSTORE PUSH32 0x5265656E7472616E637947756172643A207265656E7472616E742063616C6C00 PUSH1 0x44 DUP3 ADD MSTORE PUSH1 0x64 ADD PUSH2 0xBA5 JUMP JUMPDEST PUSH1 0x2 DUP1 SSTORE PUSH1 0x0 DUP1 PUSH2 0x1D15 DUP8 PUSH2 0x1A88 JUMP JUMPDEST POP SWAP2 POP SWAP2 POP DUP2 CALLVALUE GT PUSH2 0x1D8E JUMPI PUSH1 0x40 MLOAD PUSH3 0x461BCD PUSH1 0xE5 SHL DUP2 MSTORE PUSH1 0x20 PUSH1 0x4 DUP3 ADD MSTORE PUSH1 0x24 DUP1 DUP3 ADD MSTORE PUSH32 0x4E657720626964206D7573742065786365656420746865206578697374696E67 PUSH1 0x44 DUP3 ADD MSTORE PUSH32 0x206F6E6500000000000000000000000000000000000000000000000000000000 PUSH1 0x64 DUP3 ADD MSTORE PUSH1 0x84 ADD PUSH2 0xBA5 JUMP JUMPDEST PUSH1 0x0 DUP3 ISZERO PUSH2 0x1DCE JUMPI PUSH1 0x40 MLOAD PUSH1 0x1 PUSH1 0x1 PUSH1 0xA0 SHL SUB DUP4 AND SWAP1 DUP5 ISZERO PUSH2 0x8FC MUL SWAP1 DUP6 SWAP1 PUSH1 0x0 DUP2 DUP2 DUP2 DUP6 DUP9 DUP9 CALL SWAP4 POP POP POP POP ISZERO DUP1 ISZERO PUSH2 0x1DCC JUMPI RETURNDATASIZE PUSH1 0x0 DUP1 RETURNDATACOPY RETURNDATASIZE PUSH1 0x0 REVERT JUMPDEST POP JUMPDEST CALLVALUE PUSH2 0x1DD8 DUP10 PUSH2 0x23FC JUMP JUMPDEST LT ISZERO PUSH2 0x1DEE JUMPI PUSH2 0x1DE7 DUP9 PUSH2 0x23FC JUMP JUMPDEST SWAP1 POP PUSH2 0x1DF1 JUMP JUMPDEST POP CALLVALUE JUMPDEST PUSH1 0x0 DUP9 DUP2 MSTORE PUSH1 0x7 PUSH1 0x20 MSTORE PUSH1 0x40 SWAP1 DUP2 SWAP1 KECCAK256 PUSH1 0x1 DUP2 ADD DUP4 SWAP1 SSTORE DUP1 SLOAD PUSH1 0x1 PUSH1 0x1 PUSH1 0xA0 SHL SUB NOT AND CALLER OR DUP2 SSTORE TIMESTAMP PUSH1 0x2 SWAP1 SWAP2 ADD SSTORE MLOAD DUP2 SWAP1 DUP10 SWAP1 PUSH32 0x223D0D5DB4846341DA7A5CC902B1A7C597E63B6C73B1C6267DC931D290C7AFFB SWAP1 PUSH2 0x1E53 SWAP1 DUP12 SWAP1 DUP12 SWAP1 PUSH2 0x3A93 JUMP JUMPDEST PUSH1 0x40 MLOAD DUP1 SWAP2 SUB SWAP1 LOG3 CALLVALUE PUSH2 0x1E65 DUP10 PUSH2 0x23FC JUMP JUMPDEST LT ISZERO PUSH2 0x1EAC JUMPI CALLER PUSH2 0x8FC PUSH2 0x1E78 DUP11 PUSH2 0x23FC JUMP JUMPDEST PUSH2 0x1E82 SWAP1 CALLVALUE PUSH2 0x3A80 JUMP JUMPDEST PUSH1 0x40 MLOAD DUP2 ISZERO SWAP1 SWAP3 MUL SWAP2 PUSH1 0x0 DUP2 DUP2 DUP2 DUP6 DUP9 DUP9 CALL SWAP4 POP POP POP POP ISZERO DUP1 ISZERO PUSH2 0x1EAA JUMPI RETURNDATASIZE PUSH1 0x0 DUP1 RETURNDATACOPY RETURNDATASIZE PUSH1 0x0 REVERT JUMPDEST POP JUMPDEST POP POP PUSH1 0x1 PUSH1 0x2 SSTORE POP PUSH1 0x0 DUP1 PUSH2 0x1EC0 DUP5 PUSH2 0x1A88 JUMP JUMPDEST POP SWAP2 POP SWAP2 POP PUSH1 0x0 PUSH2 0x1ED0 DUP6 PUSH2 0x23FC JUMP JUMPDEST GT DUP1 ISZERO PUSH2 0x1EE5 JUMPI POP DUP2 PUSH2 0x1EE2 DUP6 PUSH2 0x23FC JUMP JUMPDEST GT ISZERO JUMPDEST ISZERO PUSH2 0x1FDA JUMPI PUSH1 0x0 PUSH2 0x1EF6 DUP4 DUP7 PUSH2 0x2BD5 JUMP JUMPDEST PUSH2 0x1F00 SWAP1 DUP5 PUSH2 0x3A80 JUMP JUMPDEST SWAP1 POP PUSH2 0x1F0B DUP6 PUSH2 0x199E JUMP JUMPDEST PUSH1 0x1 PUSH1 0x1 PUSH1 0xA0 SHL SUB AND DUP3 PUSH1 0x1 PUSH1 0x1 PUSH1 0xA0 SHL SUB AND DUP7 PUSH32 0xC9B9AFD9684B23C6B22A41016C08E8954AC118220C0A52F00B8774C46580E9A3 DUP5 PUSH1 0x40 MLOAD PUSH2 0x1F50 SWAP2 DUP2 MSTORE PUSH1 0x20 ADD SWAP1 JUMP JUMPDEST PUSH1 0x40 MLOAD DUP1 SWAP2 SUB SWAP1 LOG4 PUSH2 0x1F61 DUP6 PUSH2 0x199E JUMP JUMPDEST PUSH1 0x1 PUSH1 0x1 PUSH1 0xA0 SHL SUB AND PUSH2 0x8FC DUP3 SWAP1 DUP2 ISZERO MUL SWAP1 PUSH1 0x40 MLOAD PUSH1 0x0 PUSH1 0x40 MLOAD DUP1 DUP4 SUB DUP2 DUP6 DUP9 DUP9 CALL SWAP4 POP POP POP POP ISZERO DUP1 ISZERO PUSH2 0x1F99 JUMPI RETURNDATASIZE PUSH1 0x0 DUP1 RETURNDATACOPY RETURNDATASIZE PUSH1 0x0 REVERT JUMPDEST POP PUSH1 0x0 DUP6 DUP2 MSTORE PUSH1 0x7 PUSH1 0x20 SWAP1 DUP2 MSTORE PUSH1 0x40 DUP1 DUP4 KECCAK256 DUP1 SLOAD PUSH1 0x1 PUSH1 0x1 PUSH1 0xA0 SHL SUB NOT AND DUP2 SSTORE PUSH1 0x1 DUP2 ADD DUP5 SWAP1 SSTORE PUSH1 0x2 ADD DUP4 SWAP1 SSTORE PUSH1 0x6 SWAP1 SWAP2 MSTORE DUP2 KECCAK256 SSTORE PUSH2 0x13D9 PUSH2 0x13CF DUP7 PUSH2 0x199E JUMP JUMPDEST POP POP POP POP POP POP POP JUMP JUMPDEST PUSH1 0x0 SLOAD PUSH1 0x1 PUSH1 0x1 PUSH1 0xA0 SHL SUB AND CALLER EQ PUSH2 0x202B JUMPI PUSH1 0x40 MLOAD PUSH3 0x461BCD PUSH1 0xE5 SHL DUP2 MSTORE PUSH1 0x20 PUSH1 0x4 DUP3 ADD DUP2 SWAP1 MSTORE PUSH1 0x24 DUP3 ADD MSTORE PUSH1 0x0 DUP1 MLOAD PUSH1 0x20 PUSH2 0x3BB0 DUP4 CODECOPY DUP2 MLOAD SWAP2 MSTORE PUSH1 0x44 DUP3 ADD MSTORE PUSH1 0x64 ADD PUSH2 0xBA5 JUMP JUMPDEST PUSH1 0x0 SWAP2 DUP3 MSTORE PUSH1 0xF PUSH1 0x20 MSTORE PUSH1 0x40 SWAP1 SWAP2 KECCAK256 DUP1 SLOAD PUSH4 0xFFFFFFFF NOT AND PUSH4 0xFFFFFFFF SWAP1 SWAP3 AND SWAP2 SWAP1 SWAP2 OR SWAP1 SSTORE JUMP JUMPDEST PUSH1 0x0 DUP3 DUP2 MSTORE PUSH1 0x3 PUSH1 0x20 MSTORE PUSH1 0x40 SWAP1 KECCAK256 DUP1 SLOAD PUSH1 0x60 SWAP2 SWAP1 DUP4 SWAP1 DUP2 LT PUSH2 0x2077 JUMPI PUSH2 0x2077 PUSH2 0x3826 JUMP JUMPDEST SWAP1 PUSH1 0x0 MSTORE PUSH1 0x20 PUSH1 0x0 KECCAK256 ADD DUP1 SLOAD PUSH2 0x208C SWAP1 PUSH2 0x383C JUMP JUMPDEST DUP1 PUSH1 0x1F ADD PUSH1 0x20 DUP1 SWAP2 DIV MUL PUSH1 0x20 ADD PUSH1 0x40 MLOAD SWAP1 DUP2 ADD PUSH1 0x40 MSTORE DUP1 SWAP3 SWAP2 SWAP1 DUP2 DUP2 MSTORE PUSH1 0x20 ADD DUP3 DUP1 SLOAD PUSH2 0x20B8 SWAP1 PUSH2 0x383C JUMP JUMPDEST DUP1 ISZERO PUSH2 0x2105 JUMPI DUP1 PUSH1 0x1F LT PUSH2 0x20DA JUMPI PUSH2 0x100 DUP1 DUP4 SLOAD DIV MUL DUP4 MSTORE SWAP2 PUSH1 0x20 ADD SWAP2 PUSH2 0x2105 JUMP JUMPDEST DUP3 ADD SWAP2 SWAP1 PUSH1 0x0 MSTORE PUSH1 0x20 PUSH1 0x0 KECCAK256 SWAP1 JUMPDEST DUP2 SLOAD DUP2 MSTORE SWAP1 PUSH1 0x1 ADD SWAP1 PUSH1 0x20 ADD DUP1 DUP4 GT PUSH2 0x20E8 JUMPI DUP3 SWAP1 SUB PUSH1 0x1F AND DUP3 ADD SWAP2 JUMPDEST POP POP POP POP POP SWAP1 POP SWAP3 SWAP2 POP POP JUMP JUMPDEST PUSH1 0x0 SLOAD PUSH1 0x1 PUSH1 0x1 PUSH1 0xA0 SHL SUB AND CALLER EQ PUSH2 0x215A JUMPI PUSH1 0x40 MLOAD PUSH3 0x461BCD PUSH1 0xE5 SHL DUP2 MSTORE PUSH1 0x20 PUSH1 0x4 DUP3 ADD DUP2 SWAP1 MSTORE PUSH1 0x24 DUP3 ADD MSTORE PUSH1 0x0 DUP1 MLOAD PUSH1 0x20 PUSH2 0x3BB0 DUP4 CODECOPY DUP2 MLOAD SWAP2 MSTORE PUSH1 0x44 DUP3 ADD MSTORE PUSH1 0x64 ADD PUSH2 0xBA5 JUMP JUMPDEST DUP1 PUSH1 0x11 SLOAD DUP2 LT PUSH2 0x219A JUMPI PUSH1 0x40 MLOAD PUSH3 0x461BCD PUSH1 0xE5 SHL DUP2 MSTORE PUSH1 0x20 PUSH1 0x4 DUP3 ADD MSTORE PUSH1 0x1C PUSH1 0x24 DUP3 ADD MSTORE PUSH1 0x0 DUP1 MLOAD PUSH1 0x20 PUSH2 0x3B90 DUP4 CODECOPY DUP2 MLOAD SWAP2 MSTORE PUSH1 0x44 DUP3 ADD MSTORE PUSH1 0x64 ADD PUSH2 0xBA5 JUMP JUMPDEST PUSH1 0x0 DUP3 DUP2 MSTORE PUSH1 0xE PUSH1 0x20 SWAP1 DUP2 MSTORE PUSH1 0x40 DUP1 DUP4 KECCAK256 DUP1 SLOAD PUSH1 0x1 DUP2 ADD DUP3 SSTORE SWAP1 DUP5 MSTORE DUP3 DUP5 KECCAK256 DUP3 MLOAD SWAP4 DUP5 ADD SWAP1 SWAP3 MSTORE SWAP3 DUP3 MSTORE SWAP1 SWAP2 ADD SWAP1 PUSH2 0xE92 SWAP1 DUP3 PUSH2 0x38E7 JUMP JUMPDEST PUSH1 0x0 SLOAD PUSH1 0x1 PUSH1 0x1 PUSH1 0xA0 SHL SUB AND CALLER EQ PUSH2 0x221A JUMPI PUSH1 0x40 MLOAD PUSH3 0x461BCD PUSH1 0xE5 SHL DUP2 MSTORE PUSH1 0x20 PUSH1 0x4 DUP3 ADD DUP2 SWAP1 MSTORE PUSH1 0x24 DUP3 ADD MSTORE PUSH1 0x0 DUP1 MLOAD PUSH1 0x20 PUSH2 0x3BB0 DUP4 CODECOPY DUP2 MLOAD SWAP2 MSTORE PUSH1 0x44 DUP3 ADD MSTORE PUSH1 0x64 ADD PUSH2 0xBA5 JUMP JUMPDEST PUSH4 0xFFFFFFFF SWAP1 SWAP3 AND PUSH1 0x0 SWAP1 DUP2 MSTORE PUSH1 0x4 PUSH1 0x20 MSTORE PUSH1 0x40 SWAP1 KECCAK256 DUP1 SLOAD PUSH1 0x1 PUSH1 0x1 PUSH1 0xA0 SHL SUB SWAP1 SWAP3 AND PUSH1 0x1 PUSH1 0x1 PUSH1 0xA0 SHL SUB NOT SWAP1 SWAP3 AND SWAP2 SWAP1 SWAP2 OR DUP2 SSTORE PUSH1 0x1 ADD SSTORE JUMP JUMPDEST PUSH1 0x60 PUSH1 0xB DUP1 SLOAD PUSH2 0xAD3 SWAP1 PUSH2 0x383C JUMP JUMPDEST PUSH1 0x0 DUP3 DUP2 MSTORE PUSH1 0x10 PUSH1 0x20 MSTORE PUSH1 0x40 SWAP1 KECCAK256 SLOAD PUSH1 0x11 SLOAD PUSH1 0x60 SWAP2 SWAP1 DUP2 LT PUSH2 0x22B6 JUMPI PUSH1 0x40 MLOAD PUSH3 0x461BCD PUSH1 0xE5 SHL DUP2 MSTORE PUSH1 0x20 PUSH1 0x4 DUP3 ADD MSTORE PUSH1 0x1C PUSH1 0x24 DUP3 ADD MSTORE PUSH1 0x0 DUP1 MLOAD PUSH1 0x20 PUSH2 0x3B90 DUP4 CODECOPY DUP2 MLOAD SWAP2 MSTORE PUSH1 0x44 DUP3 ADD MSTORE PUSH1 0x64 ADD PUSH2 0xBA5 JUMP JUMPDEST PUSH1 0x0 DUP5 DUP2 MSTORE PUSH1 0x10 PUSH1 0x20 SWAP1 DUP2 MSTORE PUSH1 0x40 DUP1 DUP4 KECCAK256 SLOAD DUP4 MSTORE PUSH1 0xE SWAP1 SWAP2 MSTORE SWAP1 KECCAK256 DUP1 SLOAD DUP5 SWAP1 DUP2 LT PUSH2 0x17AB JUMPI PUSH2 0x17AB PUSH2 0x3826 JUMP JUMPDEST PUSH1 0x0 SLOAD PUSH1 0x1 PUSH1 0x1 PUSH1 0xA0 SHL SUB AND ISZERO PUSH2 0x233C JUMPI PUSH1 0x40 MLOAD PUSH3 0x461BCD PUSH1 0xE5 SHL DUP2 MSTORE PUSH1 0x20 PUSH1 0x4 DUP3 ADD MSTORE PUSH1 0x13 PUSH1 0x24 DUP3 ADD MSTORE PUSH32 0x416C726561647920696E697469616C697A656400000000000000000000000000 PUSH1 0x44 DUP3 ADD MSTORE PUSH1 0x64 ADD PUSH2 0xBA5 JUMP JUMPDEST PUSH1 0x0 DUP1 SLOAD PUSH1 0x1 PUSH1 0x1 PUSH1 0xA0 SHL SUB NOT AND CALLER SWAP1 DUP2 OR DUP3 SSTORE PUSH1 0x40 MLOAD SWAP1 SWAP2 SWAP1 PUSH32 0x8BE0079C531659141344CD1FD0A4F28419497F9722A3DAAFE3B4186F6B6457E0 SWAP1 DUP3 SWAP1 LOG3 PUSH3 0x15180 PUSH1 0x5 SSTORE PUSH1 0xA PUSH2 0x238E DUP5 DUP3 PUSH2 0x38E7 JUMP JUMPDEST POP PUSH1 0xB PUSH2 0x239B DUP4 DUP3 PUSH2 0x38E7 JUMP JUMPDEST POP PUSH1 0x0 DUP1 MSTORE PUSH1 0x4 PUSH1 0x20 MSTORE PUSH32 0x17EF568E3E12AB5B9C7254A8D58478811DE00F9E6EB34345ACD53BF8FD09D3EC DUP1 SLOAD PUSH1 0x1 PUSH1 0x1 PUSH1 0xA0 SHL SUB NOT AND CALLER OR SWAP1 SSTORE PUSH32 0x17EF568E3E12AB5B9C7254A8D58478811DE00F9E6EB34345ACD53BF8FD09D3ED SSTORE POP POP JUMP JUMPDEST PUSH1 0x0 DUP2 DUP2 MSTORE PUSH1 0xC PUSH1 0x20 MSTORE PUSH1 0x40 DUP2 KECCAK256 SLOAD PUSH1 0x1 PUSH1 0x1 PUSH1 0xA0 SHL SUB AND DUP1 PUSH2 0x2470 JUMPI PUSH1 0x40 MLOAD PUSH3 0x461BCD PUSH1 0xE5 SHL DUP2 MSTORE PUSH1 0x20 PUSH1 0x4 DUP3 ADD MSTORE PUSH1 0x26 PUSH1 0x24 DUP3 ADD MSTORE PUSH32 0x4E46543A206F776E657220717565727920666F72206E6F6E6578697374656E74 PUSH1 0x44 DUP3 ADD MSTORE PUSH6 0x103A37B5B2B7 PUSH1 0xD1 SHL PUSH1 0x64 DUP3 ADD MSTORE PUSH1 0x84 ADD PUSH2 0xBA5 JUMP JUMPDEST POP POP PUSH1 0x0 SWAP1 DUP2 MSTORE PUSH1 0x6 PUSH1 0x20 MSTORE PUSH1 0x40 SWAP1 KECCAK256 SLOAD SWAP1 JUMP JUMPDEST PUSH1 0x0 SLOAD PUSH1 0x1 PUSH1 0x1 PUSH1 0xA0 SHL SUB AND CALLER EQ PUSH2 0x24CC JUMPI PUSH1 0x40 MLOAD PUSH3 0x461BCD PUSH1 0xE5 SHL DUP2 MSTORE PUSH1 0x20 PUSH1 0x4 DUP3 ADD DUP2 SWAP1 MSTORE PUSH1 0x24 DUP3 ADD MSTORE PUSH1 0x0 DUP1 MLOAD PUSH1 0x20 PUSH2 0x3BB0 DUP4 CODECOPY DUP2 MLOAD SWAP2 MSTORE PUSH1 0x44 DUP3 ADD MSTORE PUSH1 0x64 ADD PUSH2 0xBA5 JUMP JUMPDEST PUSH2 0x1087 DUP5 DUP5 DUP5 DUP5 PUSH2 0x3073 JUMP JUMPDEST PUSH1 0x0 PUSH2 0x24E6 CALLER DUP6 DUP6 DUP6 PUSH2 0x2C68 JUMP JUMPDEST PUSH32 0x3BA9136826AC751DE05D770D8D34FA4440ADA49A5FB0E9AA1678AECE66DAD976 DUP3 PUSH1 0x40 MLOAD PUSH2 0x2515 SWAP2 SWAP1 PUSH2 0x32FA JUMP JUMPDEST PUSH1 0x40 MLOAD DUP1 SWAP2 SUB SWAP1 LOG1 POP PUSH1 0x1 SWAP4 SWAP3 POP POP POP JUMP JUMPDEST PUSH1 0x0 SLOAD PUSH1 0x1 PUSH1 0x1 PUSH1 0xA0 SHL SUB AND CALLER EQ PUSH2 0x256F JUMPI PUSH1 0x40 MLOAD PUSH3 0x461BCD PUSH1 0xE5 SHL DUP2 MSTORE PUSH1 0x20 PUSH1 0x4 DUP3 ADD DUP2 SWAP1 MSTORE PUSH1 0x24 DUP3 ADD MSTORE PUSH1 0x0 DUP1 MLOAD PUSH1 0x20 PUSH2 0x3BB0 DUP4 CODECOPY DUP2 MLOAD SWAP2 MSTORE PUSH1 0x44 DUP3 ADD MSTORE PUSH1 0x64 ADD PUSH2 0xBA5 JUMP JUMPDEST PUSH1 0x0 JUMPDEST DUP3 DUP2 LT ISZERO PUSH2 0xE92 JUMPI PUSH1 0x0 DUP3 DUP2 MSTORE PUSH1 0xE PUSH1 0x20 SWAP1 DUP2 MSTORE PUSH1 0x40 DUP1 DUP4 KECCAK256 DUP1 SLOAD PUSH1 0x1 DUP2 ADD DUP3 SSTORE SWAP1 DUP5 MSTORE DUP3 DUP5 KECCAK256 DUP3 MLOAD SWAP4 DUP5 ADD SWAP1 SWAP3 MSTORE SWAP3 DUP3 MSTORE SWAP1 SWAP2 ADD SWAP1 PUSH2 0x25B2 SWAP1 DUP3 PUSH2 0x38E7 JUMP JUMPDEST POP DUP1 PUSH2 0x25BD DUP2 PUSH2 0x39A7 JUMP JUMPDEST SWAP2 POP POP PUSH2 0x2572 JUMP JUMPDEST PUSH1 0x0 DUP2 DUP2 MSTORE PUSH1 0x10 PUSH1 0x20 MSTORE PUSH1 0x40 SWAP1 KECCAK256 SLOAD PUSH1 0x11 SLOAD PUSH1 0x60 SWAP2 SWAP1 DUP2 LT PUSH2 0x2617 JUMPI PUSH1 0x40 MLOAD PUSH3 0x461BCD PUSH1 0xE5 SHL DUP2 MSTORE PUSH1 0x20 PUSH1 0x4 DUP3 ADD MSTORE PUSH1 0x1C PUSH1 0x24 DUP3 ADD MSTORE PUSH1 0x0 DUP1 MLOAD PUSH1 0x20 PUSH2 0x3B90 DUP4 CODECOPY DUP2 MLOAD SWAP2 MSTORE PUSH1 0x44 DUP3 ADD MSTORE PUSH1 0x64 ADD PUSH2 0xBA5 JUMP JUMPDEST PUSH1 0x0 DUP4 DUP2 MSTORE PUSH1 0x10 PUSH1 0x20 SWAP1 DUP2 MSTORE PUSH1 0x40 DUP1 DUP4 KECCAK256 SLOAD DUP4 MSTORE PUSH1 0xE SWAP1 SWAP2 MSTORE DUP2 KECCAK256 DUP1 SLOAD SWAP1 SWAP2 SWAP1 PUSH2 0x2643 JUMPI PUSH2 0x2643 PUSH2 0x3826 JUMP JUMPDEST SWAP1 PUSH1 0x0 MSTORE PUSH1 0x20 PUSH1 0x0 KECCAK256 ADD DUP1 SLOAD PUSH2 0x2658 SWAP1 PUSH2 0x383C JUMP JUMPDEST DUP1 PUSH1 0x1F ADD PUSH1 0x20 DUP1 SWAP2 DIV MUL PUSH1 0x20 ADD PUSH1 0x40 MLOAD SWAP1 DUP2 ADD PUSH1 0x40 MSTORE DUP1 SWAP3 SWAP2 SWAP1 DUP2 DUP2 MSTORE PUSH1 0x20 ADD DUP3 DUP1 SLOAD PUSH2 0x2684 SWAP1 PUSH2 0x383C JUMP JUMPDEST DUP1 ISZERO PUSH2 0x26D1 JUMPI DUP1 PUSH1 0x1F LT PUSH2 0x26A6 JUMPI PUSH2 0x100 DUP1 DUP4 SLOAD DIV MUL DUP4 MSTORE SWAP2 PUSH1 0x20 ADD SWAP2 PUSH2 0x26D1 JUMP JUMPDEST DUP3 ADD SWAP2 SWAP1 PUSH1 0x0 MSTORE PUSH1 0x20 PUSH1 0x0 KECCAK256 SWAP1 JUMPDEST DUP2 SLOAD DUP2 MSTORE SWAP1 PUSH1 0x1 ADD SWAP1 PUSH1 0x20 ADD DUP1 DUP4 GT PUSH2 0x26B4 JUMPI DUP3 SWAP1 SUB PUSH1 0x1F AND DUP3 ADD SWAP2 JUMPDEST POP POP POP POP POP SWAP2 POP POP SWAP2 SWAP1 POP JUMP JUMPDEST PUSH1 0x0 CALLER PUSH2 0x26EA DUP4 PUSH2 0x199E JUMP JUMPDEST PUSH1 0x1 PUSH1 0x1 PUSH1 0xA0 SHL SUB AND EQ PUSH2 0x274F JUMPI PUSH1 0x40 MLOAD PUSH3 0x461BCD PUSH1 0xE5 SHL DUP2 MSTORE PUSH1 0x20 PUSH1 0x4 DUP3 ADD MSTORE PUSH1 0x26 PUSH1 0x24 DUP3 ADD MSTORE PUSH32 0x4E46543A207472616E73666572206F6620746F6B656E2074686174206973206E PUSH1 0x44 DUP3 ADD MSTORE PUSH6 0x37BA1037BBB7 PUSH1 0xD1 SHL PUSH1 0x64 DUP3 ADD MSTORE PUSH1 0x84 ADD PUSH2 0xBA5 JUMP JUMPDEST PUSH1 0x1 PUSH1 0x1 PUSH1 0xA0 SHL SUB DUP4 AND PUSH2 0x27AF JUMPI PUSH1 0x40 MLOAD PUSH3 0x461BCD PUSH1 0xE5 SHL DUP2 MSTORE PUSH1 0x20 PUSH1 0x4 DUP3 ADD MSTORE PUSH1 0x21 PUSH1 0x24 DUP3 ADD MSTORE PUSH32 0x4E46543A207472616E7366657220746F20746865207A65726F20616464726573 PUSH1 0x44 DUP3 ADD MSTORE PUSH1 0x73 PUSH1 0xF8 SHL PUSH1 0x64 DUP3 ADD MSTORE PUSH1 0x84 ADD PUSH2 0xBA5 JUMP JUMPDEST PUSH1 0x0 DUP3 DUP2 MSTORE PUSH1 0x6 PUSH1 0x20 MSTORE PUSH1 0x40 DUP2 KECCAK256 SSTORE CALLER PUSH1 0x0 SWAP1 DUP2 MSTORE PUSH1 0xD PUSH1 0x20 MSTORE PUSH1 0x40 DUP2 KECCAK256 DUP1 SLOAD PUSH1 0x1 SWAP3 SWAP1 PUSH2 0x27DE SWAP1 DUP5 SWAP1 PUSH2 0x3A80 JUMP JUMPDEST SWAP1 SWAP2 SSTORE POP POP PUSH1 0x1 PUSH1 0x1 PUSH1 0xA0 SHL SUB DUP4 AND PUSH1 0x0 SWAP1 DUP2 MSTORE PUSH1 0xD PUSH1 0x20 MSTORE PUSH1 0x40 DUP2 KECCAK256 DUP1 SLOAD PUSH1 0x1 SWAP3 SWAP1 PUSH2 0x280C SWAP1 DUP5 SWAP1 PUSH2 0x3886 JUMP JUMPDEST SWAP1 SWAP2 SSTORE POP POP PUSH1 0x0 DUP3 DUP2 MSTORE PUSH1 0xC PUSH1 0x20 MSTORE PUSH1 0x40 DUP1 DUP3 KECCAK256 DUP1 SLOAD PUSH1 0x1 PUSH1 0x1 PUSH1 0xA0 SHL SUB NOT AND PUSH1 0x1 PUSH1 0x1 PUSH1 0xA0 SHL SUB DUP8 AND SWAP1 DUP2 OR SWAP1 SWAP2 SSTORE SWAP1 MLOAD DUP5 SWAP3 CALLER SWAP2 PUSH32 0xDDF252AD1BE2C89B69C2B068FC378DAA952BA7F163C4A11628F55A4DF523B3EF SWAP2 SWAP1 LOG4 POP PUSH1 0x1 SWAP3 SWAP2 POP POP JUMP JUMPDEST PUSH1 0x0 SLOAD PUSH1 0x1 PUSH1 0x1 PUSH1 0xA0 SHL SUB AND CALLER EQ PUSH2 0x28B7 JUMPI PUSH1 0x40 MLOAD PUSH3 0x461BCD PUSH1 0xE5 SHL DUP2 MSTORE PUSH1 0x20 PUSH1 0x4 DUP3 ADD DUP2 SWAP1 MSTORE PUSH1 0x24 DUP3 ADD MSTORE PUSH1 0x0 DUP1 MLOAD PUSH1 0x20 PUSH2 0x3BB0 DUP4 CODECOPY DUP2 MLOAD SWAP2 MSTORE PUSH1 0x44 DUP3 ADD MSTORE PUSH1 0x64 ADD PUSH2 0xBA5 JUMP JUMPDEST PUSH1 0x1 PUSH1 0x1 PUSH1 0xA0 SHL SUB DUP3 AND PUSH1 0x0 DUP2 DUP2 MSTORE PUSH1 0x1 PUSH1 0x20 SWAP1 DUP2 MSTORE PUSH1 0x40 SWAP2 DUP3 SWAP1 KECCAK256 DUP1 SLOAD PUSH1 0xFF NOT AND DUP6 ISZERO ISZERO SWAP1 DUP2 OR SWAP1 SWAP2 SSTORE DUP3 MLOAD SWAP4 DUP5 MSTORE SWAP1 DUP4 ADD MSTORE PUSH32 0x6B0F890A293C8F56A7635AD061C90250965B8AF8E8BDBEB56D434B97281A7462 SWAP2 ADD PUSH1 0x40 MLOAD DUP1 SWAP2 SUB SWAP1 LOG1 POP POP JUMP JUMPDEST PUSH1 0x60 DUP2 PUSH1 0x11 SLOAD DUP2 LT PUSH2 0x295C JUMPI PUSH1 0x40 MLOAD PUSH3 0x461BCD PUSH1 0xE5 SHL DUP2 MSTORE PUSH1 0x20 PUSH1 0x4 DUP3 ADD MSTORE PUSH1 0x1C PUSH1 0x24 DUP3 ADD MSTORE PUSH1 0x0 DUP1 MLOAD PUSH1 0x20 PUSH2 0x3B90 DUP4 CODECOPY DUP2 MLOAD SWAP2 MSTORE PUSH1 0x44 DUP3 ADD MSTORE PUSH1 0x64 ADD PUSH2 0xBA5 JUMP JUMPDEST PUSH1 0x0 DUP4 DUP2 MSTORE PUSH1 0xE PUSH1 0x20 SWAP1 DUP2 MSTORE PUSH1 0x40 DUP1 DUP4 KECCAK256 DUP1 SLOAD DUP3 MLOAD DUP2 DUP6 MUL DUP2 ADD DUP6 ADD SWAP1 SWAP4 MSTORE DUP1 DUP4 MSTORE SWAP2 SWAP4 SWAP1 SWAP3 DUP5 ADD JUMPDEST DUP3 DUP3 LT ISZERO PUSH2 0x173C JUMPI DUP4 DUP3 SWAP1 PUSH1 0x0 MSTORE PUSH1 0x20 PUSH1 0x0 KECCAK256 ADD DUP1 SLOAD PUSH2 0x29A4 SWAP1 PUSH2 0x383C JUMP JUMPDEST DUP1 PUSH1 0x1F ADD PUSH1 0x20 DUP1 SWAP2 DIV MUL PUSH1 0x20 ADD PUSH1 0x40 MLOAD SWAP1 DUP2 ADD PUSH1 0x40 MSTORE DUP1 SWAP3 SWAP2 SWAP1 DUP2 DUP2 MSTORE PUSH1 0x20 ADD DUP3 DUP1 SLOAD PUSH2 0x29D0 SWAP1 PUSH2 0x383C JUMP JUMPDEST DUP1 ISZERO PUSH2 0x2A1D JUMPI DUP1 PUSH1 0x1F LT PUSH2 0x29F2 JUMPI PUSH2 0x100 DUP1 DUP4 SLOAD DIV MUL DUP4 MSTORE SWAP2 PUSH1 0x20 ADD SWAP2 PUSH2 0x2A1D JUMP JUMPDEST DUP3 ADD SWAP2 SWAP1 PUSH1 0x0 MSTORE PUSH1 0x20 PUSH1 0x0 KECCAK256 SWAP1 JUMPDEST DUP2 SLOAD DUP2 MSTORE SWAP1 PUSH1 0x1 ADD SWAP1 PUSH1 0x20 ADD DUP1 DUP4 GT PUSH2 0x2A00 JUMPI DUP3 SWAP1 SUB PUSH1 0x1F AND DUP3 ADD SWAP2 JUMPDEST POP POP POP POP POP DUP2 MSTORE PUSH1 0x20 ADD SWAP1 PUSH1 0x1 ADD SWAP1 PUSH2 0x2985 JUMP JUMPDEST PUSH1 0x0 SLOAD PUSH1 0x1 PUSH1 0x1 PUSH1 0xA0 SHL SUB AND CALLER EQ PUSH2 0x2A79 JUMPI PUSH1 0x40 MLOAD PUSH3 0x461BCD PUSH1 0xE5 SHL DUP2 MSTORE PUSH1 0x20 PUSH1 0x4 DUP3 ADD DUP2 SWAP1 MSTORE PUSH1 0x24 DUP3 ADD MSTORE PUSH1 0x0 DUP1 MLOAD PUSH1 0x20 PUSH2 0x3BB0 DUP4 CODECOPY DUP2 MLOAD SWAP2 MSTORE PUSH1 0x44 DUP3 ADD MSTORE PUSH1 0x64 ADD PUSH2 0xBA5 JUMP JUMPDEST PUSH1 0x1 PUSH1 0x1 PUSH1 0xA0 SHL SUB DUP2 AND PUSH2 0x2AF5 JUMPI PUSH1 0x40 MLOAD PUSH3 0x461BCD PUSH1 0xE5 SHL DUP2 MSTORE PUSH1 0x20 PUSH1 0x4 DUP3 ADD MSTORE PUSH1 0x26 PUSH1 0x24 DUP3 ADD MSTORE PUSH32 0x4F776E61626C653A206E6577206F776E657220697320746865207A65726F2061 PUSH1 0x44 DUP3 ADD MSTORE PUSH32 0x6464726573730000000000000000000000000000000000000000000000000000 PUSH1 0x64 DUP3 ADD MSTORE PUSH1 0x84 ADD PUSH2 0xBA5 JUMP JUMPDEST PUSH2 0x2AFE DUP2 PUSH2 0x30AE JUMP JUMPDEST POP JUMP JUMPDEST PUSH1 0x0 DUP4 DUP2 MSTORE PUSH1 0x3 PUSH1 0x20 SWAP1 DUP2 MSTORE PUSH1 0x40 DUP3 KECCAK256 DUP1 SLOAD PUSH1 0x1 DUP2 ADD DUP3 SSTORE SWAP1 DUP4 MSTORE SWAP2 KECCAK256 ADD PUSH2 0x1087 DUP3 DUP5 DUP4 PUSH2 0x39C0 JUMP JUMPDEST PUSH2 0x2B83 DUP3 DUP3 DUP1 DUP1 PUSH1 0x1F ADD PUSH1 0x20 DUP1 SWAP2 DIV MUL PUSH1 0x20 ADD PUSH1 0x40 MLOAD SWAP1 DUP2 ADD PUSH1 0x40 MSTORE DUP1 SWAP4 SWAP3 SWAP2 SWAP1 DUP2 DUP2 MSTORE PUSH1 0x20 ADD DUP4 DUP4 DUP1 DUP3 DUP5 CALLDATACOPY PUSH1 0x0 SWAP3 ADD DUP3 SWAP1 MSTORE POP DUP10 DUP2 MSTORE PUSH1 0x3 PUSH1 0x20 MSTORE PUSH1 0x40 SWAP1 KECCAK256 DUP1 SLOAD SWAP1 SWAP4 POP DUP9 SWAP3 POP DUP3 LT SWAP1 POP PUSH2 0x154A JUMPI PUSH2 0x154A PUSH2 0x3826 JUMP JUMPDEST PUSH1 0x0 DUP6 DUP2 MSTORE PUSH1 0x3 PUSH1 0x20 MSTORE PUSH1 0x40 SWAP1 KECCAK256 DUP1 SLOAD DUP6 SWAP1 DUP2 LT PUSH2 0x1016 JUMPI PUSH2 0x1016 PUSH2 0x3826 JUMP JUMPDEST PUSH1 0x0 PUSH2 0x2BB1 CALLER PUSH1 0x9 SLOAD PUSH2 0x30FE JUMP JUMPDEST POP PUSH1 0x9 DUP1 SLOAD SWAP1 DUP2 SWAP1 PUSH1 0x0 PUSH2 0x2BC4 DUP4 PUSH2 0x39A7 JUMP JUMPDEST SWAP2 SWAP1 POP SSTORE POP PUSH2 0x2BD2 DUP2 PUSH2 0x310C JUMP JUMPDEST SWAP1 JUMP JUMPDEST PUSH1 0x0 DUP2 DUP2 MSTORE PUSH1 0x8 PUSH1 0x20 SWAP1 DUP2 MSTORE PUSH1 0x40 DUP1 DUP4 KECCAK256 SLOAD PUSH4 0xFFFFFFFF AND DUP1 DUP5 MSTORE PUSH1 0x4 SWAP1 SWAP3 MSTORE DUP3 KECCAK256 DUP1 SLOAD PUSH1 0x1 SWAP1 SWAP2 ADD SLOAD PUSH1 0x1 PUSH1 0x1 PUSH1 0xA0 SHL SUB SWAP1 SWAP2 AND SWAP1 DUP4 PUSH3 0x186A0 PUSH2 0x2C1A DUP4 DUP10 PUSH2 0x3AC2 JUMP JUMPDEST PUSH2 0x2C24 SWAP2 SWAP1 PUSH2 0x3AD9 JUMP JUMPDEST PUSH1 0x40 MLOAD SWAP1 SWAP2 POP PUSH1 0x1 PUSH1 0x1 PUSH1 0xA0 SHL SUB DUP5 AND SWAP1 DUP3 ISZERO PUSH2 0x8FC MUL SWAP1 DUP4 SWAP1 PUSH1 0x0 DUP2 DUP2 DUP2 DUP6 DUP9 DUP9 CALL SWAP4 POP POP POP POP ISZERO DUP1 ISZERO PUSH2 0x2C5D JUMPI RETURNDATASIZE PUSH1 0x0 DUP1 RETURNDATACOPY RETURNDATASIZE PUSH1 0x0 REVERT JUMPDEST POP SWAP7 SWAP6 POP POP POP POP POP POP JUMP JUMPDEST DUP4 PUSH1 0x1 PUSH1 0x1 PUSH1 0xA0 SHL SUB AND PUSH2 0x2C7B DUP4 PUSH2 0x199E JUMP JUMPDEST PUSH1 0x1 PUSH1 0x1 PUSH1 0xA0 SHL SUB AND EQ PUSH2 0x2CE0 JUMPI PUSH1 0x40 MLOAD PUSH3 0x461BCD PUSH1 0xE5 SHL DUP2 MSTORE PUSH1 0x20 PUSH1 0x4 DUP3 ADD MSTORE PUSH1 0x26 PUSH1 0x24 DUP3 ADD MSTORE PUSH32 0x4E46543A207472616E73666572206F6620746F6B656E2074686174206973206E PUSH1 0x44 DUP3 ADD MSTORE PUSH6 0x37BA1037BBB7 PUSH1 0xD1 SHL PUSH1 0x64 DUP3 ADD MSTORE PUSH1 0x84 ADD PUSH2 0xBA5 JUMP JUMPDEST PUSH1 0x1 PUSH1 0x1 PUSH1 0xA0 SHL SUB DUP4 AND PUSH2 0x2D40 JUMPI PUSH1 0x40 MLOAD PUSH3 0x461BCD PUSH1 0xE5 SHL DUP2 MSTORE PUSH1 0x20 PUSH1 0x4 DUP3 ADD MSTORE PUSH1 0x21 PUSH1 0x24 DUP3 ADD MSTORE PUSH32 0x4E46543A207472616E7366657220746F20746865207A65726F20616464726573 PUSH1 0x44 DUP3 ADD MSTORE PUSH1 0x73 PUSH1 0xF8 SHL PUSH1 0x64 DUP3 ADD MSTORE PUSH1 0x84 ADD PUSH2 0xBA5 JUMP JUMPDEST PUSH1 0x0 DUP3 DUP2 MSTORE PUSH1 0x6 PUSH1 0x20 MSTORE PUSH1 0x40 DUP2 KECCAK256 SSTORE PUSH1 0x1 PUSH1 0x1 PUSH1 0xA0 SHL SUB DUP5 AND PUSH1 0x0 SWAP1 DUP2 MSTORE PUSH1 0xD PUSH1 0x20 MSTORE PUSH1 0x40 DUP2 KECCAK256 DUP1 SLOAD PUSH1 0x1 SWAP3 SWAP1 PUSH2 0x2D78 SWAP1 DUP5 SWAP1 PUSH2 0x3A80 JUMP JUMPDEST SWAP1 SWAP2 SSTORE POP POP PUSH1 0x1 PUSH1 0x1 PUSH1 0xA0 SHL SUB DUP4 AND PUSH1 0x0 SWAP1 DUP2 MSTORE PUSH1 0xD PUSH1 0x20 MSTORE PUSH1 0x40 DUP2 KECCAK256 DUP1 SLOAD PUSH1 0x1 SWAP3 SWAP1 PUSH2 0x2DA6 SWAP1 DUP5 SWAP1 PUSH2 0x3886 JUMP JUMPDEST SWAP1 SWAP2 SSTORE POP POP PUSH1 0x0 DUP3 DUP2 MSTORE PUSH1 0xC PUSH1 0x20 MSTORE PUSH1 0x40 SWAP1 KECCAK256 DUP1 SLOAD PUSH1 0x1 PUSH1 0x1 PUSH1 0xA0 SHL SUB NOT AND PUSH1 0x1 PUSH1 0x1 PUSH1 0xA0 SHL SUB DUP6 AND SWAP1 DUP2 OR SWAP1 SWAP2 SSTORE EXTCODESIZE ISZERO PUSH2 0x2E6B JUMPI PUSH1 0x40 MLOAD PUSH32 0x150B7A0200000000000000000000000000000000000000000000000000000000 DUP2 MSTORE PUSH1 0x1 PUSH1 0x1 PUSH1 0xA0 SHL SUB DUP5 AND SWAP1 PUSH4 0x150B7A02 SWAP1 PUSH2 0x2E26 SWAP1 CALLER SWAP1 DUP9 SWAP1 DUP8 SWAP1 DUP8 SWAP1 PUSH1 0x4 ADD PUSH2 0x3AFB JUMP JUMPDEST PUSH1 0x20 PUSH1 0x40 MLOAD DUP1 DUP4 SUB DUP2 PUSH1 0x0 DUP8 GAS CALL ISZERO DUP1 ISZERO PUSH2 0x2E45 JUMPI RETURNDATASIZE PUSH1 0x0 DUP1 RETURNDATACOPY RETURNDATASIZE PUSH1 0x0 REVERT JUMPDEST POP POP POP POP PUSH1 0x40 MLOAD RETURNDATASIZE PUSH1 0x1F NOT PUSH1 0x1F DUP3 ADD AND DUP3 ADD DUP1 PUSH1 0x40 MSTORE POP DUP2 ADD SWAP1 PUSH2 0x2E69 SWAP2 SWAP1 PUSH2 0x3B37 JUMP JUMPDEST POP JUMPDEST DUP2 DUP4 PUSH1 0x1 PUSH1 0x1 PUSH1 0xA0 SHL SUB AND DUP6 PUSH1 0x1 PUSH1 0x1 PUSH1 0xA0 SHL SUB AND PUSH32 0xDDF252AD1BE2C89B69C2B068FC378DAA952BA7F163C4A11628F55A4DF523B3EF PUSH1 0x40 MLOAD PUSH1 0x40 MLOAD DUP1 SWAP2 SUB SWAP1 LOG4 POP POP POP POP JUMP JUMPDEST DUP1 MLOAD PUSH1 0x60 SWAP1 DUP4 SWAP1 DUP4 SWAP1 PUSH2 0x2EC7 JUMPI PUSH2 0x2EC7 PUSH2 0x3B79 JUMP JUMPDEST PUSH1 0x0 DUP2 MLOAD DUP4 MLOAD PUSH2 0x2ED7 SWAP2 SWAP1 PUSH2 0x3886 JUMP JUMPDEST PUSH8 0xFFFFFFFFFFFFFFFF DUP2 GT ISZERO PUSH2 0x2EEF JUMPI PUSH2 0x2EEF PUSH2 0x334F JUMP JUMPDEST PUSH1 0x40 MLOAD SWAP1 DUP1 DUP3 MSTORE DUP1 PUSH1 0x1F ADD PUSH1 0x1F NOT AND PUSH1 0x20 ADD DUP3 ADD PUSH1 0x40 MSTORE DUP1 ISZERO PUSH2 0x2F19 JUMPI PUSH1 0x20 DUP3 ADD DUP2 DUP1 CALLDATASIZE DUP4 CALLDATACOPY ADD SWAP1 POP JUMPDEST POP SWAP1 POP DUP1 PUSH1 0x0 DUP1 JUMPDEST DUP6 MLOAD DUP3 LT ISZERO PUSH2 0x2FC1 JUMPI DUP6 DUP3 DUP2 MLOAD DUP2 LT PUSH2 0x2F3C JUMPI PUSH2 0x2F3C PUSH2 0x3826 JUMP JUMPDEST ADD PUSH1 0x20 ADD MLOAD PUSH32 0xFF00000000000000000000000000000000000000000000000000000000000000 AND DUP4 DUP3 PUSH2 0x2F6E DUP2 PUSH2 0x39A7 JUMP JUMPDEST SWAP4 POP DUP2 MLOAD DUP2 LT PUSH2 0x2F80 JUMPI PUSH2 0x2F80 PUSH2 0x3826 JUMP JUMPDEST PUSH1 0x20 ADD ADD SWAP1 PUSH31 0xFFFFFFFFFFFFFFFFFFFFFFFFFFFFFFFFFFFFFFFFFFFFFFFFFFFFFFFFFFFFFF NOT AND SWAP1 DUP2 PUSH1 0x0 BYTE SWAP1 MSTORE8 POP DUP2 PUSH2 0x2FB9 DUP2 PUSH2 0x39A7 JUMP JUMPDEST SWAP3 POP POP PUSH2 0x2F21 JUMP JUMPDEST PUSH1 0x0 SWAP2 POP JUMPDEST DUP5 MLOAD DUP3 LT ISZERO PUSH2 0x3066 JUMPI DUP5 DUP3 DUP2 MLOAD DUP2 LT PUSH2 0x2FE1 JUMPI PUSH2 0x2FE1 PUSH2 0x3826 JUMP JUMPDEST ADD PUSH1 0x20 ADD MLOAD PUSH32 0xFF00000000000000000000000000000000000000000000000000000000000000 AND DUP4 DUP3 PUSH2 0x3013 DUP2 PUSH2 0x39A7 JUMP JUMPDEST SWAP4 POP DUP2 MLOAD DUP2 LT PUSH2 0x3025 JUMPI PUSH2 0x3025 PUSH2 0x3826 JUMP JUMPDEST PUSH1 0x20 ADD ADD SWAP1 PUSH31 0xFFFFFFFFFFFFFFFFFFFFFFFFFFFFFFFFFFFFFFFFFFFFFFFFFFFFFFFFFFFFFF NOT AND SWAP1 DUP2 PUSH1 0x0 BYTE SWAP1 MSTORE8 POP DUP2 PUSH2 0x305E DUP2 PUSH2 0x39A7 JUMP JUMPDEST SWAP3 POP POP PUSH2 0x2FC6 JUMP JUMPDEST POP SWAP1 SWAP8 SWAP7 POP POP POP POP POP POP POP JUMP JUMPDEST PUSH1 0x0 DUP5 DUP2 MSTORE PUSH1 0x3 PUSH1 0x20 MSTORE PUSH1 0x40 SWAP1 KECCAK256 DUP1 SLOAD DUP4 SWAP2 DUP4 SWAP2 DUP7 SWAP1 DUP2 LT PUSH2 0x3097 JUMPI PUSH2 0x3097 PUSH2 0x3826 JUMP JUMPDEST SWAP1 PUSH1 0x0 MSTORE PUSH1 0x20 PUSH1 0x0 KECCAK256 ADD SWAP2 DUP3 PUSH2 0x102C SWAP3 SWAP2 SWAP1 PUSH2 0x39C0 JUMP JUMPDEST PUSH1 0x0 DUP1 SLOAD PUSH1 0x1 PUSH1 0x1 PUSH1 0xA0 SHL SUB DUP4 DUP2 AND PUSH1 0x1 PUSH1 0x1 PUSH1 0xA0 SHL SUB NOT DUP4 AND DUP2 OR DUP5 SSTORE PUSH1 0x40 MLOAD SWAP2 SWAP1 SWAP3 AND SWAP3 DUP4 SWAP2 PUSH32 0x8BE0079C531659141344CD1FD0A4F28419497F9722A3DAAFE3B4186F6B6457E0 SWAP2 SWAP1 LOG3 POP POP JUMP JUMPDEST PUSH2 0x3108 DUP3 DUP3 PUSH2 0x3159 JUMP JUMPDEST POP POP JUMP JUMPDEST PUSH1 0x0 DUP2 DUP2 MSTORE PUSH1 0x3 PUSH1 0x20 MSTORE PUSH1 0x40 DUP2 KECCAK256 SLOAD SWAP1 SUB PUSH2 0x2AFE JUMPI PUSH1 0x0 DUP2 DUP2 MSTORE PUSH1 0x3 PUSH1 0x20 SWAP1 DUP2 MSTORE PUSH1 0x40 DUP1 DUP4 KECCAK256 DUP1 SLOAD PUSH1 0x1 DUP2 ADD DUP3 SSTORE SWAP1 DUP5 MSTORE DUP3 DUP5 KECCAK256 DUP3 MLOAD SWAP4 DUP5 ADD SWAP1 SWAP3 MSTORE SWAP3 DUP3 MSTORE SWAP1 SWAP2 ADD SWAP1 PUSH2 0x3108 SWAP1 DUP3 PUSH2 0x38E7 JUMP JUMPDEST PUSH1 0x1 PUSH1 0x1 PUSH1 0xA0 SHL SUB DUP3 AND PUSH2 0x31AF JUMPI PUSH1 0x40 MLOAD PUSH3 0x461BCD PUSH1 0xE5 SHL DUP2 MSTORE PUSH1 0x20 PUSH1 0x4 DUP3 ADD MSTORE PUSH1 0x1D PUSH1 0x24 DUP3 ADD MSTORE PUSH32 0x4E46543A206D696E7420746F20746865207A65726F2061646472657373000000 PUSH1 0x44 DUP3 ADD MSTORE PUSH1 0x64 ADD PUSH2 0xBA5 JUMP JUMPDEST PUSH1 0x0 DUP2 DUP2 MSTORE PUSH1 0xC PUSH1 0x20 MSTORE PUSH1 0x40 SWAP1 KECCAK256 SLOAD PUSH1 0x1 PUSH1 0x1 PUSH1 0xA0 SHL SUB AND ISZERO PUSH2 0x3214 JUMPI PUSH1 0x40 MLOAD PUSH3 0x461BCD PUSH1 0xE5 SHL DUP2 MSTORE PUSH1 0x20 PUSH1 0x4 DUP3 ADD MSTORE PUSH1 0x19 PUSH1 0x24 DUP3 ADD MSTORE PUSH32 0x4E46543A20746F6B656E20616C7265616479206D696E74656400000000000000 PUSH1 0x44 DUP3 ADD MSTORE PUSH1 0x64 ADD PUSH2 0xBA5 JUMP JUMPDEST PUSH1 0x1 PUSH1 0x1 PUSH1 0xA0 SHL SUB DUP3 AND PUSH1 0x0 SWAP1 DUP2 MSTORE PUSH1 0xD PUSH1 0x20 MSTORE PUSH1 0x40 DUP2 KECCAK256 DUP1 SLOAD PUSH1 0x1 SWAP3 SWAP1 PUSH2 0x323D SWAP1 DUP5 SWAP1 PUSH2 0x3886 JUMP JUMPDEST SWAP1 SWAP2 SSTORE POP POP PUSH1 0x0 DUP2 DUP2 MSTORE PUSH1 0xC PUSH1 0x20 MSTORE PUSH1 0x40 DUP1 DUP3 KECCAK256 DUP1 SLOAD PUSH1 0x1 PUSH1 0x1 PUSH1 0xA0 SHL SUB NOT AND PUSH1 0x1 PUSH1 0x1 PUSH1 0xA0 SHL SUB DUP7 AND SWAP1 DUP2 OR SWAP1 SWAP2 SSTORE SWAP1 MLOAD DUP4 SWAP3 SWAP1 PUSH32 0xDDF252AD1BE2C89B69C2B068FC378DAA952BA7F163C4A11628F55A4DF523B3EF SWAP1 DUP3 SWAP1 LOG4 POP POP JUMP JUMPDEST PUSH1 0x0 PUSH1 0x20 DUP3 DUP5 SUB SLT ISZERO PUSH2 0x32AD JUMPI PUSH1 0x0 DUP1 REVERT JUMPDEST POP CALLDATALOAD SWAP2 SWAP1 POP JUMP JUMPDEST PUSH1 0x0 DUP2 MLOAD DUP1 DUP5 MSTORE PUSH1 0x0 JUMPDEST DUP2 DUP2 LT ISZERO PUSH2 0x32DA JUMPI PUSH1 0x20 DUP2 DUP6 ADD DUP2 ADD MLOAD DUP7 DUP4 ADD DUP3 ADD MSTORE ADD PUSH2 0x32BE JUMP JUMPDEST POP PUSH1 0x0 PUSH1 0x20 DUP3 DUP7 ADD ADD MSTORE PUSH1 0x20 PUSH1 0x1F NOT PUSH1 0x1F DUP4 ADD AND DUP6 ADD ADD SWAP2 POP POP SWAP3 SWAP2 POP POP JUMP JUMPDEST PUSH1 0x20 DUP2 MSTORE PUSH1 0x0 PUSH2 0x330D PUSH1 0x20 DUP4 ADD DUP5 PUSH2 0x32B4 JUMP JUMPDEST SWAP4 SWAP3 POP POP POP JUMP JUMPDEST PUSH1 0x0 DUP1 PUSH1 0x40 DUP4 DUP6 SUB SLT ISZERO PUSH2 0x3327 JUMPI PUSH1 0x0 DUP1 REVERT JUMPDEST POP POP DUP1 CALLDATALOAD SWAP3 PUSH1 0x20 SWAP1 SWAP2 ADD CALLDATALOAD SWAP2 POP JUMP JUMPDEST DUP1 CALLDATALOAD PUSH4 0xFFFFFFFF DUP2 AND DUP2 EQ PUSH2 0x334A JUMPI PUSH1 0x0 DUP1 REVERT JUMPDEST SWAP2 SWAP1 POP JUMP JUMPDEST PUSH4 0x4E487B71 PUSH1 0xE0 SHL PUSH1 0x0 MSTORE PUSH1 0x41 PUSH1 0x4 MSTORE PUSH1 0x24 PUSH1 0x0 REVERT JUMPDEST PUSH1 0x0 PUSH8 0xFFFFFFFFFFFFFFFF DUP1 DUP5 GT ISZERO PUSH2 0x3380 JUMPI PUSH2 0x3380 PUSH2 0x334F JUMP JUMPDEST PUSH1 0x40 MLOAD PUSH1 0x1F DUP6 ADD PUSH1 0x1F NOT SWAP1 DUP2 AND PUSH1 0x3F ADD AND DUP2 ADD SWAP1 DUP3 DUP3 GT DUP2 DUP4 LT OR ISZERO PUSH2 0x33A8 JUMPI PUSH2 0x33A8 PUSH2 0x334F JUMP JUMPDEST DUP2 PUSH1 0x40 MSTORE DUP1 SWAP4 POP DUP6 DUP2 MSTORE DUP7 DUP7 DUP7 ADD GT ISZERO PUSH2 0x33C1 JUMPI PUSH1 0x0 DUP1 REVERT JUMPDEST DUP6 DUP6 PUSH1 0x20 DUP4 ADD CALLDATACOPY PUSH1 0x0 PUSH1 0x20 DUP8 DUP4 ADD ADD MSTORE POP POP POP SWAP4 SWAP3 POP POP POP JUMP JUMPDEST PUSH1 0x0 DUP3 PUSH1 0x1F DUP4 ADD SLT PUSH2 0x33EC JUMPI PUSH1 0x0 DUP1 REVERT JUMPDEST PUSH2 0x330D DUP4 DUP4 CALLDATALOAD PUSH1 0x20 DUP6 ADD PUSH2 0x3365 JUMP JUMPDEST PUSH1 0x0 DUP1 PUSH1 0x40 DUP4 DUP6 SUB SLT ISZERO PUSH2 0x340E JUMPI PUSH1 0x0 DUP1 REVERT JUMPDEST PUSH2 0x3417 DUP4 PUSH2 0x3336 JUMP JUMPDEST SWAP2 POP PUSH1 0x20 DUP4 ADD CALLDATALOAD PUSH8 0xFFFFFFFFFFFFFFFF DUP2 GT ISZERO PUSH2 0x3433 JUMPI PUSH1 0x0 DUP1 REVERT JUMPDEST PUSH2 0x343F DUP6 DUP3 DUP7 ADD PUSH2 0x33DB JUMP JUMPDEST SWAP2 POP POP SWAP3 POP SWAP3 SWAP1 POP JUMP JUMPDEST PUSH1 0x0 DUP1 DUP4 PUSH1 0x1F DUP5 ADD SLT PUSH2 0x345B JUMPI PUSH1 0x0 DUP1 REVERT JUMPDEST POP DUP2 CALLDATALOAD PUSH8 0xFFFFFFFFFFFFFFFF DUP2 GT ISZERO PUSH2 0x3473 JUMPI PUSH1 0x0 DUP1 REVERT JUMPDEST PUSH1 0x20 DUP4 ADD SWAP2 POP DUP4 PUSH1 0x20 DUP3 DUP6 ADD ADD GT ISZERO PUSH2 0x348B JUMPI PUSH1 0x0 DUP1 REVERT JUMPDEST SWAP3 POP SWAP3 SWAP1 POP JUMP JUMPDEST PUSH1 0x0 DUP1 PUSH1 0x0 PUSH1 0x40 DUP5 DUP7 SUB SLT ISZERO PUSH2 0x34A7 JUMPI PUSH1 0x0 DUP1 REVERT JUMPDEST DUP4 CALLDATALOAD SWAP3 POP PUSH1 0x20 DUP5 ADD CALLDATALOAD PUSH8 0xFFFFFFFFFFFFFFFF DUP2 GT ISZERO PUSH2 0x34C5 JUMPI PUSH1 0x0 DUP1 REVERT JUMPDEST PUSH2 0x34D1 DUP7 DUP3 DUP8 ADD PUSH2 0x3449 JUMP JUMPDEST SWAP5 SWAP8 SWAP1 SWAP7 POP SWAP4 SWAP5 POP POP POP POP JUMP JUMPDEST PUSH1 0x0 DUP1 PUSH1 0x0 PUSH1 0x60 DUP5 DUP7 SUB SLT ISZERO PUSH2 0x34F3 JUMPI PUSH1 0x0 DUP1 REVERT JUMPDEST DUP4 CALLDATALOAD SWAP3 POP PUSH1 0x20 DUP5 ADD CALLDATALOAD SWAP2 POP PUSH1 0x40 DUP5 ADD CALLDATALOAD PUSH8 0xFFFFFFFFFFFFFFFF DUP2 GT ISZERO PUSH2 0x3518 JUMPI PUSH1 0x0 DUP1 REVERT JUMPDEST PUSH2 0x3524 DUP7 DUP3 DUP8 ADD PUSH2 0x33DB JUMP JUMPDEST SWAP2 POP POP SWAP3 POP SWAP3 POP SWAP3 JUMP JUMPDEST PUSH1 0x0 DUP1 PUSH1 0x0 DUP1 PUSH1 0x60 DUP6 DUP8 SUB SLT ISZERO PUSH2 0x3544 JUMPI PUSH1 0x0 DUP1 REVERT JUMPDEST DUP5 CALLDATALOAD SWAP4 POP PUSH1 0x20 DUP6 ADD CALLDATALOAD SWAP3 POP PUSH1 0x40 DUP6 ADD CALLDATALOAD PUSH8 0xFFFFFFFFFFFFFFFF DUP2 GT ISZERO PUSH2 0x3569 JUMPI PUSH1 0x0 DUP1 REVERT JUMPDEST PUSH2 0x3575 DUP8 DUP3 DUP9 ADD PUSH2 0x3449 JUMP JUMPDEST SWAP6 SWAP9 SWAP5 SWAP8 POP SWAP6 POP POP POP POP JUMP JUMPDEST PUSH1 0x0 DUP2 MLOAD DUP1 DUP5 MSTORE PUSH1 0x20 DUP1 DUP6 ADD DUP1 DUP2 SWAP7 POP DUP4 PUSH1 0x5 SHL DUP2 ADD SWAP2 POP DUP3 DUP7 ADD PUSH1 0x0 JUMPDEST DUP6 DUP2 LT ISZERO PUSH2 0x35C9 JUMPI DUP3 DUP5 SUB DUP10 MSTORE PUSH2 0x35B7 DUP5 DUP4 MLOAD PUSH2 0x32B4 JUMP JUMPDEST SWAP9 DUP6 ADD SWAP9 SWAP4 POP SWAP1 DUP5 ADD SWAP1 PUSH1 0x1 ADD PUSH2 0x359F JUMP JUMPDEST POP SWAP2 SWAP8 SWAP7 POP POP POP POP POP POP POP JUMP JUMPDEST PUSH1 0x20 DUP2 MSTORE PUSH1 0x0 PUSH2 0x330D PUSH1 0x20 DUP4 ADD DUP5 PUSH2 0x3581 JUMP JUMPDEST PUSH1 0x20 DUP2 MSTORE PUSH1 0x0 DUP3 MLOAD PUSH1 0x20 DUP1 DUP5 ADD MSTORE PUSH2 0x3604 PUSH1 0x40 DUP5 ADD DUP3 PUSH2 0x3581 JUMP JUMPDEST SWAP5 SWAP4 POP POP POP POP JUMP JUMPDEST DUP1 CALLDATALOAD PUSH1 0x1 PUSH1 0x1 PUSH1 0xA0 SHL SUB DUP2 AND DUP2 EQ PUSH2 0x334A JUMPI PUSH1 0x0 DUP1 REVERT JUMPDEST PUSH1 0x0 PUSH1 0x20 DUP3 DUP5 SUB SLT ISZERO PUSH2 0x3635 JUMPI PUSH1 0x0 DUP1 REVERT JUMPDEST PUSH2 0x330D DUP3 PUSH2 0x360C JUMP JUMPDEST PUSH1 0x0 DUP1 PUSH1 0x40 DUP4 DUP6 SUB SLT ISZERO PUSH2 0x3651 JUMPI PUSH1 0x0 DUP1 REVERT JUMPDEST DUP3 CALLDATALOAD SWAP2 POP PUSH2 0x3661 PUSH1 0x20 DUP5 ADD PUSH2 0x3336 JUMP JUMPDEST SWAP1 POP SWAP3 POP SWAP3 SWAP1 POP JUMP JUMPDEST PUSH1 0x0 DUP1 PUSH1 0x40 DUP4 DUP6 SUB SLT ISZERO PUSH2 0x367D JUMPI PUSH1 0x0 DUP1 REVERT JUMPDEST DUP3 CALLDATALOAD SWAP2 POP PUSH1 0x20 DUP4 ADD CALLDATALOAD PUSH8 0xFFFFFFFFFFFFFFFF DUP2 GT ISZERO PUSH2 0x3433 JUMPI PUSH1 0x0 DUP1 REVERT JUMPDEST PUSH1 0x0 PUSH1 0x20 DUP3 DUP5 SUB SLT ISZERO PUSH2 0x36AD JUMPI PUSH1 0x0 DUP1 REVERT JUMPDEST PUSH2 0x330D DUP3 PUSH2 0x3336 JUMP JUMPDEST PUSH1 0x0 DUP1 PUSH1 0x0 PUSH1 0x60 DUP5 DUP7 SUB SLT ISZERO PUSH2 0x36CB JUMPI PUSH1 0x0 DUP1 REVERT JUMPDEST PUSH2 0x36D4 DUP5 PUSH2 0x3336 JUMP JUMPDEST SWAP3 POP PUSH2 0x36E2 PUSH1 0x20 DUP6 ADD PUSH2 0x360C JUMP JUMPDEST SWAP2 POP PUSH1 0x40 DUP5 ADD CALLDATALOAD SWAP1 POP SWAP3 POP SWAP3 POP SWAP3 JUMP JUMPDEST PUSH1 0x0 DUP1 PUSH1 0x0 PUSH1 0x60 DUP5 DUP7 SUB SLT ISZERO PUSH2 0x3707 JUMPI PUSH1 0x0 DUP1 REVERT JUMPDEST DUP4 CALLDATALOAD PUSH8 0xFFFFFFFFFFFFFFFF DUP1 DUP3 GT ISZERO PUSH2 0x371F JUMPI PUSH1 0x0 DUP1 REVERT JUMPDEST PUSH2 0x372B DUP8 DUP4 DUP9 ADD PUSH2 0x33DB JUMP JUMPDEST SWAP5 POP PUSH1 0x20 DUP7 ADD CALLDATALOAD SWAP2 POP DUP1 DUP3 GT ISZERO PUSH2 0x3741 JUMPI PUSH1 0x0 DUP1 REVERT JUMPDEST POP PUSH2 0x374E DUP7 DUP3 DUP8 ADD PUSH2 0x33DB JUMP JUMPDEST SWAP3 POP POP PUSH1 0x40 DUP5 ADD CALLDATALOAD SWAP1 POP SWAP3 POP SWAP3 POP SWAP3 JUMP JUMPDEST PUSH1 0x0 DUP1 PUSH1 0x0 PUSH1 0x60 DUP5 DUP7 SUB SLT ISZERO PUSH2 0x3774 JUMPI PUSH1 0x0 DUP1 REVERT JUMPDEST PUSH2 0x377D DUP5 PUSH2 0x360C JUMP JUMPDEST SWAP3 POP PUSH1 0x20 DUP5 ADD CALLDATALOAD SWAP2 POP PUSH1 0x40 DUP5 ADD CALLDATALOAD PUSH8 0xFFFFFFFFFFFFFFFF DUP2 GT ISZERO PUSH2 0x37A0 JUMPI PUSH1 0x0 DUP1 REVERT JUMPDEST DUP5 ADD PUSH1 0x1F DUP2 ADD DUP7 SGT PUSH2 0x37B1 JUMPI PUSH1 0x0 DUP1 REVERT JUMPDEST PUSH2 0x3524 DUP7 DUP3 CALLDATALOAD PUSH1 0x20 DUP5 ADD PUSH2 0x3365 JUMP JUMPDEST PUSH1 0x0 DUP1 PUSH1 0x40 DUP4 DUP6 SUB SLT ISZERO PUSH2 0x37D3 JUMPI PUSH1 0x0 DUP1 REVERT JUMPDEST PUSH2 0x37DC DUP4 PUSH2 0x360C JUMP JUMPDEST SWAP5 PUSH1 0x20 SWAP4 SWAP1 SWAP4 ADD CALLDATALOAD SWAP4 POP POP POP JUMP JUMPDEST PUSH1 0x0 DUP1 PUSH1 0x40 DUP4 DUP6 SUB SLT ISZERO PUSH2 0x37FD JUMPI PUSH1 0x0 DUP1 REVERT JUMPDEST PUSH2 0x3806 DUP4 PUSH2 0x360C JUMP JUMPDEST SWAP2 POP PUSH1 0x20 DUP4 ADD CALLDATALOAD DUP1 ISZERO ISZERO DUP2 EQ PUSH2 0x381B JUMPI PUSH1 0x0 DUP1 REVERT JUMPDEST DUP1 SWAP2 POP POP SWAP3 POP SWAP3 SWAP1 POP JUMP JUMPDEST PUSH4 0x4E487B71 PUSH1 0xE0 SHL PUSH1 0x0 MSTORE PUSH1 0x32 PUSH1 0x4 MSTORE PUSH1 0x24 PUSH1 0x0 REVERT JUMPDEST PUSH1 0x1 DUP2 DUP2 SHR SWAP1 DUP3 AND DUP1 PUSH2 0x3850 JUMPI PUSH1 0x7F DUP3 AND SWAP2 POP JUMPDEST PUSH1 0x20 DUP3 LT DUP2 SUB PUSH2 0x1743 JUMPI PUSH4 0x4E487B71 PUSH1 0xE0 SHL PUSH1 0x0 MSTORE PUSH1 0x22 PUSH1 0x4 MSTORE PUSH1 0x24 PUSH1 0x0 REVERT JUMPDEST PUSH4 0x4E487B71 PUSH1 0xE0 SHL PUSH1 0x0 MSTORE PUSH1 0x11 PUSH1 0x4 MSTORE PUSH1 0x24 PUSH1 0x0 REVERT JUMPDEST DUP1 DUP3 ADD DUP1 DUP3 GT ISZERO PUSH2 0x1A12 JUMPI PUSH2 0x1A12 PUSH2 0x3870 JUMP JUMPDEST PUSH1 0x1F DUP3 GT ISZERO PUSH2 0xE92 JUMPI PUSH1 0x0 DUP2 DUP2 MSTORE PUSH1 0x20 DUP2 KECCAK256 PUSH1 0x1F DUP6 ADD PUSH1 0x5 SHR DUP2 ADD PUSH1 0x20 DUP7 LT ISZERO PUSH2 0x38C0 JUMPI POP DUP1 JUMPDEST PUSH1 0x1F DUP6 ADD PUSH1 0x5 SHR DUP3 ADD SWAP2 POP JUMPDEST DUP2 DUP2 LT ISZERO PUSH2 0x38DF JUMPI DUP3 DUP2 SSTORE PUSH1 0x1 ADD PUSH2 0x38CC JUMP JUMPDEST POP POP POP POP POP POP JUMP JUMPDEST DUP2 MLOAD PUSH8 0xFFFFFFFFFFFFFFFF DUP2 GT ISZERO PUSH2 0x3901 JUMPI PUSH2 0x3901 PUSH2 0x334F JUMP JUMPDEST PUSH2 0x3915 DUP2 PUSH2 0x390F DUP5 SLOAD PUSH2 0x383C JUMP JUMPDEST DUP5 PUSH2 0x3899 JUMP JUMPDEST PUSH1 0x20 DUP1 PUSH1 0x1F DUP4 GT PUSH1 0x1 DUP2 EQ PUSH2 0x394A JUMPI PUSH1 0x0 DUP5 ISZERO PUSH2 0x3932 JUMPI POP DUP6 DUP4 ADD MLOAD JUMPDEST PUSH1 0x0 NOT PUSH1 0x3 DUP7 SWAP1 SHL SHR NOT AND PUSH1 0x1 DUP6 SWAP1 SHL OR DUP6 SSTORE PUSH2 0x38DF JUMP JUMPDEST PUSH1 0x0 DUP6 DUP2 MSTORE PUSH1 0x20 DUP2 KECCAK256 PUSH1 0x1F NOT DUP7 AND SWAP2 JUMPDEST DUP3 DUP2 LT ISZERO PUSH2 0x3979 JUMPI DUP9 DUP7 ADD MLOAD DUP3 SSTORE SWAP5 DUP5 ADD SWAP5 PUSH1 0x1 SWAP1 SWAP2 ADD SWAP1 DUP5 ADD PUSH2 0x395A JUMP JUMPDEST POP DUP6 DUP3 LT ISZERO PUSH2 0x3997 JUMPI DUP8 DUP6 ADD MLOAD PUSH1 0x0 NOT PUSH1 0x3 DUP9 SWAP1 SHL PUSH1 0xF8 AND SHR NOT AND DUP2 SSTORE JUMPDEST POP POP POP POP POP PUSH1 0x1 SWAP1 DUP2 SHL ADD SWAP1 SSTORE POP JUMP JUMPDEST PUSH1 0x0 PUSH1 0x1 DUP3 ADD PUSH2 0x39B9 JUMPI PUSH2 0x39B9 PUSH2 0x3870 JUMP JUMPDEST POP PUSH1 0x1 ADD SWAP1 JUMP JUMPDEST PUSH8 0xFFFFFFFFFFFFFFFF DUP4 GT ISZERO PUSH2 0x39D8 JUMPI PUSH2 0x39D8 PUSH2 0x334F JUMP JUMPDEST PUSH2 0x39EC DUP4 PUSH2 0x39E6 DUP4 SLOAD PUSH2 0x383C JUMP JUMPDEST DUP4 PUSH2 0x3899 JUMP JUMPDEST PUSH1 0x0 PUSH1 0x1F DUP5 GT PUSH1 0x1 DUP2 EQ PUSH2 0x3A20 JUMPI PUSH1 0x0 DUP6 ISZERO PUSH2 0x3A08 JUMPI POP DUP4 DUP3 ADD CALLDATALOAD JUMPDEST PUSH1 0x0 NOT PUSH1 0x3 DUP8 SWAP1 SHL SHR NOT AND PUSH1 0x1 DUP7 SWAP1 SHL OR DUP4 SSTORE PUSH2 0x102C JUMP JUMPDEST PUSH1 0x0 DUP4 DUP2 MSTORE PUSH1 0x20 SWAP1 KECCAK256 PUSH1 0x1F NOT DUP7 AND SWAP1 DUP4 JUMPDEST DUP3 DUP2 LT ISZERO PUSH2 0x3A51 JUMPI DUP7 DUP6 ADD CALLDATALOAD DUP3 SSTORE PUSH1 0x20 SWAP5 DUP6 ADD SWAP5 PUSH1 0x1 SWAP1 SWAP3 ADD SWAP2 ADD PUSH2 0x3A31 JUMP JUMPDEST POP DUP7 DUP3 LT ISZERO PUSH2 0x3A6E JUMPI PUSH1 0x0 NOT PUSH1 0xF8 DUP9 PUSH1 0x3 SHL AND SHR NOT DUP5 DUP8 ADD CALLDATALOAD AND DUP2 SSTORE JUMPDEST POP POP PUSH1 0x1 DUP6 PUSH1 0x1 SHL ADD DUP4 SSTORE POP POP POP POP POP JUMP JUMPDEST DUP2 DUP2 SUB DUP2 DUP2 GT ISZERO PUSH2 0x1A12 JUMPI PUSH2 0x1A12 PUSH2 0x3870 JUMP JUMPDEST PUSH1 0x20 DUP2 MSTORE DUP2 PUSH1 0x20 DUP3 ADD MSTORE DUP2 DUP4 PUSH1 0x40 DUP4 ADD CALLDATACOPY PUSH1 0x0 DUP2 DUP4 ADD PUSH1 0x40 SWAP1 DUP2 ADD SWAP2 SWAP1 SWAP2 MSTORE PUSH1 0x1F SWAP1 SWAP3 ADD PUSH1 0x1F NOT AND ADD ADD SWAP2 SWAP1 POP JUMP JUMPDEST DUP1 DUP3 MUL DUP2 ISZERO DUP3 DUP3 DIV DUP5 EQ OR PUSH2 0x1A12 JUMPI PUSH2 0x1A12 PUSH2 0x3870 JUMP JUMPDEST PUSH1 0x0 DUP3 PUSH2 0x3AF6 JUMPI PUSH4 0x4E487B71 PUSH1 0xE0 SHL PUSH1 0x0 MSTORE PUSH1 0x12 PUSH1 0x4 MSTORE PUSH1 0x24 PUSH1 0x0 REVERT JUMPDEST POP DIV SWAP1 JUMP JUMPDEST PUSH1 0x0 PUSH1 0x1 PUSH1 0x1 PUSH1 0xA0 SHL SUB DUP1 DUP8 AND DUP4 MSTORE DUP1 DUP7 AND PUSH1 0x20 DUP5 ADD MSTORE POP DUP4 PUSH1 0x40 DUP4 ADD MSTORE PUSH1 0x80 PUSH1 0x60 DUP4 ADD MSTORE PUSH2 0x3B2D PUSH1 0x80 DUP4 ADD DUP5 PUSH2 0x32B4 JUMP JUMPDEST SWAP7 SWAP6 POP POP POP POP POP POP JUMP JUMPDEST PUSH1 0x0 PUSH1 0x20 DUP3 DUP5 SUB SLT ISZERO PUSH2 0x3B49 JUMPI PUSH1 0x0 DUP1 REVERT JUMPDEST DUP2 MLOAD PUSH32 0xFFFFFFFF00000000000000000000000000000000000000000000000000000000 DUP2 AND DUP2 EQ PUSH2 0x330D JUMPI PUSH1 0x0 DUP1 REVERT JUMPDEST PUSH4 0x4E487B71 PUSH1 0xE0 SHL PUSH1 0x0 MSTORE PUSH1 0x1 PUSH1 0x4 MSTORE PUSH1 0x24 PUSH1 0x0 REVERT INVALID MLOAD PUSH22 0x657269656420636C61737320646F6573206E6F742065 PUSH25 0x697374000000004F776E61626C653A2063616C6C6572206973 KECCAK256 PUSH15 0x6F7420746865206F776E6572A26469 PUSH17 0x667358221220CEFF48A745ED4BDF69B02F 0xCF SHL 0x4B 0x29 0x25 0xB5 DUP4 0xD3 0xA6 MSTORE ADDRESS 0xC7 0xCB 0xD3 0xDA 0xBA 0x2B 0xDC LT 0xB7 POP PUSH5 0x736F6C6343 STOP ADDMOD GT STOP CALLER "},"methodIdentifiers":{"addClassProperty(uint256)":"80483a6a","addClassPropertyWithContent(uint256,string)":"69a13712","addNewTokenClass(uint32,string)":"25498c75","addPropertyWithContent(uint256,string)":"290e008c","addTokenClassProperties(uint256,uint256)":"be671058","appendClassProperty(uint256,uint256,string)":"4774d93f","appendProperty(uint256,uint256,string)":"3add5fa1","balanceOf(address)":"70a08231","bidLock()":"91100695","bidOf(uint256)":"649ccc14","class_feeLevel(uint256)":"d75d1e66","class_properties(uint256,uint256)":"3e0bb783","feeLevels(uint32)":"74c29ce3","getClassForTokenID(uint256)":"543dc7fa","getClassProperties(uint256)":"e6470059","getClassPropertiesForTokenID(uint256)":"4bb2ddd4","getClassProperty(uint256,uint256)":"4c1720a4","getClassPropertyForTokenID(uint256,uint256)":"9de4792e","getTokenProperties(uint256)":"4edea111","getTokenProperty(uint256,uint256)":"7ab56e52","getUserContent(uint256)":"02ff368a","initialize(string,string,uint256)":"b119490e","mintWithClass(uint256)":"3c65b3eb","minter_role(address)":"510910bb","modifyClassFeeLevel(uint256,uint32)":"78317f3f","modifyClassProperty(uint256,uint256,string)":"3054d9cb","modifyProperty(uint256,uint256,string)":"bb053717","name()":"06fdde03","nextClassIndex()":"1d734c8f","next_mint_id()":"e29fb036","owner()":"8da5cb5b","ownerOf(uint256)":"6352211e","priceOf(uint256)":"b9186d7d","setBid(uint256,bytes)":"73baa651","setClassForTokenID(uint256,uint256)":"1f38e654","setFeeLevel(uint32,address,uint256)":"8e39e18c","setFeeLevelForToken(uint256,uint32)":"648fbe40","setMinterRole(address,bool)":"cb177b1e","setPrice(uint256,uint256,bytes)":"3d8073f1","setUserContent(uint256,string)":"2a6d3f44","silentTransfer(address,uint256)":"c98e0c3c","standard()":"5a3b7e42","symbol()":"95d89b41","tokenURI(uint256)":"c87b56dd","token_classes(uint256)":"c1940f1b","transfer(address,uint256,bytes)":"be45fd62","transferOwnership(address)":"f2fde38b","withdrawBid(uint256)":"0eaaf4c8"}}}}}