{
  "_format": "hh-sol-artifact-1",
  "contractName": "MuchaNFT",
  "sourceName": "contracts/Mucha.sol",
  "abi": [
    {
      "anonymous": false,
      "inputs": [
        {
          "indexed": true,
          "internalType": "uint256",
          "name": "tokenID",
          "type": "uint256"
        },
        {
          "indexed": true,
          "internalType": "uint256",
          "name": "bidAmount",
          "type": "uint256"
        },
        {
          "indexed": false,
          "internalType": "bytes",
          "name": "bidData",
          "type": "bytes"
        }
      ],
      "name": "NewBid",
      "type": "event"
    },
    {
      "anonymous": false,
      "inputs": [
        {
          "indexed": true,
          "internalType": "address",
          "name": "previousOwner",
          "type": "address"
        },
        {
          "indexed": true,
          "internalType": "address",
          "name": "newOwner",
          "type": "address"
        }
      ],
      "name": "OwnershipTransferred",
      "type": "event"
    },
    {
      "anonymous": false,
      "inputs": [
        {
          "indexed": false,
          "internalType": "address",
          "name": "minter",
          "type": "address"
        },
        {
          "indexed": false,
          "internalType": "bool",
          "name": "status",
          "type": "bool"
        }
      ],
      "name": "SetMinterRole",
      "type": "event"
    },
    {
      "anonymous": false,
      "inputs": [
        {
          "indexed": true,
          "internalType": "uint256",
          "name": "tokenID",
          "type": "uint256"
        },
        {
          "indexed": true,
          "internalType": "address",
          "name": "new_owner",
          "type": "address"
        },
        {
          "indexed": true,
          "internalType": "address",
          "name": "previous_owner",
          "type": "address"
        },
        {
          "indexed": false,
          "internalType": "uint256",
          "name": "priceInWEI",
          "type": "uint256"
        }
      ],
      "name": "TokenTrade",
      "type": "event"
    },
    {
      "anonymous": false,
      "inputs": [
        {
          "indexed": true,
          "internalType": "address",
          "name": "from",
          "type": "address"
        },
        {
          "indexed": true,
          "internalType": "address",
          "name": "to",
          "type": "address"
        },
        {
          "indexed": true,
          "internalType": "uint256",
          "name": "tokenId",
          "type": "uint256"
        }
      ],
      "name": "Transfer",
      "type": "event"
    },
    {
      "anonymous": false,
      "inputs": [
        {
          "indexed": false,
          "internalType": "bytes",
          "name": "data",
          "type": "bytes"
        }
      ],
      "name": "TransferData",
      "type": "event"
    },
    {
      "inputs": [
        {
          "internalType": "uint256",
          "name": "_classID",
          "type": "uint256"
        }
      ],
      "name": "addClassProperty",
      "outputs": [],
      "stateMutability": "nonpayable",
      "type": "function"
    },
    {
      "inputs": [
        {
          "internalType": "uint256",
          "name": "_classID",
          "type": "uint256"
        },
        {
          "internalType": "string",
          "name": "_property",
          "type": "string"
        }
      ],
      "name": "addClassPropertyWithContent",
      "outputs": [],
      "stateMutability": "nonpayable",
      "type": "function"
    },
    {
      "inputs": [
        {
          "internalType": "uint32",
          "name": "_feeLevel",
          "type": "uint32"
        },
        {
          "internalType": "string",
          "name": "_property",
          "type": "string"
        }
      ],
      "name": "addNewTokenClass",
      "outputs": [],
      "stateMutability": "nonpayable",
      "type": "function"
    },
    {
      "inputs": [
        {
          "internalType": "uint256",
          "name": "_tokenId",
          "type": "uint256"
        },
        {
          "internalType": "string",
          "name": "_content",
          "type": "string"
        }
      ],
      "name": "addPropertyWithContent",
      "outputs": [],
      "stateMutability": "nonpayable",
      "type": "function"
    },
    {
      "inputs": [
        {
          "internalType": "uint256",
          "name": "_propertiesCount",
          "type": "uint256"
        },
        {
          "internalType": "uint256",
          "name": "classId",
          "type": "uint256"
        }
      ],
      "name": "addTokenClassProperties",
      "outputs": [],
      "stateMutability": "nonpayable",
      "type": "function"
    },
    {
      "inputs": [
        {
          "internalType": "uint256",
          "name": "_classID",
          "type": "uint256"
        },
        {
          "internalType": "uint256",
          "name": "_propertyID",
          "type": "uint256"
        },
        {
          "internalType": "string",
          "name": "_content",
          "type": "string"
        }
      ],
      "name": "appendClassProperty",
      "outputs": [],
      "stateMutability": "nonpayable",
      "type": "function"
    },
    {
      "inputs": [
        {
          "internalType": "uint256",
          "name": "_tokenId",
          "type": "uint256"
        },
        {
          "internalType": "uint256",
          "name": "_propertyId",
          "type": "uint256"
        },
        {
          "internalType": "string",
          "name": "_content",
          "type": "string"
        }
      ],
      "name": "appendProperty",
      "outputs": [],
      "stateMutability": "nonpayable",
      "type": "function"
    },
    {
      "inputs": [
        {
          "internalType": "address",
          "name": "owner",
          "type": "address"
        }
      ],
      "name": "balanceOf",
      "outputs": [
        {
          "internalType": "uint256",
          "name": "",
          "type": "uint256"
        }
      ],
      "stateMutability": "view",
      "type": "function"
    },
    {
      "inputs": [],
      "name": "bidLock",
      "outputs": [
        {
          "internalType": "uint256",
          "name": "",
          "type": "uint256"
        }
      ],
      "stateMutability": "view",
      "type": "function"
    },
    {
      "inputs": [
        {
          "internalType": "uint256",
          "name": "_tokenId",
          "type": "uint256"
        }
      ],
      "name": "bidOf",
      "outputs": [
        {
          "internalType": "uint256",
          "name": "price",
          "type": "uint256"
        },
        {
          "internalType": "address payable",
          "name": "bidder",
          "type": "address"
        },
        {
          "internalType": "uint256",
          "name": "timestamp",
          "type": "uint256"
        }
      ],
      "stateMutability": "view",
      "type": "function"
    },
    {
      "inputs": [
        {
          "internalType": "uint256",
          "name": "",
          "type": "uint256"
        }
      ],
      "name": "class_feeLevel",
      "outputs": [
        {
          "internalType": "uint32",
          "name": "",
          "type": "uint32"
        }
      ],
      "stateMutability": "view",
      "type": "function"
    },
    {
      "inputs": [
        {
          "internalType": "uint256",
          "name": "",
          "type": "uint256"
        },
        {
          "internalType": "uint256",
          "name": "",
          "type": "uint256"
        }
      ],
      "name": "class_properties",
      "outputs": [
        {
          "internalType": "string",
          "name": "",
          "type": "string"
        }
      ],
      "stateMutability": "view",
      "type": "function"
    },
    {
      "inputs": [
        {
          "internalType": "uint32",
          "name": "",
          "type": "uint32"
        }
      ],
      "name": "feeLevels",
      "outputs": [
        {
          "internalType": "address payable",
          "name": "feeReceiver",
          "type": "address"
        },
        {
          "internalType": "uint256",
          "name": "feePercentage",
          "type": "uint256"
        }
      ],
      "stateMutability": "view",
      "type": "function"
    },
    {
      "inputs": [
        {
          "internalType": "uint256",
          "name": "_tokenID",
          "type": "uint256"
        }
      ],
      "name": "getClassForTokenID",
      "outputs": [
        {
          "internalType": "uint256",
          "name": "",
          "type": "uint256"
        }
      ],
      "stateMutability": "view",
      "type": "function"
    },
    {
      "inputs": [
        {
          "internalType": "uint256",
          "name": "_classID",
          "type": "uint256"
        }
      ],
      "name": "getClassProperties",
      "outputs": [
        {
          "internalType": "string[]",
          "name": "",
          "type": "string[]"
        }
      ],
      "stateMutability": "view",
      "type": "function"
    },
    {
      "inputs": [
        {
          "internalType": "uint256",
          "name": "_tokenID",
          "type": "uint256"
        }
      ],
      "name": "getClassPropertiesForTokenID",
      "outputs": [
        {
          "internalType": "string[]",
          "name": "",
          "type": "string[]"
        }
      ],
      "stateMutability": "view",
      "type": "function"
    },
    {
      "inputs": [
        {
          "internalType": "uint256",
          "name": "_classID",
          "type": "uint256"
        },
        {
          "internalType": "uint256",
          "name": "_propertyID",
          "type": "uint256"
        }
      ],
      "name": "getClassProperty",
      "outputs": [
        {
          "internalType": "string",
          "name": "",
          "type": "string"
        }
      ],
      "stateMutability": "view",
      "type": "function"
    },
    {
      "inputs": [
        {
          "internalType": "uint256",
          "name": "_tokenID",
          "type": "uint256"
        },
        {
          "internalType": "uint256",
          "name": "_propertyID",
          "type": "uint256"
        }
      ],
      "name": "getClassPropertyForTokenID",
      "outputs": [
        {
          "internalType": "string",
          "name": "",
          "type": "string"
        }
      ],
      "stateMutability": "view",
      "type": "function"
    },
    {
      "inputs": [
        {
          "internalType": "uint256",
          "name": "_tokenId",
          "type": "uint256"
        }
      ],
      "name": "getTokenProperties",
      "outputs": [
        {
          "components": [
            {
              "internalType": "string[]",
              "name": "properties",
              "type": "string[]"
            }
          ],
          "internalType": "struct ICallistoNFT.Properties",
          "name": "",
          "type": "tuple"
        }
      ],
      "stateMutability": "view",
      "type": "function"
    },
    {
      "inputs": [
        {
          "internalType": "uint256",
          "name": "_tokenId",
          "type": "uint256"
        },
        {
          "internalType": "uint256",
          "name": "_propertyId",
          "type": "uint256"
        }
      ],
      "name": "getTokenProperty",
      "outputs": [
        {
          "internalType": "string",
          "name": "",
          "type": "string"
        }
      ],
      "stateMutability": "view",
      "type": "function"
    },
    {
      "inputs": [
        {
          "internalType": "uint256",
          "name": "_tokenId",
          "type": "uint256"
        }
      ],
      "name": "getUserContent",
      "outputs": [
        {
          "internalType": "string",
          "name": "_content",
          "type": "string"
        }
      ],
      "stateMutability": "view",
      "type": "function"
    },
    {
      "inputs": [
        {
          "internalType": "string",
          "name": "name_",
          "type": "string"
        },
        {
          "internalType": "string",
          "name": "symbol_",
          "type": "string"
        },
        {
          "internalType": "uint256",
          "name": "_defaultFee",
          "type": "uint256"
        }
      ],
      "name": "initialize",
      "outputs": [],
      "stateMutability": "nonpayable",
      "type": "function"
    },
    {
      "inputs": [
        {
          "internalType": "uint256",
          "name": "classId",
          "type": "uint256"
        }
      ],
      "name": "mintWithClass",
      "outputs": [
        {
          "internalType": "uint256",
          "name": "_newTokenID",
          "type": "uint256"
        }
      ],
      "stateMutability": "nonpayable",
      "type": "function"
    },
    {
      "inputs": [
        {
          "internalType": "address",
          "name": "",
          "type": "address"
        }
      ],
      "name": "minter_role",
      "outputs": [
        {
          "internalType": "bool",
          "name": "",
          "type": "bool"
        }
      ],
      "stateMutability": "view",
      "type": "function"
    },
    {
      "inputs": [
        {
          "internalType": "uint256",
          "name": "_classId",
          "type": "uint256"
        },
        {
          "internalType": "uint32",
          "name": "_feeLevel",
          "type": "uint32"
        }
      ],
      "name": "modifyClassFeeLevel",
      "outputs": [],
      "stateMutability": "nonpayable",
      "type": "function"
    },
    {
      "inputs": [
        {
          "internalType": "uint256",
          "name": "_classID",
          "type": "uint256"
        },
        {
          "internalType": "uint256",
          "name": "_propertyID",
          "type": "uint256"
        },
        {
          "internalType": "string",
          "name": "_content",
          "type": "string"
        }
      ],
      "name": "modifyClassProperty",
      "outputs": [],
      "stateMutability": "nonpayable",
      "type": "function"
    },
    {
      "inputs": [
        {
          "internalType": "uint256",
          "name": "_tokenId",
          "type": "uint256"
        },
        {
          "internalType": "uint256",
          "name": "_propertyId",
          "type": "uint256"
        },
        {
          "internalType": "string",
          "name": "_content",
          "type": "string"
        }
      ],
      "name": "modifyProperty",
      "outputs": [],
      "stateMutability": "nonpayable",
      "type": "function"
    },
    {
      "inputs": [],
      "name": "name",
      "outputs": [
        {
          "internalType": "string",
          "name": "",
          "type": "string"
        }
      ],
      "stateMutability": "view",
      "type": "function"
    },
    {
      "inputs": [],
      "name": "nextClassIndex",
      "outputs": [
        {
          "internalType": "uint256",
          "name": "",
          "type": "uint256"
        }
      ],
      "stateMutability": "view",
      "type": "function"
    },
    {
      "inputs": [],
      "name": "next_mint_id",
      "outputs": [
        {
          "internalType": "uint256",
          "name": "",
          "type": "uint256"
        }
      ],
      "stateMutability": "view",
      "type": "function"
    },
    {
      "inputs": [],
      "name": "owner",
      "outputs": [
        {
          "internalType": "address",
          "name": "",
          "type": "address"
        }
      ],
      "stateMutability": "view",
      "type": "function"
    },
    {
      "inputs": [
        {
          "internalType": "uint256",
          "name": "tokenId",
          "type": "uint256"
        }
      ],
      "name": "ownerOf",
      "outputs": [
        {
          "internalType": "address",
          "name": "",
          "type": "address"
        }
      ],
      "stateMutability": "view",
      "type": "function"
    },
    {
      "inputs": [
        {
          "internalType": "uint256",
          "name": "_tokenId",
          "type": "uint256"
        }
      ],
      "name": "priceOf",
      "outputs": [
        {
          "internalType": "uint256",
          "name": "",
          "type": "uint256"
        }
      ],
      "stateMutability": "view",
      "type": "function"
    },
    {
      "inputs": [
        {
          "internalType": "uint256",
          "name": "_tokenId",
          "type": "uint256"
        },
        {
          "internalType": "bytes",
          "name": "_data",
          "type": "bytes"
        }
      ],
      "name": "setBid",
      "outputs": [],
      "stateMutability": "payable",
      "type": "function"
    },
    {
      "inputs": [
        {
          "internalType": "uint256",
          "name": "_tokenID",
          "type": "uint256"
        },
        {
          "internalType": "uint256",
          "name": "_tokenClass",
          "type": "uint256"
        }
      ],
      "name": "setClassForTokenID",
      "outputs": [],
      "stateMutability": "nonpayable",
      "type": "function"
    },
    {
      "inputs": [
        {
          "internalType": "uint32",
          "name": "_levelIndex",
          "type": "uint32"
        },
        {
          "internalType": "address",
          "name": "_feeReceiver",
          "type": "address"
        },
        {
          "internalType": "uint256",
          "name": "_feePercentage",
          "type": "uint256"
        }
      ],
      "name": "setFeeLevel",
      "outputs": [],
      "stateMutability": "nonpayable",
      "type": "function"
    },
    {
      "inputs": [
        {
          "internalType": "uint256",
          "name": "_tokenId",
          "type": "uint256"
        },
        {
          "internalType": "uint32",
          "name": "_feeLevel",
          "type": "uint32"
        }
      ],
      "name": "setFeeLevelForToken",
      "outputs": [],
      "stateMutability": "nonpayable",
      "type": "function"
    },
    {
      "inputs": [
        {
          "internalType": "address",
          "name": "_who",
          "type": "address"
        },
        {
          "internalType": "bool",
          "name": "_status",
          "type": "bool"
        }
      ],
      "name": "setMinterRole",
      "outputs": [],
      "stateMutability": "nonpayable",
      "type": "function"
    },
    {
      "inputs": [
        {
          "internalType": "uint256",
          "name": "_tokenId",
          "type": "uint256"
        },
        {
          "internalType": "uint256",
          "name": "_amountInWEI",
          "type": "uint256"
        },
        {
          "internalType": "bytes",
          "name": "_data",
          "type": "bytes"
        }
      ],
      "name": "setPrice",
      "outputs": [],
      "stateMutability": "nonpayable",
      "type": "function"
    },
    {
      "inputs": [
        {
          "internalType": "uint256",
          "name": "_tokenId",
          "type": "uint256"
        },
        {
          "internalType": "string",
          "name": "_content",
          "type": "string"
        }
      ],
      "name": "setUserContent",
      "outputs": [
        {
          "internalType": "bool",
          "name": "success",
          "type": "bool"
        }
      ],
      "stateMutability": "nonpayable",
      "type": "function"
    },
    {
      "inputs": [
        {
          "internalType": "address",
          "name": "_to",
          "type": "address"
        },
        {
          "internalType": "uint256",
          "name": "_tokenId",
          "type": "uint256"
        }
      ],
      "name": "silentTransfer",
      "outputs": [
        {
          "internalType": "bool",
          "name": "",
          "type": "bool"
        }
      ],
      "stateMutability": "nonpayable",
      "type": "function"
    },
    {
      "inputs": [],
      "name": "standard",
      "outputs": [
        {
          "internalType": "string",
          "name": "",
          "type": "string"
        }
      ],
      "stateMutability": "pure",
      "type": "function"
    },
    {
      "inputs": [],
      "name": "symbol",
      "outputs": [
        {
          "internalType": "string",
          "name": "",
          "type": "string"
        }
      ],
      "stateMutability": "view",
      "type": "function"
    },
    {
      "inputs": [
        {
          "internalType": "uint256",
          "name": "_tokenID",
          "type": "uint256"
        }
      ],
      "name": "tokenURI",
      "outputs": [
        {
          "internalType": "string",
          "name": "",
          "type": "string"
        }
      ],
      "stateMutability": "view",
      "type": "function"
    },
    {
      "inputs": [
        {
          "internalType": "uint256",
          "name": "",
          "type": "uint256"
        }
      ],
      "name": "token_classes",
      "outputs": [
        {
          "internalType": "uint256",
          "name": "",
          "type": "uint256"
        }
      ],
      "stateMutability": "view",
      "type": "function"
    },
    {
      "inputs": [
        {
          "internalType": "address",
          "name": "_to",
          "type": "address"
        },
        {
          "internalType": "uint256",
          "name": "_tokenId",
          "type": "uint256"
        },
        {
          "internalType": "bytes",
          "name": "_data",
          "type": "bytes"
        }
      ],
      "name": "transfer",
      "outputs": [
        {
          "internalType": "bool",
          "name": "",
          "type": "bool"
        }
      ],
      "stateMutability": "nonpayable",
      "type": "function"
    },
    {
      "inputs": [
        {
          "internalType": "address",
          "name": "newOwner",
          "type": "address"
        }
      ],
      "name": "transferOwnership",
      "outputs": [],
      "stateMutability": "nonpayable",
      "type": "function"
    },
    {
      "inputs": [
        {
          "internalType": "uint256",
          "name": "_tokenId",
          "type": "uint256"
        }
      ],
      "name": "withdrawBid",
      "outputs": [
        {
          "internalType": "bool",
          "name": "",
          "type": "bool"
        }
      ],
      "stateMutability": "nonpayable",
      "type": "function"
    }
  ],
  "bytecode": "0x608060405262015180600555600060115534801561001c57600080fd5b506001600255613c05806100316000396000f3fe6080604052600436106103135760003560e01c806370a082311161019a578063b9186d7d116100e1578063c98e0c3c1161008a578063e29fb03611610064578063e29fb036146109b4578063e6470059146109ca578063f2fde38b146109ea57600080fd5b8063c98e0c3c1461092c578063cb177b1e1461094c578063d75d1e661461096c57600080fd5b8063be671058116100bb578063be671058146108bf578063c1940f1b146108df578063c87b56dd1461090c57600080fd5b8063b9186d7d1461085f578063bb0537171461087f578063be45fd621461089f57600080fd5b80638da5cb5b1161014357806395d89b411161011d57806395d89b411461080a5780639de4792e1461081f578063b119490e1461083f57600080fd5b80638da5cb5b146107b65780638e39e18c146107d457806391100695146107f457600080fd5b806378317f3f1161017457806378317f3f146107565780637ab56e521461077657806380483a6a1461079657600080fd5b806370a08231146106c457806373baa651146106e457806374c29ce3146106f757600080fd5b80633e0bb7831161025e578063543dc7fa11610207578063648fbe40116101e1578063648fbe4014610641578063649ccc141461066157806369a13712146106a457600080fd5b8063543dc7fa146105a35780635a3b7e42146105c35780636352211e1461060957600080fd5b80634c1720a4116102385780634c1720a4146105265780634edea11114610546578063510910bb1461057357600080fd5b80633e0bb783146104b95780634774d93f146104d95780634bb2ddd4146104f957600080fd5b8063290e008c116102c05780633add5fa11161029a5780633add5fa1146104595780633c65b3eb146104795780633d8073f11461049957600080fd5b8063290e008c146103f95780632a6d3f44146104195780633054d9cb1461043957600080fd5b80631d734c8f116102f15780631d734c8f146103935780631f38e654146103b757806325498c75146103d957600080fd5b806302ff368a1461031857806306fdde031461034e5780630eaaf4c814610363575b600080fd5b34801561032457600080fd5b5061033861033336600461329b565b610a0a565b60405161034591906132fa565b60405180910390f35b34801561035a57600080fd5b50610338610ac4565b34801561036f57600080fd5b5061038361037e36600461329b565b610b56565b6040519015158152602001610345565b34801561039f57600080fd5b506103a960115481565b604051908152602001610345565b3480156103c357600080fd5b506103d76103d2366004613314565b610d0d565b005b3480156103e557600080fd5b506103d76103f43660046133fb565b610d67565b34801561040557600080fd5b506103d7610414366004613492565b610e16565b34801561042557600080fd5b50610383610434366004613492565b610e97565b34801561044557600080fd5b506103d76104543660046134de565b610f6b565b34801561046557600080fd5b506103d761047436600461352e565b611033565b34801561048557600080fd5b506103a961049436600461329b565b61108d565b3480156104a557600080fd5b506103d76104b436600461352e565b61117f565b3480156104c557600080fd5b506103386104d4366004613314565b6113e3565b3480156104e557600080fd5b506103d76104f43660046134de565b61149c565b34801561050557600080fd5b5061051961051436600461329b565b61160b565b60405161034591906135d6565b34801561053257600080fd5b50610338610541366004613314565b611749565b34801561055257600080fd5b5061056661056136600461329b565b611847565b60405161034591906135e9565b34801561057f57600080fd5b5061038361058e366004613623565b60016020526000908152604090205460ff1681565b3480156105af57600080fd5b506103a96105be36600461329b565b61193c565b3480156105cf57600080fd5b5060408051808201909152600b81527f43616c6c6973746f4e46540000000000000000000000000000000000000000006020820152610338565b34801561061557600080fd5b5061062961062436600461329b565b61199e565b6040516001600160a01b039091168152602001610345565b34801561064d57600080fd5b506103d761065c36600461363e565b611a18565b34801561066d57600080fd5b5061068161067c36600461329b565b611a88565b604080519384526001600160a01b03909216602084015290820152606001610345565b3480156106b057600080fd5b506103d76106bf36600461366a565b611b2f565b3480156106d057600080fd5b506103a96106df366004613623565b611bdf565b6103d76106f2366004613492565b611c79565b34801561070357600080fd5b5061073761071236600461369b565b600460205260009081526040902080546001909101546001600160a01b039091169082565b604080516001600160a01b039093168352602083019190915201610345565b34801561076257600080fd5b506103d761077136600461363e565b611fe3565b34801561078257600080fd5b50610338610791366004613314565b612053565b3480156107a257600080fd5b506103d76107b136600461329b565b612112565b3480156107c257600080fd5b506000546001600160a01b0316610629565b3480156107e057600080fd5b506103d76107ef3660046136b6565b6121d2565b34801561080057600080fd5b506103a960055481565b34801561081657600080fd5b50610338612255565b34801561082b57600080fd5b5061033861083a366004613314565b612264565b34801561084b57600080fd5b506103d761085a3660046136f2565b6122e3565b34801561086b57600080fd5b506103a961087a36600461329b565b6123fc565b34801561088b57600080fd5b506103d761089a36600461352e565b612484565b3480156108ab57600080fd5b506103836108ba36600461375f565b6124d8565b3480156108cb57600080fd5b506103d76108da366004613314565b612527565b3480156108eb57600080fd5b506103a96108fa36600461329b565b60106020526000908152604090205481565b34801561091857600080fd5b5061033861092736600461329b565b6125c5565b34801561093857600080fd5b506103836109473660046137c0565b6126de565b34801561095857600080fd5b506103d76109673660046137ea565b61286f565b34801561097857600080fd5b5061099f61098736600461329b565b600f6020526000908152604090205463ffffffff1681565b60405163ffffffff9091168152602001610345565b3480156109c057600080fd5b506103a960095481565b3480156109d657600080fd5b506105196109e536600461329b565b61291a565b3480156109f657600080fd5b506103d7610a05366004613623565b612a31565b6000818152600360205260408120805460609290610a2a57610a2a613826565b906000526020600020018054610a3f9061383c565b80601f0160208091040260200160405190810160405280929190818152602001828054610a6b9061383c565b8015610ab85780601f10610a8d57610100808354040283529160200191610ab8565b820191906000526020600020905b815481529060010190602001808311610a9b57829003601f168201915b50505050509050919050565b6060600a8054610ad39061383c565b80601f0160208091040260200160405190810160405280929190818152602001828054610aff9061383c565b8015610b4c5780601f10610b2157610100808354040283529160200191610b4c565b820191906000526020600020905b815481529060010190602001808311610b2f57829003601f168201915b5050505050905090565b60006002805403610bae5760405162461bcd60e51b815260206004820152601f60248201527f5265656e7472616e637947756172643a207265656e7472616e742063616c6c0060448201526064015b60405180910390fd5b6002805560008080610bbf85611a88565b91945092509050336001600160a01b03831614610c445760405162461bcd60e51b815260206004820152602260248201527f43616e206e6f7420776974686472617720736f6d656f6e6520656c736573206260448201527f69640000000000000000000000000000000000000000000000000000000000006064820152608401610ba5565b600554610c519082613886565b4211610c9f5760405162461bcd60e51b815260206004820152601260248201527f4269642069732074696d652d6c6f636b656400000000000000000000000000006044820152606401610ba5565b6040516001600160a01b0383169084156108fc029085906000818181858888f19350505050158015610cd5573d6000803e3d6000fd5b5050506000928352505060076020526040812080546001600160a01b0319168155600180820183905560029182019290925581905590565b6000546001600160a01b03163314610d555760405162461bcd60e51b81526020600482018190526024820152600080516020613bb08339815191526044820152606401610ba5565b60009182526010602052604090912055565b6000546001600160a01b03163314610daf5760405162461bcd60e51b81526020600482018190526024820152600080516020613bb08339815191526044820152606401610ba5565b6011546000908152600e6020908152604082208054600181018255908352912001610dda82826138e7565b50601180546000908152600f60205260408120805463ffffffff191663ffffffff861617905581549190610e0d836139a7565b91905055505050565b33610e296000546001600160a01b031690565b6001600160a01b03161480610e4d57503360009081526001602052604090205460ff165b610e875760405162461bcd60e51b81526020600482018190526024820152600080516020613bb08339815191526044820152606401610ba5565b610e92838383612b01565b505050565b6000610ea28461199e565b6001600160a01b0316336001600160a01b031614610f285760405162461bcd60e51b815260206004820152602660248201527f4e46543a206f6e6c79206f776e65722063616e206368616e6765204e4654206360448201527f6f6e74656e7400000000000000000000000000000000000000000000000000006064820152608401610ba5565b600084815260036020526040812080548592859291610f4957610f49613826565b906000526020600020019182610f609291906139c0565b506001949350505050565b6000546001600160a01b03163314610fb35760405162461bcd60e51b81526020600482018190526024820152600080516020613bb08339815191526044820152606401610ba5565b826011548110610ff35760405162461bcd60e51b815260206004820152601c6024820152600080516020613b908339815191526044820152606401610ba5565b6000848152600e6020526040902080548391908590811061101657611016613826565b90600052602060002001908161102c91906138e7565b5050505050565b6000546001600160a01b0316331461107b5760405162461bcd60e51b81526020600482018190526024820152600080516020613bb08339815191526044820152606401610ba5565b61108784848484612b2a565b50505050565b60008160115481106110cf5760405162461bcd60e51b815260206004820152601c6024820152600080516020613b908339815191526044820152606401610ba5565b3360009081526001602052604090205460ff1661112e5760405162461bcd60e51b815260206004820152601460248201527f4d696e74657220726f6c652072657175697265640000000000000000000000006044820152606401610ba5565b611136612ba3565b6000818152601060209081526040808320879055958252600f8152858220548383526008909152949020805463ffffffff191663ffffffff909516949094179093555090919050565b8382828080601f0160208091040260200160405190810160405280939291908181526020018383808284376000920191909152505060025460011901915061120b90505760405162461bcd60e51b815260206004820152601f60248201527f5265656e7472616e637947756172643a207265656e7472616e742063616c6c006044820152606401610ba5565b60028055336112198761199e565b6001600160a01b0316146112955760405162461bcd60e51b815260206004820152602c60248201527f53657474696e672061736b73206973206f6e6c7920616c6c6f77656420666f7260448201527f206f776e6564204e4654732100000000000000000000000000000000000000006064820152608401610ba5565b60008681526006602052604081208690556001600255806112b584611a88565b509150915060006112c5856123fc565b1180156112da5750816112d7856123fc565b11155b156113d95760006112eb8386612bd5565b6112f59084613a80565b90506113008561199e565b6001600160a01b0316826001600160a01b0316867fc9b9afd9684b23c6b22a41016c08e8954ac118220c0a52f00b8774c46580e9a38460405161134591815260200190565b60405180910390a46113568561199e565b6001600160a01b03166108fc829081150290604051600060405180830381858888f1935050505015801561138e573d6000803e3d6000fd5b50600085815260076020908152604080832080546001600160a01b03191681556001810184905560020183905560069091528120556113d76113cf8661199e565b838787612c68565b505b5050505050505050565b600e60205281600052604060002081815481106113ff57600080fd5b9060005260206000200160009150915050805461141b9061383c565b80601f01602080910402602001604051908101604052809291908181526020018280546114479061383c565b80156114945780601f1061146957610100808354040283529160200191611494565b820191906000526020600020905b81548152906001019060200180831161147757829003601f168201915b505050505081565b6000546001600160a01b031633146114e45760405162461bcd60e51b81526020600482018190526024820152600080516020613bb08339815191526044820152606401610ba5565b8260115481106115245760405162461bcd60e51b815260206004820152601c6024820152600080516020613b908339815191526044820152606401610ba5565b6000848152600e6020526040902080546115eb9184918690811061154a5761154a613826565b90600052602060002001805461155f9061383c565b80601f016020809104026020016040519081016040528092919081815260200182805461158b9061383c565b80156115d85780601f106115ad576101008083540402835291602001916115d8565b820191906000526020600020905b8154815290600101906020018083116115bb57829003601f168201915b5050505050612eb290919063ffffffff16565b6000858152600e6020526040902080548590811061101657611016613826565b60008181526010602052604090205460115460609190811061165d5760405162461bcd60e51b815260206004820152601c6024820152600080516020613b908339815191526044820152606401610ba5565b6000838152601060209081526040808320548352600e825280832080548251818502810185019093528083529193909284015b8282101561173c5783829060005260206000200180546116af9061383c565b80601f01602080910402602001604051908101604052809291908181526020018280546116db9061383c565b80156117285780601f106116fd57610100808354040283529160200191611728565b820191906000526020600020905b81548152906001019060200180831161170b57829003601f168201915b505050505081526020019060010190611690565b5050505091505b50919050565b606082601154811061178b5760405162461bcd60e51b815260206004820152601c6024820152600080516020613b908339815191526044820152606401610ba5565b6000848152600e602052604090208054849081106117ab576117ab613826565b9060005260206000200180546117c09061383c565b80601f01602080910402602001604051908101604052809291908181526020018280546117ec9061383c565b80156118395780601f1061180e57610100808354040283529160200191611839565b820191906000526020600020905b81548152906001019060200180831161181c57829003601f168201915b505050505091505092915050565b604080516020808201835260608252600084815260038252838120845181548085028201870187529381018481529495909491938593859285015b8282101561192e5783829060005260206000200180546118a19061383c565b80601f01602080910402602001604051908101604052809291908181526020018280546118cd9061383c565b801561191a5780601f106118ef5761010080835404028352916020019161191a565b820191906000526020600020905b8154815290600101906020018083116118fd57829003601f168201915b505050505081526020019060010190611882565b505050915250909392505050565b600081815260106020526040812054601154811061198a5760405162461bcd60e51b815260206004820152601c6024820152600080516020613b908339815191526044820152606401610ba5565b505060009081526010602052604090205490565b6000818152600c60205260408120546001600160a01b031680611a125760405162461bcd60e51b815260206004820152602660248201527f4e46543a206f776e657220717565727920666f72206e6f6e6578697374656e74604482015265103a37b5b2b760d11b6064820152608401610ba5565b92915050565b6000546001600160a01b03163314611a605760405162461bcd60e51b81526020600482018190526024820152600080516020613bb08339815191526044820152606401610ba5565b600091825260086020526040909120805463ffffffff191663ffffffff909216919091179055565b6000818152600c6020526040812054819081906001600160a01b031680611b005760405162461bcd60e51b815260206004820152602660248201527f4e46543a206f776e657220717565727920666f72206e6f6e6578697374656e74604482015265103a37b5b2b760d11b6064820152608401610ba5565b5050506000918252506007602052604090206001810154815460029092015490926001600160a01b0390921691565b6000546001600160a01b03163314611b775760405162461bcd60e51b81526020600482018190526024820152600080516020613bb08339815191526044820152606401610ba5565b816011548110611bb75760405162461bcd60e51b815260206004820152601c6024820152600080516020613b908339815191526044820152606401610ba5565b6000838152600e602090815260408220805460018101825590835291200161108783826138e7565b60006001600160a01b038216611c5d5760405162461bcd60e51b815260206004820152602760248201527f4e46543a2062616c616e636520717565727920666f7220746865207a65726f2060448201527f61646472657373000000000000000000000000000000000000000000000000006064820152608401610ba5565b506001600160a01b03166000908152600d602052604090205490565b8282828080601f01602080910402602001604051908101604052809392919081815260200183838082843760009201919091525050600254600119019150611d0590505760405162461bcd60e51b815260206004820152601f60248201527f5265656e7472616e637947756172643a207265656e7472616e742063616c6c006044820152606401610ba5565b60028055600080611d1587611a88565b5091509150813411611d8e5760405162461bcd60e51b8152602060048201526024808201527f4e657720626964206d7573742065786365656420746865206578697374696e6760448201527f206f6e65000000000000000000000000000000000000000000000000000000006064820152608401610ba5565b60008215611dce576040516001600160a01b0383169084156108fc029085906000818181858888f19350505050158015611dcc573d6000803e3d6000fd5b505b34611dd8896123fc565b1015611dee57611de7886123fc565b9050611df1565b50345b600088815260076020526040908190206001810183905580546001600160a01b031916331781554260029091015551819089907f223d0d5db4846341da7a5cc902b1a7c597e63b6c73b1c6267dc931d290c7affb90611e53908b908b90613a93565b60405180910390a334611e65896123fc565b1015611eac57336108fc611e788a6123fc565b611e829034613a80565b6040518115909202916000818181858888f19350505050158015611eaa573d6000803e3d6000fd5b505b5050600160025550600080611ec084611a88565b50915091506000611ed0856123fc565b118015611ee5575081611ee2856123fc565b11155b15611fda576000611ef68386612bd5565b611f009084613a80565b9050611f0b8561199e565b6001600160a01b0316826001600160a01b0316867fc9b9afd9684b23c6b22a41016c08e8954ac118220c0a52f00b8774c46580e9a384604051611f5091815260200190565b60405180910390a4611f618561199e565b6001600160a01b03166108fc829081150290604051600060405180830381858888f19350505050158015611f99573d6000803e3d6000fd5b50600085815260076020908152604080832080546001600160a01b03191681556001810184905560020183905560069091528120556113d96113cf8661199e565b50505050505050565b6000546001600160a01b0316331461202b5760405162461bcd60e51b81526020600482018190526024820152600080516020613bb08339815191526044820152606401610ba5565b6000918252600f6020526040909120805463ffffffff191663ffffffff909216919091179055565b60008281526003602052604090208054606091908390811061207757612077613826565b90600052602060002001805461208c9061383c565b80601f01602080910402602001604051908101604052809291908181526020018280546120b89061383c565b80156121055780601f106120da57610100808354040283529160200191612105565b820191906000526020600020905b8154815290600101906020018083116120e857829003601f168201915b5050505050905092915050565b6000546001600160a01b0316331461215a5760405162461bcd60e51b81526020600482018190526024820152600080516020613bb08339815191526044820152606401610ba5565b80601154811061219a5760405162461bcd60e51b815260206004820152601c6024820152600080516020613b908339815191526044820152606401610ba5565b6000828152600e602090815260408083208054600181018255908452828420825193840190925292825290910190610e9290826138e7565b6000546001600160a01b0316331461221a5760405162461bcd60e51b81526020600482018190526024820152600080516020613bb08339815191526044820152606401610ba5565b63ffffffff909216600090815260046020526040902080546001600160a01b039092166001600160a01b031990921691909117815560010155565b6060600b8054610ad39061383c565b6000828152601060205260409020546011546060919081106122b65760405162461bcd60e51b815260206004820152601c6024820152600080516020613b908339815191526044820152606401610ba5565b6000848152601060209081526040808320548352600e90915290208054849081106117ab576117ab613826565b6000546001600160a01b03161561233c5760405162461bcd60e51b815260206004820152601360248201527f416c726561647920696e697469616c697a6564000000000000000000000000006044820152606401610ba5565b600080546001600160a01b0319163390811782556040519091907f8be0079c531659141344cd1fd0a4f28419497f9722a3daafe3b4186f6b6457e0908290a362015180600555600a61238e84826138e7565b50600b61239b83826138e7565b506000805260046020527f17ef568e3e12ab5b9c7254a8d58478811de00f9e6eb34345acd53bf8fd09d3ec80546001600160a01b031916331790557f17ef568e3e12ab5b9c7254a8d58478811de00f9e6eb34345acd53bf8fd09d3ed555050565b6000818152600c60205260408120546001600160a01b0316806124705760405162461bcd60e51b815260206004820152602660248201527f4e46543a206f776e657220717565727920666f72206e6f6e6578697374656e74604482015265103a37b5b2b760d11b6064820152608401610ba5565b505060009081526006602052604090205490565b6000546001600160a01b031633146124cc5760405162461bcd60e51b81526020600482018190526024820152600080516020613bb08339815191526044820152606401610ba5565b61108784848484613073565b60006124e633858585612c68565b7f3ba9136826ac751de05d770d8d34fa4440ada49a5fb0e9aa1678aece66dad9768260405161251591906132fa565b60405180910390a15060019392505050565b6000546001600160a01b0316331461256f5760405162461bcd60e51b81526020600482018190526024820152600080516020613bb08339815191526044820152606401610ba5565b60005b82811015610e92576000828152600e6020908152604080832080546001810182559084528284208251938401909252928252909101906125b290826138e7565b50806125bd816139a7565b915050612572565b6000818152601060205260409020546011546060919081106126175760405162461bcd60e51b815260206004820152601c6024820152600080516020613b908339815191526044820152606401610ba5565b6000838152601060209081526040808320548352600e9091528120805490919061264357612643613826565b9060005260206000200180546126589061383c565b80601f01602080910402602001604051908101604052809291908181526020018280546126849061383c565b80156126d15780601f106126a6576101008083540402835291602001916126d1565b820191906000526020600020905b8154815290600101906020018083116126b457829003601f168201915b5050505050915050919050565b6000336126ea8361199e565b6001600160a01b03161461274f5760405162461bcd60e51b815260206004820152602660248201527f4e46543a207472616e73666572206f6620746f6b656e2074686174206973206e60448201526537ba1037bbb760d11b6064820152608401610ba5565b6001600160a01b0383166127af5760405162461bcd60e51b815260206004820152602160248201527f4e46543a207472616e7366657220746f20746865207a65726f206164647265736044820152607360f81b6064820152608401610ba5565b600082815260066020526040812055336000908152600d602052604081208054600192906127de908490613a80565b90915550506001600160a01b0383166000908152600d6020526040812080546001929061280c908490613886565b90915550506000828152600c602052604080822080546001600160a01b0319166001600160a01b0387169081179091559051849233917fddf252ad1be2c89b69c2b068fc378daa952ba7f163c4a11628f55a4df523b3ef9190a450600192915050565b6000546001600160a01b031633146128b75760405162461bcd60e51b81526020600482018190526024820152600080516020613bb08339815191526044820152606401610ba5565b6001600160a01b038216600081815260016020908152604091829020805460ff19168515159081179091558251938452908301527f6b0f890a293c8f56a7635ad061c90250965b8af8e8bdbeb56d434b97281a7462910160405180910390a15050565b606081601154811061295c5760405162461bcd60e51b815260206004820152601c6024820152600080516020613b908339815191526044820152606401610ba5565b6000838152600e6020908152604080832080548251818502810185019093528083529193909284015b8282101561173c5783829060005260206000200180546129a49061383c565b80601f01602080910402602001604051908101604052809291908181526020018280546129d09061383c565b8015612a1d5780601f106129f257610100808354040283529160200191612a1d565b820191906000526020600020905b815481529060010190602001808311612a0057829003601f168201915b505050505081526020019060010190612985565b6000546001600160a01b03163314612a795760405162461bcd60e51b81526020600482018190526024820152600080516020613bb08339815191526044820152606401610ba5565b6001600160a01b038116612af55760405162461bcd60e51b815260206004820152602660248201527f4f776e61626c653a206e6577206f776e657220697320746865207a65726f206160448201527f64647265737300000000000000000000000000000000000000000000000000006064820152608401610ba5565b612afe816130ae565b50565b6000838152600360209081526040822080546001810182559083529120016110878284836139c0565b612b8382828080601f016020809104026020016040519081016040528093929190818152602001838380828437600092018290525089815260036020526040902080549093508892508210905061154a5761154a613826565b600085815260036020526040902080548590811061101657611016613826565b6000612bb1336009546130fe565b50600980549081906000612bc4836139a7565b9190505550612bd28161310c565b90565b60008181526008602090815260408083205463ffffffff168084526004909252822080546001909101546001600160a01b039091169083620186a0612c1a8389613ac2565b612c249190613ad9565b6040519091506001600160a01b0384169082156108fc029083906000818181858888f19350505050158015612c5d573d6000803e3d6000fd5b509695505050505050565b836001600160a01b0316612c7b8361199e565b6001600160a01b031614612ce05760405162461bcd60e51b815260206004820152602660248201527f4e46543a207472616e73666572206f6620746f6b656e2074686174206973206e60448201526537ba1037bbb760d11b6064820152608401610ba5565b6001600160a01b038316612d405760405162461bcd60e51b815260206004820152602160248201527f4e46543a207472616e7366657220746f20746865207a65726f206164647265736044820152607360f81b6064820152608401610ba5565b6000828152600660205260408120556001600160a01b0384166000908152600d60205260408120805460019290612d78908490613a80565b90915550506001600160a01b0383166000908152600d60205260408120805460019290612da6908490613886565b90915550506000828152600c6020526040902080546001600160a01b0319166001600160a01b0385169081179091553b15612e6b576040517f150b7a020000000000000000000000000000000000000000000000000000000081526001600160a01b0384169063150b7a0290612e26903390889087908790600401613afb565b6020604051808303816000875af1158015612e45573d6000803e3d6000fd5b505050506040513d601f19601f82011682018060405250810190612e699190613b37565b505b81836001600160a01b0316856001600160a01b03167fddf252ad1be2c89b69c2b068fc378daa952ba7f163c4a11628f55a4df523b3ef60405160405180910390a450505050565b805160609083908390612ec757612ec7613b79565b600081518351612ed79190613886565b67ffffffffffffffff811115612eef57612eef61334f565b6040519080825280601f01601f191660200182016040528015612f19576020820181803683370190505b509050806000805b8551821015612fc157858281518110612f3c57612f3c613826565b01602001517fff00000000000000000000000000000000000000000000000000000000000000168382612f6e816139a7565b935081518110612f8057612f80613826565b60200101907effffffffffffffffffffffffffffffffffffffffffffffffffffffffffffff1916908160001a90535081612fb9816139a7565b925050612f21565b600091505b845182101561306657848281518110612fe157612fe1613826565b01602001517fff00000000000000000000000000000000000000000000000000000000000000168382613013816139a7565b93508151811061302557613025613826565b60200101907effffffffffffffffffffffffffffffffffffffffffffffffffffffffffffff1916908160001a9053508161305e816139a7565b925050612fc6565b5090979650505050505050565b60008481526003602052604090208054839183918690811061309757613097613826565b90600052602060002001918261102c9291906139c0565b600080546001600160a01b038381166001600160a01b0319831681178455604051919092169283917f8be0079c531659141344cd1fd0a4f28419497f9722a3daafe3b4186f6b6457e09190a35050565b6131088282613159565b5050565b6000818152600360205260408120549003612afe576000818152600360209081526040808320805460018101825590845282842082519384019092529282529091019061310890826138e7565b6001600160a01b0382166131af5760405162461bcd60e51b815260206004820152601d60248201527f4e46543a206d696e7420746f20746865207a65726f20616464726573730000006044820152606401610ba5565b6000818152600c60205260409020546001600160a01b0316156132145760405162461bcd60e51b815260206004820152601960248201527f4e46543a20746f6b656e20616c7265616479206d696e746564000000000000006044820152606401610ba5565b6001600160a01b0382166000908152600d6020526040812080546001929061323d908490613886565b90915550506000818152600c602052604080822080546001600160a01b0319166001600160a01b03861690811790915590518392907fddf252ad1be2c89b69c2b068fc378daa952ba7f163c4a11628f55a4df523b3ef908290a45050565b6000602082840312156132ad57600080fd5b5035919050565b6000815180845260005b818110156132da576020818501810151868301820152016132be565b506000602082860101526020601f19601f83011685010191505092915050565b60208152600061330d60208301846132b4565b9392505050565b6000806040838503121561332757600080fd5b50508035926020909101359150565b803563ffffffff8116811461334a57600080fd5b919050565b634e487b7160e01b600052604160045260246000fd5b600067ffffffffffffffff808411156133805761338061334f565b604051601f8501601f19908116603f011681019082821181831017156133a8576133a861334f565b816040528093508581528686860111156133c157600080fd5b858560208301376000602087830101525050509392505050565b600082601f8301126133ec57600080fd5b61330d83833560208501613365565b6000806040838503121561340e57600080fd5b61341783613336565b9150602083013567ffffffffffffffff81111561343357600080fd5b61343f858286016133db565b9150509250929050565b60008083601f84011261345b57600080fd5b50813567ffffffffffffffff81111561347357600080fd5b60208301915083602082850101111561348b57600080fd5b9250929050565b6000806000604084860312156134a757600080fd5b83359250602084013567ffffffffffffffff8111156134c557600080fd5b6134d186828701613449565b9497909650939450505050565b6000806000606084860312156134f357600080fd5b8335925060208401359150604084013567ffffffffffffffff81111561351857600080fd5b613524868287016133db565b9150509250925092565b6000806000806060858703121561354457600080fd5b8435935060208501359250604085013567ffffffffffffffff81111561356957600080fd5b61357587828801613449565b95989497509550505050565b600081518084526020808501808196508360051b8101915082860160005b858110156135c95782840389526135b78483516132b4565b9885019893509084019060010161359f565b5091979650505050505050565b60208152600061330d6020830184613581565b60208152600082516020808401526136046040840182613581565b949350505050565b80356001600160a01b038116811461334a57600080fd5b60006020828403121561363557600080fd5b61330d8261360c565b6000806040838503121561365157600080fd5b8235915061366160208401613336565b90509250929050565b6000806040838503121561367d57600080fd5b82359150602083013567ffffffffffffffff81111561343357600080fd5b6000602082840312156136ad57600080fd5b61330d82613336565b6000806000606084860312156136cb57600080fd5b6136d484613336565b92506136e26020850161360c565b9150604084013590509250925092565b60008060006060848603121561370757600080fd5b833567ffffffffffffffff8082111561371f57600080fd5b61372b878388016133db565b9450602086013591508082111561374157600080fd5b5061374e868287016133db565b925050604084013590509250925092565b60008060006060848603121561377457600080fd5b61377d8461360c565b925060208401359150604084013567ffffffffffffffff8111156137a057600080fd5b8401601f810186136137b157600080fd5b61352486823560208401613365565b600080604083850312156137d357600080fd5b6137dc8361360c565b946020939093013593505050565b600080604083850312156137fd57600080fd5b6138068361360c565b91506020830135801515811461381b57600080fd5b809150509250929050565b634e487b7160e01b600052603260045260246000fd5b600181811c9082168061385057607f821691505b60208210810361174357634e487b7160e01b600052602260045260246000fd5b634e487b7160e01b600052601160045260246000fd5b80820180821115611a1257611a12613870565b601f821115610e9257600081815260208120601f850160051c810160208610156138c05750805b601f850160051c820191505b818110156138df578281556001016138cc565b505050505050565b815167ffffffffffffffff8111156139015761390161334f565b6139158161390f845461383c565b84613899565b602080601f83116001811461394a57600084156139325750858301515b600019600386901b1c1916600185901b1785556138df565b600085815260208120601f198616915b828110156139795788860151825594840194600190910190840161395a565b50858210156139975787850151600019600388901b60f8161c191681555b5050505050600190811b01905550565b6000600182016139b9576139b9613870565b5060010190565b67ffffffffffffffff8311156139d8576139d861334f565b6139ec836139e6835461383c565b83613899565b6000601f841160018114613a205760008515613a085750838201355b600019600387901b1c1916600186901b17835561102c565b600083815260209020601f19861690835b82811015613a515786850135825560209485019460019092019101613a31565b5086821015613a6e5760001960f88860031b161c19848701351681555b505060018560011b0183555050505050565b81810381811115611a1257611a12613870565b60208152816020820152818360408301376000818301604090810191909152601f909201601f19160101919050565b8082028115828204841417611a1257611a12613870565b600082613af657634e487b7160e01b600052601260045260246000fd5b500490565b60006001600160a01b03808716835280861660208401525083604083015260806060830152613b2d60808301846132b4565b9695505050505050565b600060208284031215613b4957600080fd5b81517fffffffff000000000000000000000000000000000000000000000000000000008116811461330d57600080fd5b634e487b7160e01b600052600160045260246000fdfe5175657269656420636c61737320646f6573206e6f74206578697374000000004f776e61626c653a2063616c6c6572206973206e6f7420746865206f776e6572a2646970667358221220ceff48a745ed4bdf69b02fcf1b4b2925b583d3a65230c7cbd3daba2bdc10b75064736f6c63430008110033",
  "linkReferences": {},
  "deployedLinkReferences": {}
}